{
  "abi": [
    {
      "inputs": [
        {
          "internalType": "contract IVault",
          "name": "_vault",
          "type": "address"
        }
      ],
      "stateMutability": "nonpayable",
      "type": "constructor"
    },
    {
      "anonymous": false,
      "inputs": [
        {
          "indexed": false,
          "internalType": "uint256",
          "name": "newFlashLoanFeePercentage",
          "type": "uint256"
        }
      ],
      "name": "FlashLoanFeePercentageChanged",
      "type": "event"
    },
    {
      "anonymous": false,
      "inputs": [
        {
          "indexed": false,
          "internalType": "uint256",
          "name": "newSwapFeePercentage",
          "type": "uint256"
        }
      ],
      "name": "SwapFeePercentageChanged",
      "type": "event"
    },
    {
      "inputs": [
        {
          "internalType": "bytes4",
          "name": "selector",
          "type": "bytes4"
        }
      ],
      "name": "getActionId",
      "outputs": [
        {
          "internalType": "bytes32",
          "name": "",
          "type": "bytes32"
        }
      ],
      "stateMutability": "view",
      "type": "function"
    },
    {
      "inputs": [],
      "name": "getAuthorizer",
      "outputs": [
        {
          "internalType": "contract IAuthorizer",
          "name": "",
          "type": "address"
        }
      ],
      "stateMutability": "view",
      "type": "function"
    },
    {
      "inputs": [
        {
          "internalType": "contract IERC20[]",
          "name": "tokens",
          "type": "address[]"
        }
      ],
      "name": "getCollectedFeeAmounts",
      "outputs": [
        {
          "internalType": "uint256[]",
          "name": "feeAmounts",
          "type": "uint256[]"
        }
      ],
      "stateMutability": "view",
      "type": "function"
    },
    {
      "inputs": [],
      "name": "getFlashLoanFeePercentage",
      "outputs": [
        {
          "internalType": "uint256",
          "name": "",
          "type": "uint256"
        }
      ],
      "stateMutability": "view",
      "type": "function"
    },
    {
      "inputs": [],
      "name": "getSwapFeePercentage",
      "outputs": [
        {
          "internalType": "uint256",
          "name": "",
          "type": "uint256"
        }
      ],
      "stateMutability": "view",
      "type": "function"
    },
    {
      "inputs": [
        {
          "internalType": "uint256",
          "name": "newFlashLoanFeePercentage",
          "type": "uint256"
        }
      ],
      "name": "setFlashLoanFeePercentage",
      "outputs": [],
      "stateMutability": "nonpayable",
      "type": "function"
    },
    {
      "inputs": [
        {
          "internalType": "uint256",
          "name": "newSwapFeePercentage",
          "type": "uint256"
        }
      ],
      "name": "setSwapFeePercentage",
      "outputs": [],
      "stateMutability": "nonpayable",
      "type": "function"
    },
    {
      "inputs": [],
      "name": "vault",
      "outputs": [
        {
          "internalType": "contract IVault",
          "name": "",
          "type": "address"
        }
      ],
      "stateMutability": "view",
      "type": "function"
    },
    {
      "inputs": [
        {
          "internalType": "contract IERC20[]",
          "name": "tokens",
          "type": "address[]"
        },
        {
          "internalType": "uint256[]",
          "name": "amounts",
          "type": "uint256[]"
        },
        {
          "internalType": "address",
          "name": "recipient",
          "type": "address"
        }
      ],
      "name": "withdrawCollectedFees",
      "outputs": [],
      "stateMutability": "nonpayable",
      "type": "function"
    }
  ],
  "bytecode": {
    "object": "0x60c060405234801561001057600080fd5b50604051610ce3380380610ce383398101604081905261002f91610049565b3060805260016000556001600160a01b031660a052610079565b60006020828403121561005b57600080fd5b81516001600160a01b038116811461007257600080fd5b9392505050565b60805160a051610c3e6100a56000396000818161016701526105c3015260006102f10152610c3e6000f3fe608060405234801561001057600080fd5b50600436106100a35760003560e01c8063851c1bb311610076578063d877845c1161005b578063d877845c1461013a578063e42abf3514610142578063fbfa77cf1461016257600080fd5b8063851c1bb3146100fa578063aaabadc51461010d57600080fd5b806338e9922e146100a857806355c67628146100bd5780636b6b9f69146100d45780636daefab6146100e7575b600080fd5b6100bb6100b6366004610823565b610189565b005b6001545b6040519081526020015b60405180910390f35b6100bb6100e2366004610823565b6101e4565b6100bb6100f53660046108aa565b610237565b6100c161010836600461092e565b6102ed565b61011561036a565b60405173ffffffffffffffffffffffffffffffffffffffff90911681526020016100cb565b6002546100c1565b6101556101503660046109af565b610379565b6040516100cb9190610a92565b6101157f000000000000000000000000000000000000000000000000000000000000000081565b6101916104ac565b6101a86706f05b59d3b200008211156102586104f5565b60018190556040518181527fa9ba3ffe0b6c366b81232caab38605a0699ad5398d6cce76f91ee809e322dafc906020015b60405180910390a150565b6101ec6104ac565b610202662386f26fc100008211156102596104f5565b60028190556040518181527f5a0b7386237e7f07fa741efc64e59c9387d2cccafec760efed4d53387f20e19a906020016101d9565b61023f610507565b6102476104ac565b6102518483610520565b60005b848110156102db57600086868381811061027057610270610ad6565b90506020020160208101906102859190610b05565b9050600085858481811061029b5761029b610ad6565b602002919091013591506102c8905073ffffffffffffffffffffffffffffffffffffffff8316858361052d565b5050806102d490610b22565b9050610254565b506102e66001600055565b5050505050565b60007f00000000000000000000000000000000000000000000000000000000000000008260405160200161034d9291909182527fffffffff0000000000000000000000000000000000000000000000000000000016602082015260240190565b604051602081830303815290604052805190602001209050919050565b60006103746105bf565b905090565b6060815167ffffffffffffffff81111561039557610395610970565b6040519080825280602002602001820160405280156103be578160200160208202803683370190505b50905060005b82518110156104a6578281815181106103df576103df610ad6565b60209081029190910101516040517f70a0823100000000000000000000000000000000000000000000000000000000815230600482015273ffffffffffffffffffffffffffffffffffffffff909116906370a0823190602401602060405180830381865afa158015610455573d6000803e3d6000fd5b505050506040513d601f19601f820116820180604052508101906104799190610b81565b82828151811061048b5761048b610ad6565b602090810291909101015261049f81610b22565b90506103c4565b50919050565b60006104db6000357fffffffff00000000000000000000000000000000000000000000000000000000166102ed565b90506104f26104ea8233610650565b6101916104f5565b50565b816105035761050381610700565b5050565b610519600260005414156101906104f5565b6002600055565b61050381831460676104f5565b6040805173ffffffffffffffffffffffffffffffffffffffff8416602482015260448082018490528251808303909101815260649091019091526020810180517bffffffffffffffffffffffffffffffffffffffffffffffffffffffff167fa9059cbb000000000000000000000000000000000000000000000000000000001790526105ba908490610774565b505050565b60007f000000000000000000000000000000000000000000000000000000000000000073ffffffffffffffffffffffffffffffffffffffff1663aaabadc56040518163ffffffff1660e01b8152600401602060405180830381865afa15801561062c573d6000803e3d6000fd5b505050506040513d601f19601f820116820180604052508101906103749190610b9a565b600061065a6105bf565b6040517f9be2a8840000000000000000000000000000000000000000000000000000000081526004810185905273ffffffffffffffffffffffffffffffffffffffff84811660248301523060448301529190911690639be2a88490606401602060405180830381865afa1580156106d5573d6000803e3d6000fd5b505050506040513d601f19601f820116820180604052508101906106f99190610bb7565b9392505050565b6030600a820601600a820491506030600a830601600a830492506030600a8406018060101b8260081b8401016642414c230000000160c81b925050507f08c379a000000000000000000000000000000000000000000000000000000000600052602060045260076024528060445260646000fd5b6000808373ffffffffffffffffffffffffffffffffffffffff168360405161079c9190610bd9565b6000604051808303816000865af19150503d80600081146107d9576040519150601f19603f3d011682016040523d82523d6000602084013e6107de565b606091505b509092509050816107f3573d6000803e3d6000fd5b61081d8151600014806108155750818060200190518101906108159190610bb7565b6101a26104f5565b50505050565b60006020828403121561083557600080fd5b5035919050565b60008083601f84011261084e57600080fd5b50813567ffffffffffffffff81111561086657600080fd5b6020830191508360208260051b850101111561088157600080fd5b9250929050565b73ffffffffffffffffffffffffffffffffffffffff811681146104f257600080fd5b6000806000806000606086880312156108c257600080fd5b853567ffffffffffffffff808211156108da57600080fd5b6108e689838a0161083c565b909750955060208801359150808211156108ff57600080fd5b5061090c8882890161083c565b909450925050604086013561092081610888565b809150509295509295909350565b60006020828403121561094057600080fd5b81357fffffffff00000000000000000000000000000000000000000000000000000000811681146106f957600080fd5b7f4e487b7100000000000000000000000000000000000000000000000000000000600052604160045260246000fd5b80356109aa81610888565b919050565b600060208083850312156109c257600080fd5b823567ffffffffffffffff808211156109da57600080fd5b818501915085601f8301126109ee57600080fd5b813581811115610a0057610a00610970565b8060051b6040517fffffffffffffffffffffffffffffffffffffffffffffffffffffffffffffffe0603f83011681018181108582111715610a4357610a43610970565b604052918252848201925083810185019188831115610a6157600080fd5b938501935b82851015610a8657610a778561099f565b84529385019392850192610a66565b98975050505050505050565b6020808252825182820181905260009190848201906040850190845b81811015610aca57835183529284019291840191600101610aae565b50909695505050505050565b7f4e487b7100000000000000000000000000000000000000000000000000000000600052603260045260246000fd5b600060208284031215610b1757600080fd5b81356106f981610888565b60007fffffffffffffffffffffffffffffffffffffffffffffffffffffffffffffffff8203610b7a577f4e487b7100000000000000000000000000000000000000000000000000000000600052601160045260246000fd5b5060010190565b600060208284031215610b9357600080fd5b5051919050565b600060208284031215610bac57600080fd5b81516106f981610888565b600060208284031215610bc957600080fd5b815180151581146106f957600080fd5b6000825160005b81811015610bfa5760208186018101518583015201610be0565b50600092019182525091905056fea2646970667358221220913fccc5ab7c8e0e94a2c58fd46d096a7aafe1797f75060a689ad0384bab102f64736f6c63430008130033",
    "linkReferences": {}
  },
  "methodIdentifiers": {
    "getActionId(bytes4)": "851c1bb3",
    "getAuthorizer()": "aaabadc5",
    "getCollectedFeeAmounts(address[])": "e42abf35",
    "getFlashLoanFeePercentage()": "d877845c",
    "getSwapFeePercentage()": "55c67628",
    "setFlashLoanFeePercentage(uint256)": "6b6b9f69",
    "setSwapFeePercentage(uint256)": "38e9922e",
    "vault()": "fbfa77cf",
    "withdrawCollectedFees(address[],uint256[],address)": "6daefab6"
  },
  "id": 36
}