{
  "abi": [
    {
      "inputs": [
        {
          "internalType": "contract GPv2Authentication",
          "name": "authenticator_",
          "type": "address"
        },
        {
          "internalType": "contract IVault",
          "name": "vault_",
          "type": "address"
        }
      ],
      "stateMutability": "nonpayable",
      "type": "constructor"
    },
    {
      "anonymous": false,
      "inputs": [
        {
          "indexed": true,
          "internalType": "address",
          "name": "target",
          "type": "address"
        },
        {
          "indexed": false,
          "internalType": "uint256",
          "name": "value",
          "type": "uint256"
        },
        {
          "indexed": false,
          "internalType": "bytes4",
          "name": "selector",
          "type": "bytes4"
        }
      ],
      "name": "Interaction",
      "type": "event"
    },
    {
      "anonymous": false,
      "inputs": [
        {
          "indexed": true,
          "internalType": "address",
          "name": "owner",
          "type": "address"
        },
        {
          "indexed": false,
          "internalType": "bytes",
          "name": "orderUid",
          "type": "bytes"
        }
      ],
      "name": "OrderInvalidated",
      "type": "event"
    },
    {
      "anonymous": false,
      "inputs": [
        {
          "indexed": true,
          "internalType": "address",
          "name": "owner",
          "type": "address"
        },
        {
          "indexed": false,
          "internalType": "bytes",
          "name": "orderUid",
          "type": "bytes"
        },
        {
          "indexed": false,
          "internalType": "bool",
          "name": "signed",
          "type": "bool"
        }
      ],
      "name": "PreSignature",
      "type": "event"
    },
    {
      "anonymous": false,
      "inputs": [
        {
          "indexed": true,
          "internalType": "address",
          "name": "solver",
          "type": "address"
        }
      ],
      "name": "Settlement",
      "type": "event"
    },
    {
      "anonymous": false,
      "inputs": [
        {
          "indexed": true,
          "internalType": "address",
          "name": "owner",
          "type": "address"
        },
        {
          "indexed": false,
          "internalType": "contract IERC20",
          "name": "sellToken",
          "type": "address"
        },
        {
          "indexed": false,
          "internalType": "contract IERC20",
          "name": "buyToken",
          "type": "address"
        },
        {
          "indexed": false,
          "internalType": "uint256",
          "name": "sellAmount",
          "type": "uint256"
        },
        {
          "indexed": false,
          "internalType": "uint256",
          "name": "buyAmount",
          "type": "uint256"
        },
        {
          "indexed": false,
          "internalType": "uint256",
          "name": "feeAmount",
          "type": "uint256"
        },
        {
          "indexed": false,
          "internalType": "bytes",
          "name": "orderUid",
          "type": "bytes"
        }
      ],
      "name": "Trade",
      "type": "event"
    },
    {
      "inputs": [],
      "name": "authenticator",
      "outputs": [
        {
          "internalType": "contract GPv2Authentication",
          "name": "",
          "type": "address"
        }
      ],
      "stateMutability": "view",
      "type": "function"
    },
    {
      "inputs": [],
      "name": "domainSeparator",
      "outputs": [
        {
          "internalType": "bytes32",
          "name": "",
          "type": "bytes32"
        }
      ],
      "stateMutability": "view",
      "type": "function"
    },
    {
      "inputs": [
        {
          "internalType": "bytes",
          "name": "",
          "type": "bytes"
        }
      ],
      "name": "filledAmount",
      "outputs": [
        {
          "internalType": "uint256",
          "name": "",
          "type": "uint256"
        }
      ],
      "stateMutability": "view",
      "type": "function"
    },
    {
      "inputs": [
        {
          "internalType": "bytes[]",
          "name": "orderUids",
          "type": "bytes[]"
        }
      ],
      "name": "freeFilledAmountStorage",
      "outputs": [],
      "stateMutability": "nonpayable",
      "type": "function"
    },
    {
      "inputs": [
        {
          "internalType": "bytes[]",
          "name": "orderUids",
          "type": "bytes[]"
        }
      ],
      "name": "freePreSignatureStorage",
      "outputs": [],
      "stateMutability": "nonpayable",
      "type": "function"
    },
    {
      "inputs": [
        {
          "internalType": "uint256",
          "name": "offset",
          "type": "uint256"
        },
        {
          "internalType": "uint256",
          "name": "length",
          "type": "uint256"
        }
      ],
      "name": "getStorageAt",
      "outputs": [
        {
          "internalType": "bytes",
          "name": "",
          "type": "bytes"
        }
      ],
      "stateMutability": "view",
      "type": "function"
    },
    {
      "inputs": [
        {
          "internalType": "bytes",
          "name": "orderUid",
          "type": "bytes"
        }
      ],
      "name": "invalidateOrder",
      "outputs": [],
      "stateMutability": "nonpayable",
      "type": "function"
    },
    {
      "inputs": [
        {
          "internalType": "bytes",
          "name": "",
          "type": "bytes"
        }
      ],
      "name": "preSignature",
      "outputs": [
        {
          "internalType": "uint256",
          "name": "",
          "type": "uint256"
        }
      ],
      "stateMutability": "view",
      "type": "function"
    },
    {
      "inputs": [
        {
          "internalType": "bytes",
          "name": "orderUid",
          "type": "bytes"
        },
        {
          "internalType": "bool",
          "name": "signed",
          "type": "bool"
        }
      ],
      "name": "setPreSignature",
      "outputs": [],
      "stateMutability": "nonpayable",
      "type": "function"
    },
    {
      "inputs": [
        {
          "internalType": "contract IERC20[]",
          "name": "tokens",
          "type": "address[]"
        },
        {
          "internalType": "uint256[]",
          "name": "clearingPrices",
          "type": "uint256[]"
        },
        {
          "components": [
            {
              "internalType": "uint256",
              "name": "sellTokenIndex",
              "type": "uint256"
            },
            {
              "internalType": "uint256",
              "name": "buyTokenIndex",
              "type": "uint256"
            },
            {
              "internalType": "address",
              "name": "receiver",
              "type": "address"
            },
            {
              "internalType": "uint256",
              "name": "sellAmount",
              "type": "uint256"
            },
            {
              "internalType": "uint256",
              "name": "buyAmount",
              "type": "uint256"
            },
            {
              "internalType": "uint32",
              "name": "validTo",
              "type": "uint32"
            },
            {
              "internalType": "bytes32",
              "name": "appData",
              "type": "bytes32"
            },
            {
              "internalType": "uint256",
              "name": "feeAmount",
              "type": "uint256"
            },
            {
              "internalType": "uint256",
              "name": "flags",
              "type": "uint256"
            },
            {
              "internalType": "uint256",
              "name": "executedAmount",
              "type": "uint256"
            },
            {
              "internalType": "bytes",
              "name": "signature",
              "type": "bytes"
            }
          ],
          "internalType": "struct GPv2Trade.Data[]",
          "name": "trades",
          "type": "tuple[]"
        },
        {
          "components": [
            {
              "internalType": "address",
              "name": "target",
              "type": "address"
            },
            {
              "internalType": "uint256",
              "name": "value",
              "type": "uint256"
            },
            {
              "internalType": "bytes",
              "name": "callData",
              "type": "bytes"
            }
          ],
          "internalType": "struct GPv2Interaction.Data[][3]",
          "name": "interactions",
          "type": "tuple[][3]"
        }
      ],
      "name": "settle",
      "outputs": [],
      "stateMutability": "nonpayable",
      "type": "function"
    },
    {
      "inputs": [
        {
          "internalType": "address",
          "name": "targetContract",
          "type": "address"
        },
        {
          "internalType": "bytes",
          "name": "calldataPayload",
          "type": "bytes"
        }
      ],
      "name": "simulateDelegatecall",
      "outputs": [
        {
          "internalType": "bytes",
          "name": "response",
          "type": "bytes"
        }
      ],
      "stateMutability": "nonpayable",
      "type": "function"
    },
    {
      "inputs": [
        {
          "internalType": "address",
          "name": "targetContract",
          "type": "address"
        },
        {
          "internalType": "bytes",
          "name": "calldataPayload",
          "type": "bytes"
        }
      ],
      "name": "simulateDelegatecallInternal",
      "outputs": [
        {
          "internalType": "bytes",
          "name": "response",
          "type": "bytes"
        }
      ],
      "stateMutability": "nonpayable",
      "type": "function"
    },
    {
      "inputs": [
        {
          "components": [
            {
              "internalType": "bytes32",
              "name": "poolId",
              "type": "bytes32"
            },
            {
              "internalType": "uint256",
              "name": "assetInIndex",
              "type": "uint256"
            },
            {
              "internalType": "uint256",
              "name": "assetOutIndex",
              "type": "uint256"
            },
            {
              "internalType": "uint256",
              "name": "amount",
              "type": "uint256"
            },
            {
              "internalType": "bytes",
              "name": "userData",
              "type": "bytes"
            }
          ],
          "internalType": "struct IVault.BatchSwapStep[]",
          "name": "swaps",
          "type": "tuple[]"
        },
        {
          "internalType": "contract IERC20[]",
          "name": "tokens",
          "type": "address[]"
        },
        {
          "components": [
            {
              "internalType": "uint256",
              "name": "sellTokenIndex",
              "type": "uint256"
            },
            {
              "internalType": "uint256",
              "name": "buyTokenIndex",
              "type": "uint256"
            },
            {
              "internalType": "address",
              "name": "receiver",
              "type": "address"
            },
            {
              "internalType": "uint256",
              "name": "sellAmount",
              "type": "uint256"
            },
            {
              "internalType": "uint256",
              "name": "buyAmount",
              "type": "uint256"
            },
            {
              "internalType": "uint32",
              "name": "validTo",
              "type": "uint32"
            },
            {
              "internalType": "bytes32",
              "name": "appData",
              "type": "bytes32"
            },
            {
              "internalType": "uint256",
              "name": "feeAmount",
              "type": "uint256"
            },
            {
              "internalType": "uint256",
              "name": "flags",
              "type": "uint256"
            },
            {
              "internalType": "uint256",
              "name": "executedAmount",
              "type": "uint256"
            },
            {
              "internalType": "bytes",
              "name": "signature",
              "type": "bytes"
            }
          ],
          "internalType": "struct GPv2Trade.Data",
          "name": "trade",
          "type": "tuple"
        }
      ],
      "name": "swap",
      "outputs": [],
      "stateMutability": "nonpayable",
      "type": "function"
    },
    {
      "inputs": [],
      "name": "vault",
      "outputs": [
        {
          "internalType": "contract IVault",
          "name": "",
          "type": "address"
        }
      ],
      "stateMutability": "view",
      "type": "function"
    },
    {
      "inputs": [],
      "name": "vaultRelayer",
      "outputs": [
        {
          "internalType": "contract GPv2VaultRelayer",
          "name": "",
          "type": "address"
        }
      ],
      "stateMutability": "view",
      "type": "function"
    },
    {
      "stateMutability": "payable",
      "type": "receive"
    }
  ],
  "bytecode": {
    "object": "0x6101006040523480156200001257600080fd5b50604051620053a8380380620053a883398101604081905262000035916200016a565b604080517f8b73c3c69bb8fe3d512ecc4cf759cc79239f7b179b0ffacaa9a75d522b39400f60208201527f6c85c0337eba1661327f94f3bf46c8a7f9311a563f4d5c948362567f5d8ed60c918101919091527ff9446b8e937d86f0bc87cac73923491692b123ca5f8761908494703758206adf606082015246608082018190523060a08301529060c00160408051601f19818403018152908290528051602090910120608052600180556001600160a01b0380851660a052831660c052829150620001009062000143565b6001600160a01b039091168152602001604051809103906000f0801580156200012d573d6000803e3d6000fd5b506001600160a01b031660e05250620001a99050565b6114958062003f1383390190565b6001600160a01b03811681146200016757600080fd5b50565b600080604083850312156200017e57600080fd5b82516200018b8162000151565b60208401519092506200019e8162000151565b809150509250929050565b60805160a05160c05160e051613cff620002146000396000818161025d0152818161056401528181610d7001526114a701526000818161037d01526105fb01526000818161014c01528181610429015261092401526000818161032901526124f80152613cff6000f3fe6080604052600436106100ec5760003560e01c80639b552cc21161008a578063ed9f35ce11610059578063ed9f35ce146102f7578063f698da2514610317578063f84436bd1461034b578063fbfa77cf1461036b57600080fd5b80639b552cc21461024b578063a2a7d51b1461027f578063d08d33d11461029f578063ec6cb13f146102d757600080fd5b80632479fb6e116100c65780632479fb6e1461019857806343218e19146101de5780635624b25b1461020b578063845a101f1461022b57600080fd5b806313d79a0b146100f857806315337bc01461011a5780632335c76b1461013a57600080fd5b366100f357005b600080fd5b34801561010457600080fd5b50610118610113366004612e7d565b61039f565b005b34801561012657600080fd5b50610118610135366004612f84565b610666565b34801561014657600080fd5b5061016e7f000000000000000000000000000000000000000000000000000000000000000081565b60405173ffffffffffffffffffffffffffffffffffffffff90911681526020015b60405180910390f35b3480156101a457600080fd5b506101d06101b33660046130d2565b805160208183018101805160028252928201919093012091525481565b60405190815260200161018f565b3480156101ea57600080fd5b506101fe6101f936600461312c565b610775565b60405161018f91906131ea565b34801561021757600080fd5b506101fe6102263660046131fd565b610817565b34801561023757600080fd5b5061011861024636600461321f565b61089f565b34801561025757600080fd5b5061016e7f000000000000000000000000000000000000000000000000000000000000000081565b34801561028b57600080fd5b5061011861029a3660046132bb565b6110e1565b3480156102ab57600080fd5b506101d06102ba3660046130d2565b805160208183018101805160008252928201919093012091525481565b3480156102e357600080fd5b506101186102f23660046132ff565b611140565b34801561030357600080fd5b506101186103123660046132bb565b611282565b34801561032357600080fd5b506101d07f000000000000000000000000000000000000000000000000000000000000000081565b34801561035757600080fd5b506101fe61036636600461312c565b6112dd565b34801561037757600080fd5b5061016e7f000000000000000000000000000000000000000000000000000000000000000081565b6002600154036103f65760405162461bcd60e51b815260206004820152601f60248201527f5265656e7472616e637947756172643a207265656e7472616e742063616c6c0060448201526064015b60405180910390fd5b60026001556040517f02cc250d0000000000000000000000000000000000000000000000000000000081523360048201527f000000000000000000000000000000000000000000000000000000000000000073ffffffffffffffffffffffffffffffffffffffff16906302cc250d90602401602060405180830381865afa158015610485573d6000803e3d6000fd5b505050506040513d601f19601f820116820180604052508101906104a99190613356565b6104f55760405162461bcd60e51b815260206004820152601260248201527f475076323a206e6f74206120736f6c766572000000000000000000000000000060448201526064016103ed565b6105118160005b60200281019061050c91906133a2565b61145e565b6000806105228989898989896115e3565b6040517f7d10d11f000000000000000000000000000000000000000000000000000000008152919350915073ffffffffffffffffffffffffffffffffffffffff7f00000000000000000000000000000000000000000000000000000000000000001690637d10d11f9061059990859060040161340a565b600060405180830381600087803b1580156105b357600080fd5b505af11580156105c7573d6000803e3d6000fd5b505050506105e1836001600381106104fc576104fc613373565b61062173ffffffffffffffffffffffffffffffffffffffff7f000000000000000000000000000000000000000000000000000000000000000016826117e2565b61062c8360026104fc565b60405133907f40338ce1a7c49204f0099533b1e9a7ee0a3d261f84974ab7af36105b8c4e9db490600090a250506001805550505050505050565b60006106728383611b26565b5091505073ffffffffffffffffffffffffffffffffffffffff811633146106db5760405162461bcd60e51b815260206004820152601f60248201527f475076323a2063616c6c657220646f6573206e6f74206f776e206f726465720060448201526064016103ed565b7fffffffffffffffffffffffffffffffffffffffffffffffffffffffffffffffff6002848460405161070e929190613493565b9081526020016040518091039020819055508073ffffffffffffffffffffffffffffffffffffffff167f875b6cb035bbd4ac6500fabc6d1e4ca5bdc58a3e2b424ccb5c24cdbebeb009a984846040516107689291906134ec565b60405180910390a2505050565b606060008373ffffffffffffffffffffffffffffffffffffffff168360405161079e9190613500565b600060405180830381855af49150503d80600081146107d9576040519150601f19603f3d011682016040523d82523d6000602084013e6107de565b606091505b50604051909350909150610810906107fc908490849060200161351c565b604051602081830303815290604052611b95565b5092915050565b60606000610826836020613573565b67ffffffffffffffff81111561083e5761083e612fc6565b6040519080825280601f01601f191660200182016040528015610868576020820181803683370190505b50905060005b8381101561089557848101546020808302840101528061088d8161358a565b91505061086e565b5090505b92915050565b6002600154036108f15760405162461bcd60e51b815260206004820152601f60248201527f5265656e7472616e637947756172643a207265656e7472616e742063616c6c0060448201526064016103ed565b60026001556040517f02cc250d0000000000000000000000000000000000000000000000000000000081523360048201527f000000000000000000000000000000000000000000000000000000000000000073ffffffffffffffffffffffffffffffffffffffff16906302cc250d90602401602060405180830381865afa158015610980573d6000803e3d6000fd5b505050506040513d601f19601f820116820180604052508101906109a49190613356565b6109f05760405162461bcd60e51b815260206004820152601260248201527f475076323a206e6f74206120736f6c766572000000000000000000000000000060448201526064016103ed565b60006109fa611b9d565b8051909150610a0b82868686611c43565b60007ff3b277728b3fee749481eb3e0b3b48980dbbab78658fc419025cb16eee34677582610100015114610a40576001610a43565b60005b604080516080810182526000808252602082018181528284018281526060808501848152958a015173ffffffffffffffffffffffffffffffffffffffff90811686526101408a01517f4ac99ace14ee0a5ef932dc609df0943ab7ac16b7583634612f8dc35a4289a6ce908114909452908a0151169052610160870151149092529192508667ffffffffffffffff811115610adf57610adf612fc6565b604051908082528060200260200182016040528015610b08578160200160208202803683370190505b50610100850151909150610120870135907f0c4d888d74c0118b6b7e14c1f4c4b767f24454879a703be6fda34e9111cb988b01610bfb578460800151811015610b935760405162461bcd60e51b815260206004820152601360248201527f475076323a206c696d697420746f6f206c6f770000000000000000000000000060448201526064016103ed565b610ba08560600151611ce1565b82886000013581518110610bb657610bb6613373565b602002602001018181525050610bcb81611ce1565b610bd4906135c2565b82886020013581518110610bea57610bea613373565b602002602001018181525050610cb3565b8460600151811115610c4f5760405162461bcd60e51b815260206004820152601460248201527f475076323a206c696d697420746f6f206869676800000000000000000000000060448201526064016103ed565b610c5881611ce1565b82886000013581518110610c6e57610c6e613373565b602002602001018181525050610c878560800151611ce1565b610c90906135c2565b82886020013581518110610ca657610ca6613373565b6020026020010181815250505b6040805160808101825260008082526020820181905291810182905260608101919091528660400151816000019073ffffffffffffffffffffffffffffffffffffffff16908173ffffffffffffffffffffffffffffffffffffffff16815250508560000151816020019073ffffffffffffffffffffffffffffffffffffffff16908173ffffffffffffffffffffffffffffffffffffffff16815250508560e0015181604001818152505085610140015181606001818152505060007f000000000000000000000000000000000000000000000000000000000000000073ffffffffffffffffffffffffffffffffffffffff16634817a286878f8f8f8f8b8b8f60a001518b6040518a63ffffffff1660e01b8152600401610ddb999897969594939291906136af565b6000604051808303816000875af1158015610dfa573d6000803e3d6000fd5b505050506040513d6000823e601f3d9081017fffffffffffffffffffffffffffffffffffffffffffffffffffffffffffffffe0168201604052610e4091908101906138d7565b90506000886020015190506000610e73838c6000013581518110610e6657610e66613373565b6020026020010151611d57565b90506000610ea6848d6020013581518110610e9057610e90613373565b6020026020010151610ea1906135c2565b611d57565b9050600283604051610eb89190613500565b908152602001604051809103902054600014610f165760405162461bcd60e51b815260206004820152601260248201527f475076323a206f726465722066696c6c6564000000000000000000000000000060448201526064016103ed565b7ff3b277728b3fee749481eb3e0b3b48980dbbab78658fc419025cb16eee3467758a610100015103610fbf5789606001518214610f955760405162461bcd60e51b815260206004820152601f60248201527f475076323a2073656c6c20616d6f756e74206e6f74207265737065637465640060448201526064016103ed565b8960600151600284604051610faa9190613500565b90815260405190819003602001902055611038565b896080015181146110125760405162461bcd60e51b815260206004820152601e60248201527f475076323a2062757920616d6f756e74206e6f7420726573706563746564000060448201526064016103ed565b89608001516002846040516110279190613500565b908152604051908190036020019020555b8a6040015173ffffffffffffffffffffffffffffffffffffffff167fa07a543ab8a018198e99ca0184c93fe9050a79400a0a723441f84de1d972cc178b600001518c6020015185858f60e00151896040516110989695949392919061397d565b60405180910390a260405133907f40338ce1a7c49204f0099533b1e9a7ee0a3d261f84974ab7af36105b8c4e9db490600090a25050600180555050505050505050505050505050565b3033146111305760405162461bcd60e51b815260206004820152601860248201527f475076323a206e6f7420616e20696e746572616374696f6e000000000000000060448201526064016103ed565b61113c60008383611da9565b5050565b600061114c8484611b26565b5091505073ffffffffffffffffffffffffffffffffffffffff811633146111b55760405162461bcd60e51b815260206004820152601a60248201527f475076323a2063616e6e6f74207072657369676e206f7264657200000000000060448201526064016103ed565b8115611206577ff59c009283ff87aa78203fc4d9c2df025ee851130fb69cc3e068941f6b5e2d6f60001c600085856040516111f1929190613493565b9081526040519081900360200190205561122a565b6000808585604051611219929190613493565b908152604051908190036020019020555b8073ffffffffffffffffffffffffffffffffffffffff167f01bf7c8b0ca55deecbea89d7e58295b7ffbf685fd0d96801034ba8c6ffe1c68d858585604051611274939291906139c8565b60405180910390a250505050565b3033146112d15760405162461bcd60e51b815260206004820152601860248201527f475076323a206e6f7420616e20696e746572616374696f6e000000000000000060448201526064016103ed565b61113c60028383611da9565b606060006343218e1960e01b84846040516024016112fc9291906139ee565b604080517fffffffffffffffffffffffffffffffffffffffffffffffffffffffffffffffe08184030181529181526020820180517bffffffffffffffffffffffffffffffffffffffffffffffffffffffff167fffffffff00000000000000000000000000000000000000000000000000000000909416939093179092529051909150309061138b908390613500565b6000604051808303816000865af19150503d80600081146113c8576040519150601f19603f3d011682016040523d82523d6000602084013e6113cd565b606091505b50905080925050600082600184516113e59190613a1d565b815181106113f5576113f5613373565b602001015160f81c60f81b7effffffffffffffffffffffffffffffffffffffffffffffffffffffffffffff1916600160f81b149050611440836001855161143c9190613a1d565b9052565b801561144d575050610899565b61145683611b95565b505092915050565b60005b818110156115de573683838381811061147c5761147c613373565b905060200281019061148e9190613a30565b905073ffffffffffffffffffffffffffffffffffffffff7f0000000000000000000000000000000000000000000000000000000000000000166114d46020830183613a64565b73ffffffffffffffffffffffffffffffffffffffff16036115375760405162461bcd60e51b815260206004820152601b60248201527f475076323a20666f7262696464656e20696e746572616374696f6e000000000060448201526064016103ed565b61154081611e7e565b61154d6020820182613a64565b73ffffffffffffffffffffffffffffffffffffffff167fed99827efb37016f2275f98c4bcf71c7551c75d59e9b450f79fa32e60be672c2826020013561159284611ece565b604080519283527fffffffff0000000000000000000000000000000000000000000000000000000090911660208301520160405180910390a250806115d68161358a565b915050611461565b505050565b60608060006115f0611b9d565b90508367ffffffffffffffff81111561160b5761160b612fc6565b60405190808252806020026020018201604052801561167b57816020015b6040805160808101825260008082526020808301829052928201819052606082015282527fffffffffffffffffffffffffffffffffffffffffffffffffffffffffffffffff9092019101816116295790505b5092508367ffffffffffffffff81111561169757611697612fc6565b60405190808252806020026020018201604052801561170757816020015b6040805160808101825260008082526020808301829052928201819052606082015282527fffffffffffffffffffffffffffffffffffffffffffffffffffffffffffffffff9092019101816116b55790505b50915060005b848110156117d5573686868381811061172857611728613373565b905060200281019061173a9190613a81565b9050611748838c8c84611c43565b6117c2838a8a843581811061175f5761175f613373565b905060200201358b8b856020013581811061177c5761177c613373565b9050602002013584610120013589878151811061179b5761179b613373565b60200260200101518988815181106117b5576117b5613373565b6020026020010151611ef8565b50806117cd8161358a565b91505061170d565b5050965096945050505050565b6000815167ffffffffffffffff8111156117fe576117fe612fc6565b60405190808252806020026020018201604052801561187557816020015b6040805160a0810182526000808252602080830182905292820181905260608201819052608082015282527fffffffffffffffffffffffffffffffffffffffffffffffffffffffffffffffff90920191018161181c5790505b5090506000805b8351811015611a9157600084828151811061189957611899613373565b6020026020010151905073eeeeeeeeeeeeeeeeeeeeeeeeeeeeeeeeeeeeeeee73ffffffffffffffffffffffffffffffffffffffff16816020015173ffffffffffffffffffffffffffffffffffffffff16036119b1577f4ac99ace14ee0a5ef932dc609df0943ab7ac16b7583634612f8dc35a4289a6ce8160600151036119615760405162461bcd60e51b815260206004820152601e60248201527f475076323a20756e737570706f7274656420696e7465726e616c20455448000060448201526064016103ed565b8051604080830151905173ffffffffffffffffffffffffffffffffffffffff9092169181156108fc0291906000818181858888f193505050501580156119ab573d6000803e3d6000fd5b50611a7e565b7f5a28e9363bb942b639270062aa6bb295f434bcdfc42c97267bf003f272060dc9816060015103611a0f57805160408201516020830151611a0a9273ffffffffffffffffffffffffffffffffffffffff9091169161229a565b611a7e565b60008484611a1c8161358a565b955081518110611a2e57611a2e613373565b602090810291909101810151600081528382015173ffffffffffffffffffffffffffffffffffffffff90811692820192909252604080850151908201523060608201528351909116608090910152505b5080611a898161358a565b91505061187c565b508015611b20578082526040517f0e8e3e8400000000000000000000000000000000000000000000000000000000815273ffffffffffffffffffffffffffffffffffffffff851690630e8e3e8490611aed908590600401613ab5565b600060405180830381600087803b158015611b0757600080fd5b505af1158015611b1b573d6000803e3d6000fd5b505050505b50505050565b6000808060388414611b7a5760405162461bcd60e51b815260206004820152601160248201527f475076323a20696e76616c69642075696400000000000000000000000000000060448201526064016103ed565b5050823593602084013560601c936034013560e01c92509050565b805160208201fd5b604080516102008101825260006080820181815260a0830182905260c0830182905260e08301829052610100830182905261012083018290526101408301829052610160830182905261018083018290526101a083018290526101c083018290526101e083018290528252606060208301819052928201819052918101919091526040805160388082526060820190925290602082018180368337505050602082015290565b83516000611c5383868685612353565b9050600080611c708484611c6b610140890189613b4e565b612481565b91509150611c9382828660a001518b602001516125b8909392919063ffffffff16565b73ffffffffffffffffffffffffffffffffffffffff81166040890152611cb9848261261b565b73ffffffffffffffffffffffffffffffffffffffff1660609098019790975250505050505050565b60007f7fffffffffffffffffffffffffffffffffffffffffffffffffffffffffffffff821115611d535760405162461bcd60e51b815260206004820152601960248201527f53616665436173743a20696e74323536206f766572666c6f770000000000000060448201526064016103ed565b5090565b600080821215611d535760405162461bcd60e51b815260206004820152601660248201527f53616665436173743a206e6f7420706f7369746976650000000000000000000060448201526064016103ed565b60005b81811015611b2057366000848484818110611dc957611dc9613373565b9050602002810190611ddb9190613b4e565b915091506000611deb8383611b26565b92505050428163ffffffff1610611e445760405162461bcd60e51b815260206004820152601760248201527f475076323a206f72646572207374696c6c2076616c696400000000000000000060448201526064016103ed565b6000878484604051611e57929190613493565b9081526040519081900360200190205550829150611e7690508161358a565b915050611dac565b6000611e8d6020830183613a64565b90506020820135366000611ea46040860186613b4e565b9150915060405181838237600080838387895af1611ec6573d6000803e3d6000fd5b505050505050565b60003681611edf6040850185613b4e565b909250905060048110611ef157813592505b5050919050565b8551602087015160a08201514263ffffffff9091161015611f5b5760405162461bcd60e51b815260206004820152601360248201527f475076323a206f7264657220657870697265640000000000000000000000000060448201526064016103ed565b6080820151611f6a908761264d565b6060830151611f79908961264d565b1015611fc75760405162461bcd60e51b815260206004820152601f60248201527f475076323a206c696d6974207072696365206e6f74207265737065637465640060448201526064016103ed565b6000806000807ff3b277728b3fee749481eb3e0b3b48980dbbab78658fc419025cb16eee346775866101000151036120dd57856101200151156120335788935061202c8660600151612026868960e0015161264d90919063ffffffff16565b906126cc565b9150612042565b856060015193508560e0015191505b6120568a612050868e61264d565b90612727565b92506120828460028760405161206c9190613500565b90815260405190819003602001902054906127a8565b905085606001518111156120d85760405162461bcd60e51b815260206004820152601260248201527f475076323a206f726465722066696c6c6564000000000000000000000000000060448201526064016103ed565b61219a565b856101200151156121115788925061210a8660800151612026858960e0015161264d90919063ffffffff16565b9150612120565b856080015192508560e0015191505b61212e8b612026858d61264d565b93506121448360028760405161206c9190613500565b9050856080015181111561219a5760405162461bcd60e51b815260206004820152601260248201527f475076323a206f726465722066696c6c6564000000000000000000000000000060448201526064016103ed565b6121a484836127a8565b9350806002866040516121b79190613500565b9081526020016040518091039020819055508b6040015173ffffffffffffffffffffffffffffffffffffffff167fa07a543ab8a018198e99ca0184c93fe9050a79400a0a723441f84de1d972cc17876000015188602001518787878b6040516122259695949392919061397d565b60405180910390a250506040808b015173ffffffffffffffffffffffffffffffffffffffff9081168852855181166020808a0191909152888301949094526101408601516060988901529a8701518b16865282850151909a169185019190915297830197909752610160015191015250505050565b6040517fa9059cbb0000000000000000000000000000000000000000000000000000000080825273ffffffffffffffffffffffffffffffffffffffff84166004830152602482018390529060008060448382895af16122fd573d6000803e3d6000fd5b5061230784612807565b611b205760405162461bcd60e51b815260206004820152601560248201527f475076323a206661696c6564207472616e73666572000000000000000000000060448201526064016103ed565b60008383863581811061236857612368613373565b905060200201602081019061237d9190613a64565b73ffffffffffffffffffffffffffffffffffffffff168252838360208701358181106123ab576123ab613373565b90506020020160208101906123c09190613a64565b73ffffffffffffffffffffffffffffffffffffffff1660208301526123eb6060860160408701613a64565b73ffffffffffffffffffffffffffffffffffffffff166040830152606080860135908301526080808601359083015261242a60c0860160a08701613bb3565b63ffffffff1660a083015260c0808601359083015260e080860135908301526124576101008601356128b8565b61016087019190915261014086019190915290151561012085015261010090930152509392505050565b7fffffffffffffffffffffffffffffffffffffffffffffffffffffffffffffffe0840180517fd5a25ba2e97094ad7d83dc28a6572da797d6b3e7fc6663bd93efb789fc17e48982526101a0822091526040517f190100000000000000000000000000000000000000000000000000000000000081527f0000000000000000000000000000000000000000000000000000000000000000600282015260228101919091526042902060008085600381111561253d5761253d6135fa565b036125545761254d828585612a21565b90506125af565b6001856003811115612568576125686135fa565b036125785761254d828585612a36565b600285600381111561258c5761258c6135fa565b0361259c5761254d828585612a9a565b6125ac8285858960a00151612bc5565b90505b94509492505050565b60388451146126095760405162461bcd60e51b815260206004820152601960248201527f475076323a2075696420627566666572206f766572666c6f770000000000000060448201526064016103ed565b60388401526034830152602090910152565b604082015160009073ffffffffffffffffffffffffffffffffffffffff16612644575080610899565b50506040015190565b60008260000361265f57506000610899565b600061266b8385613573565b9050826126788583613c08565b146126c55760405162461bcd60e51b815260206004820152601660248201527f536166654d6174683a206d756c206f766572666c6f770000000000000000000060448201526064016103ed565b9392505050565b600080821161271d5760405162461bcd60e51b815260206004820152601760248201527f536166654d6174683a206469766973696f6e206279203000000000000000000060448201526064016103ed565b6126c58284613c08565b60008082116127785760405162461bcd60e51b815260206004820152601f60248201527f536166654d6174683a206365696c696e67206469766973696f6e20627920300060448201526064016103ed565b6127828284613c1c565b1561278e576001612791565b60005b60ff1661279e8385613c08565b6126c59190613c30565b6000806127b58385613c30565b9050838110156126c55760405162461bcd60e51b815260206004820152601b60248201527f536166654d6174683a206164646974696f6e206f766572666c6f77000000000060448201526064016103ed565b600061282c565b62461bcd60e51b600052602060045280602452508060445260646000fd5b3d801561286b57602081146128a5576128667f475076323a206d616c666f726d6564207472616e7366657220726573756c7400601f61280e565b6128b2565b823b61289c5761289c7f475076323a206e6f74206120636f6e7472616374000000000000000000000000601461280e565b600191506128b2565b3d6000803e600051151591505b50919050565b6000806000806000856001166000036128f3577ff3b277728b3fee749481eb3e0b3b48980dbbab78658fc419025cb16eee3467759450612917565b7f6ed88e868af0a1983e3886d5f3e95a2fafbd6c3450bc229e27342283dc429ccc94505b600286161515935060088616600003612952577f5a28e9363bb942b639270062aa6bb295f434bcdfc42c97267bf003f272060dc992506129a9565b85600416600003612985577fabee3b73373acd583a130924aad6dc38cfdc44ba0555ba94ce2ff63980ea063292506129a9565b7f4ac99ace14ee0a5ef932dc609df0943ab7ac16b7583634612f8dc35a4289a6ce92505b856010166000036129dc577f5a28e9363bb942b639270062aa6bb295f434bcdfc42c97267bf003f272060dc99150612a00565b7f4ac99ace14ee0a5ef932dc609df0943ab7ac16b7583634612f8dc35a4289a6ce91505b600586901c6003811115612a1657612a166135fa565b905091939590929450565b6000612a2e848484612ce7565b949350505050565b6040517f19457468657265756d205369676e6564204d6573736167653a0a3332000000006020820152603c81018490526000908190605c01604051602081830303815290604052805190602001209050612a91818585612ce7565b95945050505050565b813560601c366000612aaf8460148188613c43565b6040517f1626ba7e0000000000000000000000000000000000000000000000000000000080825292945090925073ffffffffffffffffffffffffffffffffffffffff851690631626ba7e90612b0c908a9087908790600401613c6d565b602060405180830381865afa158015612b29573d6000803e3d6000fd5b505050506040513d601f19601f82011682018060405250810190612b4d9190613c87565b7fffffffff000000000000000000000000000000000000000000000000000000001614612bbc5760405162461bcd60e51b815260206004820152601f60248201527f475076323a20696e76616c69642065697031323731207369676e61747572650060448201526064016103ed565b50509392505050565b600060148314612c175760405162461bcd60e51b815260206004820152601c60248201527f475076323a206d616c666f726d6564207072657369676e61747572650000000060448201526064016103ed565b506040805160388082526060828101909352853590921c9160009190602082018180368337019050509050612c4e818784866125b8565b7ff59c009283ff87aa78203fc4d9c2df025ee851130fb69cc3e068941f6b5e2d6f60001c600082604051612c829190613500565b90815260200160405180910390205414612cde5760405162461bcd60e51b815260206004820152601960248201527f475076323a206f72646572206e6f74207072657369676e65640000000000000060448201526064016103ed565b50949350505050565b600060418214612d395760405162461bcd60e51b815260206004820152601f60248201527f475076323a206d616c666f726d6564206563647361207369676e61747572650060448201526064016103ed565b604080516000815260208082018084528790528583013560f81c92820183905285356060830181905290860135608083018190529092909160019060a0016020604051602081039080840390855afa158015612d99573d6000803e3d6000fd5b50506040517fffffffffffffffffffffffffffffffffffffffffffffffffffffffffffffffe0015194505073ffffffffffffffffffffffffffffffffffffffff8416612e275760405162461bcd60e51b815260206004820152601d60248201527f475076323a20696e76616c6964206563647361207369676e617475726500000060448201526064016103ed565b5050509392505050565b60008083601f840112612e4357600080fd5b50813567ffffffffffffffff811115612e5b57600080fd5b6020830191508360208260051b8501011115612e7657600080fd5b9250929050565b60008060008060008060006080888a031215612e9857600080fd5b873567ffffffffffffffff80821115612eb057600080fd5b612ebc8b838c01612e31565b909950975060208a0135915080821115612ed557600080fd5b612ee18b838c01612e31565b909750955060408a0135915080821115612efa57600080fd5b612f068b838c01612e31565b909550935060608a0135915080821115612f1f57600080fd5b508801606081018a1015612f3257600080fd5b8091505092959891949750929550565b60008083601f840112612f5457600080fd5b50813567ffffffffffffffff811115612f6c57600080fd5b602083019150836020828501011115612e7657600080fd5b60008060208385031215612f9757600080fd5b823567ffffffffffffffff811115612fae57600080fd5b612fba85828601612f42565b90969095509350505050565b7f4e487b7100000000000000000000000000000000000000000000000000000000600052604160045260246000fd5b604051601f82017fffffffffffffffffffffffffffffffffffffffffffffffffffffffffffffffe016810167ffffffffffffffff8111828210171561303c5761303c612fc6565b604052919050565b600082601f83011261305557600080fd5b813567ffffffffffffffff81111561306f5761306f612fc6565b6130a060207fffffffffffffffffffffffffffffffffffffffffffffffffffffffffffffffe0601f84011601612ff5565b8181528460208386010111156130b557600080fd5b816020850160208301376000918101602001919091529392505050565b6000602082840312156130e457600080fd5b813567ffffffffffffffff8111156130fb57600080fd5b612a2e84828501613044565b73ffffffffffffffffffffffffffffffffffffffff8116811461312957600080fd5b50565b6000806040838503121561313f57600080fd5b823561314a81613107565b9150602083013567ffffffffffffffff81111561316657600080fd5b61317285828601613044565b9150509250929050565b60005b8381101561319757818101518382015260200161317f565b50506000910152565b600081518084526131b881602086016020860161317c565b601f017fffffffffffffffffffffffffffffffffffffffffffffffffffffffffffffffe0169290920160200192915050565b6020815260006126c560208301846131a0565b6000806040838503121561321057600080fd5b50508035926020909101359150565b60008060008060006060868803121561323757600080fd5b853567ffffffffffffffff8082111561324f57600080fd5b61325b89838a01612e31565b9097509550602088013591508082111561327457600080fd5b61328089838a01612e31565b9095509350604088013591508082111561329957600080fd5b50860161016081890312156132ad57600080fd5b809150509295509295909350565b600080602083850312156132ce57600080fd5b823567ffffffffffffffff8111156132e557600080fd5b612fba85828601612e31565b801515811461312957600080fd5b60008060006040848603121561331457600080fd5b833567ffffffffffffffff81111561332b57600080fd5b61333786828701612f42565b909450925050602084013561334b816132f1565b809150509250925092565b60006020828403121561336857600080fd5b81516126c5816132f1565b7f4e487b7100000000000000000000000000000000000000000000000000000000600052603260045260246000fd5b60008083357fffffffffffffffffffffffffffffffffffffffffffffffffffffffffffffffe18436030181126133d757600080fd5b83018035915067ffffffffffffffff8211156133f257600080fd5b6020019150600581901b3603821315612e7657600080fd5b6020808252825182820181905260009190848201906040850190845b818110156134875761347483855173ffffffffffffffffffffffffffffffffffffffff8082511683528060208301511660208401525060408101516040830152606081015160608301525050565b9284019260809290920191600101613426565b50909695505050505050565b8183823760009101908152919050565b8183528181602085013750600060208284010152600060207fffffffffffffffffffffffffffffffffffffffffffffffffffffffffffffffe0601f840116840101905092915050565b602081526000612a2e6020830184866134a3565b6000825161351281846020870161317c565b9190910192915050565b6000835161352e81846020880161317c565b92151560f81b9190920190815260010192915050565b7f4e487b7100000000000000000000000000000000000000000000000000000000600052601160045260246000fd5b808202811582820484141761089957610899613544565b60007fffffffffffffffffffffffffffffffffffffffffffffffffffffffffffffffff82036135bb576135bb613544565b5060010190565b60007f800000000000000000000000000000000000000000000000000000000000000082036135f3576135f3613544565b5060000390565b7f4e487b7100000000000000000000000000000000000000000000000000000000600052602160045260246000fd5b8183526000602080850194508260005b8581101561367457813561364c81613107565b73ffffffffffffffffffffffffffffffffffffffff1687529582019590820190600101613639565b509495945050505050565b600081518084526020808501945080840160005b8381101561367457815187529582019590820190600101613693565b60006101a0820160028c106136c6576136c66135fa565b8b83526101a060208401528990526101c060058a901b830181019083018b60005b8c8110156137fb577ffffffffffffffffffffffffffffffffffffffffffffffffffffffffffffffe4086850301835281357fffffffffffffffffffffffffffffffffffffffffffffffffffffffffffffff618f360301811261374857600080fd5b8e810190508035855260208101356020860152604081013560408601526060810135606086015260808101357fffffffffffffffffffffffffffffffffffffffffffffffffffffffffffffffe18236030181126137a457600080fd5b0160208101903567ffffffffffffffff8111156137c057600080fd5b8036038213156137cf57600080fd5b60a060808701526137e460a0870182846134a3565b9550505060209283019291909101906001016136e7565b505050828103604084015261381181898b613629565b905061385f606084018873ffffffffffffffffffffffffffffffffffffffff808251168352602082015115156020840152806040830151166040840152506060810151151560608301525050565b82810360e0840152613871818761367f565b91505061388761010083018563ffffffff169052565b825173ffffffffffffffffffffffffffffffffffffffff908116610120840152602084015116610140830152604083015161016083015260608301516101808301529a9950505050505050505050565b600060208083850312156138ea57600080fd5b825167ffffffffffffffff8082111561390257600080fd5b818501915085601f83011261391657600080fd5b81518181111561392857613928612fc6565b8060051b9150613939848301612ff5565b818152918301840191848101908884111561395357600080fd5b938501935b8385101561397157845182529385019390850190613958565b98975050505050505050565b600073ffffffffffffffffffffffffffffffffffffffff808916835280881660208401525085604083015284606083015283608083015260c060a083015261397160c08301846131a0565b6040815260006139dc6040830185876134a3565b90508215156020830152949350505050565b73ffffffffffffffffffffffffffffffffffffffff83168152604060208201526000612a2e60408301846131a0565b8181038181111561089957610899613544565b600082357fffffffffffffffffffffffffffffffffffffffffffffffffffffffffffffffa183360301811261351257600080fd5b600060208284031215613a7657600080fd5b81356126c581613107565b600082357ffffffffffffffffffffffffffffffffffffffffffffffffffffffffffffffea183360301811261351257600080fd5b602080825282518282018190526000919060409081850190868401855b82811015613b41578151805160048110613aee57613aee6135fa565b85528087015173ffffffffffffffffffffffffffffffffffffffff908116888701528682015187870152606080830151821690870152608091820151169085015260a09093019290850190600101613ad2565b5091979650505050505050565b60008083357fffffffffffffffffffffffffffffffffffffffffffffffffffffffffffffffe1843603018112613b8357600080fd5b83018035915067ffffffffffffffff821115613b9e57600080fd5b602001915036819003821315612e7657600080fd5b600060208284031215613bc557600080fd5b813563ffffffff811681146126c557600080fd5b7f4e487b7100000000000000000000000000000000000000000000000000000000600052601260045260246000fd5b600082613c1757613c17613bd9565b500490565b600082613c2b57613c2b613bd9565b500690565b8082018082111561089957610899613544565b60008085851115613c5357600080fd5b83861115613c6057600080fd5b5050820193919092039150565b838152604060208201526000612a916040830184866134a3565b600060208284031215613c9957600080fd5b81517fffffffff00000000000000000000000000000000000000000000000000000000811681146126c557600080fdfea2646970667358221220216557c7a90738eb93ef69fbc9a64a14b855be6987abe6f1708cad92ac53d82b64736f6c6343000813003360c060405234801561001057600080fd5b5060405161149538038061149583398101604081905261002f91610044565b336080526001600160a01b031660a052610074565b60006020828403121561005657600080fd5b81516001600160a01b038116811461006d57600080fd5b9392505050565b60805160a0516113e86100ad6000396000818161015c0152818161021e015261030a0152600081816093015261026901526113e86000f3fe608060405234801561001057600080fd5b50600436106100365760003560e01c80634817a2861461003b5780637d10d11f14610064575b600080fd5b61004e610049366004610da7565b610079565b60405161005b9190610eb6565b60405180910390f35b610077610072366004610ed0565b610251565b005b60603373ffffffffffffffffffffffffffffffffffffffff7f0000000000000000000000000000000000000000000000000000000000000000161461011f576040517f08c379a000000000000000000000000000000000000000000000000000000000815260206004820152601160248201527f475076323a206e6f742063726561746f7200000000000000000000000000000060448201526064015b60405180910390fd5b6040517f945bcec900000000000000000000000000000000000000000000000000000000815273ffffffffffffffffffffffffffffffffffffffff7f0000000000000000000000000000000000000000000000000000000000000000169063945bcec99061019d908c908c908c908c908c908c908c90600401611003565b6000604051808303816000875af11580156101bc573d6000803e3d6000fd5b505050506040513d6000823e601f3d9081017fffffffffffffffffffffffffffffffffffffffffffffffffffffffffffffffe016820160405261020291908101906111dd565b905061024573ffffffffffffffffffffffffffffffffffffffff7f0000000000000000000000000000000000000000000000000000000000000000168333610336565b98975050505050505050565b3373ffffffffffffffffffffffffffffffffffffffff7f000000000000000000000000000000000000000000000000000000000000000016146102f0576040517f08c379a000000000000000000000000000000000000000000000000000000000815260206004820152601160248201527f475076323a206e6f742063726561746f720000000000000000000000000000006044820152606401610116565b61033273ffffffffffffffffffffffffffffffffffffffff7f00000000000000000000000000000000000000000000000000000000000000001683833361061b565b5050565b73eeeeeeeeeeeeeeeeeeeeeeeeeeeeeeeeeeeeeeee61035b604084016020850161126e565b73ffffffffffffffffffffffffffffffffffffffff16036103d8576040517f08c379a000000000000000000000000000000000000000000000000000000000815260206004820181905260248201527f475076323a2063616e6e6f74207472616e73666572206e6174697665204554486044820152606401610116565b7f5a28e9363bb942b639270062aa6bb295f434bcdfc42c97267bf003f272060dc982606001350361044b57610446610413602084018461126e565b8260408501803590610428906020880161126e565b73ffffffffffffffffffffffffffffffffffffffff1692919061096d565b505050565b604080516001808252818301909252600091816020015b6040805160a0810182526000808252602080830182905292820181905260608201819052608082015282527fffffffffffffffffffffffffffffffffffffffffffffffffffffffffffffffff9092019101816104625790505090506000816000815181106104d2576104d261128b565b602002602001015190507fabee3b73373acd583a130924aad6dc38cfdc44ba0555ba94ce2ff63980ea063284606001351461050e576002610511565b60035b8190600381111561052457610524610f45565b9081600381111561053757610537610f45565b90525061054a604085016020860161126e565b73ffffffffffffffffffffffffffffffffffffffff166020808301919091526040808601359083015261057f9085018561126e565b73ffffffffffffffffffffffffffffffffffffffff908116606083015283811660808301526040517f0e8e3e8400000000000000000000000000000000000000000000000000000000815290861690630e8e3e84906105e29085906004016112ba565b600060405180830381600087803b1580156105fc57600080fd5b505af1158015610610573d6000803e3d6000fd5b505050505050505050565b60008267ffffffffffffffff81111561063657610636610b66565b6040519080825280602002602001820160405280156106ad57816020015b6040805160a0810182526000808252602080830182905292820181905260608201819052608082015282527fffffffffffffffffffffffffffffffffffffffffffffffffffffffffffffffff9092019101816106545790505b5090506000805b848110156108d657368686838181106106cf576106cf61128b565b60800291909101915073eeeeeeeeeeeeeeeeeeeeeeeeeeeeeeeeeeeeeeee90506106ff604083016020840161126e565b73ffffffffffffffffffffffffffffffffffffffff160361077c576040517f08c379a000000000000000000000000000000000000000000000000000000000815260206004820181905260248201527f475076323a2063616e6e6f74207472616e73666572206e6174697665204554486044820152606401610116565b7f5a28e9363bb942b639270062aa6bb295f434bcdfc42c97267bf003f272060dc98160600135036107d1576107cc6107b7602083018361126e565b8660408401803590610428906020870161126e565b6108c3565b600084846107de81611353565b9550815181106107f0576107f061128b565b602002602001015190507fabee3b73373acd583a130924aad6dc38cfdc44ba0555ba94ce2ff63980ea063282606001351461082c57600161082f565b60035b8190600381111561084257610842610f45565b9081600381111561085557610855610f45565b905250610868604083016020840161126e565b73ffffffffffffffffffffffffffffffffffffffff166020808301919091526040808401359083015261089d9083018361126e565b73ffffffffffffffffffffffffffffffffffffffff908116606083015286166080909101525b50806108ce81611353565b9150506106b4565b508015610965578082526040517f0e8e3e8400000000000000000000000000000000000000000000000000000000815273ffffffffffffffffffffffffffffffffffffffff871690630e8e3e84906109329085906004016112ba565b600060405180830381600087803b15801561094c57600080fd5b505af1158015610960573d6000803e3d6000fd5b505050505b505050505050565b6040517f23b872dd0000000000000000000000000000000000000000000000000000000080825273ffffffffffffffffffffffffffffffffffffffff8581166004840152841660248301526044820183905290600080606483828a5af16109d8573d6000803e3d6000fd5b506109e285610a4f565b610a48576040517f08c379a000000000000000000000000000000000000000000000000000000000815260206004820152601960248201527f475076323a206661696c6564207472616e7366657246726f6d000000000000006044820152606401610116565b5050505050565b6000610a8e565b7f08c379a000000000000000000000000000000000000000000000000000000000600052602060045280602452508060445260646000fd5b3d8015610acd5760208114610b0757610ac87f475076323a206d616c666f726d6564207472616e7366657220726573756c7400601f610a56565b610b14565b823b610afe57610afe7f475076323a206e6f74206120636f6e74726163740000000000000000000000006014610a56565b60019150610b14565b3d6000803e600051151591505b50919050565b60008083601f840112610b2c57600080fd5b50813567ffffffffffffffff811115610b4457600080fd5b6020830191508360208260051b8501011115610b5f57600080fd5b9250929050565b7f4e487b7100000000000000000000000000000000000000000000000000000000600052604160045260246000fd5b604051601f82017fffffffffffffffffffffffffffffffffffffffffffffffffffffffffffffffe016810167ffffffffffffffff81118282101715610bdc57610bdc610b66565b604052919050565b600067ffffffffffffffff821115610bfe57610bfe610b66565b5060051b60200190565b73ffffffffffffffffffffffffffffffffffffffff81168114610c2a57600080fd5b50565b600082601f830112610c3e57600080fd5b81356020610c53610c4e83610be4565b610b95565b82815260059290921b84018101918181019086841115610c7257600080fd5b8286015b84811015610c96578035610c8981610c08565b8352918301918301610c76565b509695505050505050565b80358015158114610cb157600080fd5b919050565b600060808284031215610cc857600080fd5b6040516080810181811067ffffffffffffffff82111715610ceb57610ceb610b66565b6040529050808235610cfc81610c08565b8152610d0a60208401610ca1565b60208201526040830135610d1d81610c08565b6040820152610d2e60608401610ca1565b60608201525092915050565b600082601f830112610d4b57600080fd5b81356020610d5b610c4e83610be4565b82815260059290921b84018101918181019086841115610d7a57600080fd5b8286015b84811015610c965780358352918301918301610d7e565b600060808284031215610b1457600080fd5b6000806000806000806000806101a0898b031215610dc457600080fd5b883560028110610dd357600080fd5b9750602089013567ffffffffffffffff80821115610df057600080fd5b610dfc8c838d01610b1a565b909950975060408b0135915080821115610e1557600080fd5b610e218c838d01610c2d565b9650610e308c60608d01610cb6565b955060e08b0135915080821115610e4657600080fd5b50610e538b828c01610d3a565b9350506101008901359150610e6c8a6101208b01610d95565b90509295985092959890939650565b600081518084526020808501945080840160005b83811015610eab57815187529582019590820190600101610e8f565b509495945050505050565b602081526000610ec96020830184610e7b565b9392505050565b60008060208385031215610ee357600080fd5b823567ffffffffffffffff80821115610efb57600080fd5b818501915085601f830112610f0f57600080fd5b813581811115610f1e57600080fd5b8660208260071b8501011115610f3357600080fd5b60209290920196919550909350505050565b7f4e487b7100000000000000000000000000000000000000000000000000000000600052602160045260246000fd5b8183528181602085013750600060208284010152600060207fffffffffffffffffffffffffffffffffffffffffffffffffffffffffffffffe0601f840116840101905092915050565b600081518084526020808501945080840160005b83811015610eab57815173ffffffffffffffffffffffffffffffffffffffff1687529582019590820190600101610fd1565b600061012080830160028b1061101b5761101b610f45565b8a84526020808501929092528890526101408084019160058a901b8501909101908a60005b8b811015611151577ffffffffffffffffffffffffffffffffffffffffffffffffffffffffffffffec087850301855281357fffffffffffffffffffffffffffffffffffffffffffffffffffffffffffffff618e36030181126110a157600080fd5b8d01803585528381013584860152604080820135908601526060808201359086015260a0608080830135368490037fffffffffffffffffffffffffffffffffffffffffffffffffffffffffffffffe10181126110fc57600080fd5b90920185810192903567ffffffffffffffff81111561111a57600080fd5b80360384131561112957600080fd5b828289015261113b8389018286610f74565b9887019897505050928401925050600101611040565b50505083810360408501526111668189610fbd565b9150506111b5606084018773ffffffffffffffffffffffffffffffffffffffff808251168352602082015115156020840152806040830151166040840152506060810151151560608301525050565b82810360e08401526111c78186610e7b565b9150508261010083015298975050505050505050565b600060208083850312156111f057600080fd5b825167ffffffffffffffff81111561120757600080fd5b8301601f8101851361121857600080fd5b8051611226610c4e82610be4565b81815260059190911b8201830190838101908783111561124557600080fd5b928401925b828410156112635783518252928401929084019061124a565b979650505050505050565b60006020828403121561128057600080fd5b8135610ec981610c08565b7f4e487b7100000000000000000000000000000000000000000000000000000000600052603260045260246000fd5b602080825282518282018190526000919060409081850190868401855b828110156113465781518051600481106112f3576112f3610f45565b85528087015173ffffffffffffffffffffffffffffffffffffffff908116888701528682015187870152606080830151821690870152608091820151169085015260a090930192908501906001016112d7565b5091979650505050505050565b60007fffffffffffffffffffffffffffffffffffffffffffffffffffffffffffffffff82036113ab577f4e487b7100000000000000000000000000000000000000000000000000000000600052601160045260246000fd5b506001019056fea264697066735822122004adc15dd1d35c2bfa3dce7fd2d81bebbfbd818bb0fe0cbf0471642fd2d0766964736f6c63430008130033",
    "linkReferences": {}
  },
  "methodIdentifiers": {
    "authenticator()": "2335c76b",
    "domainSeparator()": "f698da25",
    "filledAmount(bytes)": "2479fb6e",
    "freeFilledAmountStorage(bytes[])": "ed9f35ce",
    "freePreSignatureStorage(bytes[])": "a2a7d51b",
    "getStorageAt(uint256,uint256)": "5624b25b",
    "invalidateOrder(bytes)": "15337bc0",
    "preSignature(bytes)": "d08d33d1",
    "setPreSignature(bytes,bool)": "ec6cb13f",
    "settle(address[],uint256[],(uint256,uint256,address,uint256,uint256,uint32,bytes32,uint256,uint256,uint256,bytes)[],(address,uint256,bytes)[][3])": "13d79a0b",
    "simulateDelegatecall(address,bytes)": "f84436bd",
    "simulateDelegatecallInternal(address,bytes)": "43218e19",
    "swap((bytes32,uint256,uint256,uint256,bytes)[],address[],(uint256,uint256,address,uint256,uint256,uint32,bytes32,uint256,uint256,uint256,bytes))": "845a101f",
    "vault()": "fbfa77cf",
    "vaultRelayer()": "9b552cc2"
  },
  "id": 56
}