{
  "abi": [
    {
      "inputs": [
        {
          "internalType": "bytes4",
          "name": "interfaceId",
          "type": "bytes4"
        }
      ],
      "name": "supportsInterface",
      "outputs": [
        {
          "internalType": "bool",
          "name": "",
          "type": "bool"
        }
      ],
      "stateMutability": "view",
      "type": "function"
    },
    {
      "inputs": [
        {
          "components": [
            {
              "internalType": "contract IERC20",
              "name": "sellToken",
              "type": "address"
            },
            {
              "internalType": "contract IERC20",
              "name": "buyToken",
              "type": "address"
            },
            {
              "internalType": "address",
              "name": "receiver",
              "type": "address"
            },
            {
              "internalType": "uint256",
              "name": "sellAmount",
              "type": "uint256"
            },
            {
              "internalType": "uint256",
              "name": "buyAmount",
              "type": "uint256"
            },
            {
              "internalType": "uint32",
              "name": "validTo",
              "type": "uint32"
            },
            {
              "internalType": "bytes32",
              "name": "appData",
              "type": "bytes32"
            },
            {
              "internalType": "uint256",
              "name": "feeAmount",
              "type": "uint256"
            },
            {
              "internalType": "bytes32",
              "name": "kind",
              "type": "bytes32"
            },
            {
              "internalType": "bool",
              "name": "partiallyFillable",
              "type": "bool"
            },
            {
              "internalType": "bytes32",
              "name": "sellTokenBalance",
              "type": "bytes32"
            },
            {
              "internalType": "bytes32",
              "name": "buyTokenBalance",
              "type": "bytes32"
            }
          ],
          "internalType": "struct GPv2Order.Data",
          "name": "order",
          "type": "tuple"
        },
        {
          "internalType": "bytes32",
          "name": "",
          "type": "bytes32"
        },
        {
          "components": [
            {
              "internalType": "contract IConditionalOrder",
              "name": "handler",
              "type": "address"
            },
            {
              "internalType": "bytes32",
              "name": "salt",
              "type": "bytes32"
            },
            {
              "internalType": "bytes",
              "name": "staticInput",
              "type": "bytes"
            }
          ],
          "internalType": "struct IConditionalOrder.ConditionalOrderParams",
          "name": "",
          "type": "tuple"
        },
        {
          "internalType": "bytes",
          "name": "",
          "type": "bytes"
        }
      ],
      "name": "verify",
      "outputs": [
        {
          "internalType": "bool",
          "name": "",
          "type": "bool"
        }
      ],
      "stateMutability": "pure",
      "type": "function"
    }
  ],
  "bytecode": {
    "object": "0x608060405234801561001057600080fd5b506102b9806100206000396000f3fe608060405234801561001057600080fd5b50600436106100365760003560e01c806301ffc9a71461003b578063f9ae35a214610062575b600080fd5b61004e610049366004610142565b610075565b604051901515815260200160405180910390f35b61004e61007036600461018b565b61010e565b60007fffffffff0000000000000000000000000000000000000000000000000000000082167ff9ae35a200000000000000000000000000000000000000000000000000000000148061010857507fffffffff0000000000000000000000000000000000000000000000000000000082167f01ffc9a700000000000000000000000000000000000000000000000000000000145b92915050565b600080610121606088016040890161024d565b73ffffffffffffffffffffffffffffffffffffffff16149695505050505050565b60006020828403121561015457600080fd5b81357fffffffff000000000000000000000000000000000000000000000000000000008116811461018457600080fd5b9392505050565b60008060008060008587036101e08112156101a557600080fd5b610180808212156101b557600080fd5b8796508601359450506101a085013567ffffffffffffffff808211156101da57600080fd5b908701906060828a0312156101ee57600080fd5b9093506101c0870135908082111561020557600080fd5b818801915088601f83011261021957600080fd5b81358181111561022857600080fd5b89602082850101111561023a57600080fd5b9699959850939650602001949392505050565b60006020828403121561025f57600080fd5b813573ffffffffffffffffffffffffffffffffffffffff8116811461018457600080fdfea2646970667358221220556281c807c29f32eae228b27ed16df37132b56c50ac70fa410d9e7bedc93d0664736f6c63430008130033",
    "linkReferences": {}
  },
  "methodIdentifiers": {
    "supportsInterface(bytes4)": "01ffc9a7",
    "verify((address,address,address,uint256,uint256,uint32,bytes32,uint256,bytes32,bool,bytes32,bytes32),bytes32,(address,bytes32,bytes),bytes)": "f9ae35a2"
  },
  "id": 137
}