{
  "abi": [
    {
      "inputs": [
        {
          "internalType": "bytes32[]",
          "name": "data",
          "type": "bytes32[]"
        },
        {
          "internalType": "uint256",
          "name": "node",
          "type": "uint256"
        }
      ],
      "name": "getProof",
      "outputs": [
        {
          "internalType": "bytes32[]",
          "name": "",
          "type": "bytes32[]"
        }
      ],
      "stateMutability": "pure",
      "type": "function"
    },
    {
      "inputs": [
        {
          "internalType": "bytes32[]",
          "name": "data",
          "type": "bytes32[]"
        }
      ],
      "name": "getRoot",
      "outputs": [
        {
          "internalType": "bytes32",
          "name": "",
          "type": "bytes32"
        }
      ],
      "stateMutability": "pure",
      "type": "function"
    },
    {
      "inputs": [
        {
          "internalType": "bytes32",
          "name": "left",
          "type": "bytes32"
        },
        {
          "internalType": "bytes32",
          "name": "right",
          "type": "bytes32"
        }
      ],
      "name": "hashLeafPairs",
      "outputs": [
        {
          "internalType": "bytes32",
          "name": "_hash",
          "type": "bytes32"
        }
      ],
      "stateMutability": "pure",
      "type": "function"
    },
    {
      "inputs": [
        {
          "internalType": "uint256",
          "name": "x",
          "type": "uint256"
        }
      ],
      "name": "log2ceil",
      "outputs": [
        {
          "internalType": "uint256",
          "name": "",
          "type": "uint256"
        }
      ],
      "stateMutability": "pure",
      "type": "function"
    },
    {
      "inputs": [
        {
          "internalType": "uint256",
          "name": "x",
          "type": "uint256"
        }
      ],
      "name": "log2ceilBitMagic",
      "outputs": [
        {
          "internalType": "uint256",
          "name": "",
          "type": "uint256"
        }
      ],
      "stateMutability": "pure",
      "type": "function"
    },
    {
      "inputs": [
        {
          "internalType": "bytes32",
          "name": "root",
          "type": "bytes32"
        },
        {
          "internalType": "bytes32[]",
          "name": "proof",
          "type": "bytes32[]"
        },
        {
          "internalType": "bytes32",
          "name": "valueToProve",
          "type": "bytes32"
        }
      ],
      "name": "verifyProof",
      "outputs": [
        {
          "internalType": "bool",
          "name": "",
          "type": "bool"
        }
      ],
      "stateMutability": "pure",
      "type": "function"
    }
  ],
  "bytecode": {
    "object": "0x608060405234801561001057600080fd5b506109da806100206000396000f3fe608060405234801561001057600080fd5b50600436106100725760003560e01c8063cf06c7b711610050578063cf06c7b7146100e0578063dd1d2599146100f3578063e27d51531461010657600080fd5b80632e08d6021461007757806358161a421461009d578063b8616195146100c0575b600080fd5b61008a6100853660046107ea565b610119565b6040519081526020015b60405180910390f35b6100b06100ab366004610827565b6101ed565b6040519015158152602001610094565b6100d36100ce366004610877565b610237565b60405161009491906108bc565b61008a6100ee366004610900565b6103f1565b61008a610101366004610919565b61053b565b61008a610114366004610900565b610569565b600060018251116101b1576040517f08c379a000000000000000000000000000000000000000000000000000000000815260206004820152602360248201527f776f6e27742067656e657261746520726f6f7420666f722073696e676c65206c60448201527f656166000000000000000000000000000000000000000000000000000000000060648201526084015b60405180910390fd5b6001825111156101cb576101c482610594565b91506101b1565b816000815181106101de576101de61093b565b60200260200101519050919050565b81516000908290825b8181101561022b57610221838783815181106102145761021461093b565b602002602001015161053b565b92506001016101f6565b50509093149392505050565b606060018351116102c9576040517f08c379a0000000000000000000000000000000000000000000000000000000008152602060048201526024808201527f776f6e27742067656e65726174652070726f6f6620666f722073696e676c652060448201527f6c6561660000000000000000000000000000000000000000000000000000000060648201526084016101a8565b60006102d584516103f1565b67ffffffffffffffff8111156102ed576102ed610702565b604051908082528060200260200182016040528015610316578160200160208202803683370190505b50905060005b6001855111156103e75783600116600103610371578460018503815181106103465761034661093b565b60200260200101518282815181106103605761036061093b565b6020026020010181815250506103ce565b84518460010103610392576000801b8282815181106103605761036061093b565b8484600101815181106103a7576103a761093b565b60200260200101518282815181106103c1576103c161093b565b6020026020010181815250505b6001016002840493506103e085610594565b945061031c565b5090505b92915050565b60006001821161040357506000919050565b600082700100000000000000000000000000000000811061043157608093841c9361042e908361096a565b91505b68010000000000000000841061045457604093841c93610451908361096a565b91505b640100000000841061047357602093841c93610470908361096a565b91505b62010000841061049057601093841c9361048d908361096a565b91505b61010084106104ac57600893841c936104a9908361096a565b91505b601084106104c757600493841c936104c4908361096a565b91505b600484106104e257600293841c936104df908361096a565b91505b600284106104f8576104f560018361096a565b91505b6000816105078119600161096a565b16905081811480156105195750600083115b156105275750909392505050565b61053283600161096a565b95945050505050565b6000818310801561055357836000528260205261055c565b82600052836020525b5050604060002092915050565b6000808219600101831683145b831561058c57600193841c939190910190610576565b900392915050565b60608060008351905080600116600103610643576002810460010167ffffffffffffffff8111156105c7576105c7610702565b6040519080825280602002602001820160405280156105f0578160200160208202803683370190505b50915061061c84600183038151811061060b5761060b61093b565b60200260200101516000801b61053b565b826001845103815181106106325761063261093b565b60200260200101818152505061068c565b6002810467ffffffffffffffff81111561065f5761065f610702565b604051908082528060200260200182016040528015610688578160200160208202803683370190505b5091505b6000805b600183038110156106f8576106cd8682815181106106b0576106b061093b565b60200260200101518783600101815181106102145761021461093b565b8483815181106106df576106df61093b565b6020908102919091010152600190910190600201610690565b5091949350505050565b7f4e487b7100000000000000000000000000000000000000000000000000000000600052604160045260246000fd5b600082601f83011261074257600080fd5b8135602067ffffffffffffffff8083111561075f5761075f610702565b8260051b6040517fffffffffffffffffffffffffffffffffffffffffffffffffffffffffffffffe0603f830116810181811084821117156107a2576107a2610702565b6040529384528581018301938381019250878511156107c057600080fd5b83870191505b848210156107df578135835291830191908301906107c6565b979650505050505050565b6000602082840312156107fc57600080fd5b813567ffffffffffffffff81111561081357600080fd5b61081f84828501610731565b949350505050565b60008060006060848603121561083c57600080fd5b83359250602084013567ffffffffffffffff81111561085a57600080fd5b61086686828701610731565b925050604084013590509250925092565b6000806040838503121561088a57600080fd5b823567ffffffffffffffff8111156108a157600080fd5b6108ad85828601610731565b95602094909401359450505050565b6020808252825182820181905260009190848201906040850190845b818110156108f4578351835292840192918401916001016108d8565b50909695505050505050565b60006020828403121561091257600080fd5b5035919050565b6000806040838503121561092c57600080fd5b50508035926020909101359150565b7f4e487b7100000000000000000000000000000000000000000000000000000000600052603260045260246000fd5b808201808211156103eb577f4e487b7100000000000000000000000000000000000000000000000000000000600052601160045260246000fdfea26469706673582212208b457d0c98086ecebbf3f6f45f2ddbd77d5a216e6d3e233b70c0ef62c7b40a8264736f6c63430008130033",
    "linkReferences": {}
  },
  "methodIdentifiers": {
    "getProof(bytes32[],uint256)": "b8616195",
    "getRoot(bytes32[])": "2e08d602",
    "hashLeafPairs(bytes32,bytes32)": "dd1d2599",
    "log2ceil(uint256)": "e27d5153",
    "log2ceilBitMagic(uint256)": "cf06c7b7",
    "verifyProof(bytes32,bytes32[],bytes32)": "58161a42"
  },
  "id": 92
}