{
  "abi": [
    {
      "inputs": [
        {
          "internalType": "contract IAuthorizer",
          "name": "authorizer",
          "type": "address"
        },
        {
          "internalType": "contract IWETH",
          "name": "weth",
          "type": "address"
        },
        {
          "internalType": "uint256",
          "name": "pauseWindowDuration",
          "type": "uint256"
        },
        {
          "internalType": "uint256",
          "name": "bufferPeriodDuration",
          "type": "uint256"
        }
      ],
      "stateMutability": "nonpayable",
      "type": "constructor"
    },
    {
      "anonymous": false,
      "inputs": [
        {
          "indexed": true,
          "internalType": "contract IAuthorizer",
          "name": "newAuthorizer",
          "type": "address"
        }
      ],
      "name": "AuthorizerChanged",
      "type": "event"
    },
    {
      "anonymous": false,
      "inputs": [
        {
          "indexed": true,
          "internalType": "contract IERC20",
          "name": "token",
          "type": "address"
        },
        {
          "indexed": true,
          "internalType": "address",
          "name": "sender",
          "type": "address"
        },
        {
          "indexed": false,
          "internalType": "address",
          "name": "recipient",
          "type": "address"
        },
        {
          "indexed": false,
          "internalType": "uint256",
          "name": "amount",
          "type": "uint256"
        }
      ],
      "name": "ExternalBalanceTransfer",
      "type": "event"
    },
    {
      "anonymous": false,
      "inputs": [
        {
          "indexed": true,
          "internalType": "contract IFlashLoanRecipient",
          "name": "recipient",
          "type": "address"
        },
        {
          "indexed": true,
          "internalType": "contract IERC20",
          "name": "token",
          "type": "address"
        },
        {
          "indexed": false,
          "internalType": "uint256",
          "name": "amount",
          "type": "uint256"
        },
        {
          "indexed": false,
          "internalType": "uint256",
          "name": "feeAmount",
          "type": "uint256"
        }
      ],
      "name": "FlashLoan",
      "type": "event"
    },
    {
      "anonymous": false,
      "inputs": [
        {
          "indexed": true,
          "internalType": "address",
          "name": "user",
          "type": "address"
        },
        {
          "indexed": true,
          "internalType": "contract IERC20",
          "name": "token",
          "type": "address"
        },
        {
          "indexed": false,
          "internalType": "int256",
          "name": "delta",
          "type": "int256"
        }
      ],
      "name": "InternalBalanceChanged",
      "type": "event"
    },
    {
      "anonymous": false,
      "inputs": [
        {
          "indexed": false,
          "internalType": "bool",
          "name": "paused",
          "type": "bool"
        }
      ],
      "name": "PausedStateChanged",
      "type": "event"
    },
    {
      "anonymous": false,
      "inputs": [
        {
          "indexed": true,
          "internalType": "bytes32",
          "name": "poolId",
          "type": "bytes32"
        },
        {
          "indexed": true,
          "internalType": "address",
          "name": "liquidityProvider",
          "type": "address"
        },
        {
          "indexed": false,
          "internalType": "contract IERC20[]",
          "name": "tokens",
          "type": "address[]"
        },
        {
          "indexed": false,
          "internalType": "int256[]",
          "name": "deltas",
          "type": "int256[]"
        },
        {
          "indexed": false,
          "internalType": "uint256[]",
          "name": "protocolFeeAmounts",
          "type": "uint256[]"
        }
      ],
      "name": "PoolBalanceChanged",
      "type": "event"
    },
    {
      "anonymous": false,
      "inputs": [
        {
          "indexed": true,
          "internalType": "bytes32",
          "name": "poolId",
          "type": "bytes32"
        },
        {
          "indexed": true,
          "internalType": "address",
          "name": "assetManager",
          "type": "address"
        },
        {
          "indexed": true,
          "internalType": "contract IERC20",
          "name": "token",
          "type": "address"
        },
        {
          "indexed": false,
          "internalType": "int256",
          "name": "cashDelta",
          "type": "int256"
        },
        {
          "indexed": false,
          "internalType": "int256",
          "name": "managedDelta",
          "type": "int256"
        }
      ],
      "name": "PoolBalanceManaged",
      "type": "event"
    },
    {
      "anonymous": false,
      "inputs": [
        {
          "indexed": true,
          "internalType": "bytes32",
          "name": "poolId",
          "type": "bytes32"
        },
        {
          "indexed": true,
          "internalType": "address",
          "name": "poolAddress",
          "type": "address"
        },
        {
          "indexed": false,
          "internalType": "enum IVault.PoolSpecialization",
          "name": "specialization",
          "type": "uint8"
        }
      ],
      "name": "PoolRegistered",
      "type": "event"
    },
    {
      "anonymous": false,
      "inputs": [
        {
          "indexed": true,
          "internalType": "address",
          "name": "relayer",
          "type": "address"
        },
        {
          "indexed": true,
          "internalType": "address",
          "name": "sender",
          "type": "address"
        },
        {
          "indexed": false,
          "internalType": "bool",
          "name": "approved",
          "type": "bool"
        }
      ],
      "name": "RelayerApprovalChanged",
      "type": "event"
    },
    {
      "anonymous": false,
      "inputs": [
        {
          "indexed": true,
          "internalType": "bytes32",
          "name": "poolId",
          "type": "bytes32"
        },
        {
          "indexed": true,
          "internalType": "contract IERC20",
          "name": "tokenIn",
          "type": "address"
        },
        {
          "indexed": true,
          "internalType": "contract IERC20",
          "name": "tokenOut",
          "type": "address"
        },
        {
          "indexed": false,
          "internalType": "uint256",
          "name": "amountIn",
          "type": "uint256"
        },
        {
          "indexed": false,
          "internalType": "uint256",
          "name": "amountOut",
          "type": "uint256"
        }
      ],
      "name": "Swap",
      "type": "event"
    },
    {
      "anonymous": false,
      "inputs": [
        {
          "indexed": true,
          "internalType": "bytes32",
          "name": "poolId",
          "type": "bytes32"
        },
        {
          "indexed": false,
          "internalType": "contract IERC20[]",
          "name": "tokens",
          "type": "address[]"
        }
      ],
      "name": "TokensDeregistered",
      "type": "event"
    },
    {
      "anonymous": false,
      "inputs": [
        {
          "indexed": true,
          "internalType": "bytes32",
          "name": "poolId",
          "type": "bytes32"
        },
        {
          "indexed": false,
          "internalType": "contract IERC20[]",
          "name": "tokens",
          "type": "address[]"
        },
        {
          "indexed": false,
          "internalType": "address[]",
          "name": "assetManagers",
          "type": "address[]"
        }
      ],
      "name": "TokensRegistered",
      "type": "event"
    },
    {
      "inputs": [],
      "name": "WETH",
      "outputs": [
        {
          "internalType": "contract IWETH",
          "name": "",
          "type": "address"
        }
      ],
      "stateMutability": "view",
      "type": "function"
    },
    {
      "inputs": [
        {
          "internalType": "enum IVault.SwapKind",
          "name": "kind",
          "type": "uint8"
        },
        {
          "components": [
            {
              "internalType": "bytes32",
              "name": "poolId",
              "type": "bytes32"
            },
            {
              "internalType": "uint256",
              "name": "assetInIndex",
              "type": "uint256"
            },
            {
              "internalType": "uint256",
              "name": "assetOutIndex",
              "type": "uint256"
            },
            {
              "internalType": "uint256",
              "name": "amount",
              "type": "uint256"
            },
            {
              "internalType": "bytes",
              "name": "userData",
              "type": "bytes"
            }
          ],
          "internalType": "struct IVault.BatchSwapStep[]",
          "name": "swaps",
          "type": "tuple[]"
        },
        {
          "internalType": "contract IAsset[]",
          "name": "assets",
          "type": "address[]"
        },
        {
          "components": [
            {
              "internalType": "address",
              "name": "sender",
              "type": "address"
            },
            {
              "internalType": "bool",
              "name": "fromInternalBalance",
              "type": "bool"
            },
            {
              "internalType": "address payable",
              "name": "recipient",
              "type": "address"
            },
            {
              "internalType": "bool",
              "name": "toInternalBalance",
              "type": "bool"
            }
          ],
          "internalType": "struct IVault.FundManagement",
          "name": "funds",
          "type": "tuple"
        },
        {
          "internalType": "int256[]",
          "name": "limits",
          "type": "int256[]"
        },
        {
          "internalType": "uint256",
          "name": "deadline",
          "type": "uint256"
        }
      ],
      "name": "batchSwap",
      "outputs": [
        {
          "internalType": "int256[]",
          "name": "assetDeltas",
          "type": "int256[]"
        }
      ],
      "stateMutability": "payable",
      "type": "function"
    },
    {
      "inputs": [
        {
          "internalType": "bytes32",
          "name": "poolId",
          "type": "bytes32"
        },
        {
          "internalType": "contract IERC20[]",
          "name": "tokens",
          "type": "address[]"
        }
      ],
      "name": "deregisterTokens",
      "outputs": [],
      "stateMutability": "nonpayable",
      "type": "function"
    },
    {
      "inputs": [
        {
          "internalType": "bytes32",
          "name": "poolId",
          "type": "bytes32"
        },
        {
          "internalType": "address",
          "name": "sender",
          "type": "address"
        },
        {
          "internalType": "address payable",
          "name": "recipient",
          "type": "address"
        },
        {
          "components": [
            {
              "internalType": "contract IAsset[]",
              "name": "assets",
              "type": "address[]"
            },
            {
              "internalType": "uint256[]",
              "name": "minAmountsOut",
              "type": "uint256[]"
            },
            {
              "internalType": "bytes",
              "name": "userData",
              "type": "bytes"
            },
            {
              "internalType": "bool",
              "name": "toInternalBalance",
              "type": "bool"
            }
          ],
          "internalType": "struct IVault.ExitPoolRequest",
          "name": "request",
          "type": "tuple"
        }
      ],
      "name": "exitPool",
      "outputs": [],
      "stateMutability": "nonpayable",
      "type": "function"
    },
    {
      "inputs": [
        {
          "internalType": "contract IFlashLoanRecipient",
          "name": "recipient",
          "type": "address"
        },
        {
          "internalType": "contract IERC20[]",
          "name": "tokens",
          "type": "address[]"
        },
        {
          "internalType": "uint256[]",
          "name": "amounts",
          "type": "uint256[]"
        },
        {
          "internalType": "bytes",
          "name": "userData",
          "type": "bytes"
        }
      ],
      "name": "flashLoan",
      "outputs": [],
      "stateMutability": "nonpayable",
      "type": "function"
    },
    {
      "inputs": [
        {
          "internalType": "bytes4",
          "name": "selector",
          "type": "bytes4"
        }
      ],
      "name": "getActionId",
      "outputs": [
        {
          "internalType": "bytes32",
          "name": "",
          "type": "bytes32"
        }
      ],
      "stateMutability": "view",
      "type": "function"
    },
    {
      "inputs": [],
      "name": "getAuthorizer",
      "outputs": [
        {
          "internalType": "contract IAuthorizer",
          "name": "",
          "type": "address"
        }
      ],
      "stateMutability": "view",
      "type": "function"
    },
    {
      "inputs": [],
      "name": "getDomainSeparator",
      "outputs": [
        {
          "internalType": "bytes32",
          "name": "",
          "type": "bytes32"
        }
      ],
      "stateMutability": "view",
      "type": "function"
    },
    {
      "inputs": [
        {
          "internalType": "address",
          "name": "user",
          "type": "address"
        },
        {
          "internalType": "contract IERC20[]",
          "name": "tokens",
          "type": "address[]"
        }
      ],
      "name": "getInternalBalance",
      "outputs": [
        {
          "internalType": "uint256[]",
          "name": "balances",
          "type": "uint256[]"
        }
      ],
      "stateMutability": "view",
      "type": "function"
    },
    {
      "inputs": [
        {
          "internalType": "address",
          "name": "user",
          "type": "address"
        }
      ],
      "name": "getNextNonce",
      "outputs": [
        {
          "internalType": "uint256",
          "name": "",
          "type": "uint256"
        }
      ],
      "stateMutability": "view",
      "type": "function"
    },
    {
      "inputs": [],
      "name": "getPausedState",
      "outputs": [
        {
          "internalType": "bool",
          "name": "paused",
          "type": "bool"
        },
        {
          "internalType": "uint256",
          "name": "pauseWindowEndTime",
          "type": "uint256"
        },
        {
          "internalType": "uint256",
          "name": "bufferPeriodEndTime",
          "type": "uint256"
        }
      ],
      "stateMutability": "view",
      "type": "function"
    },
    {
      "inputs": [
        {
          "internalType": "bytes32",
          "name": "poolId",
          "type": "bytes32"
        }
      ],
      "name": "getPool",
      "outputs": [
        {
          "internalType": "address",
          "name": "",
          "type": "address"
        },
        {
          "internalType": "enum IVault.PoolSpecialization",
          "name": "",
          "type": "uint8"
        }
      ],
      "stateMutability": "view",
      "type": "function"
    },
    {
      "inputs": [
        {
          "internalType": "bytes32",
          "name": "poolId",
          "type": "bytes32"
        },
        {
          "internalType": "contract IERC20",
          "name": "token",
          "type": "address"
        }
      ],
      "name": "getPoolTokenInfo",
      "outputs": [
        {
          "internalType": "uint256",
          "name": "cash",
          "type": "uint256"
        },
        {
          "internalType": "uint256",
          "name": "managed",
          "type": "uint256"
        },
        {
          "internalType": "uint256",
          "name": "lastChangeBlock",
          "type": "uint256"
        },
        {
          "internalType": "address",
          "name": "assetManager",
          "type": "address"
        }
      ],
      "stateMutability": "view",
      "type": "function"
    },
    {
      "inputs": [
        {
          "internalType": "bytes32",
          "name": "poolId",
          "type": "bytes32"
        }
      ],
      "name": "getPoolTokens",
      "outputs": [
        {
          "internalType": "contract IERC20[]",
          "name": "tokens",
          "type": "address[]"
        },
        {
          "internalType": "uint256[]",
          "name": "balances",
          "type": "uint256[]"
        },
        {
          "internalType": "uint256",
          "name": "lastChangeBlock",
          "type": "uint256"
        }
      ],
      "stateMutability": "view",
      "type": "function"
    },
    {
      "inputs": [],
      "name": "getProtocolFeesCollector",
      "outputs": [
        {
          "internalType": "contract ProtocolFeesCollector",
          "name": "",
          "type": "address"
        }
      ],
      "stateMutability": "view",
      "type": "function"
    },
    {
      "inputs": [
        {
          "internalType": "address",
          "name": "user",
          "type": "address"
        },
        {
          "internalType": "address",
          "name": "relayer",
          "type": "address"
        }
      ],
      "name": "hasApprovedRelayer",
      "outputs": [
        {
          "internalType": "bool",
          "name": "",
          "type": "bool"
        }
      ],
      "stateMutability": "view",
      "type": "function"
    },
    {
      "inputs": [
        {
          "internalType": "bytes32",
          "name": "poolId",
          "type": "bytes32"
        },
        {
          "internalType": "address",
          "name": "sender",
          "type": "address"
        },
        {
          "internalType": "address",
          "name": "recipient",
          "type": "address"
        },
        {
          "components": [
            {
              "internalType": "contract IAsset[]",
              "name": "assets",
              "type": "address[]"
            },
            {
              "internalType": "uint256[]",
              "name": "maxAmountsIn",
              "type": "uint256[]"
            },
            {
              "internalType": "bytes",
              "name": "userData",
              "type": "bytes"
            },
            {
              "internalType": "bool",
              "name": "fromInternalBalance",
              "type": "bool"
            }
          ],
          "internalType": "struct IVault.JoinPoolRequest",
          "name": "request",
          "type": "tuple"
        }
      ],
      "name": "joinPool",
      "outputs": [],
      "stateMutability": "payable",
      "type": "function"
    },
    {
      "inputs": [
        {
          "components": [
            {
              "internalType": "enum IVault.PoolBalanceOpKind",
              "name": "kind",
              "type": "uint8"
            },
            {
              "internalType": "bytes32",
              "name": "poolId",
              "type": "bytes32"
            },
            {
              "internalType": "contract IERC20",
              "name": "token",
              "type": "address"
            },
            {
              "internalType": "uint256",
              "name": "amount",
              "type": "uint256"
            }
          ],
          "internalType": "struct IVault.PoolBalanceOp[]",
          "name": "ops",
          "type": "tuple[]"
        }
      ],
      "name": "managePoolBalance",
      "outputs": [],
      "stateMutability": "nonpayable",
      "type": "function"
    },
    {
      "inputs": [
        {
          "components": [
            {
              "internalType": "enum IVault.UserBalanceOpKind",
              "name": "kind",
              "type": "uint8"
            },
            {
              "internalType": "contract IAsset",
              "name": "asset",
              "type": "address"
            },
            {
              "internalType": "uint256",
              "name": "amount",
              "type": "uint256"
            },
            {
              "internalType": "address",
              "name": "sender",
              "type": "address"
            },
            {
              "internalType": "address payable",
              "name": "recipient",
              "type": "address"
            }
          ],
          "internalType": "struct IVault.UserBalanceOp[]",
          "name": "ops",
          "type": "tuple[]"
        }
      ],
      "name": "manageUserBalance",
      "outputs": [],
      "stateMutability": "payable",
      "type": "function"
    },
    {
      "inputs": [
        {
          "internalType": "enum IVault.SwapKind",
          "name": "kind",
          "type": "uint8"
        },
        {
          "components": [
            {
              "internalType": "bytes32",
              "name": "poolId",
              "type": "bytes32"
            },
            {
              "internalType": "uint256",
              "name": "assetInIndex",
              "type": "uint256"
            },
            {
              "internalType": "uint256",
              "name": "assetOutIndex",
              "type": "uint256"
            },
            {
              "internalType": "uint256",
              "name": "amount",
              "type": "uint256"
            },
            {
              "internalType": "bytes",
              "name": "userData",
              "type": "bytes"
            }
          ],
          "internalType": "struct IVault.BatchSwapStep[]",
          "name": "swaps",
          "type": "tuple[]"
        },
        {
          "internalType": "contract IAsset[]",
          "name": "assets",
          "type": "address[]"
        },
        {
          "components": [
            {
              "internalType": "address",
              "name": "sender",
              "type": "address"
            },
            {
              "internalType": "bool",
              "name": "fromInternalBalance",
              "type": "bool"
            },
            {
              "internalType": "address payable",
              "name": "recipient",
              "type": "address"
            },
            {
              "internalType": "bool",
              "name": "toInternalBalance",
              "type": "bool"
            }
          ],
          "internalType": "struct IVault.FundManagement",
          "name": "funds",
          "type": "tuple"
        }
      ],
      "name": "queryBatchSwap",
      "outputs": [
        {
          "internalType": "int256[]",
          "name": "",
          "type": "int256[]"
        }
      ],
      "stateMutability": "nonpayable",
      "type": "function"
    },
    {
      "inputs": [
        {
          "internalType": "enum IVault.PoolSpecialization",
          "name": "specialization",
          "type": "uint8"
        }
      ],
      "name": "registerPool",
      "outputs": [
        {
          "internalType": "bytes32",
          "name": "",
          "type": "bytes32"
        }
      ],
      "stateMutability": "nonpayable",
      "type": "function"
    },
    {
      "inputs": [
        {
          "internalType": "bytes32",
          "name": "poolId",
          "type": "bytes32"
        },
        {
          "internalType": "contract IERC20[]",
          "name": "tokens",
          "type": "address[]"
        },
        {
          "internalType": "address[]",
          "name": "assetManagers",
          "type": "address[]"
        }
      ],
      "name": "registerTokens",
      "outputs": [],
      "stateMutability": "nonpayable",
      "type": "function"
    },
    {
      "inputs": [
        {
          "internalType": "contract IAuthorizer",
          "name": "newAuthorizer",
          "type": "address"
        }
      ],
      "name": "setAuthorizer",
      "outputs": [],
      "stateMutability": "nonpayable",
      "type": "function"
    },
    {
      "inputs": [
        {
          "internalType": "bool",
          "name": "paused",
          "type": "bool"
        }
      ],
      "name": "setPaused",
      "outputs": [],
      "stateMutability": "nonpayable",
      "type": "function"
    },
    {
      "inputs": [
        {
          "internalType": "address",
          "name": "sender",
          "type": "address"
        },
        {
          "internalType": "address",
          "name": "relayer",
          "type": "address"
        },
        {
          "internalType": "bool",
          "name": "approved",
          "type": "bool"
        }
      ],
      "name": "setRelayerApproval",
      "outputs": [],
      "stateMutability": "nonpayable",
      "type": "function"
    },
    {
      "inputs": [
        {
          "components": [
            {
              "internalType": "bytes32",
              "name": "poolId",
              "type": "bytes32"
            },
            {
              "internalType": "enum IVault.SwapKind",
              "name": "kind",
              "type": "uint8"
            },
            {
              "internalType": "contract IAsset",
              "name": "assetIn",
              "type": "address"
            },
            {
              "internalType": "contract IAsset",
              "name": "assetOut",
              "type": "address"
            },
            {
              "internalType": "uint256",
              "name": "amount",
              "type": "uint256"
            },
            {
              "internalType": "bytes",
              "name": "userData",
              "type": "bytes"
            }
          ],
          "internalType": "struct IVault.SingleSwap",
          "name": "singleSwap",
          "type": "tuple"
        },
        {
          "components": [
            {
              "internalType": "address",
              "name": "sender",
              "type": "address"
            },
            {
              "internalType": "bool",
              "name": "fromInternalBalance",
              "type": "bool"
            },
            {
              "internalType": "address payable",
              "name": "recipient",
              "type": "address"
            },
            {
              "internalType": "bool",
              "name": "toInternalBalance",
              "type": "bool"
            }
          ],
          "internalType": "struct IVault.FundManagement",
          "name": "funds",
          "type": "tuple"
        },
        {
          "internalType": "uint256",
          "name": "limit",
          "type": "uint256"
        },
        {
          "internalType": "uint256",
          "name": "deadline",
          "type": "uint256"
        }
      ],
      "name": "swap",
      "outputs": [
        {
          "internalType": "uint256",
          "name": "amountCalculated",
          "type": "uint256"
        }
      ],
      "stateMutability": "payable",
      "type": "function"
    },
    {
      "stateMutability": "payable",
      "type": "receive"
    }
  ],
  "bytecode": {
    "object": "0x6101806040523480156200001257600080fd5b5060405162007e0638038062007e0683398101604081905262000035916200028c565b8382826040518060400160405280601181526020017010985b185b98d95c88158c8815985d5b1d607a1b81525080604051806040016040528060018152602001603160f81b815250306001600160a01b031660001b89806001600160a01b03166080816001600160a01b0316815250505030604051620000b59062000265565b6001600160a01b039091168152602001604051809103906000f080158015620000e2573d6000803e3d6000fd5b506001600160a01b031660a052600160005560c052815160209283012060e052805191012061010052507f8b73c3c69bb8fe3d512ecc4cf759cc79239f7b179b0ffacaa9a75d522b39400f61012052620001456276a7008311156101946200019a565b6200015962278d008211156101956200019a565b6000620001678342620002d9565b61014081905290506200017b8282620002d9565b61016052506200018f9150829050620001af565b505050505062000301565b81620001ab57620001ab816200020b565b5050565b6040516001600160a01b038216907f94b979b6831a51293e2641426f97747feed46f17779fed9cd18d1ecefcfe92ef90600090a2600380546001600160a01b0390921661010002610100600160a81b0319909216919091179055565b6030600a820601600a820491506030600a830601600a830492506030600a8406018060101b8260081b8401016642414c230000000160c81b9250505062461bcd60e51b600052602060045260076024528060445260646000fd5b610ce3806200712383390190565b6001600160a01b03811681146200028957600080fd5b50565b60008060008060808587031215620002a357600080fd5b8451620002b08162000273565b6020860151909450620002c38162000273565b6040860151606090960151949790965092505050565b80820180821115620002fb57634e487b7160e01b600052601160045260246000fd5b92915050565b60805160a05160c05160e05161010051610120516101405161016051616d61620003c26000396000818161094f01528181611e410152611ed301526000818161092c0152611e0e0152600081816117ae015261555b0152600081816117f0015261559d0152600081816117cf015261557c0152600061136e01526000818161049e01528181612294015281816123fc0152614f7c0152600081816101b80152818161040f01528181611f6d015281816120cb01526121e20152616d616000f3fe6080604052600436106101a55760003560e01c8063945bcec9116100e1578063e6c460921161008a578063f84d066e11610064578063f84d066e14610525578063f94d466814610545578063fa6e671d14610574578063fec90d721461059457600080fd5b8063e6c46092146104c2578063ed24911d146104e2578063f6c00927146104f757600080fd5b8063b05f8e48116100bb578063b05f8e4814610433578063b95cac281461047c578063d2946c2b1461048f57600080fd5b8063945bcec9146103b6578063aaabadc5146103c9578063ad5c46481461040057600080fd5b806352bbbe291161014e5780637d3aeb96116101285780637d3aeb9614610320578063851c1bb3146103405780638bdb39131461036057806390193b7c1461038057600080fd5b806352bbbe29146102cd5780635c38449e146102e057806366a9c7d21461030057600080fd5b80630f5a6efa1161017f5780630f5a6efa1461024e57806316c38b3c1461027b5780631c0de0511461029b57600080fd5b8063058a628f146101e857806309b2760f146102085780630e8e3e841461023b57600080fd5b366101e3576101e1336001600160a01b037f000000000000000000000000000000000000000000000000000000000000000016146102066105c4565b005b600080fd5b3480156101f457600080fd5b506101e16102033660046159d2565b6105d6565b34801561021457600080fd5b506102286102233660046159fc565b6105fc565b6040519081526020015b60405180910390f35b6101e1610249366004615b2a565b6106de565b34801561025a57600080fd5b5061026e610269366004615c99565b61082e565b6040516102329190615d24565b34801561028757600080fd5b506101e1610296366004615d45565b610901565b3480156102a757600080fd5b506102b061091a565b604080519315158452602084019290925290820152606001610232565b6102286102db366004615e67565b610976565b3480156102ec57600080fd5b506101e16102fb366004615f9d565b610b6f565b34801561030c57600080fd5b506101e161031b366004616038565b610ff5565b34801561032c57600080fd5b506101e161033b366004616104565b6111d8565b34801561034c57600080fd5b5061022861035b366004616135565b61136a565b34801561036c57600080fd5b506101e161037b366004616213565b6113e7565b34801561038c57600080fd5b5061022861039b3660046159d2565b6001600160a01b031660009081526002602052604090205490565b61026e6103c4366004616376565b6113fd565b3480156103d557600080fd5b5060035461010090046001600160a01b03165b6040516001600160a01b039091168152602001610232565b34801561040c57600080fd5b507f00000000000000000000000000000000000000000000000000000000000000006103e8565b34801561043f57600080fd5b5061045361044e366004616481565b611558565b604080519485526020850193909352918301526001600160a01b03166060820152608001610232565b6101e161048a366004616213565b61163f565b34801561049b57600080fd5b507f00000000000000000000000000000000000000000000000000000000000000006103e8565b3480156104ce57600080fd5b506101e16104dd3660046164b1565b611658565b3480156104ee57600080fd5b506102286117a5565b34801561050357600080fd5b50610517610512366004616582565b611850565b6040516102329291906165de565b34801561053157600080fd5b5061026e6105403660046165fb565b61187b565b34801561055157600080fd5b50610565610560366004616582565b611990565b604051610232939291906166ba565b34801561058057600080fd5b506101e161058f3660046166f0565b6119c4565b3480156105a057600080fd5b506105b46105af36600461673b565b611a72565b6040519015158152602001610232565b816105d2576105d281611aa7565b5050565b6105de611b1b565b6105e6611b34565b6105ef81611b7a565b6105f96001600055565b50565b6000610606611b1b565b61060e611bed565b600061061d3384600654611c02565b60008181526005602052604090205490915061063f9060ff16156101f46105c4565b600081815260056020526040812080547fffffffffffffffffffffffffffffffffffffffffffffffffffffffffffffff00166001908117909155600680549192909161068c908490616798565b9091555050604051339082907f3c13bc30b8e878c53fd2a36b679409c073afd75950be43d8858768e956fbc20e906106c59087906167ab565b60405180910390a390506106d96001600055565b919050565b6106e6611b1b565b6000806000805b84518110156108175760008060008060006107218a8781518110610713576107136167b9565b602002602001015189611c5a565b9c5093985091965094509250905060018560038111156107435761074361659b565b036107595761075484838386611cf0565b6107ff565b8661076b57610766611bed565b600196505b600085600381111561077f5761077f61659b565b036107af5761079084838386611d13565b6001600160a01b038416610754576107a88984611d33565b98506107ff565b6107c66001600160a01b03851615156102076105c4565b8360028660038111156107db576107db61659b565b036107f1576107ec81848487611d50565b6107fd565b6107fd81848487611d69565b505b5050505050808061080f906167e8565b9150506106ed565b5061082183611dd6565b5050506105f96001600055565b6060815167ffffffffffffffff81111561084a5761084a615a19565b604051908082528060200260200182016040528015610873578160200160208202803683370190505b50905060005b82518110156108fa576108cb84848381518110610898576108986167b9565b60200260200101516001600160a01b039182166000908152600b6020908152604080832093909416825291909152205490565b8282815181106108dd576108dd6167b9565b6020908102919091010152806108f2816167e8565b915050610879565b5092915050565b610909611b1b565b610911611b34565b6105ef81611e03565b6000806000610927611ecf565b1592507f000000000000000000000000000000000000000000000000000000000000000091507f00000000000000000000000000000000000000000000000000000000000000005b9050909192565b6000610980611b1b565b610988611bed565b835161099381611f05565b6109a2834211156101fc6105c4565b6109b560008760800151116101fe6105c4565b60006109c48760400151611f54565b905060006109d58860600151611f54565b90506109f8816001600160a01b0316836001600160a01b031614156101fd6105c4565b60408051610120810182526000808252602080830182905292820181905260608083018290526080830182815260a0840183905260c0840183905260e08401929092526101008301528a5190529089015181906001811115610a5c57610a5c61659b565b90816001811115610a6f57610a6f61659b565b9052506001600160a01b03808416602083015282811660408084019190915260808b0151606084015260a08b01516101008401528951821660c08401528901511660e0820152600080610ac183611f91565b91985092509050610afe60008c602001516001811115610ae357610ae361659b565b14610af15789831115610af6565b898210155b6101fb6105c4565b610b168b60400151838c600001518d60200151612099565b610b2e8b60600151828c604001518d6060015161218a565b610b57610b468c604001516001600160a01b03161590565b610b51576000611dd6565b82611dd6565b505050505050610b676001600055565b949350505050565b610b77611b1b565b610b7f611bed565b610b8b83518351612282565b6000835167ffffffffffffffff811115610ba757610ba7615a19565b604051908082528060200260200182016040528015610bd0578160200160208202803683370190505b5090506000845167ffffffffffffffff811115610bef57610bef615a19565b604051908082528060200260200182016040528015610c18578160200160208202803683370190505b5090506000805b8651811015610dbe576000878281518110610c3c57610c3c6167b9565b602002602001015190506000878381518110610c5a57610c5a6167b9565b60200260200101519050610ca4846001600160a01b0316836001600160a01b03161160006001600160a01b0316846001600160a01b031614610c9d5760666105c4565b60686105c4565b6040517f70a0823100000000000000000000000000000000000000000000000000000000815230600482015291935083916001600160a01b038316906370a0823190602401602060405180830381865afa158015610d06573d6000803e3d6000fd5b505050506040513d601f19601f82011682018060405250810190610d2a9190616820565b858481518110610d3c57610d3c6167b9565b602002602001018181525050610d518161228f565b868481518110610d6357610d636167b9565b602002602001018181525050610d9781868581518110610d8557610d856167b9565b602002602001015110156102106105c4565b610dab6001600160a01b0383168b83612320565b505080610db7906167e8565b9050610c1f565b506040517ff04f27070000000000000000000000000000000000000000000000000000000081526001600160a01b0388169063f04f270790610e0a908990899088908a906004016168a7565b600060405180830381600087803b158015610e2457600080fd5b505af1158015610e38573d6000803e3d6000fd5b5050505060005b8651811015610fe1576000878281518110610e5c57610e5c6167b9565b602002602001015190506000848381518110610e7a57610e7a6167b9565b60209081029190910101516040517f70a082310000000000000000000000000000000000000000000000000000000081523060048201529091506000906001600160a01b038416906370a0823190602401602060405180830381865afa158015610ee8573d6000803e3d6000fd5b505050506040513d601f19601f82011682018060405250810190610f0c9190616820565b9050610f1d828210156102036105c4565b6000610f2983836168f4565b9050610f53888681518110610f4057610f406167b9565b602002602001015182101561025a6105c4565b610f5d84826123e7565b836001600160a01b03168c6001600160a01b03167f0d7d75e01ab95780d3cd1c8ec0dd6c2ce19e3a20427eec8bf53283b6fb8e95f08c8881518110610fa457610fa46167b9565b602002602001015184604051610fc4929190918252602082015260400190565b60405180910390a35050505080610fda906167e8565b9050610e3f565b50505050610fef6001600055565b50505050565b610ffd611b1b565b611005611bed565b8261100f81612421565b61101b83518351612282565b60005b83518110156110e557600084828151811061103b5761103b6167b9565b6020026020010151905061106760006001600160a01b0316826001600160a01b031614156101356105c4565b838281518110611079576110796167b9565b6020908102919091018101516000888152600a835260408082206001600160a01b0395861683529093529190912080547fffffffffffffffffffffffff000000000000000000000000000000000000000016929091169190911790556110de816167e8565b905061101e565b5060006110f185612453565b905060028160028111156111075761110761659b565b036111605761111c845160021461020c6105c4565b61115b8585600081518110611133576111336167b9565b60200260200101518660018151811061114e5761114e6167b9565b602002602001015161246d565b61118d565b60018160028111156111745761117461659b565b036111835761115b8585612531565b61118d8585612597565b847ff5847d3f2197b16cdcd2098ec95d0905cd1abdaf415f07bb7cef2bba8ac5dec485856040516111bf929190616907565b60405180910390a250506111d36001600055565b505050565b6111e0611b1b565b6111e8611bed565b816111f281612421565b60006111fd84612453565b905060028160028111156112135761121361659b565b0361126c57611228835160021461020c6105c4565b611267848460008151811061123f5761123f6167b9565b60200260200101518560018151811061125a5761125a6167b9565b60200260200101516125fa565b611299565b60018160028111156112805761128061659b565b0361128f5761126784846126b5565b611299848461278b565b60005b835181101561132557600a600086815260200190815260200160002060008583815181106112cc576112cc6167b9565b6020908102919091018101516001600160a01b0316825281019190915260400160002080547fffffffffffffffffffffffff000000000000000000000000000000000000000016905561131e816167e8565b905061129c565b50837f7dcdc6d02ef40c7c1a7046a011b058bd7f988fa14e20a66344f9d4e60657d610846040516113569190616967565b60405180910390a250506105d26001600055565b60007f0000000000000000000000000000000000000000000000000000000000000000826040516020016113ca9291909182527fffffffff0000000000000000000000000000000000000000000000000000000016602082015260240190565b604051602081830303815290604052805190602001209050919050565b610fef60018585856113f886612816565b612847565b6060611407611b1b565b61140f611bed565b835161141a81611f05565b611429834211156101fc6105c4565b61143586518551612282565b6114418787878b6129f7565b91506000805b8751811015611533576000888281518110611464576114646167b9565b602002602001015190506000858381518110611482576114826167b9565b602002602001015190506114b48884815181106114a1576114a16167b9565b60200260200101518213156101fb6105c4565b60008113156114f457885160208a015182916114d39185918491612099565b6001600160a01b0383166114ee576114eb8582611d33565b94505b50611520565b60008112156115205760006115088261697a565b905061151e83828c604001518d6060015161218a565b505b50508061152c906167e8565b9050611447565b5061153d81611dd6565b50506115496001600055565b9695505050505050565b905090565b6000806000808561156881612d30565b60008061157489612453565b9050600281600281111561158a5761158a61659b565b036115a0576115998989612d4e565b91506115d0565b60018160028111156115b4576115b461659b565b036115c3576115998989612dc6565b6115cd8989612e5d565b91505b6dffffffffffffffffffffffffffff821696506115fd8260701c6dffffffffffffffffffffffffffff1690565b95506116098260e01c90565b6000998a52600a60209081526040808c206001600160a01b039b8c168d5290915290992054969995989796909616955050505050565b611647611bed565b610fef60008585856113f886612816565b611660611b1b565b611668611bed565b6040805160808101825260008082526020820181905291810182905260608101829052905b8251811015611799578281815181106116a8576116a86167b9565b602002602001015191506000826020015190506116c481612d30565b60408301516116de6116d68383612e75565b6102096105c4565b6000828152600a602090815260408083206001600160a01b038581168552925290912054611711911633146101f66105c4565b8351606085015160008061172784878786612edb565b91509150846001600160a01b0316336001600160a01b0316877f6edcaf6241105b4c94c2efdbf3a6b12458eb3d07be3a0e81d24b13c44045fe7a858560405161177a929190918252602082015260400190565b60405180910390a450505050505080611792906167e8565b905061168d565b50506105f96001600055565b600061155360007f00000000000000000000000000000000000000000000000000000000000000007f00000000000000000000000000000000000000000000000000000000000000007f000000000000000000000000000000000000000000000000000000000000000046604080516020810195909552840192909252606083015260808201523060a082015260c00160405160208183030381529060405280519060200120905090565b6000808261185d81612d30565b6118678460601c90565b61187085612453565b925092505b50915091565b6060333014611966576000306001600160a01b03166000366040516118a19291906169b2565b6000604051808303816000865af19150503d80600081146118de576040519150601f19603f3d011682016040523d82523d6000602084013e6118e3565b606091505b5050905080600081146118f257fe5b60046000803e6000517fffffffff00000000000000000000000000000000000000000000000000000000167ffa61cc1200000000000000000000000000000000000000000000000000000000811461194e573d6000803e3d6000fd5b50602060005260043d0380600460203e602081016000f35b6000611974858585896129f7565b9050602081510263fa61cc126020830352600482036024820181fd5b60608060008361199f81612d30565b60606119aa86612f54565b90955090506119b881612fb1565b95979096509350505050565b6119cc611b1b565b6119d4611bed565b826119de81611f05565b6001600160a01b0384811660008181526004602090815260408083209488168084529482529182902080547fffffffffffffffffffffffffffffffffffffffffffffffffffffffffffffff001687151590811790915591519182529192917f46961fdb4502b646d5095fba7600486a8ac05041d55cdf0f16ed677180b5cad8910160405180910390a3506111d36001600055565b6001600160a01b03808316600090815260046020908152604080832093851683529290529081205460ff165b90505b92915050565b6030600a820601600a820491506030600a830601600a830492506030600a8406018060101b8260081b8401016642414c230000000160c81b925050507f08c379a000000000000000000000000000000000000000000000000000000000600052602060045260076024528060445260646000fd5b611b2d600260005414156101906105c4565b6002600055565b6000611b636000357fffffffff000000000000000000000000000000000000000000000000000000001661136a565b90506105f9611b728233613079565b6101916105c4565b6040516001600160a01b038216907f94b979b6831a51293e2641426f97747feed46f17779fed9cd18d1ecefcfe92ef90600090a2600380546001600160a01b03909216610100027fffffffffffffffffffffff0000000000000000000000000000000000000000ff909216919091179055565b611c00611bf8611ecf565b6101926105c4565b565b600069ffffffffffffffffffff82166050846002811115611c2557611c2561659b565b901b17606085901b7fffffffffffffffffffffffffffffffffffffffff000000000000000000000000161790505b9392505050565b600080600080600080600088606001519050336001600160a01b0316816001600160a01b031614611cca5787611c9757611c92611b34565b600197505b6001600160a01b0381166000908152600460209081526040808320338452909152902054611cca9060ff166101f76105c4565b885160208a015160408b01516080909b0151919b909a9992985090965090945092505050565b611d0583611cfd86611f54565b836000613113565b50610fef848284600061218a565b611d2682611d2086611f54565b83613193565b610fef8482856000612099565b600080611d408385616798565b9050611a9e8482101560006105c4565b611d5d8385836000613113565b50610fef828583613193565b8015610fef57611d846001600160a01b0385168484846131d7565b604080516001600160a01b0384811682526020820184905280861692908716917f540a1a3f28340caec336c81d8d7b3df139ee5cdc1839a4f283d7ebb7eaae2d5c91015b60405180910390a350505050565b611de5813410156102046105c4565b6000611df182346168f4565b905080156105d2576105d23382613228565b8015611e3c57611e377f000000000000000000000000000000000000000000000000000000000000000042106101936105c4565b611e6a565b611e6a7f000000000000000000000000000000000000000000000000000000000000000042106101a96105c4565b600380547fffffffffffffffffffffffffffffffffffffffffffffffffffffffffffffff00168215159081179091556040519081527f9e3a5e37224532dea67b89face185703738a228a6e8a23dee546960180d3be649060200160405180910390a150565b60007f000000000000000000000000000000000000000000000000000000000000000042118061155357505060035460ff161590565b336001600160a01b038216146105f957611f1d611b34565b6001600160a01b038116600090815260046020908152604080832033845290915290205460ff166105f9576105f9816101f7613299565b60006001600160a01b03821615611f6b5781611aa1565b7f0000000000000000000000000000000000000000000000000000000000000000611aa1565b600080600080611fa5856080015160601c90565b90506000611fb68660800151612453565b90506002816002811115611fcc57611fcc61659b565b03611fe257611fdb86836132d7565b9450612012565b6001816002811115611ff657611ff661659b565b0361200557611fdb8683613387565b61200f868361341a565b94505b6120258660000151876060015187613680565b809450819550505085604001516001600160a01b031686602001516001600160a01b031687608001517f2170c741c41531aec20e7c107c24eecfdd15e69c9bb0a8dd37b1840b9e0b207b8787604051612088929190918252602082015260400190565b60405180910390a450509193909250565b8215610fef576001600160a01b038416612142576120ba81156102026105c4565b6120c9834710156102046105c4565b7f00000000000000000000000000000000000000000000000000000000000000006001600160a01b031663d0e30db0846040518263ffffffff1660e01b81526004016000604051808303818588803b15801561212457600080fd5b505af1158015612138573d6000803e3d6000fd5b5050505050610fef565b8381156121685760006121588483876001613113565b905061216481866168f4565b9450505b8315612183576121836001600160a01b0382168430876131d7565b5050505050565b8215610fef576001600160a01b038416612257576121ab81156102026105c4565b6040517f2e1a7d4d000000000000000000000000000000000000000000000000000000008152600481018490526001600160a01b037f00000000000000000000000000000000000000000000000000000000000000001690632e1a7d4d90602401600060405180830381600087803b15801561222657600080fd5b505af115801561223a573d6000803e3d6000fd5b50612252925050506001600160a01b03831684613228565b610fef565b83811561226e57612269838286613193565b612183565b6121836001600160a01b0382168486612320565b6105d281831460676105c4565b6000807f00000000000000000000000000000000000000000000000000000000000000006001600160a01b031663d877845c6040518163ffffffff1660e01b8152600401602060405180830381865afa1580156122f0573d6000803e3d6000fd5b505050506040513d601f19601f820116820180604052508101906123149190616820565b9050611c5383826136b3565b6040516001600160a01b0383166024820152604481018290526111d39084907fa9059cbb00000000000000000000000000000000000000000000000000000000906064015b604080517fffffffffffffffffffffffffffffffffffffffffffffffffffffffffffffffe08184030181529190526020810180517bffffffffffffffffffffffffffffffffffffffffffffffffffffffff167fffffffff000000000000000000000000000000000000000000000000000000009093169290921790915261371c565b80156105d2576105d26001600160a01b0383167f000000000000000000000000000000000000000000000000000000000000000083612320565b61242a81612d30565b6105f96124378260601c90565b6001600160a01b0316336001600160a01b0316146101f56105c4565b600061ffff605083901c16611aa1600382106101f46105c4565b61248e816001600160a01b0316836001600160a01b0316141561020a6105c4565b6124ad816001600160a01b0316836001600160a01b03161060666105c4565b600083815260096020526040902080546124ea906001600160a01b03161580156124e2575060018201546001600160a01b0316155b61020b6105c4565b80546001600160a01b039384167fffffffffffffffffffffffff00000000000000000000000000000000000000009182161782556001909101805492909316911617905550565b6000828152600860205260408120905b8251811015610fef576000612578848381518110612561576125616167b9565b6020026020010151846137b890919063ffffffff16565b90506125868161020a6105c4565b50612590816167e8565b9050612541565b6000828152600160205260408120905b8251811015610fef5760006125db8483815181106125c7576125c76167b9565b602090810291909101015184906000613842565b90506125e98161020a6105c4565b506125f3816167e8565b90506125a7565b600080600061260a86868661393b565b925092509250612669612639847bffffffffffffffffffffffffffffffffffffffffffffffffffffffff161590565b801561266157507bffffffffffffffffffffffffffffffffffffffffffffffffffffffff8316155b61020d6105c4565b600095865260096020526040862080547fffffffffffffffffffffffff000000000000000000000000000000000000000090811682556001909101805490911690559490945550505050565b6000828152600860205260408120905b8251811015610fef5760008382815181106126e2576126e26167b9565b60209081029190910181015160008781526007835260408082206001600160a01b0384168352909352919091205490915061273b907bffffffffffffffffffffffffffffffffffffffffffffffffffffffff1615612661565b60008581526007602090815260408083206001600160a01b0385168452909152812081905561276a8483613a8b565b9050612778816102096105c4565b505080612784906167e8565b90506126c5565b6000828152600160205260408120905b8251811015610fef5760008382815181106127b8576127b86167b9565b6020026020010151905060006127ce8483613c1b565b90506127f87bffffffffffffffffffffffffffffffffffffffffffffffffffffffff821615612661565b6128028483613c2a565b5050508061280f906167e8565b905061279b565b61284360405180608001604052806060815260200160608152602001606081526020016000151581525090565b5090565b61284f611b1b565b8361285981612d30565b8361286381611f05565b612877836000015151846020015151612282565b60006128868460000151613d44565b905060006128948883613de9565b905060008060006128a98c8c8c8c8c89613e8e565b92509250925060006128ba8c612453565b905060028160028111156128d0576128d061659b565b0361294f5761294a8c876000815181106128ec576128ec6167b9565b602002602001015186600081518110612907576129076167b9565b602002602001015189600181518110612922576129226167b9565b60200260200101518860018151811061293d5761293d6167b9565b602002602001015161407e565b61297d565b60018160028111156129635761296361659b565b036129735761294a8c8786614104565b61297d8c8561418e565b6000808e60018111156129925761299261659b565b1490508b6001600160a01b03168d7fe5ce249087ce04f05a957192435400fd97868dba0e6a4b4c049abf8af80dae78896129cc88866141e5565b876040516129dc939291906169c2565b60405180910390a35050505050505050506121836001600055565b6060835167ffffffffffffffff811115612a1357612a13615a19565b604051908082528060200260200182016040528015612a3c578160200160208202803683370190505b509050612a746040518060a0016040528060008019168152602001600081526020016000815260200160008152602001606081525090565b604080516101208101825260008082526020820181905291810182905260608082018390526080820183905260a0820183905260c0820183905260e082018390526101008201529080805b8951811015612d2357898181518110612ada57612ada6167b9565b60200260200101519450600089518660200151108015612afe575089518660400151105b9050612b0b8160646105c4565b6000612b338b886020015181518110612b2657612b266167b9565b6020026020010151611f54565b90506000612b508c896040015181518110612b2657612b266167b9565b9050612b73816001600160a01b0316836001600160a01b031614156101fd6105c4565b8760600151600003612bc657612b8e600085116101fe6105c4565b6000612b9b8b84846142b0565b6001600160a01b0316876001600160a01b0316149050612bbd816101ff6105c4565b50606088018590525b87516080880152868a6001811115612be057612be061659b565b90816001811115612bf357612bf361659b565b9052506001600160a01b0380831660208901528181166040808a01919091526060808b0151908a015260808a01516101008a01528c51821660c08a01528c01511660e0880152600080612c4589611f91565b91985092509050612c578c85856142d8565b9750612c91612c65836142f8565b8c8c6020015181518110612c7b57612c7b6167b9565b602002602001015161432890919063ffffffff16565b8b8b6020015181518110612ca757612ca76167b9565b602002602001018181525050612ceb612cbf826142f8565b8c8c6040015181518110612cd557612cd56167b9565b602002602001015161436790919063ffffffff16565b8b8b6040015181518110612d0157612d016167b9565b602002602001018181525050505050505080612d1c906167e8565b9050612abf565b5050505050949350505050565b6000818152600560205260409020546105f99060ff166101f46105c4565b6000806000806000612d5f876143a6565b945094509450945050836001600160a01b0316866001600160a01b031603612d8d5782945050505050611aa1565b816001600160a01b0316866001600160a01b031603612db1579350611aa192505050565b612dbc610209611aa7565b5050505092915050565b60008281526007602090815260408083206001600160a01b0385168452909152812054817bffffffffffffffffffffffffffffffffffffffffffffffffffffffff8216151580612e3a575060008581526008602090815260408083206001600160a01b038816845260010190915290205415155b905080612e5557612e4a85612d30565b612e55610209611aa7565b509392505050565b6000828152600160205260408120610b678184613c1b565b600080612e8184612453565b90506002816002811115612e9757612e9761659b565b03612eae57612ea68484614474565b915050611aa1565b6001816002811115612ec257612ec261659b565b03612ed157612ea684846144c5565b612ea684846144f3565b6000806000612ee986612453565b90506000876002811115612eff57612eff61659b565b03612f1a57612f1086828787614521565b9250925050612f4b565b6001876002811115612f2e57612f2e61659b565b03612f3f57612f10868287876145ab565b612f1086828787614638565b94509492505050565b6060806000612f6284612453565b90506002816002811115612f7857612f7861659b565b03612f8657611870846146a5565b6001816002811115612f9a57612f9a61659b565b03612fa857611870846147f1565b61187084614927565b60606000825167ffffffffffffffff811115612fcf57612fcf615a19565b604051908082528060200260200182016040528015612ff8578160200160208202803683370190505b5091506000905060005b825181101561187557600084828151811061301f5761301f6167b9565b6020026020010151905061303281614a4b565b848381518110613044576130446167b9565b6020026020010181815250506130638361305e8360e01c90565b614a81565b9250508080613071906167e8565b915050613002565b6003546040517f9be2a884000000000000000000000000000000000000000000000000000000008152600481018490526001600160a01b03838116602483015230604483015260009261010090041690639be2a88490606401602060405180830381865afa1580156130ef573d6000803e3d6000fd5b505050506040513d601f19601f82011682018060405250810190611a9e91906169fb565b6001600160a01b038085166000908152600b60209081526040808320938716835292905290812054613152838061314a5750848210155b6102016105c4565b61315c8185614a98565b9150600061316a83836168f4565b905061318987878361317b876142f8565b6131849061697a565b614aa7565b5050949350505050565b6001600160a01b038381166000908152600b60209081526040808320938616835292905290812054906131c68284611d33565b9050612183858583613184876142f8565b6040516001600160a01b0380851660248301528316604482015260648101829052610fef9085907f23b872dd0000000000000000000000000000000000000000000000000000000090608401612365565b613237814710156101a36105c4565b6000826001600160a01b03168260405160006040518083038185875af1925050503d8060008114613284576040519150601f19603f3d011682016040523d82523d6000602084013e613289565b606091505b505090506111d3816101a46105c4565b6001600160a01b0382166000908152600260205260408120805490826132be836167e8565b9190505590506111d36132d18483614b00565b836105c4565b6000806000806132f486608001518760200151886040015161393b565b92509250925060008087604001516001600160a01b031688602001516001600160a01b0316101561332957508390508261332f565b50829050835b61333b88888484614c8b565b60408b015160208c01519199509294509092506001600160a01b0391821691161061336f5761336a8183614d94565b613379565b6133798282614d94565b909255509295945050505050565b60008061339c84608001518560200151612dc6565b905060006133b285608001518660400151612dc6565b90506133c085858484614c8b565b6080880180516000908152600760208181526040808420828e01516001600160a01b03908116865290835281852098909855935183529081528282209a830151909516815298909352919096209590955550929392505050565b60808201516000908152600160209081526040808320828601516001600160a01b0316845260028101909252822054829182916000613466886040015184614de190919063ffffffff16565b9050811580613473575080155b15613490576134858860800151612d30565b613490610209611aa7565b61349b6001836168f4565b91506134a86001826168f4565b905060006134b4845490565b905060008167ffffffffffffffff8111156134d1576134d1615a19565b6040519080825280602002602001820160405280156134fa578160200160208202803683370190505b50600060a08c018190529091505b8281101561358f57600081815260018781016020526040909120015461352d81614a4b565b83838151811061353f5761353f6167b9565b60200260200101818152505061355d8c60a0015161305e8360e01c90565b60a08d01528582036135715780985061357c565b84820361357c578097505b5080613587816167e8565b915050613508565b506040517f01ec954a0000000000000000000000000000000000000000000000000000000081526001600160a01b038a16906301ec954a906135db908d90859089908990600401616ad5565b6020604051808303816000875af11580156135fa573d6000803e3d6000fd5b505050506040513d601f19601f8201168201806040525081019061361e9190616820565b97506000806136368c600001518d606001518c613680565b90925090506136458983614e00565b98506136518882614e4b565b60009687526001978801602052604080882089019a909a55948652505050949091209091015550909392505050565b600080808560018111156136965761369661659b565b036136a55750829050816136ab565b50819050825b935093915050565b6000806136c08385616b0e565b90506136e18415806136da5750836136d88684616b25565b145b60036105c4565b806000036136f3576000915050611aa1565b670de0b6b3a76400006137076001836168f4565b6137119190616b25565b612ea6906001616798565b600080836001600160a01b0316836040516137379190616b60565b6000604051808303816000865af19150503d8060008114613774576040519150601f19603f3d011682016040523d82523d6000602084013e613779565b606091505b5090925090508161378e573d6000803e3d6000fd5b610fef8151600014806137b05750818060200190518101906137b091906169fb565b6101a26105c4565b6001600160a01b038116600090815260018301602052604081205461383a57508154600180820184556000848152602080822090930180547fffffffffffffffffffffffff0000000000000000000000000000000000000000166001600160a01b03861690811790915585549082528286019093526040902091909155611aa1565b506000611aa1565b6001600160a01b03821660009081526002840160205260408120548082036139085784546040805180820182526001600160a01b038781168252602080830188815260008681526001808d0190935294909420925183547fffffffffffffffffffffffff00000000000000000000000000000000000000001692169190911782559151908201556138d4908290616798565b86556138e1816001616798565b6001600160a01b03861660009081526002880160205260409020555060019150611c539050565b8285600101600060018461391c91906168f4565b8152602001908152602001600020600101819055506000915050611c53565b600080600080600061394d8787614e82565b9150915060006139b583836040517fffffffffffffffffffffffffffffffffffffffff000000000000000000000000606084811b8216602084015283901b16603482015260009060480160405160208183030381529060405280519060200120905092915050565b60008a8152600960209081526040808320848452600201909152812080546001820154919750929350907bffffffffffffffffffffffffffffffffffffffffffffffffffffffff8316151580613a2857507bffffffffffffffffffffffffffffffffffffffffffffffffffffffff821615155b80613a495750613a388c87614474565b8015613a495750613a498c86614474565b905080613a6457613a598c612d30565b613a64610209611aa7565b613a6e8383614eb3565b9850613a7a8383614eea565b975050505050505093509350939050565b6001600160a01b03811660009081526001830160205260408120548015613c11576000613ab96001836168f4565b8554909150600090613acd906001906168f4565b90506000866000018281548110613ae657613ae66167b9565b60009182526020909120015487546001600160a01b0390911691508190889085908110613b1557613b156167b9565b600091825260209091200180547fffffffffffffffffffffffff0000000000000000000000000000000000000000166001600160a01b0392909216919091179055613b61836001616798565b6001600160a01b03821660009081526001890160205260409020558654879080613b8d57613b8d616b7c565b6000828152602080822083017fffffffffffffffffffffffffffffffffffffffffffffffffffffffffffffffff90810180547fffffffffffffffffffffffff00000000000000000000000000000000000000001690559092019092556001600160a01b0388168252600189810190915260408220919091559450611aa19350505050565b6000915050611aa1565b6000611a9e8383610209614f23565b6001600160a01b03811660009081526002830160205260408120548015613c11576000613c586001836168f4565b9050600060018660000154613c6d91906168f4565b6000818152600180890160205260408083208684529220825481547fffffffffffffffffffffffff0000000000000000000000000000000000000000166001600160a01b03909116178155828201549082015591925090613ccf908490616798565b90546001600160a01b0390811660009081526002890160208181526040808420959095558583526001808c01825285842080547fffffffffffffffffffffffff00000000000000000000000000000000000000001681558101849055958b559289168252909152908120559250611aa1915050565b60606000825167ffffffffffffffff811115613d6257613d62615a19565b604051908082528060200260200182016040528015613d8b578160200160208202803683370190505b50905060005b83518110156108fa57613daf848281518110612b2657612b266167b9565b828281518110613dc157613dc16167b9565b6001600160a01b0390921660209283029190910190910152613de2816167e8565b9050613d91565b6060600080613df785612f54565b91509150613e0782518551612282565b613e17600083511161020f6105c4565b60005b8251811015613e8557613e75858281518110613e3857613e386167b9565b60200260200101516001600160a01b0316848381518110613e5b57613e5b6167b9565b60200260200101516001600160a01b0316146102086105c4565b613e7e816167e8565b9050613e1a565b50949350505050565b6060806060600080613e9f86612fb1565b915091506000613eaf8b60601c90565b905060008c6001811115613ec557613ec561659b565b14613f7757806001600160a01b03166374f3b0098c8c8c8787613ee6614f78565b8f604001516040518863ffffffff1660e01b8152600401613f0d9796959493929190616bab565b6000604051808303816000875af1158015613f2c573d6000803e3d6000fd5b505050506040513d6000823e601f3d9081017fffffffffffffffffffffffffffffffffffffffffffffffffffffffffffffffe0168201604052613f729190810190616c64565b61401f565b806001600160a01b031663d5c096c48c8c8c8787613f93614f78565b8f604001516040518863ffffffff1660e01b8152600401613fba9796959493929190616bab565b6000604051808303816000875af1158015613fd9573d6000803e3d6000fd5b505050506040513d6000823e601f3d9081017fffffffffffffffffffffffffffffffffffffffffffffffffffffffffffffffe016820160405261401f9190810190616c64565b8095508196505050614035875186518651614ffc565b60008c60018111156140495761404961659b565b146140605761405b8989898888615014565b61406d565b61406d8a89898888615186565b955050505096509650969350505050565b60408051606086811b7fffffffffffffffffffffffffffffffffffffffff0000000000000000000000009081166020808501919091529186901b16603483015282516028818403018152604890920183528151918101919091206000888152600983528381208282526002019092529190206140fa8584614d94565b9055505050505050565b60005b8251811015610fef57818181518110614122576141226167b9565b6020026020010151600760008681526020019081526020016000206000858481518110614151576141516167b9565b60200260200101516001600160a01b03166001600160a01b031681526020019081526020016000208190555080614187906167e8565b9050614107565b6000828152600160205260408120905b8251811015610fef576141d5818483815181106141bd576141bd6167b9565b602002602001015184614e6a9092919063ffffffff16565b6141de816167e8565b905061419e565b6060825167ffffffffffffffff81111561420157614201615a19565b60405190808252806020026020018201604052801561422a578160200160208202803683370190505b50905060005b83518110156108fa578261426657838181518110614250576142506167b9565b60200260200101516142619061697a565b614281565b838181518110614278576142786167b9565b60200260200101515b828281518110614293576142936167b9565b6020908102919091010152806142a8816167e8565b915050614230565b6000808460018111156142c5576142c561659b565b146142d05781610b67565b509092915050565b6000808460018111156142ed576142ed61659b565b146108fa5782610b67565b60006128437f800000000000000000000000000000000000000000000000000000000000000083106101a56105c4565b6000806143358385616cbe565b9050611a9e6000841215801561434b5750848212155b80614360575060008412801561436057508482125b60006105c4565b6000806143748385616ce6565b9050611a9e6000841215801561438a5750848213155b8061439f575060008412801561439f57508482135b60016105c4565b6000818152600960205260408120805460018201546001600160a01b039182169284929091169082908161443286856040517fffffffffffffffffffffffffffffffffffffffff000000000000000000000000606084811b8216602084015283901b16603482015260009060480160405160208183030381529060405280519060200120905092915050565b60008181526002840160205260409020805460018201549199509192506144598282614eb3565b96506144658282614eea565b94505050505091939590929450565b600082815260096020526040812080546001600160a01b03848116911614806144ac575060018101546001600160a01b038481169116145b8015610b67575050506001600160a01b03161515919050565b60008281526008602090815260408083206001600160a01b0385168452600181019092528220541515610b67565b60008281526001602090815260408083206001600160a01b0385168452600281019092528220541515610b67565b60008060028560028111156145385761453861659b565b0361454d5761454886858561533b565b61457c565b60018560028111156145615761456161659b565b0361457157614548868585615349565b61457c868585615357565b8215614596576145966001600160a01b0385163385612320565b61459f8361697a565b96929550919350505050565b60008060028560028111156145c2576145c261659b565b036145d7576145d2868585615365565b614606565b60018560028111156145eb576145eb61659b565b036145fb576145d2868585615373565b614606868585615381565b8215614621576146216001600160a01b0385163330866131d7565b82915061462d8261697a565b905094509492505050565b600080600285600281111561464f5761464f61659b565b036146665761465f86858561538f565b9050614698565b600185600281111561467a5761467a61659b565b0361468a5761465f86858561539f565b6146958685856153af565b90505b6000915094509492505050565b6060806000806000806146b7876143a6565b92975090955093509150506001600160a01b03841615806146df57506001600160a01b038216155b1561470757505060408051600080825260208201908152818301909252969095509350505050565b6040805160028082526060820183529091602083019080368337019050509550838660008151811061473b5761473b6167b9565b60200260200101906001600160a01b031690816001600160a01b031681525050818660018151811061476f5761476f6167b9565b6001600160a01b039290921660209283029190910182015260408051600280825260608201835290929091908301908036833701905050945082856000815181106147bc576147bc6167b9565b60200260200101818152505080856001815181106147dc576147dc6167b9565b60200260200101818152505050505050915091565b60008181526008602052604090208054606091829167ffffffffffffffff81111561481e5761481e615a19565b604051908082528060200260200182016040528015614847578160200160208202803683370190505b509250825167ffffffffffffffff81111561486457614864615a19565b60405190808252806020026020018201604052801561488d578160200160208202803683370190505b50915060005b83518110156149205760006148a883836153bf565b9050808583815181106148bd576148bd6167b9565b6001600160a01b03928316602091820292909201810191909152600088815260078252604080822093851682529290915220548451859084908110614904576149046167b9565b602090810291909101015250614919816167e8565b9050614893565b5050915091565b60008181526001602052604090208054606091829167ffffffffffffffff81111561495457614954615a19565b60405190808252806020026020018201604052801561497d578160200160208202803683370190505b509250825167ffffffffffffffff81111561499a5761499a615a19565b6040519080825280602002602001820160405280156149c3578160200160208202803683370190505b50915060005b83518110156149205760008181526001808401602052604090912080549101546001600160a01b0390911690858381518110614a0757614a076167b9565b60200260200101858481518110614a2057614a206167b9565b60209081029190910101919091526001600160a01b039091169052614a44816167e8565b90506149c9565b6000614a678260701c6dffffffffffffffffffffffffffff1690565b611aa1906dffffffffffffffffffffffffffff8416616798565b600081831015614a915781611a9e565b5090919050565b6000818310614a915781611a9e565b6001600160a01b038481166000818152600b602090815260408083209488168084529482529182902086905590518481527f18e1ea4139e68413d7d08aa752e71568e36b2c5bf940893314c2c5b01eaa0c429101611dc8565b6000367fffffffffffffffffffffffffffffffffffffffffffffffffffffffffffffff80013542811015614b38576000915050611aa1565b6000614b426153f2565b905080614b5457600092505050611aa1565b600081614b5f615502565b80516020918201206040805192830193909352918101919091523360608201526080810186905260a0810184905260c0016040516020818303038152906040528051906020012090506000614bb382615552565b90506000806000614bc261563d565b925092509250600060018585858560405160008152602001604052604051614c06949392919093845260ff9290921660208401526040830152606082015260800190565b6020604051602081039080840390855afa158015614c28573d6000803e3d6000fd5b50506040517fffffffffffffffffffffffffffffffffffffffffffffffffffffffffffffffe001519150506001600160a01b03811615801590614c7c57508a6001600160a01b0316816001600160a01b0316145b9b9a5050505050505050505050565b600080600080614c9a86614a4b565b90506000614ca786614a4b565b9050614cc0614cb68860e01c90565b61305e8860e01c90565b60a08a01526040517f9d2c110c0000000000000000000000000000000000000000000000000000000081526001600160a01b03891690639d2c110c90614d0e908c9086908690600401616d06565b6020604051808303816000875af1158015614d2d573d6000803e3d6000fd5b505050506040513d601f19601f82011682018060405250810190614d519190616820565b9250600080614d698b600001518c6060015187613680565b9092509050614d788983614e00565b9650614d848882614e4b565b9550505050509450945094915050565b600080614dae614da48560e01c90565b61305e8560e01c90565b9050610b676dffffffffffffffffffffffffffff85166dffffffffffffffffffffffffffff85168363ffffffff166156b3565b6001600160a01b03166000908152600291909101602052604090205490565b600080614e1f836dffffffffffffffffffffffffffff86165b90611d33565b90506000614e3d8560701c6dffffffffffffffffffffffffffff1690565b9050436115498383836156d2565b600080614e1f836dffffffffffffffffffffffffffff86165b90615715565b60009182526001928301602052604090912090910155565b600080826001600160a01b0316846001600160a01b031610614ea5578284614ea8565b83835b915091509250929050565b6000611a9e6dffffffffffffffffffffffffffff84166dffffffffffffffffffffffffffff84165b614ee58660e01c90565b6156d2565b6000611a9e614f098460701c6dffffffffffffffffffffffffffff1690565b614edb8460701c6dffffffffffffffffffffffffffff1690565b6001600160a01b0382166000908152600284016020526040812054614f4a811515846105c4565b614f6f85614f596001846168f4565b6000908152600191820160205260409020015490565b95945050505050565b60007f00000000000000000000000000000000000000000000000000000000000000006001600160a01b03166355c676286040518163ffffffff1660e01b8152600401602060405180830381865afa158015614fd8573d6000803e3d6000fd5b505050506040513d601f19601f820116820180604052508101906115539190616820565b6111d3828414801561500d57508183145b60676105c4565b6060835167ffffffffffffffff81111561503057615030615a19565b604051908082528060200260200182016040528015615059578160200160208202803683370190505b50905060005b85515181101561517c57600084828151811061507d5761507d6167b9565b602002602001015190506150b3876020015183815181106150a0576150a06167b9565b60200260200101518210156101f96105c4565b6000876000015183815181106150cb576150cb6167b9565b602002602001015190506150e581838b8b6060015161218a565b60008584815181106150f9576150f96167b9565b6020026020010151905061511561510f83611f54565b826123e7565b61514a6151228483611d33565b898681518110615134576151346167b9565b6020026020010151614e4b90919063ffffffff16565b85858151811061515c5761515c6167b9565b60200260200101818152505050505080615175906167e8565b905061505f565b5095945050505050565b60606000845167ffffffffffffffff8111156151a4576151a4615a19565b6040519080825280602002602001820160405280156151cd578160200160208202803683370190505b50915060005b8651518110156153315760008582815181106151f1576151f16167b9565b6020026020010151905061522788602001518381518110615214576152146167b9565b60200260200101518211156101fa6105c4565b60008860000151838151811061523f5761523f6167b9565b6020026020010151905061525981838c8c60600151612099565b6001600160a01b038116615274576152718483611d33565b93505b6000868481518110615288576152886167b9565b6020026020010151905061529e61510f83611f54565b808310156152ca576152c56152b384836168f4565b8a8681518110615134576151346167b9565b6152ff565b6152ff6152d782856168f4565b8a86815181106152e9576152e96167b9565b6020026020010151614e0090919063ffffffff16565b868581518110615311576153116167b9565b6020026020010181815250505050508061532a906167e8565b90506151d3565b5061517c81611dd6565b610fef83836157318461578b565b610fef838361573184615835565b610fef838361573184615890565b610fef83836158df8461578b565b610fef83836158df84615835565b610fef83836158df84615890565b6000610b67848461591e8561578b565b6000610b67848461591e85615835565b6000610b67848461591e85615890565b60008260000182815481106153d6576153d66167b9565b6000918252602090912001546001600160a01b03169392505050565b6000803560e01c8063b95cac28811461543a57638bdb39138114615462576352bbbe29811461548a5763945bcec981146154b25763fa6e671d81146154da5760009250505090565b7f3f7b71252bd19113ff48c19c6e004a9bcfcca320a0d74d58e85877cbd7dcae589250505090565b7f8bbc57f66ea936902f50a71ce12b92c43f3c5340bb40c27c4e90ab84eeae33539250505090565b7fe192dcbc143b1e244ad73b813fd3c097b832ad260a157340b4e5e5beda067abe9250505090565b7f9bfc43a4d98313c6766986ffd7c916c7481566d9f224c6819af0a53388aced3a9250505090565b7fa3f865aa351e51cfeb40f5178d1564bb629fe9030b83caf6361d1baaf5b90b5a9250505090565b60606000368080601f01602080910402602001604051908101604052809392919081815260200183838082843760009201919091525050825192935050506080101561554f576080360381525b90565b60006155fd60007f00000000000000000000000000000000000000000000000000000000000000007f00000000000000000000000000000000000000000000000000000000000000007f000000000000000000000000000000000000000000000000000000000000000046604080516020810195909552840192909252606083015260808201523060a082015260c00160405160208183030381529060405280519060200120905090565b6040517f190100000000000000000000000000000000000000000000000000000000000060208201526022810191909152604281018390526062016113ca565b367fffffffffffffffffffffffffffffffffffffffffffffffffffffffffffffffa0810135907fffffffffffffffffffffffffffffffffffffffffffffffffffffffffffffffc0810135906000907fffffffffffffffffffffffffffffffffffffffffffffffffffffffffffffffe0013561096f565b6000836156c8607085901b60e085901b616798565b610b679190616798565b6000806156df8486616798565b905061570a85821015801561570257506e01000000000000000000000000000082105b61020e6105c4565b614f6f8585856156b3565b60006157258383111560016105c4565b6000610b6783856168f4565b60008061574e836dffffffffffffffffffffffffffff8616614e64565b9050600061577084614e198760701c6dffffffffffffffffffffffffffff1690565b9050600061577e8660e01c90565b90506115498383836156d2565b600080600080600061579c896143a6565b9450509350935093506000836001600160a01b0316896001600160a01b0316036157e65760006157d084898b63ffffffff16565b90506157dc818561593d565b9093509050615808565b60006157f683898b63ffffffff16565b9050615802818461593d565b90925090505b6158128383614d94565b855561581e838361597d565b600190950194909455509192505050949350505050565b6000806158428686612dc6565b9050600061585482858763ffffffff16565b60008881526007602090815260408083206001600160a01b038b16845290915290208190559050615885818361593d565b979650505050505050565b6000848152600160205260408120816158a98287613c1b565b905060006158bb82868863ffffffff16565b90506158c8838883613842565b506158d3818361593d565b98975050505050505050565b6000806158fc836dffffffffffffffffffffffffffff8616614e19565b9050600061577084614e648760701c6dffffffffffffffffffffffffffff1690565b60006dffffffffffffffffffffffffffff831643614f6f8285836156d2565b60006159598260701c6dffffffffffffffffffffffffffff1690565b6159738460701c6dffffffffffffffffffffffffffff1690565b611a9e9190616ce6565b6000611a9e61599c8460701c6dffffffffffffffffffffffffffff1690565b6159b68460701c6dffffffffffffffffffffffffffff1690565b60006156b3565b6001600160a01b03811681146105f957600080fd5b6000602082840312156159e457600080fd5b8135611a9e816159bd565b600381106105f957600080fd5b600060208284031215615a0e57600080fd5b8135611a9e816159ef565b7f4e487b7100000000000000000000000000000000000000000000000000000000600052604160045260246000fd5b60405160a0810167ffffffffffffffff81118282101715615a6b57615a6b615a19565b60405290565b6040516080810167ffffffffffffffff81118282101715615a6b57615a6b615a19565b60405160c0810167ffffffffffffffff81118282101715615a6b57615a6b615a19565b604051601f82017fffffffffffffffffffffffffffffffffffffffffffffffffffffffffffffffe016810167ffffffffffffffff81118282101715615afe57615afe615a19565b604052919050565b600067ffffffffffffffff821115615b2057615b20615a19565b5060051b60200190565b60006020808385031215615b3d57600080fd5b823567ffffffffffffffff811115615b5457600080fd5b8301601f81018513615b6557600080fd5b8035615b78615b7382615b06565b615ab7565b81815260a09182028301840191848201919088841115615b9757600080fd5b938501935b83851015615c1e5780858a031215615bb45760008081fd5b615bbc615a48565b853560048110615bcc5760008081fd5b815285870135615bdb816159bd565b8188015260408681013590820152606080870135615bf8816159bd565b90820152608086810135615c0b816159bd565b9082015283529384019391850191615b9c565b50979650505050505050565b600082601f830112615c3b57600080fd5b81356020615c4b615b7383615b06565b82815260059290921b84018101918181019086841115615c6a57600080fd5b8286015b84811015615c8e578035615c81816159bd565b8352918301918301615c6e565b509695505050505050565b60008060408385031215615cac57600080fd5b8235615cb7816159bd565b9150602083013567ffffffffffffffff811115615cd357600080fd5b615cdf85828601615c2a565b9150509250929050565b600081518084526020808501945080840160005b83811015615d1957815187529582019590820190600101615cfd565b509495945050505050565b602081526000611a9e6020830184615ce9565b80151581146105f957600080fd5b600060208284031215615d5757600080fd5b8135611a9e81615d37565b8035600281106106d957600080fd5b600082601f830112615d8257600080fd5b813567ffffffffffffffff811115615d9c57615d9c615a19565b615dcd60207fffffffffffffffffffffffffffffffffffffffffffffffffffffffffffffffe0601f84011601615ab7565b818152846020838601011115615de257600080fd5b816020850160208301376000918101602001919091529392505050565b600060808284031215615e1157600080fd5b615e19615a71565b90508135615e26816159bd565b81526020820135615e3681615d37565b60208201526040820135615e49816159bd565b60408201526060820135615e5c81615d37565b606082015292915050565b60008060008060e08587031215615e7d57600080fd5b843567ffffffffffffffff80821115615e9557600080fd5b9086019060c08289031215615ea957600080fd5b615eb1615a94565b82358152615ec160208401615d62565b60208201526040830135615ed4816159bd565b60408201526060830135615ee7816159bd565b60608201526080838101359082015260a083013582811115615f0857600080fd5b615f148a828601615d71565b60a083015250809650505050615f2d8660208701615dff565b939693955050505060a08201359160c0013590565b600082601f830112615f5357600080fd5b81356020615f63615b7383615b06565b82815260059290921b84018101918181019086841115615f8257600080fd5b8286015b84811015615c8e5780358352918301918301615f86565b60008060008060808587031215615fb357600080fd5b8435615fbe816159bd565b9350602085013567ffffffffffffffff80821115615fdb57600080fd5b615fe788838901615c2a565b94506040870135915080821115615ffd57600080fd5b61600988838901615f42565b9350606087013591508082111561601f57600080fd5b5061602c87828801615d71565b91505092959194509250565b60008060006060848603121561604d57600080fd5b8335925060208085013567ffffffffffffffff8082111561606d57600080fd5b61607988838901615c2a565b9450604087013591508082111561608f57600080fd5b508501601f810187136160a157600080fd5b80356160af615b7382615b06565b81815260059190911b820183019083810190898311156160ce57600080fd5b928401925b828410156160f55783356160e6816159bd565b825292840192908401906160d3565b80955050505050509250925092565b6000806040838503121561611757600080fd5b82359150602083013567ffffffffffffffff811115615cd357600080fd5b60006020828403121561614757600080fd5b81357fffffffff0000000000000000000000000000000000000000000000000000000081168114611a9e57600080fd5b60006080828403121561618957600080fd5b616191615a71565b9050813567ffffffffffffffff808211156161ab57600080fd5b6161b785838601615c2a565b835260208401359150808211156161cd57600080fd5b6161d985838601615f42565b602084015260408401359150808211156161f257600080fd5b506161ff84828501615d71565b6040830152506060820135615e5c81615d37565b6000806000806080858703121561622957600080fd5b84359350602085013561623b816159bd565b9250604085013561624b816159bd565b9150606085013567ffffffffffffffff81111561626757600080fd5b61602c87828801616177565b600082601f83011261628457600080fd5b81356020616294615b7383615b06565b82815260059290921b840181019181810190868411156162b357600080fd5b8286015b84811015615c8e57803567ffffffffffffffff808211156162d85760008081fd5b818901915060a0807fffffffffffffffffffffffffffffffffffffffffffffffffffffffffffffffe0848d030112156163115760008081fd5b616319615a48565b878401358152604080850135898301526060808601358284015260809150818601358184015250828501359250838311156163545760008081fd5b6163628d8a85880101615d71565b9082015286525050509183019183016162b7565b600080600080600080610120878903121561639057600080fd5b61639987615d62565b955060208088013567ffffffffffffffff808211156163b757600080fd5b6163c38b838c01616273565b975060408a01359150808211156163d957600080fd5b6163e58b838c01615c2a565b96506163f48b60608c01615dff565b955060e08a013591508082111561640a57600080fd5b508801601f81018a1361641c57600080fd5b803561642a615b7382615b06565b81815260059190911b8201830190838101908c83111561644957600080fd5b928401925b828410156164675783358252928401929084019061644e565b809650505050505061010087013590509295509295509295565b6000806040838503121561649457600080fd5b8235915060208301356164a6816159bd565b809150509250929050565b600060208083850312156164c457600080fd5b823567ffffffffffffffff8111156164db57600080fd5b8301601f810185136164ec57600080fd5b80356164fa615b7382615b06565b81815260079190911b8201830190838101908783111561651957600080fd5b928401925b8284101561588557608084890312156165375760008081fd5b61653f615a71565b843561654a816159ef565b81528486013586820152604080860135616563816159bd565b908201526060858101359082015282526080909301929084019061651e565b60006020828403121561659457600080fd5b5035919050565b7f4e487b7100000000000000000000000000000000000000000000000000000000600052602160045260246000fd5b600381106165da576165da61659b565b9052565b6001600160a01b038316815260408101611c5360208301846165ca565b60008060008060e0858703121561661157600080fd5b61661a85615d62565b9350602085013567ffffffffffffffff8082111561663757600080fd5b61664388838901616273565b9450604087013591508082111561665957600080fd5b5061666687828801615c2a565b9250506166768660608701615dff565b905092959194509250565b600081518084526020808501945080840160005b83811015615d195781516001600160a01b031687529582019590820190600101616695565b6060815260006166cd6060830186616681565b82810360208401526166df8186615ce9565b915050826040830152949350505050565b60008060006060848603121561670557600080fd5b8335616710816159bd565b92506020840135616720816159bd565b9150604084013561673081615d37565b809150509250925092565b6000806040838503121561674e57600080fd5b8235616759816159bd565b915060208301356164a6816159bd565b7f4e487b7100000000000000000000000000000000000000000000000000000000600052601160045260246000fd5b80820180821115611aa157611aa1616769565b60208101611aa182846165ca565b7f4e487b7100000000000000000000000000000000000000000000000000000000600052603260045260246000fd5b60007fffffffffffffffffffffffffffffffffffffffffffffffffffffffffffffffff820361681957616819616769565b5060010190565b60006020828403121561683257600080fd5b5051919050565b60005b8381101561685457818101518382015260200161683c565b50506000910152565b60008151808452616875816020860160208601616839565b601f017fffffffffffffffffffffffffffffffffffffffffffffffffffffffffffffffe0169290920160200192915050565b6080815260006168ba6080830187616681565b82810360208401526168cc8187615ce9565b905082810360408401526168e08186615ce9565b90508281036060840152615885818561685d565b81810381811115611aa157611aa1616769565b60408152600061691a6040830185616681565b82810360208481019190915284518083528582019282019060005b8181101561695a5784516001600160a01b031683529383019391830191600101616935565b5090979650505050505050565b602081526000611a9e6020830184616681565b60007f800000000000000000000000000000000000000000000000000000000000000082036169ab576169ab616769565b5060000390565b8183823760009101908152919050565b6060815260006169d56060830186616681565b82810360208401526169e78186615ce9565b905082810360408401526115498185615ce9565b600060208284031215616a0d57600080fd5b8151611a9e81615d37565b6000610120825160028110616a2f57616a2f61659b565b808552506020830151616a4d60208601826001600160a01b03169052565b506040830151616a6860408601826001600160a01b03169052565b50606083015160608501526080830151608085015260a083015160a085015260c0830151616aa160c08601826001600160a01b03169052565b5060e0830151616abc60e08601826001600160a01b03169052565b506101008084015182828701526115498387018261685d565b608081526000616ae86080830187616a18565b8281036020840152616afa8187615ce9565b604084019590955250506060015292915050565b8082028115828204841417611aa157611aa1616769565b600082616b5b577f4e487b7100000000000000000000000000000000000000000000000000000000600052601260045260246000fd5b500490565b60008251616b72818460208701616839565b9190910192915050565b7f4e487b7100000000000000000000000000000000000000000000000000000000600052603160045260246000fd5b87815260006001600160a01b03808916602084015280881660408401525060e06060830152616bdd60e0830187615ce9565b8560808401528460a084015282810360c0840152616bfb818561685d565b9a9950505050505050505050565b600082601f830112616c1a57600080fd5b81516020616c2a615b7383615b06565b82815260059290921b84018101918181019086841115616c4957600080fd5b8286015b84811015615c8e5780518352918301918301616c4d565b60008060408385031215616c7757600080fd5b825167ffffffffffffffff80821115616c8f57600080fd5b616c9b86838701616c09565b93506020850151915080821115616cb157600080fd5b50615cdf85828601616c09565b8082018281126000831280158216821582161715616cde57616cde616769565b505092915050565b81810360008312801583831316838312821617156108fa576108fa616769565b606081526000616d196060830186616a18565b6020830194909452506040015291905056fea2646970667358221220e27d8b6ab4c8cefc075524af2be4ebc32ad1914f703418febfbfa41d9931e46c64736f6c6343000813003360c060405234801561001057600080fd5b50604051610ce3380380610ce383398101604081905261002f91610049565b3060805260016000556001600160a01b031660a052610079565b60006020828403121561005b57600080fd5b81516001600160a01b038116811461007257600080fd5b9392505050565b60805160a051610c3e6100a56000396000818161016701526105c3015260006102f10152610c3e6000f3fe608060405234801561001057600080fd5b50600436106100a35760003560e01c8063851c1bb311610076578063d877845c1161005b578063d877845c1461013a578063e42abf3514610142578063fbfa77cf1461016257600080fd5b8063851c1bb3146100fa578063aaabadc51461010d57600080fd5b806338e9922e146100a857806355c67628146100bd5780636b6b9f69146100d45780636daefab6146100e7575b600080fd5b6100bb6100b6366004610823565b610189565b005b6001545b6040519081526020015b60405180910390f35b6100bb6100e2366004610823565b6101e4565b6100bb6100f53660046108aa565b610237565b6100c161010836600461092e565b6102ed565b61011561036a565b60405173ffffffffffffffffffffffffffffffffffffffff90911681526020016100cb565b6002546100c1565b6101556101503660046109af565b610379565b6040516100cb9190610a92565b6101157f000000000000000000000000000000000000000000000000000000000000000081565b6101916104ac565b6101a86706f05b59d3b200008211156102586104f5565b60018190556040518181527fa9ba3ffe0b6c366b81232caab38605a0699ad5398d6cce76f91ee809e322dafc906020015b60405180910390a150565b6101ec6104ac565b610202662386f26fc100008211156102596104f5565b60028190556040518181527f5a0b7386237e7f07fa741efc64e59c9387d2cccafec760efed4d53387f20e19a906020016101d9565b61023f610507565b6102476104ac565b6102518483610520565b60005b848110156102db57600086868381811061027057610270610ad6565b90506020020160208101906102859190610b05565b9050600085858481811061029b5761029b610ad6565b602002919091013591506102c8905073ffffffffffffffffffffffffffffffffffffffff8316858361052d565b5050806102d490610b22565b9050610254565b506102e66001600055565b5050505050565b60007f00000000000000000000000000000000000000000000000000000000000000008260405160200161034d9291909182527fffffffff0000000000000000000000000000000000000000000000000000000016602082015260240190565b604051602081830303815290604052805190602001209050919050565b60006103746105bf565b905090565b6060815167ffffffffffffffff81111561039557610395610970565b6040519080825280602002602001820160405280156103be578160200160208202803683370190505b50905060005b82518110156104a6578281815181106103df576103df610ad6565b60209081029190910101516040517f70a0823100000000000000000000000000000000000000000000000000000000815230600482015273ffffffffffffffffffffffffffffffffffffffff909116906370a0823190602401602060405180830381865afa158015610455573d6000803e3d6000fd5b505050506040513d601f19601f820116820180604052508101906104799190610b81565b82828151811061048b5761048b610ad6565b602090810291909101015261049f81610b22565b90506103c4565b50919050565b60006104db6000357fffffffff00000000000000000000000000000000000000000000000000000000166102ed565b90506104f26104ea8233610650565b6101916104f5565b50565b816105035761050381610700565b5050565b610519600260005414156101906104f5565b6002600055565b61050381831460676104f5565b6040805173ffffffffffffffffffffffffffffffffffffffff8416602482015260448082018490528251808303909101815260649091019091526020810180517bffffffffffffffffffffffffffffffffffffffffffffffffffffffff167fa9059cbb000000000000000000000000000000000000000000000000000000001790526105ba908490610774565b505050565b60007f000000000000000000000000000000000000000000000000000000000000000073ffffffffffffffffffffffffffffffffffffffff1663aaabadc56040518163ffffffff1660e01b8152600401602060405180830381865afa15801561062c573d6000803e3d6000fd5b505050506040513d601f19601f820116820180604052508101906103749190610b9a565b600061065a6105bf565b6040517f9be2a8840000000000000000000000000000000000000000000000000000000081526004810185905273ffffffffffffffffffffffffffffffffffffffff84811660248301523060448301529190911690639be2a88490606401602060405180830381865afa1580156106d5573d6000803e3d6000fd5b505050506040513d601f19601f820116820180604052508101906106f99190610bb7565b9392505050565b6030600a820601600a820491506030600a830601600a830492506030600a8406018060101b8260081b8401016642414c230000000160c81b925050507f08c379a000000000000000000000000000000000000000000000000000000000600052602060045260076024528060445260646000fd5b6000808373ffffffffffffffffffffffffffffffffffffffff168360405161079c9190610bd9565b6000604051808303816000865af19150503d80600081146107d9576040519150601f19603f3d011682016040523d82523d6000602084013e6107de565b606091505b509092509050816107f3573d6000803e3d6000fd5b61081d8151600014806108155750818060200190518101906108159190610bb7565b6101a26104f5565b50505050565b60006020828403121561083557600080fd5b5035919050565b60008083601f84011261084e57600080fd5b50813567ffffffffffffffff81111561086657600080fd5b6020830191508360208260051b850101111561088157600080fd5b9250929050565b73ffffffffffffffffffffffffffffffffffffffff811681146104f257600080fd5b6000806000806000606086880312156108c257600080fd5b853567ffffffffffffffff808211156108da57600080fd5b6108e689838a0161083c565b909750955060208801359150808211156108ff57600080fd5b5061090c8882890161083c565b909450925050604086013561092081610888565b809150509295509295909350565b60006020828403121561094057600080fd5b81357fffffffff00000000000000000000000000000000000000000000000000000000811681146106f957600080fd5b7f4e487b7100000000000000000000000000000000000000000000000000000000600052604160045260246000fd5b80356109aa81610888565b919050565b600060208083850312156109c257600080fd5b823567ffffffffffffffff808211156109da57600080fd5b818501915085601f8301126109ee57600080fd5b813581811115610a0057610a00610970565b8060051b6040517fffffffffffffffffffffffffffffffffffffffffffffffffffffffffffffffe0603f83011681018181108582111715610a4357610a43610970565b604052918252848201925083810185019188831115610a6157600080fd5b938501935b82851015610a8657610a778561099f565b84529385019392850192610a66565b98975050505050505050565b6020808252825182820181905260009190848201906040850190845b81811015610aca57835183529284019291840191600101610aae565b50909695505050505050565b7f4e487b7100000000000000000000000000000000000000000000000000000000600052603260045260246000fd5b600060208284031215610b1757600080fd5b81356106f981610888565b60007fffffffffffffffffffffffffffffffffffffffffffffffffffffffffffffffff8203610b7a577f4e487b7100000000000000000000000000000000000000000000000000000000600052601160045260246000fd5b5060010190565b600060208284031215610b9357600080fd5b5051919050565b600060208284031215610bac57600080fd5b81516106f981610888565b600060208284031215610bc957600080fd5b815180151581146106f957600080fd5b6000825160005b81811015610bfa5760208186018101518583015201610be0565b50600092019182525091905056fea2646970667358221220913fccc5ab7c8e0e94a2c58fd46d096a7aafe1797f75060a689ad0384bab102f64736f6c63430008130033",
    "linkReferences": {}
  },
  "methodIdentifiers": {
    "WETH()": "ad5c4648",
    "batchSwap(uint8,(bytes32,uint256,uint256,uint256,bytes)[],address[],(address,bool,address,bool),int256[],uint256)": "945bcec9",
    "deregisterTokens(bytes32,address[])": "7d3aeb96",
    "exitPool(bytes32,address,address,(address[],uint256[],bytes,bool))": "8bdb3913",
    "flashLoan(address,address[],uint256[],bytes)": "5c38449e",
    "getActionId(bytes4)": "851c1bb3",
    "getAuthorizer()": "aaabadc5",
    "getDomainSeparator()": "ed24911d",
    "getInternalBalance(address,address[])": "0f5a6efa",
    "getNextNonce(address)": "90193b7c",
    "getPausedState()": "1c0de051",
    "getPool(bytes32)": "f6c00927",
    "getPoolTokenInfo(bytes32,address)": "b05f8e48",
    "getPoolTokens(bytes32)": "f94d4668",
    "getProtocolFeesCollector()": "d2946c2b",
    "hasApprovedRelayer(address,address)": "fec90d72",
    "joinPool(bytes32,address,address,(address[],uint256[],bytes,bool))": "b95cac28",
    "managePoolBalance((uint8,bytes32,address,uint256)[])": "e6c46092",
    "manageUserBalance((uint8,address,uint256,address,address)[])": "0e8e3e84",
    "queryBatchSwap(uint8,(bytes32,uint256,uint256,uint256,bytes)[],address[],(address,bool,address,bool))": "f84d066e",
    "registerPool(uint8)": "09b2760f",
    "registerTokens(bytes32,address[],address[])": "66a9c7d2",
    "setAuthorizer(address)": "058a628f",
    "setPaused(bool)": "16c38b3c",
    "setRelayerApproval(address,address,bool)": "fa6e671d",
    "swap((bytes32,uint8,address,address,uint256,bytes),(address,bool,address,bool),uint256,uint256)": "52bbbe29"
  },
  "id": 39
}