{
  "abi": [
    {
      "inputs": [
        {
          "internalType": "address",
          "name": "_settlement",
          "type": "address"
        }
      ],
      "stateMutability": "nonpayable",
      "type": "constructor"
    },
    {
      "inputs": [],
      "name": "InterfaceNotSupported",
      "type": "error"
    },
    {
      "inputs": [],
      "name": "InvalidFallbackHandler",
      "type": "error"
    },
    {
      "inputs": [],
      "name": "InvalidHandler",
      "type": "error"
    },
    {
      "inputs": [],
      "name": "ProofNotAuthed",
      "type": "error"
    },
    {
      "inputs": [],
      "name": "SingleOrderNotAuthed",
      "type": "error"
    },
    {
      "inputs": [],
      "name": "SwapGuardRestricted",
      "type": "error"
    },
    {
      "anonymous": false,
      "inputs": [
        {
          "indexed": true,
          "internalType": "address",
          "name": "owner",
          "type": "address"
        },
        {
          "components": [
            {
              "internalType": "contract IConditionalOrder",
              "name": "handler",
              "type": "address"
            },
            {
              "internalType": "bytes32",
              "name": "salt",
              "type": "bytes32"
            },
            {
              "internalType": "bytes",
              "name": "staticInput",
              "type": "bytes"
            }
          ],
          "indexed": false,
          "internalType": "struct IConditionalOrder.ConditionalOrderParams",
          "name": "params",
          "type": "tuple"
        }
      ],
      "name": "ConditionalOrderCreated",
      "type": "event"
    },
    {
      "anonymous": false,
      "inputs": [
        {
          "indexed": true,
          "internalType": "address",
          "name": "owner",
          "type": "address"
        },
        {
          "indexed": false,
          "internalType": "bytes32",
          "name": "root",
          "type": "bytes32"
        },
        {
          "components": [
            {
              "internalType": "uint256",
              "name": "location",
              "type": "uint256"
            },
            {
              "internalType": "bytes",
              "name": "data",
              "type": "bytes"
            }
          ],
          "indexed": false,
          "internalType": "struct ComposableCoW.Proof",
          "name": "proof",
          "type": "tuple"
        }
      ],
      "name": "MerkleRootSet",
      "type": "event"
    },
    {
      "anonymous": false,
      "inputs": [
        {
          "indexed": true,
          "internalType": "address",
          "name": "owner",
          "type": "address"
        },
        {
          "indexed": false,
          "internalType": "contract ISwapGuard",
          "name": "swapGuard",
          "type": "address"
        }
      ],
      "name": "SwapGuardSet",
      "type": "event"
    },
    {
      "inputs": [
        {
          "internalType": "address",
          "name": "",
          "type": "address"
        },
        {
          "internalType": "bytes32",
          "name": "",
          "type": "bytes32"
        }
      ],
      "name": "cabinet",
      "outputs": [
        {
          "internalType": "bytes32",
          "name": "",
          "type": "bytes32"
        }
      ],
      "stateMutability": "view",
      "type": "function"
    },
    {
      "inputs": [
        {
          "components": [
            {
              "internalType": "contract IConditionalOrder",
              "name": "handler",
              "type": "address"
            },
            {
              "internalType": "bytes32",
              "name": "salt",
              "type": "bytes32"
            },
            {
              "internalType": "bytes",
              "name": "staticInput",
              "type": "bytes"
            }
          ],
          "internalType": "struct IConditionalOrder.ConditionalOrderParams",
          "name": "params",
          "type": "tuple"
        },
        {
          "internalType": "bool",
          "name": "dispatch",
          "type": "bool"
        }
      ],
      "name": "create",
      "outputs": [],
      "stateMutability": "nonpayable",
      "type": "function"
    },
    {
      "inputs": [
        {
          "components": [
            {
              "internalType": "contract IConditionalOrder",
              "name": "handler",
              "type": "address"
            },
            {
              "internalType": "bytes32",
              "name": "salt",
              "type": "bytes32"
            },
            {
              "internalType": "bytes",
              "name": "staticInput",
              "type": "bytes"
            }
          ],
          "internalType": "struct IConditionalOrder.ConditionalOrderParams",
          "name": "params",
          "type": "tuple"
        },
        {
          "internalType": "contract IValueFactory",
          "name": "factory",
          "type": "address"
        },
        {
          "internalType": "bytes",
          "name": "data",
          "type": "bytes"
        },
        {
          "internalType": "bool",
          "name": "dispatch",
          "type": "bool"
        }
      ],
      "name": "createWithContext",
      "outputs": [],
      "stateMutability": "nonpayable",
      "type": "function"
    },
    {
      "inputs": [],
      "name": "domainSeparator",
      "outputs": [
        {
          "internalType": "bytes32",
          "name": "",
          "type": "bytes32"
        }
      ],
      "stateMutability": "view",
      "type": "function"
    },
    {
      "inputs": [
        {
          "internalType": "address",
          "name": "owner",
          "type": "address"
        },
        {
          "components": [
            {
              "internalType": "contract IConditionalOrder",
              "name": "handler",
              "type": "address"
            },
            {
              "internalType": "bytes32",
              "name": "salt",
              "type": "bytes32"
            },
            {
              "internalType": "bytes",
              "name": "staticInput",
              "type": "bytes"
            }
          ],
          "internalType": "struct IConditionalOrder.ConditionalOrderParams",
          "name": "params",
          "type": "tuple"
        },
        {
          "internalType": "bytes",
          "name": "offchainInput",
          "type": "bytes"
        },
        {
          "internalType": "bytes32[]",
          "name": "proof",
          "type": "bytes32[]"
        }
      ],
      "name": "getTradeableOrderWithSignature",
      "outputs": [
        {
          "components": [
            {
              "internalType": "contract IERC20",
              "name": "sellToken",
              "type": "address"
            },
            {
              "internalType": "contract IERC20",
              "name": "buyToken",
              "type": "address"
            },
            {
              "internalType": "address",
              "name": "receiver",
              "type": "address"
            },
            {
              "internalType": "uint256",
              "name": "sellAmount",
              "type": "uint256"
            },
            {
              "internalType": "uint256",
              "name": "buyAmount",
              "type": "uint256"
            },
            {
              "internalType": "uint32",
              "name": "validTo",
              "type": "uint32"
            },
            {
              "internalType": "bytes32",
              "name": "appData",
              "type": "bytes32"
            },
            {
              "internalType": "uint256",
              "name": "feeAmount",
              "type": "uint256"
            },
            {
              "internalType": "bytes32",
              "name": "kind",
              "type": "bytes32"
            },
            {
              "internalType": "bool",
              "name": "partiallyFillable",
              "type": "bool"
            },
            {
              "internalType": "bytes32",
              "name": "sellTokenBalance",
              "type": "bytes32"
            },
            {
              "internalType": "bytes32",
              "name": "buyTokenBalance",
              "type": "bytes32"
            }
          ],
          "internalType": "struct GPv2Order.Data",
          "name": "order",
          "type": "tuple"
        },
        {
          "internalType": "bytes",
          "name": "signature",
          "type": "bytes"
        }
      ],
      "stateMutability": "view",
      "type": "function"
    },
    {
      "inputs": [
        {
          "components": [
            {
              "internalType": "contract IConditionalOrder",
              "name": "handler",
              "type": "address"
            },
            {
              "internalType": "bytes32",
              "name": "salt",
              "type": "bytes32"
            },
            {
              "internalType": "bytes",
              "name": "staticInput",
              "type": "bytes"
            }
          ],
          "internalType": "struct IConditionalOrder.ConditionalOrderParams",
          "name": "params",
          "type": "tuple"
        }
      ],
      "name": "hash",
      "outputs": [
        {
          "internalType": "bytes32",
          "name": "",
          "type": "bytes32"
        }
      ],
      "stateMutability": "pure",
      "type": "function"
    },
    {
      "inputs": [
        {
          "internalType": "contract Safe",
          "name": "safe",
          "type": "address"
        },
        {
          "internalType": "address",
          "name": "sender",
          "type": "address"
        },
        {
          "internalType": "bytes32",
          "name": "_hash",
          "type": "bytes32"
        },
        {
          "internalType": "bytes32",
          "name": "_domainSeparator",
          "type": "bytes32"
        },
        {
          "internalType": "bytes32",
          "name": "",
          "type": "bytes32"
        },
        {
          "internalType": "bytes",
          "name": "encodeData",
          "type": "bytes"
        },
        {
          "internalType": "bytes",
          "name": "payload",
          "type": "bytes"
        }
      ],
      "name": "isValidSafeSignature",
      "outputs": [
        {
          "internalType": "bytes4",
          "name": "magic",
          "type": "bytes4"
        }
      ],
      "stateMutability": "view",
      "type": "function"
    },
    {
      "inputs": [
        {
          "internalType": "bytes32",
          "name": "singleOrderHash",
          "type": "bytes32"
        }
      ],
      "name": "remove",
      "outputs": [],
      "stateMutability": "nonpayable",
      "type": "function"
    },
    {
      "inputs": [
        {
          "internalType": "address",
          "name": "",
          "type": "address"
        }
      ],
      "name": "roots",
      "outputs": [
        {
          "internalType": "bytes32",
          "name": "",
          "type": "bytes32"
        }
      ],
      "stateMutability": "view",
      "type": "function"
    },
    {
      "inputs": [
        {
          "internalType": "bytes32",
          "name": "root",
          "type": "bytes32"
        },
        {
          "components": [
            {
              "internalType": "uint256",
              "name": "location",
              "type": "uint256"
            },
            {
              "internalType": "bytes",
              "name": "data",
              "type": "bytes"
            }
          ],
          "internalType": "struct ComposableCoW.Proof",
          "name": "proof",
          "type": "tuple"
        }
      ],
      "name": "setRoot",
      "outputs": [],
      "stateMutability": "nonpayable",
      "type": "function"
    },
    {
      "inputs": [
        {
          "internalType": "bytes32",
          "name": "root",
          "type": "bytes32"
        },
        {
          "components": [
            {
              "internalType": "uint256",
              "name": "location",
              "type": "uint256"
            },
            {
              "internalType": "bytes",
              "name": "data",
              "type": "bytes"
            }
          ],
          "internalType": "struct ComposableCoW.Proof",
          "name": "proof",
          "type": "tuple"
        },
        {
          "internalType": "contract IValueFactory",
          "name": "factory",
          "type": "address"
        },
        {
          "internalType": "bytes",
          "name": "data",
          "type": "bytes"
        }
      ],
      "name": "setRootWithContext",
      "outputs": [],
      "stateMutability": "nonpayable",
      "type": "function"
    },
    {
      "inputs": [
        {
          "internalType": "contract ISwapGuard",
          "name": "swapGuard",
          "type": "address"
        }
      ],
      "name": "setSwapGuard",
      "outputs": [],
      "stateMutability": "nonpayable",
      "type": "function"
    },
    {
      "inputs": [
        {
          "internalType": "address",
          "name": "",
          "type": "address"
        },
        {
          "internalType": "bytes32",
          "name": "",
          "type": "bytes32"
        }
      ],
      "name": "singleOrders",
      "outputs": [
        {
          "internalType": "bool",
          "name": "",
          "type": "bool"
        }
      ],
      "stateMutability": "view",
      "type": "function"
    },
    {
      "inputs": [
        {
          "internalType": "address",
          "name": "",
          "type": "address"
        }
      ],
      "name": "swapGuards",
      "outputs": [
        {
          "internalType": "contract ISwapGuard",
          "name": "",
          "type": "address"
        }
      ],
      "stateMutability": "view",
      "type": "function"
    }
  ],
  "bytecode": {
    "object": "0x60a06040523480156200001157600080fd5b5060405162002230380380620022308339810160408190526200003491620000a3565b806001600160a01b031663f698da256040518163ffffffff1660e01b8152600401602060405180830381865afa15801562000073573d6000803e3d6000fd5b505050506040513d601f19601f82011682018060405250810190620000999190620000d5565b60805250620000ef565b600060208284031215620000b657600080fd5b81516001600160a01b0381168114620000ce57600080fd5b9392505050565b600060208284031215620000e857600080fd5b5051919050565b60805161211e6200011260003960008181610328015261092a015261211e6000f3fe608060405234801561001057600080fd5b50600436106100ea5760003560e01c8063595001b21161008c5780638f7984ed116100665780638f7984ed1461028c57806395bc26731461029f578063a454687614610303578063f698da251461032357600080fd5b8063595001b2146101e05780636108c5321461023b5780636bfae1ca1461027957600080fd5b806326e0a196116100c857806326e0a1961461015557806353f00b14146101765780635500079d146101ba57806357f1d41a146101cd57600080fd5b80630d0d9800146100ef5780631ab0dd9d146101045780631c7662c814610117575b600080fd5b6101026100fd366004611216565b61034a565b005b6101026101123660046112bb565b61041d565b61014261012536600461130d565b600360209081526000928352604080842090915290825290205481565b6040519081526020015b60405180910390f35b610168610163366004611339565b61046d565b60405161014c929190611556565b610189610184366004611578565b610afd565b6040517fffffffff00000000000000000000000000000000000000000000000000000000909116815260200161014c565b6101426101c83660046117ea565b610c3f565b6101026101db366004611827565b610c6f565b6102166101ee3660046118b0565b60026020526000908152604090205473ffffffffffffffffffffffffffffffffffffffff1681565b60405173ffffffffffffffffffffffffffffffffffffffff909116815260200161014c565b61026961024936600461130d565b600160209081526000928352604080842090915290825290205460ff1681565b604051901515815260200161014c565b6101026102873660046118cd565b610d30565b61010261029a3660046118b0565b610e38565b6101026102ad36600461191f565b336000818152600160209081526040808320858452825280832080547fffffffffffffffffffffffffffffffffffffffffffffffffffffffffffffff001690559282526003815282822093825292909252812055565b6101426103113660046118b0565b60006020819052908152604090205481565b6101427f000000000000000000000000000000000000000000000000000000000000000081565b6103548582610d30565b6040517fb6576bdf00000000000000000000000000000000000000000000000000000000815273ffffffffffffffffffffffffffffffffffffffff85169063b6576bdf906103a89086908690600401611981565b602060405180830381865afa1580156103c5573d6000803e3d6000fd5b505050506040513d601f19601f820116820180604052508101906103e99190611995565b336000908152600360205260408120906104056101c8896119ae565b81526020810191909152604001600020555050505050565b3360008181526020819052604090819020849055517f58662f46b4a87d0f96d929b24c37fe25c55d52c0025d0b2bec3936534cc31e57906104619085908590611a1e565b60405180910390a25050565b6040805161018081018252600080825260208201819052918101829052606081018290526080810182905260a0810182905260c0810182905260e0810182905261010081018290526101208101829052610140810182905261016081019190915260606000610518896104df8a6119ae565b878780806020026020016040519081016040528093929190818152602001838360200280828437600092019190915250610ebf92505050565b905061052760208901896118b0565b6040517f01ffc9a70000000000000000000000000000000000000000000000000000000081527fb8296fc400000000000000000000000000000000000000000000000000000000600482015273ffffffffffffffffffffffffffffffffffffffff91909116906301ffc9a790602401602060405180830381865afa9250505080156105ed575060408051601f3d9081017fffffffffffffffffffffffffffffffffffffffffffffffffffffffffffffffe01682019092526105ea91810190611a68565b60015b610623576040517f2c7ca6d700000000000000000000000000000000000000000000000000000000815260040160405180910390fd5b8061065a576040517f2c7ca6d700000000000000000000000000000000000000000000000000000000815260040160405180910390fd5b5061066860208901896118b0565b73ffffffffffffffffffffffffffffffffffffffff1663b8296fc48a338461069360408e018e611a85565b8d8d6040518863ffffffff1660e01b81526004016106b79796959493929190611aea565b61018060405180830381865afa1580156106d5573d6000803e3d6000fd5b505050506040513d601f19601f820116820180604052508101906106f99190611b73565b925061074789826107098b6119ae565b8a8a8080601f0160208091040260200160405190810160405280939291908181526020018383808284376000920191909152508a9250611001915050565b61077d576040517f03fc2a7e00000000000000000000000000000000000000000000000000000000815260040160405180910390fd5b6040517f01ffc9a70000000000000000000000000000000000000000000000000000000081527f62af8dc200000000000000000000000000000000000000000000000000000000600482015273ffffffffffffffffffffffffffffffffffffffff8a16906301ffc9a790602401602060405180830381865afa925050508015610841575060408051601f3d9081017fffffffffffffffffffffffffffffffffffffffffffffffffffffffffffffffe016820190925261083e91810190611a68565b60015b6108f15760408051608060208702808301820190935260608201878152869383928a918a9182919086019084908082843760009201919091525050509082525060200161088d8b6119ae565b815260200189898080601f01602080910402602001604051908101604052809392919081815260200183838082843760009201919091525050509152506040516108db929190602001611ce0565b6040516020818303038152906040529150610af1565b80610928576040517f79ac63cd00000000000000000000000000000000000000000000000000000000815260040160405180910390fd5b7f00000000000000000000000000000000000000000000000000000000000000007fd5a25ba2e97094ad7d83dc28a6572da797d6b3e7fc6663bd93efb789fc17e4898560405160200161097b9190611d02565b604080517fffffffffffffffffffffffffffffffffffffffffffffffffffffffffffffffe0818403018152608060208b028085018201909352606084018b81529193928392918d918d918291908601908490808284376000920191909152505050908252506020016109ec8e6119ae565b81526020018c8c8080601f0160208091040260200160405190810160405280939291908181526020018383808284376000920191909152505050915250604051610a399190602001611d11565b604080517fffffffffffffffffffffffffffffffffffffffffffffffffffffffffffffffe081840301815290829052610a7794939291602401611d24565b604080517fffffffffffffffffffffffffffffffffffffffffffffffffffffffffffffffe08184030181529190526020810180517bffffffffffffffffffffffffffffffffffffffffffffffffffffffff167f5fd7e97d000000000000000000000000000000000000000000000000000000001790529250505b50965096945050505050565b600080610b0c83850185611d60565b90506000610b238c83602001518460000151610ebf565b90506000610b3387890189611e82565b9050610b4a8d838560200151866040015185611001565b610b80576040517f03fc2a7e00000000000000000000000000000000000000000000000000000000815260040160405180910390fd5b82602001516000015173ffffffffffffffffffffffffffffffffffffffff166314a2a7848e8e8e8e878960200151604001518a60400151896040518963ffffffff1660e01b8152600401610bdb989796959493929190611f40565b60006040518083038186803b158015610bf357600080fd5b505afa158015610c07573d6000803e3d6000fd5b507f1626ba7e0000000000000000000000000000000000000000000000000000000096505050505050505b9998505050505050505050565b600081604051602001610c529190611fb0565b604051602081830303815290604052805190602001209050919050565b610c79858561041d565b6040517fb6576bdf00000000000000000000000000000000000000000000000000000000815273ffffffffffffffffffffffffffffffffffffffff84169063b6576bdf90610ccd9085908590600401611981565b602060405180830381865afa158015610cea573d6000803e3d6000fd5b505050506040513d601f19601f82011682018060405250810190610d0e9190611995565b3360009081526003602090815260408083208380529091529020555050505050565b6000610d3f60208401846118b0565b73ffffffffffffffffffffffffffffffffffffffff1603610d8c576040517fd8f59fa500000000000000000000000000000000000000000000000000000000815260040160405180910390fd5b33600090815260016020819052604082209091610dab6101c8866119ae565b8152602081019190915260400160002080547fffffffffffffffffffffffffffffffffffffffffffffffffffffffffffffff00169115159190911790558015610e34573373ffffffffffffffffffffffffffffffffffffffff167f2cceac5555b0ca45a3744ced542f54b56ad2eb45e521962372eef212a2cbf361836040516104619190611fc3565b5050565b3360008181526002602090815260409182902080547fffffffffffffffffffffffff00000000000000000000000000000000000000001673ffffffffffffffffffffffffffffffffffffffff861690811790915591519182527f41f583e2d25b3921afe66987b63b0b5e4cf2acbbbed4a477fd19a22180f3f859910160405180910390a250565b60008151600014610f84576000610ed584610c3f565b604051602001610ee791815260200190565b604051602081830303815290604052805190602001209050610f48836000808873ffffffffffffffffffffffffffffffffffffffff1673ffffffffffffffffffffffffffffffffffffffff16815260200190815260200160002054836110e1565b610f7e576040517f4a82146400000000000000000000000000000000000000000000000000000000815260040160405180910390fd5b50610ffa565b610f8d83610c3f565b73ffffffffffffffffffffffffffffffffffffffff8516600090815260016020908152604080832084845290915290205490915060ff16610ffa576040517f7a93323400000000000000000000000000000000000000000000000000000000815260040160405180910390fd5b9392505050565b73ffffffffffffffffffffffffffffffffffffffff80861660009081526002602052604081205490911680156110d2576040517ff9ae35a200000000000000000000000000000000000000000000000000000000815273ffffffffffffffffffffffffffffffffffffffff82169063f9ae35a2906110899086908a908a908a9060040161201c565b602060405180830381865afa1580156110a6573d6000803e3d6000fd5b505050506040513d601f19601f820116820180604052508101906110ca9190611a68565b9150506110d8565b60019150505b95945050505050565b6000826110ee85846110f7565b14949350505050565b600081815b845181101561113c576111288286838151811061111b5761111b61205a565b6020026020010151611146565b91508061113481612089565b9150506110fc565b5090505b92915050565b6000818310611162576000828152602084905260409020610ffa565b5060009182526020526040902090565b60006060828403121561118457600080fd5b50919050565b73ffffffffffffffffffffffffffffffffffffffff811681146111ac57600080fd5b50565b60008083601f8401126111c157600080fd5b50813567ffffffffffffffff8111156111d957600080fd5b6020830191508360208285010111156111f157600080fd5b9250929050565b80151581146111ac57600080fd5b8035611211816111f8565b919050565b60008060008060006080868803121561122e57600080fd5b853567ffffffffffffffff8082111561124657600080fd5b61125289838a01611172565b9650602088013591506112648261118a565b9094506040870135908082111561127a57600080fd5b50611287888289016111af565b909450925050606086013561129b816111f8565b809150509295509295909350565b60006040828403121561118457600080fd5b600080604083850312156112ce57600080fd5b82359150602083013567ffffffffffffffff8111156112ec57600080fd5b6112f8858286016112a9565b9150509250929050565b80356112118161118a565b6000806040838503121561132057600080fd5b823561132b8161118a565b946020939093013593505050565b6000806000806000806080878903121561135257600080fd5b863561135d8161118a565b9550602087013567ffffffffffffffff8082111561137a57600080fd5b6113868a838b01611172565b9650604089013591508082111561139c57600080fd5b6113a88a838b016111af565b909650945060608901359150808211156113c157600080fd5b818901915089601f8301126113d557600080fd5b8135818111156113e457600080fd5b8a60208260051b85010111156113f957600080fd5b6020830194508093505050509295509295509295565b805173ffffffffffffffffffffffffffffffffffffffff1682526020810151611450602084018273ffffffffffffffffffffffffffffffffffffffff169052565b506040810151611478604084018273ffffffffffffffffffffffffffffffffffffffff169052565b50606081015160608301526080810151608083015260a08101516114a460a084018263ffffffff169052565b5060c081015160c083015260e081015160e0830152610100808201518184015250610120808201516114d98285018215159052565b5050610140818101519083015261016090810151910152565b6000815180845260005b81811015611518576020818501810151868301820152016114fc565b5060006020828601015260207fffffffffffffffffffffffffffffffffffffffffffffffffffffffffffffffe0601f83011685010191505092915050565b60006101a0611565838661140f565b806101808401526110d8818401856114f2565b600080600080600080600080600060e08a8c03121561159657600080fd5b89356115a18161118a565b985060208a01356115b18161118a565b975060408a0135965060608a0135955060808a0135945060a08a013567ffffffffffffffff808211156115e357600080fd5b6115ef8d838e016111af565b909650945060c08c013591508082111561160857600080fd5b506116158c828d016111af565b915080935050809150509295985092959850929598565b7f4e487b7100000000000000000000000000000000000000000000000000000000600052604160045260246000fd5b6040516060810167ffffffffffffffff8111828210171561167e5761167e61162c565b60405290565b604051610180810167ffffffffffffffff8111828210171561167e5761167e61162c565b604051601f82017fffffffffffffffffffffffffffffffffffffffffffffffffffffffffffffffe016810167ffffffffffffffff811182821017156116ef576116ef61162c565b604052919050565b600082601f83011261170857600080fd5b813567ffffffffffffffff8111156117225761172261162c565b61175360207fffffffffffffffffffffffffffffffffffffffffffffffffffffffffffffffe0601f840116016116a8565b81815284602083860101111561176857600080fd5b816020850160208301376000918101602001919091529392505050565b60006060828403121561179757600080fd5b61179f61165b565b905081356117ac8161118a565b815260208281013590820152604082013567ffffffffffffffff8111156117d257600080fd5b6117de848285016116f7565b60408301525092915050565b6000602082840312156117fc57600080fd5b813567ffffffffffffffff81111561181357600080fd5b61181f84828501611785565b949350505050565b60008060008060006080868803121561183f57600080fd5b85359450602086013567ffffffffffffffff8082111561185e57600080fd5b61186a89838a016112a9565b95506040880135915061187c8261118a565b9093506060870135908082111561189257600080fd5b5061189f888289016111af565b969995985093965092949392505050565b6000602082840312156118c257600080fd5b8135610ffa8161118a565b600080604083850312156118e057600080fd5b823567ffffffffffffffff8111156118f757600080fd5b61190385828601611172565b9250506020830135611914816111f8565b809150509250929050565b60006020828403121561193157600080fd5b5035919050565b8183528181602085013750600060208284010152600060207fffffffffffffffffffffffffffffffffffffffffffffffffffffffffffffffe0601f840116840101905092915050565b60208152600061181f602083018486611938565b6000602082840312156119a757600080fd5b5051919050565b60006111403683611785565b60008083357fffffffffffffffffffffffffffffffffffffffffffffffffffffffffffffffe18436030181126119ef57600080fd5b830160208101925035905067ffffffffffffffff811115611a0f57600080fd5b8036038213156111f157600080fd5b82815260406020820152813560408201526000611a3e60208401846119ba565b60406060850152611a53608085018284611938565b9695505050505050565b8051611211816111f8565b600060208284031215611a7a57600080fd5b8151610ffa816111f8565b60008083357fffffffffffffffffffffffffffffffffffffffffffffffffffffffffffffffe1843603018112611aba57600080fd5b83018035915067ffffffffffffffff821115611ad557600080fd5b6020019150368190038213156111f157600080fd5b600073ffffffffffffffffffffffffffffffffffffffff808a16835280891660208401525086604083015260a06060830152611b2a60a083018688611938565b8281036080840152611b3d818587611938565b9a9950505050505050505050565b80516112118161118a565b63ffffffff811681146111ac57600080fd5b805161121181611b56565b60006101808284031215611b8657600080fd5b611b8e611684565b611b9783611b4b565b8152611ba560208401611b4b565b6020820152611bb660408401611b4b565b60408201526060830151606082015260808301516080820152611bdb60a08401611b68565b60a082015260c083015160c082015260e083015160e0820152610100808401518183015250610120611c0e818501611a5d565b908201526101408381015190820152610160928301519281019290925250919050565b73ffffffffffffffffffffffffffffffffffffffff815116825260208101516020830152600060408201516060604085015261181f60608501826114f2565b805160608084528151908401819052600091602091908201906080860190845b81811015611cac57835183529284019291840191600101611c90565b505082850151915085810383870152611cc58183611c31565b92505050604083015184820360408601526110d882826114f2565b60006101a0611cef838661140f565b806101808401526110d881840185611c70565b6101808101611140828461140f565b602081526000610ffa6020830184611c70565b848152836020820152608060408201526000611d4360808301856114f2565b8281036060840152611d5581856114f2565b979650505050505050565b60006020808385031215611d7357600080fd5b823567ffffffffffffffff80821115611d8b57600080fd5b9084019060608287031215611d9f57600080fd5b611da761165b565b823582811115611db657600080fd5b8301601f81018813611dc757600080fd5b803583811115611dd957611dd961162c565b8060051b611de88782016116a8565b918252828101870191878101908b841115611e0257600080fd5b938801935b83851015611e2057843582529388019390880190611e07565b8552505050508284013582811115611e3757600080fd5b611e4388828601611785565b85830152506040830135935081841115611e5c57600080fd5b611e68878585016116f7565b60408201529695505050505050565b803561121181611b56565b60006101808284031215611e9557600080fd5b611e9d611684565b611ea683611302565b8152611eb460208401611302565b6020820152611ec560408401611302565b60408201526060830135606082015260808301356080820152611eea60a08401611e77565b60a082015260c083013560c082015260e083013560e0820152610100808401358183015250610120611f1d818501611206565b908201526101408381013590820152610160928301359281019290925250919050565b600061026073ffffffffffffffffffffffffffffffffffffffff808c168452808b166020850152508860408401528760608401528660808401528060a0840152611f8c818401876114f2565b905082810360c0840152611fa081866114f2565b915050610c3260e083018461140f565b602081526000610ffa6020830184611c31565b6020815260008235611fd48161118a565b73ffffffffffffffffffffffffffffffffffffffff81166020840152506020830135604083015261200860408401846119ba565b6060808501526110d8608085018284611938565b60006101e061202b838861140f565b85610180840152806101a084015261204581840186611c31565b90508281036101c0840152611d5581856114f2565b7f4e487b7100000000000000000000000000000000000000000000000000000000600052603260045260246000fd5b60007fffffffffffffffffffffffffffffffffffffffffffffffffffffffffffffffff82036120e1577f4e487b7100000000000000000000000000000000000000000000000000000000600052601160045260246000fd5b506001019056fea2646970667358221220eaff201b4b30247d14425b23b74d47acb3f8445dd5c0b23656f9949f8b67544f64736f6c63430008130033",
    "linkReferences": {}
  },
  "methodIdentifiers": {
    "cabinet(address,bytes32)": "1c7662c8",
    "create((address,bytes32,bytes),bool)": "6bfae1ca",
    "createWithContext((address,bytes32,bytes),address,bytes,bool)": "0d0d9800",
    "domainSeparator()": "f698da25",
    "getTradeableOrderWithSignature(address,(address,bytes32,bytes),bytes,bytes32[])": "26e0a196",
    "hash((address,bytes32,bytes))": "5500079d",
    "isValidSafeSignature(address,address,bytes32,bytes32,bytes32,bytes,bytes)": "53f00b14",
    "remove(bytes32)": "95bc2673",
    "roots(address)": "a4546876",
    "setRoot(bytes32,(uint256,bytes))": "1ab0dd9d",
    "setRootWithContext(bytes32,(uint256,bytes),address,bytes)": "57f1d41a",
    "setSwapGuard(address)": "8f7984ed",
    "singleOrders(address,bytes32)": "6108c532",
    "swapGuards(address)": "595001b2"
  },
  "id": 136
}