{
  "abi": [
    {
      "inputs": [
        {
          "internalType": "address",
          "name": "admin",
          "type": "address"
        }
      ],
      "stateMutability": "nonpayable",
      "type": "constructor"
    },
    {
      "anonymous": false,
      "inputs": [
        {
          "indexed": true,
          "internalType": "bytes32",
          "name": "role",
          "type": "bytes32"
        },
        {
          "indexed": true,
          "internalType": "bytes32",
          "name": "previousAdminRole",
          "type": "bytes32"
        },
        {
          "indexed": true,
          "internalType": "bytes32",
          "name": "newAdminRole",
          "type": "bytes32"
        }
      ],
      "name": "RoleAdminChanged",
      "type": "event"
    },
    {
      "anonymous": false,
      "inputs": [
        {
          "indexed": true,
          "internalType": "bytes32",
          "name": "role",
          "type": "bytes32"
        },
        {
          "indexed": true,
          "internalType": "address",
          "name": "account",
          "type": "address"
        },
        {
          "indexed": true,
          "internalType": "address",
          "name": "sender",
          "type": "address"
        }
      ],
      "name": "RoleGranted",
      "type": "event"
    },
    {
      "anonymous": false,
      "inputs": [
        {
          "indexed": true,
          "internalType": "bytes32",
          "name": "role",
          "type": "bytes32"
        },
        {
          "indexed": true,
          "internalType": "address",
          "name": "account",
          "type": "address"
        },
        {
          "indexed": true,
          "internalType": "address",
          "name": "sender",
          "type": "address"
        }
      ],
      "name": "RoleRevoked",
      "type": "event"
    },
    {
      "inputs": [],
      "name": "DEFAULT_ADMIN_ROLE",
      "outputs": [
        {
          "internalType": "bytes32",
          "name": "",
          "type": "bytes32"
        }
      ],
      "stateMutability": "view",
      "type": "function"
    },
    {
      "inputs": [
        {
          "internalType": "bytes32",
          "name": "actionId",
          "type": "bytes32"
        },
        {
          "internalType": "address",
          "name": "account",
          "type": "address"
        },
        {
          "internalType": "address",
          "name": "",
          "type": "address"
        }
      ],
      "name": "canPerform",
      "outputs": [
        {
          "internalType": "bool",
          "name": "",
          "type": "bool"
        }
      ],
      "stateMutability": "view",
      "type": "function"
    },
    {
      "inputs": [
        {
          "internalType": "bytes32",
          "name": "role",
          "type": "bytes32"
        }
      ],
      "name": "getRoleAdmin",
      "outputs": [
        {
          "internalType": "bytes32",
          "name": "",
          "type": "bytes32"
        }
      ],
      "stateMutability": "view",
      "type": "function"
    },
    {
      "inputs": [
        {
          "internalType": "bytes32",
          "name": "role",
          "type": "bytes32"
        },
        {
          "internalType": "uint256",
          "name": "index",
          "type": "uint256"
        }
      ],
      "name": "getRoleMember",
      "outputs": [
        {
          "internalType": "address",
          "name": "",
          "type": "address"
        }
      ],
      "stateMutability": "view",
      "type": "function"
    },
    {
      "inputs": [
        {
          "internalType": "bytes32",
          "name": "role",
          "type": "bytes32"
        }
      ],
      "name": "getRoleMemberCount",
      "outputs": [
        {
          "internalType": "uint256",
          "name": "",
          "type": "uint256"
        }
      ],
      "stateMutability": "view",
      "type": "function"
    },
    {
      "inputs": [
        {
          "internalType": "bytes32",
          "name": "role",
          "type": "bytes32"
        },
        {
          "internalType": "address",
          "name": "account",
          "type": "address"
        }
      ],
      "name": "grantRole",
      "outputs": [],
      "stateMutability": "nonpayable",
      "type": "function"
    },
    {
      "inputs": [
        {
          "internalType": "bytes32[]",
          "name": "roles",
          "type": "bytes32[]"
        },
        {
          "internalType": "address",
          "name": "account",
          "type": "address"
        }
      ],
      "name": "grantRoles",
      "outputs": [],
      "stateMutability": "nonpayable",
      "type": "function"
    },
    {
      "inputs": [
        {
          "internalType": "bytes32[]",
          "name": "roles",
          "type": "bytes32[]"
        },
        {
          "internalType": "address[]",
          "name": "accounts",
          "type": "address[]"
        }
      ],
      "name": "grantRolesToMany",
      "outputs": [],
      "stateMutability": "nonpayable",
      "type": "function"
    },
    {
      "inputs": [
        {
          "internalType": "bytes32",
          "name": "role",
          "type": "bytes32"
        },
        {
          "internalType": "address",
          "name": "account",
          "type": "address"
        }
      ],
      "name": "hasRole",
      "outputs": [
        {
          "internalType": "bool",
          "name": "",
          "type": "bool"
        }
      ],
      "stateMutability": "view",
      "type": "function"
    },
    {
      "inputs": [
        {
          "internalType": "bytes32",
          "name": "role",
          "type": "bytes32"
        },
        {
          "internalType": "address",
          "name": "account",
          "type": "address"
        }
      ],
      "name": "renounceRole",
      "outputs": [],
      "stateMutability": "nonpayable",
      "type": "function"
    },
    {
      "inputs": [
        {
          "internalType": "bytes32",
          "name": "role",
          "type": "bytes32"
        },
        {
          "internalType": "address",
          "name": "account",
          "type": "address"
        }
      ],
      "name": "revokeRole",
      "outputs": [],
      "stateMutability": "nonpayable",
      "type": "function"
    },
    {
      "inputs": [
        {
          "internalType": "bytes32[]",
          "name": "roles",
          "type": "bytes32[]"
        },
        {
          "internalType": "address",
          "name": "account",
          "type": "address"
        }
      ],
      "name": "revokeRoles",
      "outputs": [],
      "stateMutability": "nonpayable",
      "type": "function"
    },
    {
      "inputs": [
        {
          "internalType": "bytes32[]",
          "name": "roles",
          "type": "bytes32[]"
        },
        {
          "internalType": "address[]",
          "name": "accounts",
          "type": "address[]"
        }
      ],
      "name": "revokeRolesFromMany",
      "outputs": [],
      "stateMutability": "nonpayable",
      "type": "function"
    }
  ],
  "bytecode": {
    "object": "0x608060405234801561001057600080fd5b50604051610e0d380380610e0d83398101604081905261002f9161011b565b61003a600082610040565b5061014b565b61004a828261004e565b5050565b600082815260208190526040902061006690826100a7565b1561004a5760405133906001600160a01b0383169084907f2f8788117e7eff1d82e926ec794901d17c78024a50270940304540a733656f0d90600090a45050565b6001600160a01b038116600090815260018301602052604081205461011157508154600180820184556000848152602080822090930180546001600160a01b0319166001600160a01b03861690811790915585549082528286019093526040902091909155610115565b5060005b92915050565b60006020828403121561012d57600080fd5b81516001600160a01b038116811461014457600080fd5b9392505050565b610cb38061015a6000396000f3fe608060405234801561001057600080fd5b50600436106100df5760003560e01c8063988360a31161008c578063a73cb2ab11610066578063a73cb2ab146101de578063ca15c873146101f1578063d547741f14610204578063fcd7627e1461021757600080fd5b8063988360a3146101b05780639be2a884146101c3578063a217fddf146101d657600080fd5b806336568abe116100bd57806336568abe146101425780639010d07c1461015557806391d148541461018d57600080fd5b806318b2cde9146100e4578063248a9ca3146100f95780632f2ff15d1461012f575b600080fd5b6100f76100f23660046109e8565b61022a565b005b61011c610107366004610aaa565b60009081526020819052604090206002015490565b6040519081526020015b60405180910390f35b6100f761013d366004610ac3565b610295565b6100f7610150366004610ac3565b6102cb565b610168610163366004610aef565b6102f9565b60405173ffffffffffffffffffffffffffffffffffffffff9091168152602001610126565b6101a061019b366004610ac3565b61031a565b6040519015158152602001610126565b6100f76101be366004610b11565b610352565b6101a06101d1366004610b56565b610393565b61011c600081565b6100f76101ec3660046109e8565b6103a7565b61011c6101ff366004610aaa565b61040d565b6100f7610212366004610ac3565b610421565b6100f7610225366004610b11565b610449565b6102368251825161048a565b60005b82518110156102905761027e83828151811061025757610257610b92565b602002602001015183838151811061027157610271610b92565b6020026020010151610421565b8061028881610bf0565b915050610239565b505050565b6000828152602081905260409020600201546102bd906102b5903361031a565b6101a6610493565b6102c782826104a1565b5050565b6102ef73ffffffffffffffffffffffffffffffffffffffff821633146101a8610493565b6102c78282610507565b6000828152602081905260408120610311908361056d565b90505b92915050565b60008281526020818152604080832073ffffffffffffffffffffffffffffffffffffffff851684526001019091528120541515610311565b60005b82518110156102905761038183828151811061037357610373610b92565b602002602001015183610421565b8061038b81610bf0565b915050610355565b600061039f848461031a565b949350505050565b6103b38251825161048a565b60005b8251811015610290576103fb8382815181106103d4576103d4610b92565b60200260200101518383815181106103ee576103ee610b92565b6020026020010151610295565b8061040581610bf0565b9150506103b6565b600081815260208190526040812054610314565b6000828152602081905260409020600201546102ef90610441903361031a565b6101a7610493565b60005b82518110156102905761047883828151811061046a5761046a610b92565b602002602001015183610295565b8061048281610bf0565b91505061044c565b6102c781831460675b816102c7576102c781610589565b60008281526020819052604090206104b990826105fd565b156102c757604051339073ffffffffffffffffffffffffffffffffffffffff83169084907f2f8788117e7eff1d82e926ec794901d17c78024a50270940304540a733656f0d90600090a45050565b600082815260208190526040902061051f90826106a1565b156102c757604051339073ffffffffffffffffffffffffffffffffffffffff83169084907ff6391f5c32d9c69d2a47ea670b442974b53935d1edc7fd64eb21e047a839171b90600090a45050565b815460009061057f9083106064610493565b6103118383610872565b6030600a820601600a820491506030600a830601600a830492506030600a8406018060101b8260081b8401016642414c230000000160c81b925050507f08c379a000000000000000000000000000000000000000000000000000000000600052602060045260076024528060445260646000fd5b73ffffffffffffffffffffffffffffffffffffffff8116600090815260018301602052604081205461069957508154600180820184556000848152602080822090930180547fffffffffffffffffffffffff00000000000000000000000000000000000000001673ffffffffffffffffffffffffffffffffffffffff861690811790915585549082528286019093526040902091909155610314565b506000610314565b73ffffffffffffffffffffffffffffffffffffffff8116600090815260018301602052604081205480156108685760006106dc600183610c28565b85549091506000906106f090600190610c28565b9050600086600001828154811061070957610709610b92565b600091825260209091200154875473ffffffffffffffffffffffffffffffffffffffff9091169150819088908590811061074557610745610b92565b600091825260209091200180547fffffffffffffffffffffffff00000000000000000000000000000000000000001673ffffffffffffffffffffffffffffffffffffffff9290921691909117905561079e836001610c3b565b73ffffffffffffffffffffffffffffffffffffffff8216600090815260018901602052604090205586548790806107d7576107d7610c4e565b6000828152602080822083017fffffffffffffffffffffffffffffffffffffffffffffffffffffffffffffffff90810180547fffffffffffffffffffffffff000000000000000000000000000000000000000016905590920190925573ffffffffffffffffffffffffffffffffffffffff881682526001898101909152604082209190915594506103149350505050565b6000915050610314565b600082600001828154811061088957610889610b92565b60009182526020909120015473ffffffffffffffffffffffffffffffffffffffff169392505050565b7f4e487b7100000000000000000000000000000000000000000000000000000000600052604160045260246000fd5b604051601f82017fffffffffffffffffffffffffffffffffffffffffffffffffffffffffffffffe016810167ffffffffffffffff81118282101715610928576109286108b2565b604052919050565b600067ffffffffffffffff82111561094a5761094a6108b2565b5060051b60200190565b600082601f83011261096557600080fd5b8135602061097a61097583610930565b6108e1565b82815260059290921b8401810191818101908684111561099957600080fd5b8286015b848110156109b4578035835291830191830161099d565b509695505050505050565b803573ffffffffffffffffffffffffffffffffffffffff811681146109e357600080fd5b919050565b600080604083850312156109fb57600080fd5b823567ffffffffffffffff80821115610a1357600080fd5b610a1f86838701610954565b9350602091508185013581811115610a3657600080fd5b85019050601f81018613610a4957600080fd5b8035610a5761097582610930565b81815260059190911b82018301908381019088831115610a7657600080fd5b928401925b82841015610a9b57610a8c846109bf565b82529284019290840190610a7b565b80955050505050509250929050565b600060208284031215610abc57600080fd5b5035919050565b60008060408385031215610ad657600080fd5b82359150610ae6602084016109bf565b90509250929050565b60008060408385031215610b0257600080fd5b50508035926020909101359150565b60008060408385031215610b2457600080fd5b823567ffffffffffffffff811115610b3b57600080fd5b610b4785828601610954565b925050610ae6602084016109bf565b600080600060608486031215610b6b57600080fd5b83359250610b7b602085016109bf565b9150610b89604085016109bf565b90509250925092565b7f4e487b7100000000000000000000000000000000000000000000000000000000600052603260045260246000fd5b7f4e487b7100000000000000000000000000000000000000000000000000000000600052601160045260246000fd5b60007fffffffffffffffffffffffffffffffffffffffffffffffffffffffffffffffff8203610c2157610c21610bc1565b5060010190565b8181038181111561031457610314610bc1565b8082018082111561031457610314610bc1565b7f4e487b7100000000000000000000000000000000000000000000000000000000600052603160045260246000fdfea26469706673582212201beae7a0def6b5ed8cb25e7a517be64ca8c45817837dc6afd3881c6b541a181d64736f6c63430008130033",
    "linkReferences": {}
  },
  "methodIdentifiers": {
    "DEFAULT_ADMIN_ROLE()": "a217fddf",
    "canPerform(bytes32,address,address)": "9be2a884",
    "getRoleAdmin(bytes32)": "248a9ca3",
    "getRoleMember(bytes32,uint256)": "9010d07c",
    "getRoleMemberCount(bytes32)": "ca15c873",
    "grantRole(bytes32,address)": "2f2ff15d",
    "grantRoles(bytes32[],address)": "fcd7627e",
    "grantRolesToMany(bytes32[],address[])": "a73cb2ab",
    "hasRole(bytes32,address)": "91d14854",
    "renounceRole(bytes32,address)": "36568abe",
    "revokeRole(bytes32,address)": "d547741f",
    "revokeRoles(bytes32[],address)": "988360a3",
    "revokeRolesFromMany(bytes32[],address[])": "18b2cde9"
  },
  "id": 30
}