{
  "abi": [
    {
      "inputs": [
        {
          "internalType": "contract ComposableCoW",
          "name": "_composableCow",
          "type": "address"
        }
      ],
      "stateMutability": "nonpayable",
      "type": "constructor"
    },
    {
      "inputs": [
        {
          "internalType": "string",
          "name": "",
          "type": "string"
        }
      ],
      "name": "OrderNotValid",
      "type": "error"
    },
    {
      "anonymous": false,
      "inputs": [
        {
          "indexed": true,
          "internalType": "address",
          "name": "owner",
          "type": "address"
        },
        {
          "components": [
            {
              "internalType": "contract IConditionalOrder",
              "name": "handler",
              "type": "address"
            },
            {
              "internalType": "bytes32",
              "name": "salt",
              "type": "bytes32"
            },
            {
              "internalType": "bytes",
              "name": "staticInput",
              "type": "bytes"
            }
          ],
          "indexed": false,
          "internalType": "struct IConditionalOrder.ConditionalOrderParams",
          "name": "params",
          "type": "tuple"
        }
      ],
      "name": "ConditionalOrderCreated",
      "type": "event"
    },
    {
      "inputs": [],
      "name": "composableCow",
      "outputs": [
        {
          "internalType": "contract ComposableCoW",
          "name": "",
          "type": "address"
        }
      ],
      "stateMutability": "view",
      "type": "function"
    },
    {
      "inputs": [
        {
          "internalType": "address",
          "name": "owner",
          "type": "address"
        },
        {
          "internalType": "address",
          "name": "",
          "type": "address"
        },
        {
          "internalType": "bytes32",
          "name": "ctx",
          "type": "bytes32"
        },
        {
          "internalType": "bytes",
          "name": "staticInput",
          "type": "bytes"
        },
        {
          "internalType": "bytes",
          "name": "",
          "type": "bytes"
        }
      ],
      "name": "getTradeableOrder",
      "outputs": [
        {
          "components": [
            {
              "internalType": "contract IERC20",
              "name": "sellToken",
              "type": "address"
            },
            {
              "internalType": "contract IERC20",
              "name": "buyToken",
              "type": "address"
            },
            {
              "internalType": "address",
              "name": "receiver",
              "type": "address"
            },
            {
              "internalType": "uint256",
              "name": "sellAmount",
              "type": "uint256"
            },
            {
              "internalType": "uint256",
              "name": "buyAmount",
              "type": "uint256"
            },
            {
              "internalType": "uint32",
              "name": "validTo",
              "type": "uint32"
            },
            {
              "internalType": "bytes32",
              "name": "appData",
              "type": "bytes32"
            },
            {
              "internalType": "uint256",
              "name": "feeAmount",
              "type": "uint256"
            },
            {
              "internalType": "bytes32",
              "name": "kind",
              "type": "bytes32"
            },
            {
              "internalType": "bool",
              "name": "partiallyFillable",
              "type": "bool"
            },
            {
              "internalType": "bytes32",
              "name": "sellTokenBalance",
              "type": "bytes32"
            },
            {
              "internalType": "bytes32",
              "name": "buyTokenBalance",
              "type": "bytes32"
            }
          ],
          "internalType": "struct GPv2Order.Data",
          "name": "order",
          "type": "tuple"
        }
      ],
      "stateMutability": "view",
      "type": "function"
    },
    {
      "inputs": [
        {
          "internalType": "bytes4",
          "name": "interfaceId",
          "type": "bytes4"
        }
      ],
      "name": "supportsInterface",
      "outputs": [
        {
          "internalType": "bool",
          "name": "",
          "type": "bool"
        }
      ],
      "stateMutability": "view",
      "type": "function"
    },
    {
      "inputs": [
        {
          "internalType": "address",
          "name": "owner",
          "type": "address"
        },
        {
          "internalType": "address",
          "name": "sender",
          "type": "address"
        },
        {
          "internalType": "bytes32",
          "name": "_hash",
          "type": "bytes32"
        },
        {
          "internalType": "bytes32",
          "name": "domainSeparator",
          "type": "bytes32"
        },
        {
          "internalType": "bytes32",
          "name": "ctx",
          "type": "bytes32"
        },
        {
          "internalType": "bytes",
          "name": "staticInput",
          "type": "bytes"
        },
        {
          "internalType": "bytes",
          "name": "offchainInput",
          "type": "bytes"
        },
        {
          "components": [
            {
              "internalType": "contract IERC20",
              "name": "sellToken",
              "type": "address"
            },
            {
              "internalType": "contract IERC20",
              "name": "buyToken",
              "type": "address"
            },
            {
              "internalType": "address",
              "name": "receiver",
              "type": "address"
            },
            {
              "internalType": "uint256",
              "name": "sellAmount",
              "type": "uint256"
            },
            {
              "internalType": "uint256",
              "name": "buyAmount",
              "type": "uint256"
            },
            {
              "internalType": "uint32",
              "name": "validTo",
              "type": "uint32"
            },
            {
              "internalType": "bytes32",
              "name": "appData",
              "type": "bytes32"
            },
            {
              "internalType": "uint256",
              "name": "feeAmount",
              "type": "uint256"
            },
            {
              "internalType": "bytes32",
              "name": "kind",
              "type": "bytes32"
            },
            {
              "internalType": "bool",
              "name": "partiallyFillable",
              "type": "bool"
            },
            {
              "internalType": "bytes32",
              "name": "sellTokenBalance",
              "type": "bytes32"
            },
            {
              "internalType": "bytes32",
              "name": "buyTokenBalance",
              "type": "bytes32"
            }
          ],
          "internalType": "struct GPv2Order.Data",
          "name": "",
          "type": "tuple"
        }
      ],
      "name": "verify",
      "outputs": [],
      "stateMutability": "view",
      "type": "function"
    }
  ],
  "bytecode": {
    "object": "0x60a060405234801561001057600080fd5b5060405161124638038061124683398101604081905261002f91610040565b6001600160a01b0316608052610070565b60006020828403121561005257600080fd5b81516001600160a01b038116811461006957600080fd5b9392505050565b6080516111b5610091600039600081816093015261037701526111b56000f3fe608060405234801561001057600080fd5b506004361061004c5760003560e01c806301ffc9a71461005157806314a2a7841461007957806393504c521461008e578063b8296fc4146100da575b600080fd5b61006461005f366004610c70565b6100fa565b60405190151581526020015b60405180910390f35b61008c610087366004610d34565b610193565b005b6100b57f000000000000000000000000000000000000000000000000000000000000000081565b60405173ffffffffffffffffffffffffffffffffffffffff9091168152602001610070565b6100ed6100e8366004610e22565b6102b0565b6040516100709190610ec1565b60007fffffffff0000000000000000000000000000000000000000000000000000000082167fb8296fc400000000000000000000000000000000000000000000000000000000148061018d57507fffffffff0000000000000000000000000000000000000000000000000000000082167f01ffc9a700000000000000000000000000000000000000000000000000000000145b92915050565b60006101a48b8b89898989896102b0565b7fffffffffffffffffffffffffffffffffffffffffffffffffffffffffffffffe0810180517fd5a25ba2e97094ad7d83dc28a6572da797d6b3e7fc6663bd93efb789fc17e48982526101a0822091526040517f19010000000000000000000000000000000000000000000000000000000000008152600281018b905260228101919091526042902090915089146102a357604080518082018252600c81527f696e76616c696420686173680000000000000000000000000000000000000000602082015290517fc8fc272500000000000000000000000000000000000000000000000000000000815261029a9190600401610faf565b60405180910390fd5b5050505050505050505050565b6040805161018081018252600080825260208201819052918101829052606081018290526080810182905260a0810182905260c0810182905260e0810182905261010081018290526101208101829052610140810182905261016081018290529061031d8686018761106c565b90508060a001516000036103e8576040517f1c7662c800000000000000000000000000000000000000000000000000000000815273ffffffffffffffffffffffffffffffffffffffff8a81166004830152602482018990527f00000000000000000000000000000000000000000000000000000000000000001690631c7662c890604401602060405180830381865afa1580156103be573d6000803e3d6000fd5b505050506040513d601f19601f820116820180604052508101906103e29190611108565b60a08201525b6103f181610476565b91508160a0015163ffffffff1642111561046a57604080518082018252600f81527f6e6f742077697468696e207370616e0000000000000000000000000000000000602082015290517fc8fc272500000000000000000000000000000000000000000000000000000000815261029a9190600401610faf565b50979650505050505050565b6040805161018081018252600080825260208201819052918101829052606081018290526080810182905260a0810182905260c0810182905260e081018290526101008101829052610120810182905261014081018290526101608101919091526104e082610622565b604051806101800160405280836000015173ffffffffffffffffffffffffffffffffffffffff168152602001836020015173ffffffffffffffffffffffffffffffffffffffff168152602001836040015173ffffffffffffffffffffffffffffffffffffffff16815260200183606001518152602001836080015181526020016105856105808560a001518660c001518760e00151886101000151610a43565b610bd6565b63ffffffff1681526020018361012001518152602001600081526020017ff3b277728b3fee749481eb3e0b3b48980dbbab78658fc419025cb16eee34677581526020016000151581526020017f5a28e9363bb942b639270062aa6bb295f434bcdfc42c97267bf003f272060dc981526020017f5a28e9363bb942b639270062aa6bb295f434bcdfc42c97267bf003f272060dc98152509050919050565b806020015173ffffffffffffffffffffffffffffffffffffffff16816000015173ffffffffffffffffffffffffffffffffffffffff16036106c257604080518082018252600a81527f73616d6520746f6b656e00000000000000000000000000000000000000000000602082015290517fc8fc272500000000000000000000000000000000000000000000000000000000815261029a9190600401610faf565b805173ffffffffffffffffffffffffffffffffffffffff16158015906107015750602081015173ffffffffffffffffffffffffffffffffffffffff1615155b61076a57604080518082018252600d81527f696e76616c696420746f6b656e00000000000000000000000000000000000000602082015290517fc8fc272500000000000000000000000000000000000000000000000000000000815261029a9190600401610faf565b60008160600151116107db57604080518082018252601881527f696e76616c696420706172742073656c6c20616d6f756e740000000000000000602082015290517fc8fc272500000000000000000000000000000000000000000000000000000000815261029a9190600401610faf565b600081608001511161084c57604080518082018252601681527f696e76616c6964206d696e2070617274206c696d697400000000000000000000602082015290517fc8fc272500000000000000000000000000000000000000000000000000000000815261029a9190600401610faf565b60a081015163ffffffff116108c057604080518082018252601281527f696e76616c69642073746172742074696d650000000000000000000000000000602082015290517fc8fc272500000000000000000000000000000000000000000000000000000000815261029a9190600401610faf565b60018160c001511180156108dc575060c081015163ffffffff10155b61094557604080518082018252601181527f696e76616c6964206e756d207061727473000000000000000000000000000000602082015290517fc8fc272500000000000000000000000000000000000000000000000000000000815261029a9190600401610faf565b60008160e0015111801561096157506301e133808160e0015111155b6109ca57604080518082018252601181527f696e76616c6964206672657175656e6379000000000000000000000000000000602082015290517fc8fc272500000000000000000000000000000000000000000000000000000000815261029a9190600401610faf565b8060e001518161010001511115610a4057604080518082018252600c81527f696e76616c6964207370616e0000000000000000000000000000000000000000602082015290517fc8fc272500000000000000000000000000000000000000000000000000000000815261029a9190600401610faf565b50565b6000600184118015610a59575063ffffffff8411155b610a6557610a65611121565b600083118015610a7957506301e133808311155b610a8557610a85611121565b82821115610a9557610a95611121565b42851115610b0257604080518082018252601181527f6265666f72652074776170207374617274000000000000000000000000000000602082015290517fc8fc272500000000000000000000000000000000000000000000000000000000815261029a9190600401610faf565b82840285014210610b7257604080518082018252601181527f616674657220747761702066696e697368000000000000000000000000000000602082015290517fc8fc272500000000000000000000000000000000000000000000000000000000815261029a9190600401610faf565b60008386420381610b8557610b85611150565b04905082600003610ba3576001848260010102870103915050610bce565b8302850182017fffffffffffffffffffffffffffffffffffffffffffffffffffffffffffffffff0190505b949350505050565b600063ffffffff821115610c6c576040517f08c379a000000000000000000000000000000000000000000000000000000000815260206004820152602660248201527f53616665436173743a2076616c756520646f65736e27742066697420696e203360448201527f3220626974730000000000000000000000000000000000000000000000000000606482015260840161029a565b5090565b600060208284031215610c8257600080fd5b81357fffffffff0000000000000000000000000000000000000000000000000000000081168114610cb257600080fd5b9392505050565b73ffffffffffffffffffffffffffffffffffffffff81168114610a4057600080fd5b8035610ce681610cb9565b919050565b60008083601f840112610cfd57600080fd5b50813567ffffffffffffffff811115610d1557600080fd5b602083019150836020828501011115610d2d57600080fd5b9250929050565b6000806000806000806000806000806102608b8d031215610d5457600080fd5b610d5e8b35610cb9565b8a35995060208b0135610d7081610cb9565b985060408b0135975060608b0135965060808b0135955060a08b013567ffffffffffffffff80821115610da257600080fd5b610dae8e838f01610ceb565b909750955060c08d0135915080821115610dc757600080fd5b50610dd48d828e01610ceb565b9094509250506101808b8d037fffffffffffffffffffffffffffffffffffffffffffffffffffffffffffffff20011215610e0d57600080fd5b60e08b0190509295989b9194979a5092959850565b600080600080600080600060a0888a031215610e3d57600080fd5b8735610e4881610cb9565b96506020880135610e5881610cb9565b955060408801359450606088013567ffffffffffffffff80821115610e7c57600080fd5b610e888b838c01610ceb565b909650945060808a0135915080821115610ea157600080fd5b50610eae8a828b01610ceb565b989b979a50959850939692959293505050565b815173ffffffffffffffffffffffffffffffffffffffff16815261018081016020830151610f07602084018273ffffffffffffffffffffffffffffffffffffffff169052565b506040830151610f2f604084018273ffffffffffffffffffffffffffffffffffffffff169052565b50606083015160608301526080830151608083015260a0830151610f5b60a084018263ffffffff169052565b5060c083015160c083015260e083015160e083015261010080840151818401525061012080840151610f908285018215159052565b5050610140838101519083015261016092830151929091019190915290565b600060208083528351808285015260005b81811015610fdc57858101830151858201604001528201610fc0565b5060006040828601015260407fffffffffffffffffffffffffffffffffffffffffffffffffffffffffffffffe0601f8301168501019250505092915050565b604051610140810167ffffffffffffffff81118282101715611066577f4e487b7100000000000000000000000000000000000000000000000000000000600052604160045260246000fd5b60405290565b6000610140828403121561107f57600080fd5b61108761101b565b61109083610cdb565b815261109e60208401610cdb565b60208201526110af60408401610cdb565b6040820152606083013560608201526080830135608082015260a083013560a082015260c083013560c082015260e083013560e08201526101008084013581830152506101208084013581830152508091505092915050565b60006020828403121561111a57600080fd5b5051919050565b7f4e487b7100000000000000000000000000000000000000000000000000000000600052600160045260246000fd5b7f4e487b7100000000000000000000000000000000000000000000000000000000600052601260045260246000fdfea2646970667358221220733968f1120306412e0bbb577306c40acd8fc83ab6a227fc90457b832d7d29f964736f6c63430008130033",
    "linkReferences": {}
  },
  "methodIdentifiers": {
    "composableCow()": "93504c52",
    "getTradeableOrder(address,address,bytes32,bytes,bytes)": "b8296fc4",
    "supportsInterface(bytes4)": "01ffc9a7",
    "verify(address,address,bytes32,bytes32,bytes32,bytes,bytes,(address,address,address,uint256,uint256,uint32,bytes32,uint256,bytes32,bool,bytes32,bytes32))": "14a2a784"
  },
  "id": 147
}