{
  "abi": [
    {
      "inputs": [
        {
          "internalType": "contract ComposableCoW",
          "name": "_composableCow",
          "type": "address"
        }
      ],
      "stateMutability": "nonpayable",
      "type": "constructor"
    },
    {
      "inputs": [
        {
          "internalType": "string",
          "name": "",
          "type": "string"
        }
      ],
      "name": "OrderNotValid",
      "type": "error"
    },
    {
      "inputs": [
        {
          "internalType": "string",
          "name": "reason",
          "type": "string"
        }
      ],
      "name": "PollNever",
      "type": "error"
    },
    {
      "inputs": [
        {
          "internalType": "uint256",
          "name": "blockNumber",
          "type": "uint256"
        },
        {
          "internalType": "string",
          "name": "reason",
          "type": "string"
        }
      ],
      "name": "PollTryAtBlock",
      "type": "error"
    },
    {
      "inputs": [
        {
          "internalType": "uint256",
          "name": "timestamp",
          "type": "uint256"
        },
        {
          "internalType": "string",
          "name": "reason",
          "type": "string"
        }
      ],
      "name": "PollTryAtEpoch",
      "type": "error"
    },
    {
      "inputs": [
        {
          "internalType": "string",
          "name": "reason",
          "type": "string"
        }
      ],
      "name": "PollTryNextBlock",
      "type": "error"
    },
    {
      "anonymous": false,
      "inputs": [
        {
          "indexed": true,
          "internalType": "address",
          "name": "owner",
          "type": "address"
        },
        {
          "components": [
            {
              "internalType": "contract IConditionalOrder",
              "name": "handler",
              "type": "address"
            },
            {
              "internalType": "bytes32",
              "name": "salt",
              "type": "bytes32"
            },
            {
              "internalType": "bytes",
              "name": "staticInput",
              "type": "bytes"
            }
          ],
          "indexed": false,
          "internalType": "struct IConditionalOrder.ConditionalOrderParams",
          "name": "params",
          "type": "tuple"
        }
      ],
      "name": "ConditionalOrderCreated",
      "type": "event"
    },
    {
      "inputs": [],
      "name": "composableCow",
      "outputs": [
        {
          "internalType": "contract ComposableCoW",
          "name": "",
          "type": "address"
        }
      ],
      "stateMutability": "view",
      "type": "function"
    },
    {
      "inputs": [
        {
          "internalType": "address",
          "name": "owner",
          "type": "address"
        },
        {
          "internalType": "address",
          "name": "",
          "type": "address"
        },
        {
          "internalType": "bytes32",
          "name": "ctx",
          "type": "bytes32"
        },
        {
          "internalType": "bytes",
          "name": "staticInput",
          "type": "bytes"
        },
        {
          "internalType": "bytes",
          "name": "",
          "type": "bytes"
        }
      ],
      "name": "getTradeableOrder",
      "outputs": [
        {
          "components": [
            {
              "internalType": "contract IERC20",
              "name": "sellToken",
              "type": "address"
            },
            {
              "internalType": "contract IERC20",
              "name": "buyToken",
              "type": "address"
            },
            {
              "internalType": "address",
              "name": "receiver",
              "type": "address"
            },
            {
              "internalType": "uint256",
              "name": "sellAmount",
              "type": "uint256"
            },
            {
              "internalType": "uint256",
              "name": "buyAmount",
              "type": "uint256"
            },
            {
              "internalType": "uint32",
              "name": "validTo",
              "type": "uint32"
            },
            {
              "internalType": "bytes32",
              "name": "appData",
              "type": "bytes32"
            },
            {
              "internalType": "uint256",
              "name": "feeAmount",
              "type": "uint256"
            },
            {
              "internalType": "bytes32",
              "name": "kind",
              "type": "bytes32"
            },
            {
              "internalType": "bool",
              "name": "partiallyFillable",
              "type": "bool"
            },
            {
              "internalType": "bytes32",
              "name": "sellTokenBalance",
              "type": "bytes32"
            },
            {
              "internalType": "bytes32",
              "name": "buyTokenBalance",
              "type": "bytes32"
            }
          ],
          "internalType": "struct GPv2Order.Data",
          "name": "order",
          "type": "tuple"
        }
      ],
      "stateMutability": "view",
      "type": "function"
    },
    {
      "inputs": [
        {
          "internalType": "bytes4",
          "name": "interfaceId",
          "type": "bytes4"
        }
      ],
      "name": "supportsInterface",
      "outputs": [
        {
          "internalType": "bool",
          "name": "",
          "type": "bool"
        }
      ],
      "stateMutability": "view",
      "type": "function"
    },
    {
      "inputs": [
        {
          "internalType": "bytes",
          "name": "data",
          "type": "bytes"
        }
      ],
      "name": "validateData",
      "outputs": [],
      "stateMutability": "pure",
      "type": "function"
    },
    {
      "inputs": [
        {
          "internalType": "address",
          "name": "owner",
          "type": "address"
        },
        {
          "internalType": "address",
          "name": "sender",
          "type": "address"
        },
        {
          "internalType": "bytes32",
          "name": "_hash",
          "type": "bytes32"
        },
        {
          "internalType": "bytes32",
          "name": "domainSeparator",
          "type": "bytes32"
        },
        {
          "internalType": "bytes32",
          "name": "ctx",
          "type": "bytes32"
        },
        {
          "internalType": "bytes",
          "name": "staticInput",
          "type": "bytes"
        },
        {
          "internalType": "bytes",
          "name": "offchainInput",
          "type": "bytes"
        },
        {
          "components": [
            {
              "internalType": "contract IERC20",
              "name": "sellToken",
              "type": "address"
            },
            {
              "internalType": "contract IERC20",
              "name": "buyToken",
              "type": "address"
            },
            {
              "internalType": "address",
              "name": "receiver",
              "type": "address"
            },
            {
              "internalType": "uint256",
              "name": "sellAmount",
              "type": "uint256"
            },
            {
              "internalType": "uint256",
              "name": "buyAmount",
              "type": "uint256"
            },
            {
              "internalType": "uint32",
              "name": "validTo",
              "type": "uint32"
            },
            {
              "internalType": "bytes32",
              "name": "appData",
              "type": "bytes32"
            },
            {
              "internalType": "uint256",
              "name": "feeAmount",
              "type": "uint256"
            },
            {
              "internalType": "bytes32",
              "name": "kind",
              "type": "bytes32"
            },
            {
              "internalType": "bool",
              "name": "partiallyFillable",
              "type": "bool"
            },
            {
              "internalType": "bytes32",
              "name": "sellTokenBalance",
              "type": "bytes32"
            },
            {
              "internalType": "bytes32",
              "name": "buyTokenBalance",
              "type": "bytes32"
            }
          ],
          "internalType": "struct GPv2Order.Data",
          "name": "",
          "type": "tuple"
        }
      ],
      "name": "verify",
      "outputs": [],
      "stateMutability": "view",
      "type": "function"
    }
  ],
  "bytecode": {
    "object": "0x60a060405234801561001057600080fd5b5060405161159738038061159783398101604081905261002f91610040565b6001600160a01b0316608052610070565b60006020828403121561005257600080fd5b81516001600160a01b038116811461006957600080fd5b9392505050565b6080516115066100916000396000818160ae01526103c401526115066000f3fe608060405234801561001057600080fd5b50600436106100675760003560e01c806393504c521161005057806393504c52146100a9578063a6ffa36c146100f5578063b8296fc41461010857600080fd5b806301ffc9a71461006c57806314a2a78414610094575b600080fd5b61007f61007a366004610d78565b610128565b60405190151581526020015b60405180910390f35b6100a76100a2366004610e3c565b6101c1565b005b6100d07f000000000000000000000000000000000000000000000000000000000000000081565b60405173ffffffffffffffffffffffffffffffffffffffff909116815260200161008b565b6100a7610103366004610f83565b6102de565b61011b610116366004611052565b6102fd565b60405161008b91906110f1565b60007fffffffff0000000000000000000000000000000000000000000000000000000082167fb8296fc40000000000000000000000000000000000000000000000000000000014806101bb57507fffffffff0000000000000000000000000000000000000000000000000000000082167f01ffc9a700000000000000000000000000000000000000000000000000000000145b92915050565b60006101d28b8b89898989896102fd565b7fffffffffffffffffffffffffffffffffffffffffffffffffffffffffffffffe0810180517fd5a25ba2e97094ad7d83dc28a6572da797d6b3e7fc6663bd93efb789fc17e48982526101a0822091526040517f19010000000000000000000000000000000000000000000000000000000000008152600281018b905260228101919091526042902090915089146102d157604080518082018252600c81527f696e76616c696420686173680000000000000000000000000000000000000000602082015290517fc8fc27250000000000000000000000000000000000000000000000000000000081526102c89190600401611243565b60405180910390fd5b5050505050505050505050565b6102fa818060200190518101906102f59190611261565b610580565b50565b6040805161018081018252600080825260208201819052918101829052606081018290526080810182905260a0810182905260c0810182905260e0810182905261010081018290526101208101829052610140810182905261016081018290529061036a868601876112fd565b90508060a00151600003610435576040517f1c7662c800000000000000000000000000000000000000000000000000000000815273ffffffffffffffffffffffffffffffffffffffff8a81166004830152602482018990527f00000000000000000000000000000000000000000000000000000000000000001690631c7662c890604401602060405180830381865afa15801561040b573d6000803e3d6000fd5b505050506040513d601f19601f8201168201806040525081019061042f9190611399565b60a08201525b61043e8161099e565b91508160a0015163ffffffff164211156105745760008160e001518260a001514261046991906113e1565b6104739190611423565b61047e90600161145e565b90508160c0015181036104f057604080518082018252600f81527f6e6f742077697468696e207370616e0000000000000000000000000000000000602082015290517f981b64cd0000000000000000000000000000000000000000000000000000000081526102c89190600401611243565b60e08201516104ff9082611471565b8260a0015161050e919061145e565b604080518082018252600f81527f6e6f742077697468696e207370616e0000000000000000000000000000000000602082015290517f7e3346370000000000000000000000000000000000000000000000000000000081526102c8929190600401611488565b50979650505050505050565b806020015173ffffffffffffffffffffffffffffffffffffffff16816000015173ffffffffffffffffffffffffffffffffffffffff160361062057604080518082018252600a81527f73616d6520746f6b656e00000000000000000000000000000000000000000000602082015290517fc8fc27250000000000000000000000000000000000000000000000000000000081526102c89190600401611243565b805173ffffffffffffffffffffffffffffffffffffffff161580159061065f5750602081015173ffffffffffffffffffffffffffffffffffffffff1615155b6106c857604080518082018252600d81527f696e76616c696420746f6b656e00000000000000000000000000000000000000602082015290517fc8fc27250000000000000000000000000000000000000000000000000000000081526102c89190600401611243565b600081606001511161073957604080518082018252601881527f696e76616c696420706172742073656c6c20616d6f756e740000000000000000602082015290517fc8fc27250000000000000000000000000000000000000000000000000000000081526102c89190600401611243565b60008160800151116107aa57604080518082018252601681527f696e76616c6964206d696e2070617274206c696d697400000000000000000000602082015290517fc8fc27250000000000000000000000000000000000000000000000000000000081526102c89190600401611243565b60a081015163ffffffff1161081e57604080518082018252601281527f696e76616c69642073746172742074696d650000000000000000000000000000602082015290517fc8fc27250000000000000000000000000000000000000000000000000000000081526102c89190600401611243565b60018160c0015111801561083a575060c081015163ffffffff10155b6108a357604080518082018252601181527f696e76616c6964206e756d207061727473000000000000000000000000000000602082015290517fc8fc27250000000000000000000000000000000000000000000000000000000081526102c89190600401611243565b60008160e001511180156108bf57506301e133808160e0015111155b61092857604080518082018252601181527f696e76616c6964206672657175656e6379000000000000000000000000000000602082015290517fc8fc27250000000000000000000000000000000000000000000000000000000081526102c89190600401611243565b8060e0015181610100015111156102fa57604080518082018252600c81527f696e76616c6964207370616e0000000000000000000000000000000000000000602082015290517fc8fc27250000000000000000000000000000000000000000000000000000000081526102c89190600401611243565b6040805161018081018252600080825260208201819052918101829052606081018290526080810182905260a0810182905260c0810182905260e08101829052610100810182905261012081018290526101408101829052610160810191909152610a0882610580565b604051806101800160405280836000015173ffffffffffffffffffffffffffffffffffffffff168152602001836020015173ffffffffffffffffffffffffffffffffffffffff168152602001836040015173ffffffffffffffffffffffffffffffffffffffff1681526020018360600151815260200183608001518152602001610aad610aa88560a001518660c001518760e00151886101000151610b4a565b610cde565b63ffffffff1681526020018361012001518152602001600081526020017ff3b277728b3fee749481eb3e0b3b48980dbbab78658fc419025cb16eee34677581526020016000151581526020017f5a28e9363bb942b639270062aa6bb295f434bcdfc42c97267bf003f272060dc981526020017f5a28e9363bb942b639270062aa6bb295f434bcdfc42c97267bf003f272060dc98152509050919050565b6000600184118015610b60575063ffffffff8411155b610b6c57610b6c6114a1565b600083118015610b8057506301e133808311155b610b8c57610b8c6114a1565b82821115610b9c57610b9c6114a1565b42851115610c0a57604080518082018252601181527f6265666f72652074776170207374617274000000000000000000000000000000602082015290517f7e3346370000000000000000000000000000000000000000000000000000000081526102c8918791600401611488565b82840285014210610c7a57604080518082018252601181527f616674657220747761702066696e697368000000000000000000000000000000602082015290517f981b64cd0000000000000000000000000000000000000000000000000000000081526102c89190600401611243565b60008386420381610c8d57610c8d6113f4565b04905082600003610cab576001848260010102870103915050610cd6565b8302850182017fffffffffffffffffffffffffffffffffffffffffffffffffffffffffffffffff0190505b949350505050565b600063ffffffff821115610d74576040517f08c379a000000000000000000000000000000000000000000000000000000000815260206004820152602660248201527f53616665436173743a2076616c756520646f65736e27742066697420696e203360448201527f322062697473000000000000000000000000000000000000000000000000000060648201526084016102c8565b5090565b600060208284031215610d8a57600080fd5b81357fffffffff0000000000000000000000000000000000000000000000000000000081168114610dba57600080fd5b9392505050565b73ffffffffffffffffffffffffffffffffffffffff811681146102fa57600080fd5b8035610dee81610dc1565b919050565b60008083601f840112610e0557600080fd5b50813567ffffffffffffffff811115610e1d57600080fd5b602083019150836020828501011115610e3557600080fd5b9250929050565b6000806000806000806000806000806102608b8d031215610e5c57600080fd5b610e668b35610dc1565b8a35995060208b0135610e7881610dc1565b985060408b0135975060608b0135965060808b0135955060a08b013567ffffffffffffffff80821115610eaa57600080fd5b610eb68e838f01610df3565b909750955060c08d0135915080821115610ecf57600080fd5b50610edc8d828e01610df3565b9094509250506101808b8d037fffffffffffffffffffffffffffffffffffffffffffffffffffffffffffffff20011215610f1557600080fd5b60e08b0190509295989b9194979a5092959850565b7f4e487b7100000000000000000000000000000000000000000000000000000000600052604160045260246000fd5b604051610140810167ffffffffffffffff81118282101715610f7d57610f7d610f2a565b60405290565b600060208284031215610f9557600080fd5b813567ffffffffffffffff80821115610fad57600080fd5b818401915084601f830112610fc157600080fd5b813581811115610fd357610fd3610f2a565b604051601f82017fffffffffffffffffffffffffffffffffffffffffffffffffffffffffffffffe0908116603f0116810190838211818310171561101957611019610f2a565b8160405282815287602084870101111561103257600080fd5b826020860160208301376000928101602001929092525095945050505050565b600080600080600080600060a0888a03121561106d57600080fd5b873561107881610dc1565b9650602088013561108881610dc1565b955060408801359450606088013567ffffffffffffffff808211156110ac57600080fd5b6110b88b838c01610df3565b909650945060808a01359150808211156110d157600080fd5b506110de8a828b01610df3565b989b979a50959850939692959293505050565b815173ffffffffffffffffffffffffffffffffffffffff16815261018081016020830151611137602084018273ffffffffffffffffffffffffffffffffffffffff169052565b50604083015161115f604084018273ffffffffffffffffffffffffffffffffffffffff169052565b50606083015160608301526080830151608083015260a083015161118b60a084018263ffffffff169052565b5060c083015160c083015260e083015160e0830152610100808401518184015250610120808401516111c08285018215159052565b5050610140838101519083015261016092830151929091019190915290565b6000815180845260005b81811015611205576020818501810151868301820152016111e9565b5060006020828601015260207fffffffffffffffffffffffffffffffffffffffffffffffffffffffffffffffe0601f83011685010191505092915050565b602081526000610dba60208301846111df565b8051610dee81610dc1565b6000610140828403121561127457600080fd5b61127c610f59565b61128583611256565b815261129360208401611256565b60208201526112a460408401611256565b6040820152606083015160608201526080830151608082015260a083015160a082015260c083015160c082015260e083015160e08201526101008084015181830152506101208084015181830152508091505092915050565b6000610140828403121561131057600080fd5b611318610f59565b61132183610de3565b815261132f60208401610de3565b602082015261134060408401610de3565b6040820152606083013560608201526080830135608082015260a083013560a082015260c083013560c082015260e083013560e08201526101008084013581830152506101208084013581830152508091505092915050565b6000602082840312156113ab57600080fd5b5051919050565b7f4e487b7100000000000000000000000000000000000000000000000000000000600052601160045260246000fd5b818103818111156101bb576101bb6113b2565b7f4e487b7100000000000000000000000000000000000000000000000000000000600052601260045260246000fd5b600082611459577f4e487b7100000000000000000000000000000000000000000000000000000000600052601260045260246000fd5b500490565b808201808211156101bb576101bb6113b2565b80820281158282048414176101bb576101bb6113b2565b828152604060208201526000610cd660408301846111df565b7f4e487b7100000000000000000000000000000000000000000000000000000000600052600160045260246000fdfea264697066735822122083a2524be4e019bcb1dcbb9078ab7cf4dc1a9445dce27ae6673fdd67a1ce7e8b64736f6c63430008130033",
    "linkReferences": {}
  },
  "methodIdentifiers": {
    "composableCow()": "93504c52",
    "getTradeableOrder(address,address,bytes32,bytes,bytes)": "b8296fc4",
    "supportsInterface(bytes4)": "01ffc9a7",
    "validateData(bytes)": "a6ffa36c",
    "verify(address,address,bytes32,bytes32,bytes32,bytes,bytes,(address,address,address,uint256,uint256,uint32,bytes32,uint256,bytes32,bool,bytes32,bytes32))": "14a2a784"
  },
  "id": 149
}