{
  "abi": [
    {
      "anonymous": false,
      "inputs": [
        {
          "indexed": false,
          "internalType": "address",
          "name": "newManager",
          "type": "address"
        },
        {
          "indexed": false,
          "internalType": "address",
          "name": "oldManager",
          "type": "address"
        }
      ],
      "name": "ManagerChanged",
      "type": "event"
    },
    {
      "anonymous": false,
      "inputs": [
        {
          "indexed": false,
          "internalType": "address",
          "name": "solver",
          "type": "address"
        }
      ],
      "name": "SolverAdded",
      "type": "event"
    },
    {
      "anonymous": false,
      "inputs": [
        {
          "indexed": false,
          "internalType": "address",
          "name": "solver",
          "type": "address"
        }
      ],
      "name": "SolverRemoved",
      "type": "event"
    },
    {
      "inputs": [
        {
          "internalType": "address",
          "name": "solver",
          "type": "address"
        }
      ],
      "name": "addSolver",
      "outputs": [],
      "stateMutability": "nonpayable",
      "type": "function"
    },
    {
      "inputs": [
        {
          "internalType": "uint256",
          "name": "offset",
          "type": "uint256"
        },
        {
          "internalType": "uint256",
          "name": "length",
          "type": "uint256"
        }
      ],
      "name": "getStorageAt",
      "outputs": [
        {
          "internalType": "bytes",
          "name": "",
          "type": "bytes"
        }
      ],
      "stateMutability": "view",
      "type": "function"
    },
    {
      "inputs": [
        {
          "internalType": "address",
          "name": "manager_",
          "type": "address"
        }
      ],
      "name": "initializeManager",
      "outputs": [],
      "stateMutability": "nonpayable",
      "type": "function"
    },
    {
      "inputs": [
        {
          "internalType": "address",
          "name": "prospectiveSolver",
          "type": "address"
        }
      ],
      "name": "isSolver",
      "outputs": [
        {
          "internalType": "bool",
          "name": "",
          "type": "bool"
        }
      ],
      "stateMutability": "view",
      "type": "function"
    },
    {
      "inputs": [],
      "name": "manager",
      "outputs": [
        {
          "internalType": "address",
          "name": "",
          "type": "address"
        }
      ],
      "stateMutability": "view",
      "type": "function"
    },
    {
      "inputs": [
        {
          "internalType": "address",
          "name": "solver",
          "type": "address"
        }
      ],
      "name": "removeSolver",
      "outputs": [],
      "stateMutability": "nonpayable",
      "type": "function"
    },
    {
      "inputs": [
        {
          "internalType": "address",
          "name": "manager_",
          "type": "address"
        }
      ],
      "name": "setManager",
      "outputs": [],
      "stateMutability": "nonpayable",
      "type": "function"
    },
    {
      "inputs": [
        {
          "internalType": "address",
          "name": "targetContract",
          "type": "address"
        },
        {
          "internalType": "bytes",
          "name": "calldataPayload",
          "type": "bytes"
        }
      ],
      "name": "simulateDelegatecall",
      "outputs": [
        {
          "internalType": "bytes",
          "name": "response",
          "type": "bytes"
        }
      ],
      "stateMutability": "nonpayable",
      "type": "function"
    },
    {
      "inputs": [
        {
          "internalType": "address",
          "name": "targetContract",
          "type": "address"
        },
        {
          "internalType": "bytes",
          "name": "calldataPayload",
          "type": "bytes"
        }
      ],
      "name": "simulateDelegatecallInternal",
      "outputs": [
        {
          "internalType": "bytes",
          "name": "response",
          "type": "bytes"
        }
      ],
      "stateMutability": "nonpayable",
      "type": "function"
    }
  ],
  "bytecode": {
    "object": "0x608060405234801561001057600080fd5b50610ce6806100206000396000f3fe608060405234801561001057600080fd5b50600436106100a35760003560e01c80637f7120fe11610076578063d0ebdbe71161005b578063d0ebdbe71461019c578063ec58f4b8146101af578063f84436bd146101c257600080fd5b80637f7120fe146101745780638fd57b921461018957600080fd5b806302cc250d146100a857806343218e19146100f6578063481c6a75146101165780635624b25b14610161575b600080fd5b6100e16100b63660046109a1565b73ffffffffffffffffffffffffffffffffffffffff1660009081526001602052604090205460ff1690565b60405190151581526020015b60405180910390f35b6101096101043660046109f2565b6101d5565b6040516100ed9190610b40565b60005461013c9062010000900473ffffffffffffffffffffffffffffffffffffffff1681565b60405173ffffffffffffffffffffffffffffffffffffffff90911681526020016100ed565b61010961016f366004610b53565b610277565b6101876101823660046109a1565b6102ff565b005b6101876101973660046109a1565b610483565b6101876101aa3660046109a1565b61058d565b6101876101bd3660046109a1565b6106e8565b6101096101d03660046109f2565b6107ef565b606060008373ffffffffffffffffffffffffffffffffffffffff16836040516101fe9190610b75565b600060405180830381855af49150503d8060008114610239576040519150601f19603f3d011682016040523d82523d6000602084013e61023e565b606091505b506040519093509091506102709061025c9084908490602001610b91565b604051602081830303815290604052610970565b5092915050565b60606000610286836020610be8565b67ffffffffffffffff81111561029e5761029e6109c3565b6040519080825280601f01601f1916602001820160405280156102c8576020820181803683370190505b50905060005b838110156102f55784810154602080830284010152806102ed81610bff565b9150506102ce565b5090505b92915050565b600054610100900460ff16806103145750303b155b80610322575060005460ff16155b61038d576040517f08c379a000000000000000000000000000000000000000000000000000000000815260206004820152601a60248201527f496e697469616c697a61626c653a20696e697469616c697a656400000000000060448201526064015b60405180910390fd5b600054610100900460ff161580156103cc57600080547fffffffffffffffffffffffffffffffffffffffffffffffffffffffffffff0000166101011790555b600080547fffffffffffffffffffff0000000000000000000000000000000000000000ffff166201000073ffffffffffffffffffffffffffffffffffffffff85169081029190911782556040805191825260208201929092527f605c2dbf762e5f7d60a546d42e7205dcb1b011ebc62a61736a57c9089d3a4350910160405180910390a1801561047f57600080547fffffffffffffffffffffffffffffffffffffffffffffffffffffffffffff00ff1690555b5050565b60005462010000900473ffffffffffffffffffffffffffffffffffffffff16331461050a576040517f08c379a000000000000000000000000000000000000000000000000000000000815260206004820152601860248201527f475076323a2063616c6c6572206e6f74206d616e6167657200000000000000006044820152606401610384565b73ffffffffffffffffffffffffffffffffffffffff811660008181526001602090815260409182902080547fffffffffffffffffffffffffffffffffffffffffffffffffffffffffffffff0016905590519182527f640e18a2587e1d83e4fdabf70257d0a800ca4b2c1aaad1dfc485a4ad8bbbd6c691015b60405180910390a150565b60005462010000900473ffffffffffffffffffffffffffffffffffffffff163314806105f55750336105dd7fb53127684a568b3173ae13b9f8a6016e243e63b6e8ee1178d6a717850b5d61035490565b73ffffffffffffffffffffffffffffffffffffffff16145b61065b576040517f08c379a000000000000000000000000000000000000000000000000000000000815260206004820152601460248201527f475076323a206e6f7420617574686f72697a65640000000000000000000000006044820152606401610384565b6000805473ffffffffffffffffffffffffffffffffffffffff838116620100008181027fffffffffffffffffffff0000000000000000000000000000000000000000ffff85161790945560408051918252939092041660208201819052917f605c2dbf762e5f7d60a546d42e7205dcb1b011ebc62a61736a57c9089d3a4350910160405180910390a15050565b60005462010000900473ffffffffffffffffffffffffffffffffffffffff16331461076f576040517f08c379a000000000000000000000000000000000000000000000000000000000815260206004820152601860248201527f475076323a2063616c6c6572206e6f74206d616e6167657200000000000000006044820152606401610384565b73ffffffffffffffffffffffffffffffffffffffff811660008181526001602081815260409283902080547fffffffffffffffffffffffffffffffffffffffffffffffffffffffffffffff001690921790915590519182527f41f9d09dd5159251f8a8e482bbe097b7c01a5e6f70c5a0ddb494906464fc9dd79101610582565b606060006343218e1960e01b848460405160240161080e929190610c37565b604080517fffffffffffffffffffffffffffffffffffffffffffffffffffffffffffffffe08184030181529181526020820180517bffffffffffffffffffffffffffffffffffffffffffffffffffffffff167fffffffff00000000000000000000000000000000000000000000000000000000909416939093179092529051909150309061089d908390610b75565b6000604051808303816000865af19150503d80600081146108da576040519150601f19603f3d011682016040523d82523d6000602084013e6108df565b606091505b50905080925050600082600184516108f79190610c6e565b8151811061090757610907610c81565b602001015160f81c60f81b7effffffffffffffffffffffffffffffffffffffffffffffffffffffffffffff1916600160f81b149050610952836001855161094e9190610c6e565b9052565b801561095f5750506102f9565b61096883610970565b505092915050565b805160208201fd5b803573ffffffffffffffffffffffffffffffffffffffff8116811461099c57600080fd5b919050565b6000602082840312156109b357600080fd5b6109bc82610978565b9392505050565b7f4e487b7100000000000000000000000000000000000000000000000000000000600052604160045260246000fd5b60008060408385031215610a0557600080fd5b610a0e83610978565b9150602083013567ffffffffffffffff80821115610a2b57600080fd5b818501915085601f830112610a3f57600080fd5b813581811115610a5157610a516109c3565b604051601f82017fffffffffffffffffffffffffffffffffffffffffffffffffffffffffffffffe0908116603f01168101908382118183101715610a9757610a976109c3565b81604052828152886020848701011115610ab057600080fd5b8260208601602083013760006020848301015280955050505050509250929050565b60005b83811015610aed578181015183820152602001610ad5565b50506000910152565b60008151808452610b0e816020860160208601610ad2565b601f017fffffffffffffffffffffffffffffffffffffffffffffffffffffffffffffffe0169290920160200192915050565b6020815260006109bc6020830184610af6565b60008060408385031215610b6657600080fd5b50508035926020909101359150565b60008251610b87818460208701610ad2565b9190910192915050565b60008351610ba3818460208801610ad2565b92151560f81b9190920190815260010192915050565b7f4e487b7100000000000000000000000000000000000000000000000000000000600052601160045260246000fd5b80820281158282048414176102f9576102f9610bb9565b60007fffffffffffffffffffffffffffffffffffffffffffffffffffffffffffffffff8203610c3057610c30610bb9565b5060010190565b73ffffffffffffffffffffffffffffffffffffffff83168152604060208201526000610c666040830184610af6565b949350505050565b818103818111156102f9576102f9610bb9565b7f4e487b7100000000000000000000000000000000000000000000000000000000600052603260045260246000fdfea26469706673582212207771b6c48d0a0ad454198039f7dadf22b3747a0ac4e6bbd7f309feaa1328d60e64736f6c63430008130033",
    "linkReferences": {}
  },
  "methodIdentifiers": {
    "addSolver(address)": "ec58f4b8",
    "getStorageAt(uint256,uint256)": "5624b25b",
    "initializeManager(address)": "7f7120fe",
    "isSolver(address)": "02cc250d",
    "manager()": "481c6a75",
    "removeSolver(address)": "8fd57b92",
    "setManager(address)": "d0ebdbe7",
    "simulateDelegatecall(address,bytes)": "f84436bd",
    "simulateDelegatecallInternal(address,bytes)": "43218e19"
  },
  "id": 56
}