{
  "abi": [
    {
      "anonymous": false,
      "inputs": [
        {
          "indexed": true,
          "internalType": "contract Safe",
          "name": "safe",
          "type": "address"
        },
        {
          "indexed": false,
          "internalType": "bytes32",
          "name": "domainSeparator",
          "type": "bytes32"
        },
        {
          "indexed": false,
          "internalType": "contract ISafeSignatureVerifier",
          "name": "verifier",
          "type": "address"
        }
      ],
      "name": "AddedDomainVerifier",
      "type": "event"
    },
    {
      "anonymous": false,
      "inputs": [
        {
          "indexed": true,
          "internalType": "contract Safe",
          "name": "safe",
          "type": "address"
        },
        {
          "indexed": false,
          "internalType": "bytes4",
          "name": "interfaceId",
          "type": "bytes4"
        }
      ],
      "name": "AddedInterface",
      "type": "event"
    },
    {
      "anonymous": false,
      "inputs": [
        {
          "indexed": true,
          "internalType": "contract Safe",
          "name": "safe",
          "type": "address"
        },
        {
          "indexed": false,
          "internalType": "bytes4",
          "name": "selector",
          "type": "bytes4"
        },
        {
          "indexed": false,
          "internalType": "bytes32",
          "name": "method",
          "type": "bytes32"
        }
      ],
      "name": "AddedSafeMethod",
      "type": "event"
    },
    {
      "anonymous": false,
      "inputs": [
        {
          "indexed": true,
          "internalType": "contract Safe",
          "name": "safe",
          "type": "address"
        },
        {
          "indexed": false,
          "internalType": "bytes32",
          "name": "domainSeparator",
          "type": "bytes32"
        },
        {
          "indexed": false,
          "internalType": "contract ISafeSignatureVerifier",
          "name": "oldVerifier",
          "type": "address"
        },
        {
          "indexed": false,
          "internalType": "contract ISafeSignatureVerifier",
          "name": "newVerifier",
          "type": "address"
        }
      ],
      "name": "ChangedDomainVerifier",
      "type": "event"
    },
    {
      "anonymous": false,
      "inputs": [
        {
          "indexed": true,
          "internalType": "contract Safe",
          "name": "safe",
          "type": "address"
        },
        {
          "indexed": false,
          "internalType": "bytes4",
          "name": "selector",
          "type": "bytes4"
        },
        {
          "indexed": false,
          "internalType": "bytes32",
          "name": "oldMethod",
          "type": "bytes32"
        },
        {
          "indexed": false,
          "internalType": "bytes32",
          "name": "newMethod",
          "type": "bytes32"
        }
      ],
      "name": "ChangedSafeMethod",
      "type": "event"
    },
    {
      "anonymous": false,
      "inputs": [
        {
          "indexed": true,
          "internalType": "contract Safe",
          "name": "safe",
          "type": "address"
        },
        {
          "indexed": false,
          "internalType": "bytes32",
          "name": "domainSeparator",
          "type": "bytes32"
        }
      ],
      "name": "RemovedDomainVerifier",
      "type": "event"
    },
    {
      "anonymous": false,
      "inputs": [
        {
          "indexed": true,
          "internalType": "contract Safe",
          "name": "safe",
          "type": "address"
        },
        {
          "indexed": false,
          "internalType": "bytes4",
          "name": "interfaceId",
          "type": "bytes4"
        }
      ],
      "name": "RemovedInterface",
      "type": "event"
    },
    {
      "anonymous": false,
      "inputs": [
        {
          "indexed": true,
          "internalType": "contract Safe",
          "name": "safe",
          "type": "address"
        },
        {
          "indexed": false,
          "internalType": "bytes4",
          "name": "selector",
          "type": "bytes4"
        }
      ],
      "name": "RemovedSafeMethod",
      "type": "event"
    },
    {
      "stateMutability": "nonpayable",
      "type": "fallback"
    },
    {
      "inputs": [
        {
          "internalType": "bytes4",
          "name": "_interfaceId",
          "type": "bytes4"
        },
        {
          "internalType": "bytes32[]",
          "name": "handlerWithSelectors",
          "type": "bytes32[]"
        }
      ],
      "name": "addSupportedInterfaceBatch",
      "outputs": [],
      "stateMutability": "nonpayable",
      "type": "function"
    },
    {
      "inputs": [
        {
          "internalType": "contract Safe",
          "name": "",
          "type": "address"
        },
        {
          "internalType": "bytes32",
          "name": "",
          "type": "bytes32"
        }
      ],
      "name": "domainVerifiers",
      "outputs": [
        {
          "internalType": "contract ISafeSignatureVerifier",
          "name": "",
          "type": "address"
        }
      ],
      "stateMutability": "view",
      "type": "function"
    },
    {
      "inputs": [
        {
          "internalType": "bytes32",
          "name": "_hash",
          "type": "bytes32"
        },
        {
          "internalType": "bytes",
          "name": "signature",
          "type": "bytes"
        }
      ],
      "name": "isValidSignature",
      "outputs": [
        {
          "internalType": "bytes4",
          "name": "magic",
          "type": "bytes4"
        }
      ],
      "stateMutability": "view",
      "type": "function"
    },
    {
      "inputs": [
        {
          "internalType": "address",
          "name": "",
          "type": "address"
        },
        {
          "internalType": "address",
          "name": "",
          "type": "address"
        },
        {
          "internalType": "uint256[]",
          "name": "",
          "type": "uint256[]"
        },
        {
          "internalType": "uint256[]",
          "name": "",
          "type": "uint256[]"
        },
        {
          "internalType": "bytes",
          "name": "",
          "type": "bytes"
        }
      ],
      "name": "onERC1155BatchReceived",
      "outputs": [
        {
          "internalType": "bytes4",
          "name": "",
          "type": "bytes4"
        }
      ],
      "stateMutability": "pure",
      "type": "function"
    },
    {
      "inputs": [
        {
          "internalType": "address",
          "name": "",
          "type": "address"
        },
        {
          "internalType": "address",
          "name": "",
          "type": "address"
        },
        {
          "internalType": "uint256",
          "name": "",
          "type": "uint256"
        },
        {
          "internalType": "uint256",
          "name": "",
          "type": "uint256"
        },
        {
          "internalType": "bytes",
          "name": "",
          "type": "bytes"
        }
      ],
      "name": "onERC1155Received",
      "outputs": [
        {
          "internalType": "bytes4",
          "name": "",
          "type": "bytes4"
        }
      ],
      "stateMutability": "pure",
      "type": "function"
    },
    {
      "inputs": [
        {
          "internalType": "address",
          "name": "",
          "type": "address"
        },
        {
          "internalType": "address",
          "name": "",
          "type": "address"
        },
        {
          "internalType": "uint256",
          "name": "",
          "type": "uint256"
        },
        {
          "internalType": "bytes",
          "name": "",
          "type": "bytes"
        }
      ],
      "name": "onERC721Received",
      "outputs": [
        {
          "internalType": "bytes4",
          "name": "",
          "type": "bytes4"
        }
      ],
      "stateMutability": "pure",
      "type": "function"
    },
    {
      "inputs": [
        {
          "internalType": "bytes4",
          "name": "_interfaceId",
          "type": "bytes4"
        },
        {
          "internalType": "bytes4[]",
          "name": "selectors",
          "type": "bytes4[]"
        }
      ],
      "name": "removeSupportedInterfaceBatch",
      "outputs": [],
      "stateMutability": "nonpayable",
      "type": "function"
    },
    {
      "inputs": [
        {
          "internalType": "contract Safe",
          "name": "",
          "type": "address"
        },
        {
          "internalType": "bytes4",
          "name": "",
          "type": "bytes4"
        }
      ],
      "name": "safeInterfaces",
      "outputs": [
        {
          "internalType": "bool",
          "name": "",
          "type": "bool"
        }
      ],
      "stateMutability": "view",
      "type": "function"
    },
    {
      "inputs": [
        {
          "internalType": "contract Safe",
          "name": "",
          "type": "address"
        },
        {
          "internalType": "bytes4",
          "name": "",
          "type": "bytes4"
        }
      ],
      "name": "safeMethods",
      "outputs": [
        {
          "internalType": "bytes32",
          "name": "",
          "type": "bytes32"
        }
      ],
      "stateMutability": "view",
      "type": "function"
    },
    {
      "inputs": [
        {
          "internalType": "bytes32",
          "name": "domainSeparator",
          "type": "bytes32"
        },
        {
          "internalType": "contract ISafeSignatureVerifier",
          "name": "newVerifier",
          "type": "address"
        }
      ],
      "name": "setDomainVerifier",
      "outputs": [],
      "stateMutability": "nonpayable",
      "type": "function"
    },
    {
      "inputs": [
        {
          "internalType": "bytes4",
          "name": "selector",
          "type": "bytes4"
        },
        {
          "internalType": "bytes32",
          "name": "newMethod",
          "type": "bytes32"
        }
      ],
      "name": "setSafeMethod",
      "outputs": [],
      "stateMutability": "nonpayable",
      "type": "function"
    },
    {
      "inputs": [
        {
          "internalType": "bytes4",
          "name": "interfaceId",
          "type": "bytes4"
        },
        {
          "internalType": "bool",
          "name": "supported",
          "type": "bool"
        }
      ],
      "name": "setSupportedInterface",
      "outputs": [],
      "stateMutability": "nonpayable",
      "type": "function"
    },
    {
      "inputs": [
        {
          "internalType": "bytes4",
          "name": "interfaceId",
          "type": "bytes4"
        }
      ],
      "name": "supportsInterface",
      "outputs": [
        {
          "internalType": "bool",
          "name": "",
          "type": "bool"
        }
      ],
      "stateMutability": "view",
      "type": "function"
    }
  ],
  "bytecode": {
    "object": "0x608060405234801561001057600080fd5b506124cb806100206000396000f3fe608060405234801561001057600080fd5b50600436106100df5760003560e01c806351cad5ee1161008c5780637f73528b116100665780637f73528b14610514578063b435a13b14610527578063bc197c8114610555578063f23a6e6114610590576100df565b806351cad5ee1461048857806361f5401b146104ee57806364f95acc14610501576100df565b80631626ba7e116100bd5780631626ba7e1461044d578063327b533c146104605780633365582c14610475576100df565b806301ffc9a7146103865780630a3fe054146103ae578063150b7a02146103e4575b60003660606018821015610154576040517f08c379a000000000000000000000000000000000000000000000000000000000815260206004820152601760248201527f696e76616c6964206d6574686f642073656c6563746f7200000000000000000060448201526064015b60405180910390fd5b6000806000806101626105c9565b9296509094509250905073ffffffffffffffffffffffffffffffffffffffff81166101e9576040517f08c379a000000000000000000000000000000000000000000000000000000000815260206004820152601660248201527f6d6574686f642068616e646c6572206e6f742073657400000000000000000000604482015260640161014b565b81156102b45773ffffffffffffffffffffffffffffffffffffffff81166325d6803f8585600080803661021d601482611bc3565b9261022a93929190611bd6565b6040518663ffffffff1660e01b815260040161024a959493929190611c00565b600060405180830381865afa158015610267573d6000803e3d6000fd5b505050506040513d6000823e601f3d9081017fffffffffffffffffffffffffffffffffffffffffffffffffffffffffffffffe01682016040526102ad9190810190611d67565b9450610377565b73ffffffffffffffffffffffffffffffffffffffff81166325d6803f858560008080366102e2601482611bc3565b926102ef93929190611bd6565b6040518663ffffffff1660e01b815260040161030f959493929190611c00565b6000604051808303816000875af115801561032e573d6000803e3d6000fd5b505050506040513d6000823e601f3d9081017fffffffffffffffffffffffffffffffffffffffffffffffffffffffffffffffe01682016040526103749190810190611d67565b94505b50505050915050805190602001f35b610399610394366004611e14565b610641565b60405190151581526020015b60405180910390f35b6103d66103bc366004611e53565b600060208181529281526040808220909352908152205481565b6040519081526020016103a5565b61041c6103f2366004611ed5565b7f150b7a020000000000000000000000000000000000000000000000000000000095945050505050565b6040517fffffffff0000000000000000000000000000000000000000000000000000000090911681526020016103a5565b61041c61045b366004611f48565b610730565b61047361046e366004611fd9565b610926565b005b610473610483366004612021565b610b11565b6104c9610496366004612046565b600160209081526000928352604080842090915290825290205473ffffffffffffffffffffffffffffffffffffffff1681565b60405173ffffffffffffffffffffffffffffffffffffffff90911681526020016103a5565b6104736104fc366004611fd9565b610dc0565b61047361050f366004612072565b610f9c565b610473610522366004612090565b611038565b610399610535366004611e53565b600260209081526000928352604080842090915290825290205460ff1681565b61041c6105633660046120c3565b7fbc197c810000000000000000000000000000000000000000000000000000000098975050505050505050565b61041c61059e366004612182565b7ff23a6e61000000000000000000000000000000000000000000000000000000009695505050505050565b6000806000806105d7611312565b73ffffffffffffffffffffffffffffffffffffffff8281166000908152602081815260408083207fffffffff000000000000000000000000000000000000000000000000000000008435168452909152902054929791965060f883901c1595509190911692509050565b60007fffffffff0000000000000000000000000000000000000000000000000000000082167f01ffc9a70000000000000000000000000000000000000000000000000000000014806106d457507fffffffff0000000000000000000000000000000000000000000000000000000082167f98c8e09700000000000000000000000000000000000000000000000000000000145b806106e357506106e382611323565b8061072a57503360009081526002602090815260408083207fffffffff000000000000000000000000000000000000000000000000000000008616845290915290205460ff165b92915050565b600080600061073d611312565b9092509050600484106108d9577fffffffff000000000000000000000000000000000000000000000000000000008535167f5fd7e97d000000000000000000000000000000000000000000000000000000008114801561079e575060448510155b156108d7576000806107b460446004898b611bd6565b8101906107c191906121fe565b73ffffffffffffffffffffffffffffffffffffffff80881660009081526001602090815260408083208684529091529020549294509092501680156108d3576000806108108a6004818e611bd6565b81019061081d9190612271565b9350935050508b61082f8686856114eb565b80519060200120036108d0578273ffffffffffffffffffffffffffffffffffffffff166353f00b1489898f898988886040518863ffffffff1660e01b81526004016108809796959493929190612332565b602060405180830381865afa15801561089d573d6000803e3d6000fd5b505050506040513d601f19601f820116820180604052508101906108c1919061239d565b9850505050505050505061091f565b50505b5050505b505b61091a828787878080601f01602080910402602001604051908101604052809392919081815260200183838082843760009201919091525061159b92505050565b925050505b9392505050565b3361092f611850565b73ffffffffffffffffffffffffffffffffffffffff16146109ac576040517f08c379a000000000000000000000000000000000000000000000000000000000815260206004820152601e60248201527f6f6e6c7920736166652063616e2063616c6c2074686973206d6574686f640000604482015260640161014b565b60006109b6611850565b90506000805b83811015610a70576000806000610a2d8888868181106109de576109de6123ba565b9050602002013560f881901c15917fffffffffffffffffffffff000000000000000000000000000000000000000000600883901b169173ffffffffffffffffffffffffffffffffffffffff1690565b925092509250610a478683610a4286856118e8565b61193b565b8315610a565793811893610a5a565b8194505b5050508080610a68906123e9565b9150506109bc565b507fffffffff0000000000000000000000000000000000000000000000000000000081811690861614610aff576040517f08c379a000000000000000000000000000000000000000000000000000000000815260206004820152601560248201527f696e74657266616365206964206d69736d617463680000000000000000000000604482015260640161014b565b610b0a856001611038565b5050505050565b33610b1a611850565b73ffffffffffffffffffffffffffffffffffffffff1614610b97576040517f08c379a000000000000000000000000000000000000000000000000000000000815260206004820152601e60248201527f6f6e6c7920736166652063616e2063616c6c2074686973206d6574686f640000604482015260640161014b565b6000610ba1611850565b73ffffffffffffffffffffffffffffffffffffffff8082166000908152600160209081526040808320888452909152902054919250908116908316158015610bfe575073ffffffffffffffffffffffffffffffffffffffff811615155b15610c905773ffffffffffffffffffffffffffffffffffffffff8216600081815260016020908152604080832088845282529182902080547fffffffffffffffffffffffff000000000000000000000000000000000000000016905590518681527ff1984d1a49cc75dcbf01cd175870cb7eb9a4fd87b538a87007e4dbb0399b61a991015b60405180910390a2610dba565b73ffffffffffffffffffffffffffffffffffffffff8281166000908152600160209081526040808320888452909152902080547fffffffffffffffffffffffff0000000000000000000000000000000000000000168583161790558116610d40576040805185815273ffffffffffffffffffffffffffffffffffffffff85811660208301528416917fae938181ed4437a46f12ead84e69947e6d84a1113a49d9c0075d8d35c6ce273c9101610c83565b8173ffffffffffffffffffffffffffffffffffffffff167f06341ac2f62eb79165de8c8b54ab89a8825b12746c2b98e01dff1007837d2ba8858386604051610db19392919092835273ffffffffffffffffffffffffffffffffffffffff918216602084015216604082015260600190565b60405180910390a25b50505050565b33610dc9611850565b73ffffffffffffffffffffffffffffffffffffffff1614610e46576040517f08c379a000000000000000000000000000000000000000000000000000000000815260206004820152601e60248201527f6f6e6c7920736166652063616e2063616c6c2074686973206d6574686f640000604482015260640161014b565b6000610e50611850565b90506000805b83811015610f0257610e9083868684818110610e7457610e746123ba565b9050602002016020810190610e899190611e14565b600061193b565b8015610ec657848482818110610ea857610ea86123ba565b9050602002016020810190610ebd9190611e14565b82189150610ef0565b848482818110610ed857610ed86123ba565b9050602002016020810190610eed9190611e14565b91505b80610efa816123e9565b915050610e56565b507fffffffff0000000000000000000000000000000000000000000000000000000081811690861614610f91576040517f08c379a000000000000000000000000000000000000000000000000000000000815260206004820152601560248201527f696e74657266616365206964206d69736d617463680000000000000000000000604482015260640161014b565b610b0a856000611038565b33610fa5611850565b73ffffffffffffffffffffffffffffffffffffffff1614611022576040517f08c379a000000000000000000000000000000000000000000000000000000000815260206004820152601e60248201527f6f6e6c7920736166652063616e2063616c6c2074686973206d6574686f640000604482015260640161014b565b61103461102d611850565b838361193b565b5050565b33611041611850565b73ffffffffffffffffffffffffffffffffffffffff16146110be576040517f08c379a000000000000000000000000000000000000000000000000000000000815260206004820152601e60248201527f6f6e6c7920736166652063616e2063616c6c2074686973206d6574686f640000604482015260640161014b565b337fffffffff00000000000000000000000000000000000000000000000000000000838116900361114b576040517f08c379a000000000000000000000000000000000000000000000000000000000815260206004820152601460248201527f696e76616c696420696e74657266616365206964000000000000000000000000604482015260640161014b565b73ffffffffffffffffffffffffffffffffffffffff811660009081526002602090815260408083207fffffffff000000000000000000000000000000000000000000000000000000008716845290915290205460ff168280156111ac575080155b1561125b5773ffffffffffffffffffffffffffffffffffffffff821660008181526002602090815260408083207fffffffff0000000000000000000000000000000000000000000000000000000089168085529083529281902080547fffffffffffffffffffffffffffffffffffffffffffffffffffffffffffffff00166001179055519182527f3d5024c13f12fa602dbf52b1979058940c224ebf170c83a4e358725ae50db36d9101610c83565b821580156112665750805b15610dba5773ffffffffffffffffffffffffffffffffffffffff821660008181526002602090815260408083207fffffffff0000000000000000000000000000000000000000000000000000000089168085529083529281902080547fffffffffffffffffffffffffffffffffffffffffffffffffffffffffffffff00169055519182527ff159d834f487747c1b3f17e2107743e42e6eecff444d894e511c18943072b29f9101610db1565b33600061131d611850565b90509091565b60007fffffffff0000000000000000000000000000000000000000000000000000000082167f1626ba7e0000000000000000000000000000000000000000000000000000000014806113b657507fffffffff0000000000000000000000000000000000000000000000000000000082167f62af8dc200000000000000000000000000000000000000000000000000000000145b8061140257507fffffffff0000000000000000000000000000000000000000000000000000000082167f9937293000000000000000000000000000000000000000000000000000000000145b8061144e57507fffffffff0000000000000000000000000000000000000000000000000000000082167f64f95acc00000000000000000000000000000000000000000000000000000000145b8061149a57507fffffffff0000000000000000000000000000000000000000000000000000000082167f150b7a0200000000000000000000000000000000000000000000000000000000145b8061072a57507fffffffff0000000000000000000000000000000000000000000000000000000082167f4e2312e0000000000000000000000000000000000000000000000000000000001492915050565b6060601960f81b600160f81b85858560405160200161150b929190612421565b604080518083037fffffffffffffffffffffffffffffffffffffffffffffffffffffffffffffffe00181529082905280516020918201207fff00000000000000000000000000000000000000000000000000000000000000958616918301919091529290931660218401526022830152604282015260620160405160208183030381529060405290509392505050565b60008061168d8573ffffffffffffffffffffffffffffffffffffffff1663f698da256040518163ffffffff1660e01b8152600401602060405180830381865afa1580156115ec573d6000803e3d6000fd5b505050506040513d601f19601f820116820180604052508101906116109190612447565b60408051602081018890527f60b3cbf8b4a223d68d641b3b6ddf9a298e7f33710cf3d3a9d1146b5a6150fbca9101604080517fffffffffffffffffffffffffffffffffffffffffffffffffffffffffffffffe0818403018152828252805160209182012090830152016040516020818303038152906040526114eb565b8051602082012084519192509060000361179e576040517f5ae6bd370000000000000000000000000000000000000000000000000000000081526004810182905273ffffffffffffffffffffffffffffffffffffffff871690635ae6bd3790602401602060405180830381865afa15801561170c573d6000803e3d6000fd5b505050506040513d601f19601f820116820180604052508101906117309190612447565b600003611799576040517f08c379a000000000000000000000000000000000000000000000000000000000815260206004820152601160248201527f48617368206e6f7420617070726f766564000000000000000000000000000000604482015260640161014b565b611825565b6040517f934f3a1100000000000000000000000000000000000000000000000000000000815273ffffffffffffffffffffffffffffffffffffffff87169063934f3a11906117f490849086908990600401612460565b60006040518083038186803b15801561180c57600080fd5b505afa158015611820573d6000803e3d6000fd5b505050505b507f1626ba7e0000000000000000000000000000000000000000000000000000000095945050505050565b600060143610156118bd576040517f08c379a000000000000000000000000000000000000000000000000000000000815260206004820152601760248201527f496e76616c69642063616c6c64617461206c656e677468000000000000000000604482015260640161014b565b507fffffffffffffffffffffffffffffffffffffffffffffffffffffffffffffffec36013560601c90565b600082611915577f0100000000000000000000000000000000000000000000000000000000000000611918565b60005b8273ffffffffffffffffffffffffffffffffffffffff161760001b905092915050565b73ffffffffffffffffffffffffffffffffffffffff8381166000908152602081815260408083207fffffffff0000000000000000000000000000000000000000000000000000000087168452909152902054818316918116821580156119b6575073ffffffffffffffffffffffffffffffffffffffff811615155b15611a465773ffffffffffffffffffffffffffffffffffffffff86166000818152602081815260408083207fffffffff000000000000000000000000000000000000000000000000000000008a1680855290835281842093909355519182527fdba980ab8ee19d95f57ee25cf5a9a7f3d7f950dc6075d5e204fbaaf37e5260aa91015b60405180910390a2611b8c565b73ffffffffffffffffffffffffffffffffffffffff8087166000908152602081815260408083207fffffffff000000000000000000000000000000000000000000000000000000008a16845290915290208590558116611b1057604080517fffffffff00000000000000000000000000000000000000000000000000000000871681526020810186905273ffffffffffffffffffffffffffffffffffffffff8816917f16072a299c25042299e9bb90f6a7b2ccaa8b8fbbceeaa0512f323de45f9d59eb9101611a39565b604080517fffffffff00000000000000000000000000000000000000000000000000000000871681526020810184905290810185905273ffffffffffffffffffffffffffffffffffffffff8716907fe6e8ad7e5547dc860775f9f0638e195a4751a4cfbb7fd2ab60a52eb6c07082ec9060600160405180910390a25b505050505050565b7f4e487b7100000000000000000000000000000000000000000000000000000000600052601160045260246000fd5b8181038181111561072a5761072a611b94565b60008085851115611be657600080fd5b83861115611bf357600080fd5b5050820193919092039150565b600073ffffffffffffffffffffffffffffffffffffffff808816835280871660208401525084604083015260806060830152826080830152828460a0840137600060a0848401015260a07fffffffffffffffffffffffffffffffffffffffffffffffffffffffffffffffe0601f85011683010190509695505050505050565b7f4e487b7100000000000000000000000000000000000000000000000000000000600052604160045260246000fd5b604051601f82017fffffffffffffffffffffffffffffffffffffffffffffffffffffffffffffffe016810167ffffffffffffffff81118282101715611cf557611cf5611c7f565b604052919050565b600067ffffffffffffffff821115611d1757611d17611c7f565b50601f017fffffffffffffffffffffffffffffffffffffffffffffffffffffffffffffffe01660200190565b60005b83811015611d5e578181015183820152602001611d46565b50506000910152565b600060208284031215611d7957600080fd5b815167ffffffffffffffff811115611d9057600080fd5b8201601f81018413611da157600080fd5b8051611db4611daf82611cfd565b611cae565b818152856020838501011115611dc957600080fd5b611dda826020830160208601611d43565b95945050505050565b7fffffffff0000000000000000000000000000000000000000000000000000000081168114611e1157600080fd5b50565b600060208284031215611e2657600080fd5b813561091f81611de3565b73ffffffffffffffffffffffffffffffffffffffff81168114611e1157600080fd5b60008060408385031215611e6657600080fd5b8235611e7181611e31565b91506020830135611e8181611de3565b809150509250929050565b60008083601f840112611e9e57600080fd5b50813567ffffffffffffffff811115611eb657600080fd5b602083019150836020828501011115611ece57600080fd5b9250929050565b600080600080600060808688031215611eed57600080fd5b8535611ef881611e31565b94506020860135611f0881611e31565b935060408601359250606086013567ffffffffffffffff811115611f2b57600080fd5b611f3788828901611e8c565b969995985093965092949392505050565b600080600060408486031215611f5d57600080fd5b83359250602084013567ffffffffffffffff811115611f7b57600080fd5b611f8786828701611e8c565b9497909650939450505050565b60008083601f840112611fa657600080fd5b50813567ffffffffffffffff811115611fbe57600080fd5b6020830191508360208260051b8501011115611ece57600080fd5b600080600060408486031215611fee57600080fd5b8335611ff981611de3565b9250602084013567ffffffffffffffff81111561201557600080fd5b611f8786828701611f94565b6000806040838503121561203457600080fd5b823591506020830135611e8181611e31565b6000806040838503121561205957600080fd5b823561206481611e31565b946020939093013593505050565b6000806040838503121561208557600080fd5b823561206481611de3565b600080604083850312156120a357600080fd5b82356120ae81611de3565b915060208301358015158114611e8157600080fd5b60008060008060008060008060a0898b0312156120df57600080fd5b88356120ea81611e31565b975060208901356120fa81611e31565b9650604089013567ffffffffffffffff8082111561211757600080fd5b6121238c838d01611f94565b909850965060608b013591508082111561213c57600080fd5b6121488c838d01611f94565b909650945060808b013591508082111561216157600080fd5b5061216e8b828c01611e8c565b999c989b5096995094979396929594505050565b60008060008060008060a0878903121561219b57600080fd5b86356121a681611e31565b955060208701356121b681611e31565b94506040870135935060608701359250608087013567ffffffffffffffff8111156121e057600080fd5b6121ec89828a01611e8c565b979a9699509497509295939492505050565b6000806040838503121561221157600080fd5b50508035926020909101359150565b600082601f83011261223157600080fd5b813561223f611daf82611cfd565b81815284602083860101111561225457600080fd5b816020850160208301376000918101602001919091529392505050565b6000806000806080858703121561228757600080fd5b8435935060208501359250604085013567ffffffffffffffff808211156122ad57600080fd5b6122b988838901612220565b935060608701359150808211156122cf57600080fd5b506122dc87828801612220565b91505092959194509250565b60008151808452612300816020860160208601611d43565b601f017fffffffffffffffffffffffffffffffffffffffffffffffffffffffffffffffe0169290920160200192915050565b600073ffffffffffffffffffffffffffffffffffffffff808a16835280891660208401525086604083015285606083015284608083015260e060a083015261237d60e08301856122e8565b82810360c084015261238f81856122e8565b9a9950505050505050505050565b6000602082840312156123af57600080fd5b815161091f81611de3565b7f4e487b7100000000000000000000000000000000000000000000000000000000600052603260045260246000fd5b60007fffffffffffffffffffffffffffffffffffffffffffffffffffffffffffffffff820361241a5761241a611b94565b5060010190565b82815260008251612439816020850160208701611d43565b919091016020019392505050565b60006020828403121561245957600080fd5b5051919050565b83815260606020820152600061247960608301856122e8565b828103604084015261248b81856122e8565b969550505050505056fea2646970667358221220493b6d14b8029fe7885a865ca816f2a40f3ab729e327203eba9eeb3c35b3603064736f6c63430008130033",
    "linkReferences": {}
  },
  "methodIdentifiers": {
    "addSupportedInterfaceBatch(bytes4,bytes32[])": "327b533c",
    "domainVerifiers(address,bytes32)": "51cad5ee",
    "isValidSignature(bytes32,bytes)": "1626ba7e",
    "onERC1155BatchReceived(address,address,uint256[],uint256[],bytes)": "bc197c81",
    "onERC1155Received(address,address,uint256,uint256,bytes)": "f23a6e61",
    "onERC721Received(address,address,uint256,bytes)": "150b7a02",
    "removeSupportedInterfaceBatch(bytes4,bytes4[])": "61f5401b",
    "safeInterfaces(address,bytes4)": "b435a13b",
    "safeMethods(address,bytes4)": "0a3fe054",
    "setDomainVerifier(bytes32,address)": "3365582c",
    "setSafeMethod(bytes4,bytes32)": "64f95acc",
    "setSupportedInterface(bytes4,bool)": "7f73528b",
    "supportsInterface(bytes4)": "01ffc9a7"
  },
  "id": 109
}