{
  "abi": [
    {
      "inputs": [
        {
          "internalType": "contract Safe",
          "name": "safe",
          "type": "address"
        },
        {
          "internalType": "bytes",
          "name": "message",
          "type": "bytes"
        }
      ],
      "name": "encodeMessageDataForSafe",
      "outputs": [
        {
          "internalType": "bytes",
          "name": "",
          "type": "bytes"
        }
      ],
      "stateMutability": "view",
      "type": "function"
    },
    {
      "inputs": [
        {
          "internalType": "bytes",
          "name": "message",
          "type": "bytes"
        }
      ],
      "name": "getMessageHash",
      "outputs": [
        {
          "internalType": "bytes32",
          "name": "",
          "type": "bytes32"
        }
      ],
      "stateMutability": "view",
      "type": "function"
    },
    {
      "inputs": [
        {
          "internalType": "contract Safe",
          "name": "safe",
          "type": "address"
        },
        {
          "internalType": "bytes",
          "name": "message",
          "type": "bytes"
        }
      ],
      "name": "getMessageHashForSafe",
      "outputs": [
        {
          "internalType": "bytes32",
          "name": "",
          "type": "bytes32"
        }
      ],
      "stateMutability": "view",
      "type": "function"
    },
    {
      "inputs": [],
      "name": "getModules",
      "outputs": [
        {
          "internalType": "address[]",
          "name": "",
          "type": "address[]"
        }
      ],
      "stateMutability": "view",
      "type": "function"
    },
    {
      "inputs": [
        {
          "internalType": "bytes32",
          "name": "_dataHash",
          "type": "bytes32"
        },
        {
          "internalType": "bytes",
          "name": "_signature",
          "type": "bytes"
        }
      ],
      "name": "isValidSignature",
      "outputs": [
        {
          "internalType": "bytes4",
          "name": "",
          "type": "bytes4"
        }
      ],
      "stateMutability": "view",
      "type": "function"
    },
    {
      "inputs": [
        {
          "internalType": "bytes",
          "name": "_data",
          "type": "bytes"
        },
        {
          "internalType": "bytes",
          "name": "_signature",
          "type": "bytes"
        }
      ],
      "name": "isValidSignature",
      "outputs": [
        {
          "internalType": "bytes4",
          "name": "",
          "type": "bytes4"
        }
      ],
      "stateMutability": "view",
      "type": "function"
    },
    {
      "inputs": [
        {
          "internalType": "address",
          "name": "",
          "type": "address"
        },
        {
          "internalType": "address",
          "name": "",
          "type": "address"
        },
        {
          "internalType": "uint256[]",
          "name": "",
          "type": "uint256[]"
        },
        {
          "internalType": "uint256[]",
          "name": "",
          "type": "uint256[]"
        },
        {
          "internalType": "bytes",
          "name": "",
          "type": "bytes"
        }
      ],
      "name": "onERC1155BatchReceived",
      "outputs": [
        {
          "internalType": "bytes4",
          "name": "",
          "type": "bytes4"
        }
      ],
      "stateMutability": "pure",
      "type": "function"
    },
    {
      "inputs": [
        {
          "internalType": "address",
          "name": "",
          "type": "address"
        },
        {
          "internalType": "address",
          "name": "",
          "type": "address"
        },
        {
          "internalType": "uint256",
          "name": "",
          "type": "uint256"
        },
        {
          "internalType": "uint256",
          "name": "",
          "type": "uint256"
        },
        {
          "internalType": "bytes",
          "name": "",
          "type": "bytes"
        }
      ],
      "name": "onERC1155Received",
      "outputs": [
        {
          "internalType": "bytes4",
          "name": "",
          "type": "bytes4"
        }
      ],
      "stateMutability": "pure",
      "type": "function"
    },
    {
      "inputs": [
        {
          "internalType": "address",
          "name": "",
          "type": "address"
        },
        {
          "internalType": "address",
          "name": "",
          "type": "address"
        },
        {
          "internalType": "uint256",
          "name": "",
          "type": "uint256"
        },
        {
          "internalType": "bytes",
          "name": "",
          "type": "bytes"
        }
      ],
      "name": "onERC721Received",
      "outputs": [
        {
          "internalType": "bytes4",
          "name": "",
          "type": "bytes4"
        }
      ],
      "stateMutability": "pure",
      "type": "function"
    },
    {
      "inputs": [
        {
          "internalType": "address",
          "name": "targetContract",
          "type": "address"
        },
        {
          "internalType": "bytes",
          "name": "calldataPayload",
          "type": "bytes"
        }
      ],
      "name": "simulate",
      "outputs": [
        {
          "internalType": "bytes",
          "name": "response",
          "type": "bytes"
        }
      ],
      "stateMutability": "nonpayable",
      "type": "function"
    },
    {
      "inputs": [
        {
          "internalType": "bytes4",
          "name": "interfaceId",
          "type": "bytes4"
        }
      ],
      "name": "supportsInterface",
      "outputs": [
        {
          "internalType": "bool",
          "name": "",
          "type": "bool"
        }
      ],
      "stateMutability": "view",
      "type": "function"
    },
    {
      "inputs": [
        {
          "internalType": "address",
          "name": "",
          "type": "address"
        },
        {
          "internalType": "address",
          "name": "",
          "type": "address"
        },
        {
          "internalType": "address",
          "name": "",
          "type": "address"
        },
        {
          "internalType": "uint256",
          "name": "",
          "type": "uint256"
        },
        {
          "internalType": "bytes",
          "name": "",
          "type": "bytes"
        },
        {
          "internalType": "bytes",
          "name": "",
          "type": "bytes"
        }
      ],
      "name": "tokensReceived",
      "outputs": [],
      "stateMutability": "pure",
      "type": "function"
    }
  ],
  "bytecode": {
    "object": "0x608060405234801561001057600080fd5b50611148806100206000396000f3fe608060405234801561001057600080fd5b50600436106100d35760003560e01c80632303164011610081578063bc197c811161005b578063bc197c8114610212578063bd61951d1461024d578063f23a6e611461026057600080fd5b806323031640146101ca5780636ac24784146101ea578063b2494df3146101fd57600080fd5b8063150b7a02116100b2578063150b7a021461013b5780631626ba7e146101a457806320c13b0b146101b757600080fd5b806223de29146100d857806301ffc9a7146100f25780630a1028c41461011a575b600080fd5b6100f06100e6366004610955565b5050505050505050565b005b610105610100366004610a34565b610299565b60405190151581526020015b60405180910390f35b61012d610128366004610b5d565b61037e565b604051908152602001610111565b610173610149366004610b9a565b7f150b7a020000000000000000000000000000000000000000000000000000000095945050505050565b6040517fffffffff000000000000000000000000000000000000000000000000000000009091168152602001610111565b6101736101b2366004610c0d565b61038a565b6101736101c5366004610c59565b6104ab565b6101dd6101d8366004610cbd565b610680565b6040516101119190610d67565b61012d6101f8366004610cbd565b6107b7565b6102056107d2565b6040516101119190610d7a565b610173610220366004610e19565b7fbc197c810000000000000000000000000000000000000000000000000000000098975050505050505050565b6101dd61025b366004610eb7565b610884565b61017361026e366004610ef3565b7ff23a6e61000000000000000000000000000000000000000000000000000000009695505050505050565b60007fffffffff0000000000000000000000000000000000000000000000000000000082167f4e2312e000000000000000000000000000000000000000000000000000000000148061032c57507fffffffff0000000000000000000000000000000000000000000000000000000082167f150b7a0200000000000000000000000000000000000000000000000000000000145b8061037857507fffffffff0000000000000000000000000000000000000000000000000000000082167f01ffc9a700000000000000000000000000000000000000000000000000000000145b92915050565b600061037833836107b7565b60408051602080820186905282518083039091018152818301928390527f20c13b0b000000000000000000000000000000000000000000000000000000009092526000913391839183916320c13b0b916103ea9189908990604401610f6f565b602060405180830381865afa158015610407573d6000803e3d6000fd5b505050506040513d601f19601f8201168201806040525081019061042b9190610fd3565b90507fffffffff0000000000000000000000000000000000000000000000000000000081167f20c13b0b000000000000000000000000000000000000000000000000000000001461047d57600061049f565b7f1626ba7e000000000000000000000000000000000000000000000000000000005b925050505b9392505050565b600033816104b98286610680565b805160208201208551919250906000036105ce576040517f5ae6bd370000000000000000000000000000000000000000000000000000000081526004810182905273ffffffffffffffffffffffffffffffffffffffff841690635ae6bd3790602401602060405180830381865afa158015610538573d6000803e3d6000fd5b505050506040513d601f19601f8201168201806040525081019061055c9190610ff0565b6000036105c9576040517f08c379a000000000000000000000000000000000000000000000000000000000815260206004820152601160248201527f48617368206e6f7420617070726f766564000000000000000000000000000000604482015260640160405180910390fd5b610655565b6040517f934f3a1100000000000000000000000000000000000000000000000000000000815273ffffffffffffffffffffffffffffffffffffffff84169063934f3a119061062490849086908a90600401611009565b60006040518083038186803b15801561063c57600080fd5b505afa158015610650573d6000803e3d6000fd5b505050505b507f20c13b0b0000000000000000000000000000000000000000000000000000000095945050505050565b606060007f60b3cbf8b4a223d68d641b3b6ddf9a298e7f33710cf3d3a9d1146b5a6150fbca60001b83805190602001206040516020016106ca929190918252602082015260400190565b604051602081830303815290604052805190602001209050601960f81b600160f81b8573ffffffffffffffffffffffffffffffffffffffff1663f698da256040518163ffffffff1660e01b8152600401602060405180830381865afa158015610737573d6000803e3d6000fd5b505050506040513d601f19601f8201168201806040525081019061075b9190610ff0565b6040517fff00000000000000000000000000000000000000000000000000000000000000938416602082015292909116602183015260228201526042810182905260620160405160208183030381529060405291505092915050565b60006107c38383610680565b80519060200120905092915050565b6040517fcc2f845200000000000000000000000000000000000000000000000000000000815260016004820152600a60248201526060903390600090829063cc2f845290604401600060405180830381865afa158015610836573d6000803e3d6000fd5b505050506040513d6000823e601f3d9081017fffffffffffffffffffffffffffffffffffffffffffffffffffffffffffffffe016820160405261087c919081019061104e565b509392505050565b60606040517fb4faba09000000000000000000000000000000000000000000000000000000008152600436036004808301376020600036836000335af1505060203d036040519150808201604052806020833e506000516104a457805160208201fd5b73ffffffffffffffffffffffffffffffffffffffff8116811461090957600080fd5b50565b60008083601f84011261091e57600080fd5b50813567ffffffffffffffff81111561093657600080fd5b60208301915083602082850101111561094e57600080fd5b9250929050565b60008060008060008060008060c0898b03121561097157600080fd5b883561097c816108e7565b9750602089013561098c816108e7565b9650604089013561099c816108e7565b955060608901359450608089013567ffffffffffffffff808211156109c057600080fd5b6109cc8c838d0161090c565b909650945060a08b01359150808211156109e557600080fd5b506109f28b828c0161090c565b999c989b5096995094979396929594505050565b7fffffffff000000000000000000000000000000000000000000000000000000008116811461090957600080fd5b600060208284031215610a4657600080fd5b81356104a481610a06565b7f4e487b7100000000000000000000000000000000000000000000000000000000600052604160045260246000fd5b604051601f82017fffffffffffffffffffffffffffffffffffffffffffffffffffffffffffffffe016810167ffffffffffffffff81118282101715610ac757610ac7610a51565b604052919050565b600082601f830112610ae057600080fd5b813567ffffffffffffffff811115610afa57610afa610a51565b610b2b60207fffffffffffffffffffffffffffffffffffffffffffffffffffffffffffffffe0601f84011601610a80565b818152846020838601011115610b4057600080fd5b816020850160208301376000918101602001919091529392505050565b600060208284031215610b6f57600080fd5b813567ffffffffffffffff811115610b8657600080fd5b610b9284828501610acf565b949350505050565b600080600080600060808688031215610bb257600080fd5b8535610bbd816108e7565b94506020860135610bcd816108e7565b935060408601359250606086013567ffffffffffffffff811115610bf057600080fd5b610bfc8882890161090c565b969995985093965092949392505050565b600080600060408486031215610c2257600080fd5b83359250602084013567ffffffffffffffff811115610c4057600080fd5b610c4c8682870161090c565b9497909650939450505050565b60008060408385031215610c6c57600080fd5b823567ffffffffffffffff80821115610c8457600080fd5b610c9086838701610acf565b93506020850135915080821115610ca657600080fd5b50610cb385828601610acf565b9150509250929050565b60008060408385031215610cd057600080fd5b8235610cdb816108e7565b9150602083013567ffffffffffffffff811115610cf757600080fd5b610cb385828601610acf565b6000815180845260005b81811015610d2957602081850181015186830182015201610d0d565b5060006020828601015260207fffffffffffffffffffffffffffffffffffffffffffffffffffffffffffffffe0601f83011685010191505092915050565b6020815260006104a46020830184610d03565b6020808252825182820181905260009190848201906040850190845b81811015610dc857835173ffffffffffffffffffffffffffffffffffffffff1683529284019291840191600101610d96565b50909695505050505050565b60008083601f840112610de657600080fd5b50813567ffffffffffffffff811115610dfe57600080fd5b6020830191508360208260051b850101111561094e57600080fd5b60008060008060008060008060a0898b031215610e3557600080fd5b8835610e40816108e7565b97506020890135610e50816108e7565b9650604089013567ffffffffffffffff80821115610e6d57600080fd5b610e798c838d01610dd4565b909850965060608b0135915080821115610e9257600080fd5b610e9e8c838d01610dd4565b909650945060808b01359150808211156109e557600080fd5b600080600060408486031215610ecc57600080fd5b8335610ed7816108e7565b9250602084013567ffffffffffffffff811115610c4057600080fd5b60008060008060008060a08789031215610f0c57600080fd5b8635610f17816108e7565b95506020870135610f27816108e7565b94506040870135935060608701359250608087013567ffffffffffffffff811115610f5157600080fd5b610f5d89828a0161090c565b979a9699509497509295939492505050565b604081526000610f826040830186610d03565b82810360208401528381528385602083013760006020858301015260207fffffffffffffffffffffffffffffffffffffffffffffffffffffffffffffffe0601f860116820101915050949350505050565b600060208284031215610fe557600080fd5b81516104a481610a06565b60006020828403121561100257600080fd5b5051919050565b8381526060602082015260006110226060830185610d03565b82810360408401526110348185610d03565b9695505050505050565b8051611049816108e7565b919050565b6000806040838503121561106157600080fd5b825167ffffffffffffffff8082111561107957600080fd5b818501915085601f83011261108d57600080fd5b81516020828211156110a1576110a1610a51565b8160051b92506110b2818401610a80565b82815292840181019281810190898511156110cc57600080fd5b948201945b848610156110f657855193506110e6846108e7565b83825294820194908201906110d1565b9650611105905087820161103e565b945050505050925092905056fea26469706673582212206ffa81b83c1fa79278fb17839513a8c9e65f4cae41c1b8fd463d2ed04fcb0cec64736f6c63430008130033",
    "linkReferences": {}
  },
  "methodIdentifiers": {
    "encodeMessageDataForSafe(address,bytes)": "23031640",
    "getMessageHash(bytes)": "0a1028c4",
    "getMessageHashForSafe(address,bytes)": "6ac24784",
    "getModules()": "b2494df3",
    "isValidSignature(bytes,bytes)": "20c13b0b",
    "isValidSignature(bytes32,bytes)": "1626ba7e",
    "onERC1155BatchReceived(address,address,uint256[],uint256[],bytes)": "bc197c81",
    "onERC1155Received(address,address,uint256,uint256,bytes)": "f23a6e61",
    "onERC721Received(address,address,uint256,bytes)": "150b7a02",
    "simulate(address,bytes)": "bd61951d",
    "supportsInterface(bytes4)": "01ffc9a7",
    "tokensReceived(address,address,address,uint256,bytes,bytes)": "0023de29"
  },
  "id": 108
}