{
  "abi": [
    {
      "inputs": [],
      "stateMutability": "nonpayable",
      "type": "constructor"
    },
    {
      "anonymous": false,
      "inputs": [
        {
          "indexed": true,
          "internalType": "address",
          "name": "owner",
          "type": "address"
        }
      ],
      "name": "AddedOwner",
      "type": "event"
    },
    {
      "anonymous": false,
      "inputs": [
        {
          "indexed": true,
          "internalType": "bytes32",
          "name": "approvedHash",
          "type": "bytes32"
        },
        {
          "indexed": true,
          "internalType": "address",
          "name": "owner",
          "type": "address"
        }
      ],
      "name": "ApproveHash",
      "type": "event"
    },
    {
      "anonymous": false,
      "inputs": [
        {
          "indexed": true,
          "internalType": "address",
          "name": "handler",
          "type": "address"
        }
      ],
      "name": "ChangedFallbackHandler",
      "type": "event"
    },
    {
      "anonymous": false,
      "inputs": [
        {
          "indexed": true,
          "internalType": "address",
          "name": "guard",
          "type": "address"
        }
      ],
      "name": "ChangedGuard",
      "type": "event"
    },
    {
      "anonymous": false,
      "inputs": [
        {
          "indexed": false,
          "internalType": "uint256",
          "name": "threshold",
          "type": "uint256"
        }
      ],
      "name": "ChangedThreshold",
      "type": "event"
    },
    {
      "anonymous": false,
      "inputs": [
        {
          "indexed": true,
          "internalType": "address",
          "name": "module",
          "type": "address"
        }
      ],
      "name": "DisabledModule",
      "type": "event"
    },
    {
      "anonymous": false,
      "inputs": [
        {
          "indexed": true,
          "internalType": "address",
          "name": "module",
          "type": "address"
        }
      ],
      "name": "EnabledModule",
      "type": "event"
    },
    {
      "anonymous": false,
      "inputs": [
        {
          "indexed": true,
          "internalType": "bytes32",
          "name": "txHash",
          "type": "bytes32"
        },
        {
          "indexed": false,
          "internalType": "uint256",
          "name": "payment",
          "type": "uint256"
        }
      ],
      "name": "ExecutionFailure",
      "type": "event"
    },
    {
      "anonymous": false,
      "inputs": [
        {
          "indexed": true,
          "internalType": "address",
          "name": "module",
          "type": "address"
        }
      ],
      "name": "ExecutionFromModuleFailure",
      "type": "event"
    },
    {
      "anonymous": false,
      "inputs": [
        {
          "indexed": true,
          "internalType": "address",
          "name": "module",
          "type": "address"
        }
      ],
      "name": "ExecutionFromModuleSuccess",
      "type": "event"
    },
    {
      "anonymous": false,
      "inputs": [
        {
          "indexed": true,
          "internalType": "bytes32",
          "name": "txHash",
          "type": "bytes32"
        },
        {
          "indexed": false,
          "internalType": "uint256",
          "name": "payment",
          "type": "uint256"
        }
      ],
      "name": "ExecutionSuccess",
      "type": "event"
    },
    {
      "anonymous": false,
      "inputs": [
        {
          "indexed": true,
          "internalType": "address",
          "name": "owner",
          "type": "address"
        }
      ],
      "name": "RemovedOwner",
      "type": "event"
    },
    {
      "anonymous": false,
      "inputs": [
        {
          "indexed": true,
          "internalType": "address",
          "name": "sender",
          "type": "address"
        },
        {
          "indexed": false,
          "internalType": "uint256",
          "name": "value",
          "type": "uint256"
        }
      ],
      "name": "SafeReceived",
      "type": "event"
    },
    {
      "anonymous": false,
      "inputs": [
        {
          "indexed": true,
          "internalType": "address",
          "name": "initiator",
          "type": "address"
        },
        {
          "indexed": false,
          "internalType": "address[]",
          "name": "owners",
          "type": "address[]"
        },
        {
          "indexed": false,
          "internalType": "uint256",
          "name": "threshold",
          "type": "uint256"
        },
        {
          "indexed": false,
          "internalType": "address",
          "name": "initializer",
          "type": "address"
        },
        {
          "indexed": false,
          "internalType": "address",
          "name": "fallbackHandler",
          "type": "address"
        }
      ],
      "name": "SafeSetup",
      "type": "event"
    },
    {
      "anonymous": false,
      "inputs": [
        {
          "indexed": true,
          "internalType": "bytes32",
          "name": "msgHash",
          "type": "bytes32"
        }
      ],
      "name": "SignMsg",
      "type": "event"
    },
    {
      "stateMutability": "nonpayable",
      "type": "fallback"
    },
    {
      "inputs": [],
      "name": "VERSION",
      "outputs": [
        {
          "internalType": "string",
          "name": "",
          "type": "string"
        }
      ],
      "stateMutability": "view",
      "type": "function"
    },
    {
      "inputs": [
        {
          "internalType": "address",
          "name": "owner",
          "type": "address"
        },
        {
          "internalType": "uint256",
          "name": "_threshold",
          "type": "uint256"
        }
      ],
      "name": "addOwnerWithThreshold",
      "outputs": [],
      "stateMutability": "nonpayable",
      "type": "function"
    },
    {
      "inputs": [
        {
          "internalType": "bytes32",
          "name": "hashToApprove",
          "type": "bytes32"
        }
      ],
      "name": "approveHash",
      "outputs": [],
      "stateMutability": "nonpayable",
      "type": "function"
    },
    {
      "inputs": [
        {
          "internalType": "address",
          "name": "",
          "type": "address"
        },
        {
          "internalType": "bytes32",
          "name": "",
          "type": "bytes32"
        }
      ],
      "name": "approvedHashes",
      "outputs": [
        {
          "internalType": "uint256",
          "name": "",
          "type": "uint256"
        }
      ],
      "stateMutability": "view",
      "type": "function"
    },
    {
      "inputs": [
        {
          "internalType": "uint256",
          "name": "_threshold",
          "type": "uint256"
        }
      ],
      "name": "changeThreshold",
      "outputs": [],
      "stateMutability": "nonpayable",
      "type": "function"
    },
    {
      "inputs": [
        {
          "internalType": "bytes32",
          "name": "dataHash",
          "type": "bytes32"
        },
        {
          "internalType": "bytes",
          "name": "data",
          "type": "bytes"
        },
        {
          "internalType": "bytes",
          "name": "signatures",
          "type": "bytes"
        },
        {
          "internalType": "uint256",
          "name": "requiredSignatures",
          "type": "uint256"
        }
      ],
      "name": "checkNSignatures",
      "outputs": [],
      "stateMutability": "view",
      "type": "function"
    },
    {
      "inputs": [
        {
          "internalType": "bytes32",
          "name": "dataHash",
          "type": "bytes32"
        },
        {
          "internalType": "bytes",
          "name": "data",
          "type": "bytes"
        },
        {
          "internalType": "bytes",
          "name": "signatures",
          "type": "bytes"
        }
      ],
      "name": "checkSignatures",
      "outputs": [],
      "stateMutability": "view",
      "type": "function"
    },
    {
      "inputs": [
        {
          "internalType": "address",
          "name": "prevModule",
          "type": "address"
        },
        {
          "internalType": "address",
          "name": "module",
          "type": "address"
        }
      ],
      "name": "disableModule",
      "outputs": [],
      "stateMutability": "nonpayable",
      "type": "function"
    },
    {
      "inputs": [],
      "name": "domainSeparator",
      "outputs": [
        {
          "internalType": "bytes32",
          "name": "",
          "type": "bytes32"
        }
      ],
      "stateMutability": "view",
      "type": "function"
    },
    {
      "inputs": [
        {
          "internalType": "address",
          "name": "module",
          "type": "address"
        }
      ],
      "name": "enableModule",
      "outputs": [],
      "stateMutability": "nonpayable",
      "type": "function"
    },
    {
      "inputs": [
        {
          "internalType": "address",
          "name": "to",
          "type": "address"
        },
        {
          "internalType": "uint256",
          "name": "value",
          "type": "uint256"
        },
        {
          "internalType": "bytes",
          "name": "data",
          "type": "bytes"
        },
        {
          "internalType": "enum Enum.Operation",
          "name": "operation",
          "type": "uint8"
        },
        {
          "internalType": "uint256",
          "name": "safeTxGas",
          "type": "uint256"
        },
        {
          "internalType": "uint256",
          "name": "baseGas",
          "type": "uint256"
        },
        {
          "internalType": "uint256",
          "name": "gasPrice",
          "type": "uint256"
        },
        {
          "internalType": "address",
          "name": "gasToken",
          "type": "address"
        },
        {
          "internalType": "address",
          "name": "refundReceiver",
          "type": "address"
        },
        {
          "internalType": "uint256",
          "name": "_nonce",
          "type": "uint256"
        }
      ],
      "name": "encodeTransactionData",
      "outputs": [
        {
          "internalType": "bytes",
          "name": "",
          "type": "bytes"
        }
      ],
      "stateMutability": "view",
      "type": "function"
    },
    {
      "inputs": [
        {
          "internalType": "address",
          "name": "to",
          "type": "address"
        },
        {
          "internalType": "uint256",
          "name": "value",
          "type": "uint256"
        },
        {
          "internalType": "bytes",
          "name": "data",
          "type": "bytes"
        },
        {
          "internalType": "enum Enum.Operation",
          "name": "operation",
          "type": "uint8"
        },
        {
          "internalType": "uint256",
          "name": "safeTxGas",
          "type": "uint256"
        },
        {
          "internalType": "uint256",
          "name": "baseGas",
          "type": "uint256"
        },
        {
          "internalType": "uint256",
          "name": "gasPrice",
          "type": "uint256"
        },
        {
          "internalType": "address",
          "name": "gasToken",
          "type": "address"
        },
        {
          "internalType": "address payable",
          "name": "refundReceiver",
          "type": "address"
        },
        {
          "internalType": "bytes",
          "name": "signatures",
          "type": "bytes"
        }
      ],
      "name": "execTransaction",
      "outputs": [
        {
          "internalType": "bool",
          "name": "success",
          "type": "bool"
        }
      ],
      "stateMutability": "payable",
      "type": "function"
    },
    {
      "inputs": [
        {
          "internalType": "address",
          "name": "to",
          "type": "address"
        },
        {
          "internalType": "uint256",
          "name": "value",
          "type": "uint256"
        },
        {
          "internalType": "bytes",
          "name": "data",
          "type": "bytes"
        },
        {
          "internalType": "enum Enum.Operation",
          "name": "operation",
          "type": "uint8"
        }
      ],
      "name": "execTransactionFromModule",
      "outputs": [
        {
          "internalType": "bool",
          "name": "success",
          "type": "bool"
        }
      ],
      "stateMutability": "nonpayable",
      "type": "function"
    },
    {
      "inputs": [
        {
          "internalType": "address",
          "name": "to",
          "type": "address"
        },
        {
          "internalType": "uint256",
          "name": "value",
          "type": "uint256"
        },
        {
          "internalType": "bytes",
          "name": "data",
          "type": "bytes"
        },
        {
          "internalType": "enum Enum.Operation",
          "name": "operation",
          "type": "uint8"
        }
      ],
      "name": "execTransactionFromModuleReturnData",
      "outputs": [
        {
          "internalType": "bool",
          "name": "success",
          "type": "bool"
        },
        {
          "internalType": "bytes",
          "name": "returnData",
          "type": "bytes"
        }
      ],
      "stateMutability": "nonpayable",
      "type": "function"
    },
    {
      "inputs": [],
      "name": "getChainId",
      "outputs": [
        {
          "internalType": "uint256",
          "name": "",
          "type": "uint256"
        }
      ],
      "stateMutability": "view",
      "type": "function"
    },
    {
      "inputs": [
        {
          "internalType": "address",
          "name": "start",
          "type": "address"
        },
        {
          "internalType": "uint256",
          "name": "pageSize",
          "type": "uint256"
        }
      ],
      "name": "getModulesPaginated",
      "outputs": [
        {
          "internalType": "address[]",
          "name": "array",
          "type": "address[]"
        },
        {
          "internalType": "address",
          "name": "next",
          "type": "address"
        }
      ],
      "stateMutability": "view",
      "type": "function"
    },
    {
      "inputs": [],
      "name": "getOwners",
      "outputs": [
        {
          "internalType": "address[]",
          "name": "",
          "type": "address[]"
        }
      ],
      "stateMutability": "view",
      "type": "function"
    },
    {
      "inputs": [
        {
          "internalType": "uint256",
          "name": "offset",
          "type": "uint256"
        },
        {
          "internalType": "uint256",
          "name": "length",
          "type": "uint256"
        }
      ],
      "name": "getStorageAt",
      "outputs": [
        {
          "internalType": "bytes",
          "name": "",
          "type": "bytes"
        }
      ],
      "stateMutability": "view",
      "type": "function"
    },
    {
      "inputs": [],
      "name": "getThreshold",
      "outputs": [
        {
          "internalType": "uint256",
          "name": "",
          "type": "uint256"
        }
      ],
      "stateMutability": "view",
      "type": "function"
    },
    {
      "inputs": [
        {
          "internalType": "address",
          "name": "to",
          "type": "address"
        },
        {
          "internalType": "uint256",
          "name": "value",
          "type": "uint256"
        },
        {
          "internalType": "bytes",
          "name": "data",
          "type": "bytes"
        },
        {
          "internalType": "enum Enum.Operation",
          "name": "operation",
          "type": "uint8"
        },
        {
          "internalType": "uint256",
          "name": "safeTxGas",
          "type": "uint256"
        },
        {
          "internalType": "uint256",
          "name": "baseGas",
          "type": "uint256"
        },
        {
          "internalType": "uint256",
          "name": "gasPrice",
          "type": "uint256"
        },
        {
          "internalType": "address",
          "name": "gasToken",
          "type": "address"
        },
        {
          "internalType": "address",
          "name": "refundReceiver",
          "type": "address"
        },
        {
          "internalType": "uint256",
          "name": "_nonce",
          "type": "uint256"
        }
      ],
      "name": "getTransactionHash",
      "outputs": [
        {
          "internalType": "bytes32",
          "name": "",
          "type": "bytes32"
        }
      ],
      "stateMutability": "view",
      "type": "function"
    },
    {
      "inputs": [
        {
          "internalType": "address",
          "name": "module",
          "type": "address"
        }
      ],
      "name": "isModuleEnabled",
      "outputs": [
        {
          "internalType": "bool",
          "name": "",
          "type": "bool"
        }
      ],
      "stateMutability": "view",
      "type": "function"
    },
    {
      "inputs": [
        {
          "internalType": "address",
          "name": "owner",
          "type": "address"
        }
      ],
      "name": "isOwner",
      "outputs": [
        {
          "internalType": "bool",
          "name": "",
          "type": "bool"
        }
      ],
      "stateMutability": "view",
      "type": "function"
    },
    {
      "inputs": [],
      "name": "nonce",
      "outputs": [
        {
          "internalType": "uint256",
          "name": "",
          "type": "uint256"
        }
      ],
      "stateMutability": "view",
      "type": "function"
    },
    {
      "inputs": [
        {
          "internalType": "address",
          "name": "prevOwner",
          "type": "address"
        },
        {
          "internalType": "address",
          "name": "owner",
          "type": "address"
        },
        {
          "internalType": "uint256",
          "name": "_threshold",
          "type": "uint256"
        }
      ],
      "name": "removeOwner",
      "outputs": [],
      "stateMutability": "nonpayable",
      "type": "function"
    },
    {
      "inputs": [
        {
          "internalType": "address",
          "name": "handler",
          "type": "address"
        }
      ],
      "name": "setFallbackHandler",
      "outputs": [],
      "stateMutability": "nonpayable",
      "type": "function"
    },
    {
      "inputs": [
        {
          "internalType": "address",
          "name": "guard",
          "type": "address"
        }
      ],
      "name": "setGuard",
      "outputs": [],
      "stateMutability": "nonpayable",
      "type": "function"
    },
    {
      "inputs": [
        {
          "internalType": "address[]",
          "name": "_owners",
          "type": "address[]"
        },
        {
          "internalType": "uint256",
          "name": "_threshold",
          "type": "uint256"
        },
        {
          "internalType": "address",
          "name": "to",
          "type": "address"
        },
        {
          "internalType": "bytes",
          "name": "data",
          "type": "bytes"
        },
        {
          "internalType": "address",
          "name": "fallbackHandler",
          "type": "address"
        },
        {
          "internalType": "address",
          "name": "paymentToken",
          "type": "address"
        },
        {
          "internalType": "uint256",
          "name": "payment",
          "type": "uint256"
        },
        {
          "internalType": "address payable",
          "name": "paymentReceiver",
          "type": "address"
        }
      ],
      "name": "setup",
      "outputs": [],
      "stateMutability": "nonpayable",
      "type": "function"
    },
    {
      "inputs": [
        {
          "internalType": "bytes32",
          "name": "",
          "type": "bytes32"
        }
      ],
      "name": "signedMessages",
      "outputs": [
        {
          "internalType": "uint256",
          "name": "",
          "type": "uint256"
        }
      ],
      "stateMutability": "view",
      "type": "function"
    },
    {
      "inputs": [
        {
          "internalType": "address",
          "name": "targetContract",
          "type": "address"
        },
        {
          "internalType": "bytes",
          "name": "calldataPayload",
          "type": "bytes"
        }
      ],
      "name": "simulateAndRevert",
      "outputs": [],
      "stateMutability": "nonpayable",
      "type": "function"
    },
    {
      "inputs": [
        {
          "internalType": "address",
          "name": "prevOwner",
          "type": "address"
        },
        {
          "internalType": "address",
          "name": "oldOwner",
          "type": "address"
        },
        {
          "internalType": "address",
          "name": "newOwner",
          "type": "address"
        }
      ],
      "name": "swapOwner",
      "outputs": [],
      "stateMutability": "nonpayable",
      "type": "function"
    },
    {
      "stateMutability": "payable",
      "type": "receive"
    }
  ],
  "bytecode": {
    "object": "0x608060405234801561001057600080fd5b506001600455613dac806100256000396000f3fe6080604052600436106101d15760003560e01c8063affed0e0116100f7578063e19a9dd911610095578063f08a032311610064578063f08a0323146105f5578063f698da2514610615578063f8dc5dd91461067c578063ffa1ad741461069c5761020d565b8063e19a9dd914610580578063e318b52b146105a0578063e75235b8146105c0578063e86637db146105d55761020d565b8063cc2f8452116100d1578063cc2f8452146104f2578063d4d9bdcd14610520578063d8d11f7814610540578063e009cfde146105605761020d565b8063affed0e01461049c578063b4faba09146104b2578063b63e800d146104d25761020d565b80635624b25b1161016f5780636a7612021161013e5780636a7612021461040f5780637d83297414610422578063934f3a111461045a578063a0e67e2b1461047a5761020d565b80635624b25b146103755780635ae6bd37146103a2578063610b5925146103cf578063694e80c3146103ef5761020d565b80632f54bf6e116101ab5780632f54bf6e146102ea5780633408e4701461030a578063468721a7146103275780635229073f146103475761020d565b80630d582f131461027357806312fb68e0146102955780632d9ad53d146102b55761020d565b3661020d5760405134815233907f3d0ce9bfc3ed7d6862dbb28b2dea94561fe714a1b4d019aa8af39730d1ad7c3d9060200160405180910390a2005b34801561021957600080fd5b507f6c9a6c4a39284e37ed1cf53d337577d14212a4870fb976a4366c693b939918d580548061024457005b36600080373360601b365260008060143601600080855af190503d6000803e8061026d573d6000fd5b503d6000f35b34801561027f57600080fd5b5061029361028e36600461312a565b6106e5565b005b3480156102a157600080fd5b506102936102b0366004613230565b6108ff565b3480156102c157600080fd5b506102d56102d03660046132a5565b610ef3565b60405190151581526020015b60405180910390f35b3480156102f657600080fd5b506102d56103053660046132a5565b610f48565b34801561031657600080fd5b50465b6040519081526020016102e1565b34801561033357600080fd5b506102d56103423660046132d1565b610f9a565b34801561035357600080fd5b506103676103623660046132d1565b6110b6565b6040516102e192919061339f565b34801561038157600080fd5b506103956103903660046133ba565b6110ec565b6040516102e191906133dc565b3480156103ae57600080fd5b506103196103bd3660046133ef565b60076020526000908152604090205481565b3480156103db57600080fd5b506102936103ea3660046132a5565b611172565b3480156103fb57600080fd5b5061029361040a3660046133ef565b611327565b6102d561041d366004613451565b61140d565b34801561042e57600080fd5b5061031961043d36600461312a565b600860209081526000928352604080842090915290825290205481565b34801561046657600080fd5b5061029361047536600461352a565b6117d5565b34801561048657600080fd5b5061048f611837565b6040516102e191906135e8565b3480156104a857600080fd5b5061031960055481565b3480156104be57600080fd5b506102936104cd3660046135fb565b61194f565b3480156104de57600080fd5b506102936104ed36600461364b565b611972565b3480156104fe57600080fd5b5061051261050d36600461312a565b611a8e565b6040516102e1929190613740565b34801561052c57600080fd5b5061029361053b3660046133ef565b611cc8565b34801561054c57600080fd5b5061031961055b366004613778565b611d82565b34801561056c57600080fd5b5061029361057b366004613839565b611daf565b34801561058c57600080fd5b5061029361059b3660046132a5565b611f4d565b3480156105ac57600080fd5b506102936105bb366004613872565b6120d4565b3480156105cc57600080fd5b50600454610319565b3480156105e157600080fd5b506103956105f0366004613778565b6123e4565b34801561060157600080fd5b506102936106103660046132a5565b61257d565b34801561062157600080fd5b5061031960007f47e79534a245952e8b16893a336b85a3d9ea9fa8c573f3d803afb92a794692184660408051602081019390935282015230606082015260800160405160208183030381529060405280519060200120905090565b34801561068857600080fd5b506102936106973660046138bd565b6125d2565b3480156106a857600080fd5b506103956040518060400160405280600581526020017f312e342e3100000000000000000000000000000000000000000000000000000081525081565b6106ed61280e565b73ffffffffffffffffffffffffffffffffffffffff821615801590610729575073ffffffffffffffffffffffffffffffffffffffff8216600114155b801561074b575073ffffffffffffffffffffffffffffffffffffffff82163014155b61079c5760405162461bcd60e51b815260206004820152600560248201527f475332303300000000000000000000000000000000000000000000000000000060448201526064015b60405180910390fd5b73ffffffffffffffffffffffffffffffffffffffff82811660009081526002602052604090205416156108115760405162461bcd60e51b815260206004820152600560248201527f47533230340000000000000000000000000000000000000000000000000000006044820152606401610793565b60026020527fe90b7bceb6e7df5418fb78d8ee546e97c83a08bbccc01a0644d599ccd2a7c2e0805473ffffffffffffffffffffffffffffffffffffffff8481166000818152604081208054939094167fffffffffffffffffffffffff0000000000000000000000000000000000000000938416179093556001835283549091161790915560038054916108a38361392d565b909155505060405173ffffffffffffffffffffffffffffffffffffffff8316907f9465fa0c962cc76958e6373a993326400c1c94f8be2fe3a952adfa7f60b2ea2690600090a280600454146108fb576108fb81611327565b5050565b61090a81604161285f565b8251101561095a5760405162461bcd60e51b815260206004820152600560248201527f47533032300000000000000000000000000000000000000000000000000000006044820152606401610793565b6000808060008060005b86811015610ee7576041818102890160208101516040820151919092015160ff16955090935091506000849003610c2857885160208a01208a146109ea5760405162461bcd60e51b815260206004820152600560248201527f47533032370000000000000000000000000000000000000000000000000000006044820152606401610793565b91935083916109fa87604161285f565b821015610a495760405162461bcd60e51b815260206004820152600560248201527f47533032310000000000000000000000000000000000000000000000000000006044820152606401610793565b8751610a5683602061289b565b1115610aa45760405162461bcd60e51b815260206004820152600560248201527f47533032320000000000000000000000000000000000000000000000000000006044820152606401610793565b602082890181015189519091610ac7908390610ac190879061289b565b9061289b565b1115610b155760405162461bcd60e51b815260206004820152600560248201527f47533032330000000000000000000000000000000000000000000000000000006044820152606401610793565b6040517f20c13b0b000000000000000000000000000000000000000000000000000000008082528a85016020019173ffffffffffffffffffffffffffffffffffffffff8916906320c13b0b90610b71908f908690600401613965565b602060405180830381865afa158015610b8e573d6000803e3d6000fd5b505050506040513d601f19601f82011682018060405250810190610bb2919061398a565b7fffffffff000000000000000000000000000000000000000000000000000000001614610c215760405162461bcd60e51b815260206004820152600560248201527f47533032340000000000000000000000000000000000000000000000000000006044820152606401610793565b5050610e01565b8360ff16600103610cdc5791935083913373ffffffffffffffffffffffffffffffffffffffff84161480610c8b575073ffffffffffffffffffffffffffffffffffffffff851660009081526008602090815260408083208d845290915290205415155b610cd75760405162461bcd60e51b815260206004820152600560248201527f47533032350000000000000000000000000000000000000000000000000000006044820152606401610793565b610e01565b601e8460ff161115610da1576040517f19457468657265756d205369676e6564204d6573736167653a0a3332000000006020820152603c81018b9052600190605c0160405160208183030381529060405280519060200120600486610d4191906139cc565b6040805160008152602081018083529390935260ff90911690820152606081018590526080810184905260a0016020604051602081039080840390855afa158015610d90573d6000803e3d6000fd5b505050602060405103519450610e01565b6040805160008152602081018083528c905260ff861691810191909152606081018490526080810183905260019060a0016020604051602081039080840390855afa158015610df4573d6000803e3d6000fd5b5050506020604051035194505b8573ffffffffffffffffffffffffffffffffffffffff168573ffffffffffffffffffffffffffffffffffffffff16118015610e62575073ffffffffffffffffffffffffffffffffffffffff8581166000908152600260205260409020541615155b8015610e85575073ffffffffffffffffffffffffffffffffffffffff8516600114155b610ed15760405162461bcd60e51b815260206004820152600560248201527f47533032360000000000000000000000000000000000000000000000000000006044820152606401610793565b8495508080610edf9061392d565b915050610964565b50505050505050505050565b6000600173ffffffffffffffffffffffffffffffffffffffff831614801590610f42575073ffffffffffffffffffffffffffffffffffffffff8281166000908152600160205260409020541615155b92915050565b600073ffffffffffffffffffffffffffffffffffffffff8216600114801590610f4257505073ffffffffffffffffffffffffffffffffffffffff90811660009081526002602052604090205416151590565b600033600114801590610fd157503360009081526001602052604090205473ffffffffffffffffffffffffffffffffffffffff1615155b61101d5760405162461bcd60e51b815260206004820152600560248201527f47533130340000000000000000000000000000000000000000000000000000006044820152606401610793565b61104a858585857fffffffffffffffffffffffffffffffffffffffffffffffffffffffffffffffff6128b7565b905080156110825760405133907f6895c13664aa4f67288b25d7a21d7aaa34916e355fb9b6fae0a139a9085becb890600090a26110ae565b60405133907facd2c8702804128fdb0db2bb49f6d127dd0181c13fd45dbfe16de0930e2bd37590600090a25b949350505050565b600060606110c686868686610f9a565b915060405160203d0181016040523d81523d6000602083013e8091505094509492505050565b606060006110fb8360206139e5565b67ffffffffffffffff81111561111357611113613156565b6040519080825280601f01601f19166020018201604052801561113d576020820181803683370190505b50905060005b8381101561116a5784810154602080830284010152806111628161392d565b915050611143565b509392505050565b61117a61280e565b73ffffffffffffffffffffffffffffffffffffffff8116158015906111b6575073ffffffffffffffffffffffffffffffffffffffff8116600114155b6112025760405162461bcd60e51b815260206004820152600560248201527f47533130310000000000000000000000000000000000000000000000000000006044820152606401610793565b73ffffffffffffffffffffffffffffffffffffffff81811660009081526001602052604090205416156112775760405162461bcd60e51b815260206004820152600560248201527f47533130320000000000000000000000000000000000000000000000000000006044820152606401610793565b600160208190527fcc69885fda6bcc1a4ace058b4a62bf5e179ea78fd58a1ccd71c22cc9b688792f805473ffffffffffffffffffffffffffffffffffffffff848116600081815260408082208054949095167fffffffffffffffffffffffff000000000000000000000000000000000000000094851617909455948552835490911681179092555190917fecdf3a3effea5783a3c4c2140e677577666428d44ed9d474a0b3a4c9943f844091a250565b61132f61280e565b6003548111156113815760405162461bcd60e51b815260206004820152600560248201527f47533230310000000000000000000000000000000000000000000000000000006044820152606401610793565b60018110156113d25760405162461bcd60e51b815260206004820152600560248201527f47533230320000000000000000000000000000000000000000000000000000006044820152606401610793565b60048190556040518181527f610f7ff2b304ae8903c3de74c60c6ab1f7d6226b3f52c5161905bb5ad4039c939060200160405180910390a150565b60008060006114278e8e8e8e8e8e8e8e8e8e6005546123e4565b6005805491925060006114398361392d565b90915550508051602082012091506114528282866117d5565b50600061147d7f4a204f620c8c5ccdca3fd54d003badd85ba500436a431f0cbda4f558c93c34c85490565b905073ffffffffffffffffffffffffffffffffffffffff81161561151d578073ffffffffffffffffffffffffffffffffffffffff166375f0bb528f8f8f8f8f8f8f8f8f8f8f336040518d63ffffffff1660e01b81526004016114ea9c9b9a99989796959493929190613a66565b600060405180830381600087803b15801561150457600080fd5b505af1158015611518573d6000803e3d6000fd5b505050505b61154961152c8a6109c4613b7c565b603f6115398c60406139e5565b6115439190613b8f565b906128fe565b611555906101f4613b7c565b5a10156115a45760405162461bcd60e51b815260206004820152600560248201527f47533031300000000000000000000000000000000000000000000000000000006044820152606401610793565b60005a90506116158f8f8f8f8080601f016020809104026020016040519081016040528093929190818152602001838380828437600081840152601f19601f820116905080830192505050505050508e8c600014611602578e6128b7565b6109c45a6116109190613bca565b6128b7565b93506116225a8290612915565b9050838061162f57508915155b8061163957508715155b6116855760405162461bcd60e51b815260206004820152600560248201527f47533031330000000000000000000000000000000000000000000000000000006044820152606401610793565b6000881561169d5761169a828b8b8b8b612930565b90505b84156116e257837f442e715f626346e8c54381002da614f62bee8d27386535b2521ec8540898556e826040516116d591815260200190565b60405180910390a261171d565b837f23428b18acfb3ea64b08dc0c1d296ea9c09702c09083ca5272e64d115b687d238260405161171491815260200190565b60405180910390a25b505073ffffffffffffffffffffffffffffffffffffffff8116156117c4576040517f9327136800000000000000000000000000000000000000000000000000000000815260048101839052831515602482015273ffffffffffffffffffffffffffffffffffffffff821690639327136890604401600060405180830381600087803b1580156117ab57600080fd5b505af11580156117bf573d6000803e3d6000fd5b505050505b50509b9a5050505050505050505050565b600454806118255760405162461bcd60e51b815260206004820152600560248201527f47533030310000000000000000000000000000000000000000000000000000006044820152606401610793565b611831848484846108ff565b50505050565b6060600060035467ffffffffffffffff81111561185657611856613156565b60405190808252806020026020018201604052801561187f578160200160208202803683370190505b506001600090815260026020527fe90b7bceb6e7df5418fb78d8ee546e97c83a08bbccc01a0644d599ccd2a7c2e0549192509073ffffffffffffffffffffffffffffffffffffffff165b73ffffffffffffffffffffffffffffffffffffffff811660011461194757808383815181106118fa576118fa613bdd565b73ffffffffffffffffffffffffffffffffffffffff92831660209182029290920181019190915291811660009081526002909252604090912054168161193f8161392d565b9250506118c9565b509092915050565b600080825160208401855af480600052503d6020523d600060403e60403d016000fd5b6119b08a8a808060200260200160405190810160405280939291908181526020018383602002808284376000920191909152508c9250612a8d915050565b73ffffffffffffffffffffffffffffffffffffffff8416156119d5576119d584612dd8565b611a158787878080601f016020809104026020016040519081016040528093929190818152602001838380828437600092019190915250612e6192505050565b8115611a2c57611a2a82600060018685612930565b505b3373ffffffffffffffffffffffffffffffffffffffff167f141df868a6331af528e38c83b7aa03edc19be66e37ae67f9285bf4f8e3c6a1a88b8b8b8b89604051611a7a959493929190613c0c565b60405180910390a250505050505050505050565b6060600073ffffffffffffffffffffffffffffffffffffffff841660011480611abb5750611abb84610ef3565b611b075760405162461bcd60e51b815260206004820152600560248201527f47533130350000000000000000000000000000000000000000000000000000006044820152606401610793565b60008311611b575760405162461bcd60e51b815260206004820152600560248201527f47533130360000000000000000000000000000000000000000000000000000006044820152606401610793565b8267ffffffffffffffff811115611b7057611b70613156565b604051908082528060200260200182016040528015611b99578160200160208202803683370190505b5073ffffffffffffffffffffffffffffffffffffffff808616600090815260016020526040812054929450911691505b73ffffffffffffffffffffffffffffffffffffffff821615801590611c05575073ffffffffffffffffffffffffffffffffffffffff8216600114155b8015611c1057508381105b15611c785781838281518110611c2857611c28613bdd565b73ffffffffffffffffffffffffffffffffffffffff928316602091820292909201810191909152928116600090815260019093526040909220549091169080611c708161392d565b915050611bc9565b73ffffffffffffffffffffffffffffffffffffffff8216600114611cbd5782611ca2600183613bca565b81518110611cb257611cb2613bdd565b602002602001015191505b808352509250929050565b3360009081526002602052604090205473ffffffffffffffffffffffffffffffffffffffff16611d3a5760405162461bcd60e51b815260206004820152600560248201527f47533033300000000000000000000000000000000000000000000000000000006044820152606401610793565b336000818152600860209081526040808320858452909152808220600190555183917ff2a0eb156472d1440255b0d7c1e19cc07115d1051fe605b0dce69acfec884d9c91a350565b6000611d978c8c8c8c8c8c8c8c8c8c8c6123e4565b8051906020012090509b9a5050505050505050505050565b611db761280e565b73ffffffffffffffffffffffffffffffffffffffff811615801590611df3575073ffffffffffffffffffffffffffffffffffffffff8116600114155b611e3f5760405162461bcd60e51b815260206004820152600560248201527f47533130310000000000000000000000000000000000000000000000000000006044820152606401610793565b73ffffffffffffffffffffffffffffffffffffffff828116600090815260016020526040902054811690821614611eb85760405162461bcd60e51b815260206004820152600560248201527f47533130330000000000000000000000000000000000000000000000000000006044820152606401610793565b73ffffffffffffffffffffffffffffffffffffffff818116600081815260016020526040808220805487861684528284208054919096167fffffffffffffffffffffffff0000000000000000000000000000000000000000918216179095558383528054909416909355915190917faab4fa2b463f581b2b32cb3b7e3b704b9ce37cc209b5fb4d77e593ace405427691a25050565b611f5561280e565b73ffffffffffffffffffffffffffffffffffffffff81161561206b576040517f01ffc9a70000000000000000000000000000000000000000000000000000000081527fe6d7a83a00000000000000000000000000000000000000000000000000000000600482015273ffffffffffffffffffffffffffffffffffffffff8216906301ffc9a790602401602060405180830381865afa158015611ffb573d6000803e3d6000fd5b505050506040513d601f19601f8201168201806040525081019061201f9190613c92565b61206b5760405162461bcd60e51b815260206004820152600560248201527f47533330300000000000000000000000000000000000000000000000000000006044820152606401610793565b7f4a204f620c8c5ccdca3fd54d003badd85ba500436a431f0cbda4f558c93c34c881815560405173ffffffffffffffffffffffffffffffffffffffff8316907f1151116914515bc0891ff9047a6cb32cf902546f83066499bcf8ba33d2353fa290600090a25050565b6120dc61280e565b73ffffffffffffffffffffffffffffffffffffffff811615801590612118575073ffffffffffffffffffffffffffffffffffffffff8116600114155b801561213a575073ffffffffffffffffffffffffffffffffffffffff81163014155b6121865760405162461bcd60e51b815260206004820152600560248201527f47533230330000000000000000000000000000000000000000000000000000006044820152606401610793565b73ffffffffffffffffffffffffffffffffffffffff81811660009081526002602052604090205416156121fb5760405162461bcd60e51b815260206004820152600560248201527f47533230340000000000000000000000000000000000000000000000000000006044820152606401610793565b73ffffffffffffffffffffffffffffffffffffffff821615801590612237575073ffffffffffffffffffffffffffffffffffffffff8216600114155b6122835760405162461bcd60e51b815260206004820152600560248201527f47533230330000000000000000000000000000000000000000000000000000006044820152606401610793565b73ffffffffffffffffffffffffffffffffffffffff8381166000908152600260205260409020548116908316146122fc5760405162461bcd60e51b815260206004820152600560248201527f47533230350000000000000000000000000000000000000000000000000000006044820152606401610793565b73ffffffffffffffffffffffffffffffffffffffff828116600081815260026020526040808220805486861680855283852080549288167fffffffffffffffffffffffff00000000000000000000000000000000000000009384161790559589168452828420805482169096179095558383528054909416909355915190917ff8d49fc529812e9a7c5c50e69c20f0dccc0db8fa95c98bc58cc9a4f1c1299eaf91a260405173ffffffffffffffffffffffffffffffffffffffff8216907f9465fa0c962cc76958e6373a993326400c1c94f8be2fe3a952adfa7f60b2ea2690600090a2505050565b606060007fbb8310d486368db6bd6f849402fdd73ad53d316b5a4b2644ad6efe0f941286d860001b8d8d8d8d60405161241e929190613cb4565b604051908190038120612444949392918e908e908e908e908e908e908e90602001613cc4565b604080517fffffffffffffffffffffffffffffffffffffffffffffffffffffffffffffffe0818403018152919052805160209091012090507f19000000000000000000000000000000000000000000000000000000000000007f010000000000000000000000000000000000000000000000000000000000000061251860007f47e79534a245952e8b16893a336b85a3d9ea9fa8c573f3d803afb92a794692184660408051602081019390935282015230606082015260800160405160208183030381529060405280519060200120905090565b6040517fff0000000000000000000000000000000000000000000000000000000000000093841660208201529290911660218301526022820152604281018290526062016040516020818303038152906040529150509b9a5050505050505050505050565b61258561280e565b61258e81612dd8565b60405173ffffffffffffffffffffffffffffffffffffffff8216907f5ac6c46c93c8d0e53714ba3b53db3e7c046da994313d7ed0d192028bc7c228b090600090a250565b6125da61280e565b8060016003546125ea9190613bca565b10156126385760405162461bcd60e51b815260206004820152600560248201527f47533230310000000000000000000000000000000000000000000000000000006044820152606401610793565b73ffffffffffffffffffffffffffffffffffffffff821615801590612674575073ffffffffffffffffffffffffffffffffffffffff8216600114155b6126c05760405162461bcd60e51b815260206004820152600560248201527f47533230330000000000000000000000000000000000000000000000000000006044820152606401610793565b73ffffffffffffffffffffffffffffffffffffffff8381166000908152600260205260409020548116908316146127395760405162461bcd60e51b815260206004820152600560248201527f47533230350000000000000000000000000000000000000000000000000000006044820152606401610793565b73ffffffffffffffffffffffffffffffffffffffff828116600081815260026020526040808220805488861684529183208054929095167fffffffffffffffffffffffff000000000000000000000000000000000000000092831617909455918152825490911690915560038054916127b183613d41565b909155505060405173ffffffffffffffffffffffffffffffffffffffff8316907ff8d49fc529812e9a7c5c50e69c20f0dccc0db8fa95c98bc58cc9a4f1c1299eaf90600090a280600454146128095761280981611327565b505050565b33301461285d5760405162461bcd60e51b815260206004820152600560248201527f47533033310000000000000000000000000000000000000000000000000000006044820152606401610793565b565b60008260000361287157506000610f42565b600061287d83856139e5565b90508261288a8583613b8f565b1461289457600080fd5b9392505050565b6000806128a88385613b7c565b90508381101561289457600080fd5b600060018360018111156128cd576128cd6139fc565b036128e5576000808551602087018986f490506128f5565b600080855160208701888a87f190505b95945050505050565b60008183101561290e5781612894565b5090919050565b60008282111561292457600080fd5b60006110ae8385613bca565b60008073ffffffffffffffffffffffffffffffffffffffff8316156129555782612957565b325b905073ffffffffffffffffffffffffffffffffffffffff8416612a1c576129963a8610612984573a612986565b855b612990898961289b565b9061285f565b60405190925073ffffffffffffffffffffffffffffffffffffffff82169083156108fc029084906000818181858888f19350505050612a175760405162461bcd60e51b815260206004820152600560248201527f47533031310000000000000000000000000000000000000000000000000000006044820152606401610793565b612a83565b612a2a85612990898961289b565b9150612a3784828461302b565b612a835760405162461bcd60e51b815260206004820152600560248201527f47533031320000000000000000000000000000000000000000000000000000006044820152606401610793565b5095945050505050565b60045415612add5760405162461bcd60e51b815260206004820152600560248201527f47533230300000000000000000000000000000000000000000000000000000006044820152606401610793565b8151811115612b2e5760405162461bcd60e51b815260206004820152600560248201527f47533230310000000000000000000000000000000000000000000000000000006044820152606401610793565b6001811015612b7f5760405162461bcd60e51b815260206004820152600560248201527f47533230320000000000000000000000000000000000000000000000000000006044820152606401610793565b600160005b8351811015612d80576000848281518110612ba157612ba1613bdd565b60200260200101519050600073ffffffffffffffffffffffffffffffffffffffff168173ffffffffffffffffffffffffffffffffffffffff1614158015612bff575073ffffffffffffffffffffffffffffffffffffffff8116600114155b8015612c21575073ffffffffffffffffffffffffffffffffffffffff81163014155b8015612c5957508073ffffffffffffffffffffffffffffffffffffffff168373ffffffffffffffffffffffffffffffffffffffff1614155b612ca55760405162461bcd60e51b815260206004820152600560248201527f47533230330000000000000000000000000000000000000000000000000000006044820152606401610793565b73ffffffffffffffffffffffffffffffffffffffff8181166000908152600260205260409020541615612d1a5760405162461bcd60e51b815260206004820152600560248201527f47533230340000000000000000000000000000000000000000000000000000006044820152606401610793565b73ffffffffffffffffffffffffffffffffffffffff928316600090815260026020526040902080547fffffffffffffffffffffffff0000000000000000000000000000000000000000169382169390931790925580612d788161392d565b915050612b84565b5073ffffffffffffffffffffffffffffffffffffffff16600090815260026020526040902080547fffffffffffffffffffffffff00000000000000000000000000000000000000001660011790559051600355600455565b3073ffffffffffffffffffffffffffffffffffffffff821603612e3d5760405162461bcd60e51b815260206004820152600560248201527f47533430300000000000000000000000000000000000000000000000000000006044820152606401610793565b7f6c9a6c4a39284e37ed1cf53d337577d14212a4870fb976a4366c693b939918d555565b600160008190526020527fcc69885fda6bcc1a4ace058b4a62bf5e179ea78fd58a1ccd71c22cc9b688792f5473ffffffffffffffffffffffffffffffffffffffff1615612ef05760405162461bcd60e51b815260206004820152600560248201527f47533130300000000000000000000000000000000000000000000000000000006044820152606401610793565b6001600081905260208190527fcc69885fda6bcc1a4ace058b4a62bf5e179ea78fd58a1ccd71c22cc9b688792f80547fffffffffffffffffffffffff000000000000000000000000000000000000000016909117905573ffffffffffffffffffffffffffffffffffffffff8216156108fb57813b612fb05760405162461bcd60e51b815260206004820152600560248201527f47533030320000000000000000000000000000000000000000000000000000006044820152606401610793565b612fdf8260008360017fffffffffffffffffffffffffffffffffffffffffffffffffffffffffffffffff6128b7565b6108fb5760405162461bcd60e51b815260206004820152600560248201527f47533030300000000000000000000000000000000000000000000000000000006044820152606401610793565b6040805173ffffffffffffffffffffffffffffffffffffffff841660248201526044808201849052825180830390910181526064909101909152602080820180517bffffffffffffffffffffffffffffffffffffffffffffffffffffffff167fa9059cbb000000000000000000000000000000000000000000000000000000001781528251600093929184919082896127105a03f13d80156130d857602081146130e057600093506130eb565b8193506130eb565b600051158215171593505b5050509392505050565b73ffffffffffffffffffffffffffffffffffffffff8116811461311757600080fd5b50565b8035613125816130f5565b919050565b6000806040838503121561313d57600080fd5b8235613148816130f5565b946020939093013593505050565b7f4e487b7100000000000000000000000000000000000000000000000000000000600052604160045260246000fd5b600082601f83011261319657600080fd5b813567ffffffffffffffff808211156131b1576131b1613156565b604051601f83017fffffffffffffffffffffffffffffffffffffffffffffffffffffffffffffffe0908116603f011681019082821181831017156131f7576131f7613156565b8160405283815286602085880101111561321057600080fd5b836020870160208301376000602085830101528094505050505092915050565b6000806000806080858703121561324657600080fd5b84359350602085013567ffffffffffffffff8082111561326557600080fd5b61327188838901613185565b9450604087013591508082111561328757600080fd5b5061329487828801613185565b949793965093946060013593505050565b6000602082840312156132b757600080fd5b8135612894816130f5565b80356002811061312557600080fd5b600080600080608085870312156132e757600080fd5b84356132f2816130f5565b935060208501359250604085013567ffffffffffffffff81111561331557600080fd5b61332187828801613185565b925050613330606086016132c2565b905092959194509250565b6000815180845260005b8181101561336157602081850181015186830182015201613345565b5060006020828601015260207fffffffffffffffffffffffffffffffffffffffffffffffffffffffffffffffe0601f83011685010191505092915050565b82151581526040602082015260006110ae604083018461333b565b600080604083850312156133cd57600080fd5b50508035926020909101359150565b602081526000612894602083018461333b565b60006020828403121561340157600080fd5b5035919050565b60008083601f84011261341a57600080fd5b50813567ffffffffffffffff81111561343257600080fd5b60208301915083602082850101111561344a57600080fd5b9250929050565b60008060008060008060008060008060006101408c8e03121561347357600080fd5b61347c8c61311a565b9a5060208c0135995067ffffffffffffffff8060408e0135111561349f57600080fd5b6134af8e60408f01358f01613408565b909a5098506134c060608e016132c2565b975060808d0135965060a08d0135955060c08d013594506134e360e08e0161311a565b93506134f26101008e0161311a565b9250806101208e0135111561350657600080fd5b506135188d6101208e01358e01613185565b90509295989b509295989b9093969950565b60008060006060848603121561353f57600080fd5b83359250602084013567ffffffffffffffff8082111561355e57600080fd5b61356a87838801613185565b9350604086013591508082111561358057600080fd5b5061358d86828701613185565b9150509250925092565b600081518084526020808501945080840160005b838110156135dd57815173ffffffffffffffffffffffffffffffffffffffff16875295820195908201906001016135ab565b509495945050505050565b6020815260006128946020830184613597565b6000806040838503121561360e57600080fd5b8235613619816130f5565b9150602083013567ffffffffffffffff81111561363557600080fd5b61364185828601613185565b9150509250929050565b6000806000806000806000806000806101008b8d03121561366b57600080fd5b8a3567ffffffffffffffff8082111561368357600080fd5b818d0191508d601f83011261369757600080fd5b8135818111156136a657600080fd5b8e60208260051b85010111156136bb57600080fd5b60208381019d50909b508d013599506136d660408e0161311a565b985060608d01359150808211156136ec57600080fd5b506136f98d828e01613408565b909750955061370c905060808c0161311a565b935061371a60a08c0161311a565b925060c08b0135915061372f60e08c0161311a565b90509295989b9194979a5092959850565b6040815260006137536040830185613597565b905073ffffffffffffffffffffffffffffffffffffffff831660208301529392505050565b60008060008060008060008060008060006101408c8e03121561379a57600080fd5b8b356137a5816130f5565b9a5060208c0135995060408c013567ffffffffffffffff8111156137c857600080fd5b6137d48e828f01613408565b909a5098506137e7905060608d016132c2565b965060808c0135955060a08c0135945060c08c0135935060e08c013561380c816130f5565b92506101008c013561381d816130f5565b809250506101208c013590509295989b509295989b9093969950565b6000806040838503121561384c57600080fd5b8235613857816130f5565b91506020830135613867816130f5565b809150509250929050565b60008060006060848603121561388757600080fd5b8335613892816130f5565b925060208401356138a2816130f5565b915060408401356138b2816130f5565b809150509250925092565b6000806000606084860312156138d257600080fd5b83356138dd816130f5565b925060208401356138ed816130f5565b929592945050506040919091013590565b7f4e487b7100000000000000000000000000000000000000000000000000000000600052601160045260246000fd5b60007fffffffffffffffffffffffffffffffffffffffffffffffffffffffffffffffff820361395e5761395e6138fe565b5060010190565b604081526000613978604083018561333b565b82810360208401526128f5818561333b565b60006020828403121561399c57600080fd5b81517fffffffff000000000000000000000000000000000000000000000000000000008116811461289457600080fd5b60ff8281168282160390811115610f4257610f426138fe565b8082028115828204841417610f4257610f426138fe565b7f4e487b7100000000000000000000000000000000000000000000000000000000600052602160045260246000fd5b60028110613a62577f4e487b7100000000000000000000000000000000000000000000000000000000600052602160045260246000fd5b9052565b600061016073ffffffffffffffffffffffffffffffffffffffff8f1683528d60208401528060408401528b81840152506101808b8d828501376000818d850101527fffffffffffffffffffffffffffffffffffffffffffffffffffffffffffffffe0601f8d01168301613adc606085018d613a2b565b8a60808501528960a08501528860c0850152613b1060e085018973ffffffffffffffffffffffffffffffffffffffff169052565b73ffffffffffffffffffffffffffffffffffffffff87166101008501528184820301610120850152613b448282018761333b565b92505050613b6b61014083018473ffffffffffffffffffffffffffffffffffffffff169052565b9d9c50505050505050505050505050565b80820180821115610f4257610f426138fe565b600082613bc5577f4e487b7100000000000000000000000000000000000000000000000000000000600052601260045260246000fd5b500490565b81810381811115610f4257610f426138fe565b7f4e487b7100000000000000000000000000000000000000000000000000000000600052603260045260246000fd5b6080808252810185905260008660a08301825b88811015613c5c578235613c32816130f5565b73ffffffffffffffffffffffffffffffffffffffff16825260209283019290910190600101613c1f565b506020840196909652505073ffffffffffffffffffffffffffffffffffffffff9283166040820152911660609091015292915050565b600060208284031215613ca457600080fd5b8151801515811461289457600080fd5b8183823760009101908152919050565b6000610160820190508c825273ffffffffffffffffffffffffffffffffffffffff808d1660208401528b60408401528a6060840152613d06608084018b613a2b565b60a083019890985260c082019690965260e0810194909452918516610100840152909316610120820152610140019190915295945050505050565b600081613d5057613d506138fe565b507fffffffffffffffffffffffffffffffffffffffffffffffffffffffffffffffff019056fea26469706673582212209e2f181150ba67537d2d99fdfb2ec0c80638c3bc7d23e709c951e528b791935664736f6c63430008130033",
    "linkReferences": {}
  },
  "methodIdentifiers": {
    "VERSION()": "ffa1ad74",
    "addOwnerWithThreshold(address,uint256)": "0d582f13",
    "approveHash(bytes32)": "d4d9bdcd",
    "approvedHashes(address,bytes32)": "7d832974",
    "changeThreshold(uint256)": "694e80c3",
    "checkNSignatures(bytes32,bytes,bytes,uint256)": "12fb68e0",
    "checkSignatures(bytes32,bytes,bytes)": "934f3a11",
    "disableModule(address,address)": "e009cfde",
    "domainSeparator()": "f698da25",
    "enableModule(address)": "610b5925",
    "encodeTransactionData(address,uint256,bytes,uint8,uint256,uint256,uint256,address,address,uint256)": "e86637db",
    "execTransaction(address,uint256,bytes,uint8,uint256,uint256,uint256,address,address,bytes)": "6a761202",
    "execTransactionFromModule(address,uint256,bytes,uint8)": "468721a7",
    "execTransactionFromModuleReturnData(address,uint256,bytes,uint8)": "5229073f",
    "getChainId()": "3408e470",
    "getModulesPaginated(address,uint256)": "cc2f8452",
    "getOwners()": "a0e67e2b",
    "getStorageAt(uint256,uint256)": "5624b25b",
    "getThreshold()": "e75235b8",
    "getTransactionHash(address,uint256,bytes,uint8,uint256,uint256,uint256,address,address,uint256)": "d8d11f78",
    "isModuleEnabled(address)": "2d9ad53d",
    "isOwner(address)": "2f54bf6e",
    "nonce()": "affed0e0",
    "removeOwner(address,address,uint256)": "f8dc5dd9",
    "setFallbackHandler(address)": "f08a0323",
    "setGuard(address)": "e19a9dd9",
    "setup(address[],uint256,address,bytes,address,address,uint256,address)": "b63e800d",
    "signedMessages(bytes32)": "5ae6bd37",
    "simulateAndRevert(address,bytes)": "b4faba09",
    "swapOwner(address,address,address)": "e318b52b"
  },
  "id": 94
}