{
  "abi": [
    {
      "inputs": [
        {
          "internalType": "string",
          "name": "",
          "type": "string"
        }
      ],
      "name": "OrderNotValid",
      "type": "error"
    },
    {
      "anonymous": false,
      "inputs": [
        {
          "indexed": true,
          "internalType": "address",
          "name": "owner",
          "type": "address"
        },
        {
          "components": [
            {
              "internalType": "contract IConditionalOrder",
              "name": "handler",
              "type": "address"
            },
            {
              "internalType": "bytes32",
              "name": "salt",
              "type": "bytes32"
            },
            {
              "internalType": "bytes",
              "name": "staticInput",
              "type": "bytes"
            }
          ],
          "indexed": false,
          "internalType": "struct IConditionalOrder.ConditionalOrderParams",
          "name": "params",
          "type": "tuple"
        }
      ],
      "name": "ConditionalOrderCreated",
      "type": "event"
    },
    {
      "inputs": [
        {
          "internalType": "address",
          "name": "owner",
          "type": "address"
        },
        {
          "internalType": "address",
          "name": "",
          "type": "address"
        },
        {
          "internalType": "bytes32",
          "name": "",
          "type": "bytes32"
        },
        {
          "internalType": "bytes",
          "name": "staticInput",
          "type": "bytes"
        },
        {
          "internalType": "bytes",
          "name": "offchainInput",
          "type": "bytes"
        }
      ],
      "name": "getTradeableOrder",
      "outputs": [
        {
          "components": [
            {
              "internalType": "contract IERC20",
              "name": "sellToken",
              "type": "address"
            },
            {
              "internalType": "contract IERC20",
              "name": "buyToken",
              "type": "address"
            },
            {
              "internalType": "address",
              "name": "receiver",
              "type": "address"
            },
            {
              "internalType": "uint256",
              "name": "sellAmount",
              "type": "uint256"
            },
            {
              "internalType": "uint256",
              "name": "buyAmount",
              "type": "uint256"
            },
            {
              "internalType": "uint32",
              "name": "validTo",
              "type": "uint32"
            },
            {
              "internalType": "bytes32",
              "name": "appData",
              "type": "bytes32"
            },
            {
              "internalType": "uint256",
              "name": "feeAmount",
              "type": "uint256"
            },
            {
              "internalType": "bytes32",
              "name": "kind",
              "type": "bytes32"
            },
            {
              "internalType": "bool",
              "name": "partiallyFillable",
              "type": "bool"
            },
            {
              "internalType": "bytes32",
              "name": "sellTokenBalance",
              "type": "bytes32"
            },
            {
              "internalType": "bytes32",
              "name": "buyTokenBalance",
              "type": "bytes32"
            }
          ],
          "internalType": "struct GPv2Order.Data",
          "name": "order",
          "type": "tuple"
        }
      ],
      "stateMutability": "view",
      "type": "function"
    },
    {
      "inputs": [
        {
          "internalType": "bytes4",
          "name": "interfaceId",
          "type": "bytes4"
        }
      ],
      "name": "supportsInterface",
      "outputs": [
        {
          "internalType": "bool",
          "name": "",
          "type": "bool"
        }
      ],
      "stateMutability": "view",
      "type": "function"
    },
    {
      "inputs": [
        {
          "internalType": "address",
          "name": "owner",
          "type": "address"
        },
        {
          "internalType": "address",
          "name": "sender",
          "type": "address"
        },
        {
          "internalType": "bytes32",
          "name": "_hash",
          "type": "bytes32"
        },
        {
          "internalType": "bytes32",
          "name": "domainSeparator",
          "type": "bytes32"
        },
        {
          "internalType": "bytes32",
          "name": "ctx",
          "type": "bytes32"
        },
        {
          "internalType": "bytes",
          "name": "staticInput",
          "type": "bytes"
        },
        {
          "internalType": "bytes",
          "name": "offchainInput",
          "type": "bytes"
        },
        {
          "components": [
            {
              "internalType": "contract IERC20",
              "name": "sellToken",
              "type": "address"
            },
            {
              "internalType": "contract IERC20",
              "name": "buyToken",
              "type": "address"
            },
            {
              "internalType": "address",
              "name": "receiver",
              "type": "address"
            },
            {
              "internalType": "uint256",
              "name": "sellAmount",
              "type": "uint256"
            },
            {
              "internalType": "uint256",
              "name": "buyAmount",
              "type": "uint256"
            },
            {
              "internalType": "uint32",
              "name": "validTo",
              "type": "uint32"
            },
            {
              "internalType": "bytes32",
              "name": "appData",
              "type": "bytes32"
            },
            {
              "internalType": "uint256",
              "name": "feeAmount",
              "type": "uint256"
            },
            {
              "internalType": "bytes32",
              "name": "kind",
              "type": "bytes32"
            },
            {
              "internalType": "bool",
              "name": "partiallyFillable",
              "type": "bool"
            },
            {
              "internalType": "bytes32",
              "name": "sellTokenBalance",
              "type": "bytes32"
            },
            {
              "internalType": "bytes32",
              "name": "buyTokenBalance",
              "type": "bytes32"
            }
          ],
          "internalType": "struct GPv2Order.Data",
          "name": "",
          "type": "tuple"
        }
      ],
      "name": "verify",
      "outputs": [],
      "stateMutability": "view",
      "type": "function"
    }
  ],
  "bytecode": {
    "object": "0x608060405234801561001057600080fd5b50610fa2806100206000396000f3fe608060405234801561001057600080fd5b50600436106100415760003560e01c806301ffc9a71461004657806314a2a7841461006e578063b8296fc414610083575b600080fd5b610059610054366004610771565b6100a3565b60405190151581526020015b60405180910390f35b61008161007c366004610838565b61013c565b005b610096610091366004610926565b610259565b60405161006591906109c5565b60007fffffffff0000000000000000000000000000000000000000000000000000000082167fb8296fc400000000000000000000000000000000000000000000000000000000148061013657507fffffffff0000000000000000000000000000000000000000000000000000000082167f01ffc9a700000000000000000000000000000000000000000000000000000000145b92915050565b600061014d8b8b8989898989610259565b7fffffffffffffffffffffffffffffffffffffffffffffffffffffffffffffffe0810180517fd5a25ba2e97094ad7d83dc28a6572da797d6b3e7fc6663bd93efb789fc17e48982526101a0822091526040517f19010000000000000000000000000000000000000000000000000000000000008152600281018b9052602281019190915260429020909150891461024c57604080518082018252600c81527f696e76616c696420686173680000000000000000000000000000000000000000602082015290517fc8fc27250000000000000000000000000000000000000000000000000000000081526102439190600401610b21565b60405180910390fd5b5050505050505050505050565b6040805161018081018252600080825260208201819052918101829052606081018290526080810182905260a0810182905260c0810182905260e081018290526101008101829052610120810182905261014081018290526101608101829052906102c686860187610cab565b90508060a0015142101561033957604080518082018252600981527f746f6f206561726c790000000000000000000000000000000000000000000000602082015290517fc8fc27250000000000000000000000000000000000000000000000000000000081526102439190600401610b21565b608081015181516040517f70a0823100000000000000000000000000000000000000000000000000000000815273ffffffffffffffffffffffffffffffffffffffff8c81166004830152909116906370a0823190602401602060405180830381865afa1580156103ad573d6000803e3d6000fd5b505050506040513d601f19601f820116820180604052508101906103d19190610d96565b101561043c57604080518082018252601481527f62616c616e636520696e73756666696369656e74000000000000000000000000602082015290517fc8fc27250000000000000000000000000000000000000000000000000000000081526102439190600401610b21565b600061044a84860186610daf565b61010083015151909150156105a65760008261010001518060200190518101906104749190610dc8565b90506000816000015173ffffffffffffffffffffffffffffffffffffffff16630d1003ee85606001518660000151876020015186602001516040518563ffffffff1660e01b81526004016104cb9493929190610e8f565b602060405180830381865afa1580156104e8573d6000803e3d6000fd5b505050506040513d601f19601f8201168201806040525081019061050c9190610d96565b905061271082604001516127106105239190610f07565b61052d9083610f1a565b6105379190610f31565b8310156105a357604080518082018252601481527f707269636520636865636b6572206661696c6564000000000000000000000000602082015290517fc8fc27250000000000000000000000000000000000000000000000000000000081526102439190600401610b21565b50505b604051806101800160405280836000015173ffffffffffffffffffffffffffffffffffffffff168152602001836020015173ffffffffffffffffffffffffffffffffffffffff168152602001836040015173ffffffffffffffffffffffffffffffffffffffff1681526020018360600151815260200182815260200161062f8460c001516106d7565b63ffffffff1681526020018361012001518152602001600081526020017ff3b277728b3fee749481eb3e0b3b48980dbbab78658fc419025cb16eee34677581526020018360e00151151581526020017f5a28e9363bb942b639270062aa6bb295f434bcdfc42c97267bf003f272060dc981526020017f5a28e9363bb942b639270062aa6bb295f434bcdfc42c97267bf003f272060dc981525092505050979650505050505050565b600063ffffffff82111561076d576040517f08c379a000000000000000000000000000000000000000000000000000000000815260206004820152602660248201527f53616665436173743a2076616c756520646f65736e27742066697420696e203360448201527f32206269747300000000000000000000000000000000000000000000000000006064820152608401610243565b5090565b60006020828403121561078357600080fd5b81357fffffffff00000000000000000000000000000000000000000000000000000000811681146107b357600080fd5b9392505050565b73ffffffffffffffffffffffffffffffffffffffff811681146107dc57600080fd5b50565b80356107ea816107ba565b919050565b60008083601f84011261080157600080fd5b50813567ffffffffffffffff81111561081957600080fd5b60208301915083602082850101111561083157600080fd5b9250929050565b6000806000806000806000806000806102608b8d03121561085857600080fd5b6108628b356107ba565b8a35995060208b0135610874816107ba565b985060408b0135975060608b0135965060808b0135955060a08b013567ffffffffffffffff808211156108a657600080fd5b6108b28e838f016107ef565b909750955060c08d01359150808211156108cb57600080fd5b506108d88d828e016107ef565b9094509250506101808b8d037fffffffffffffffffffffffffffffffffffffffffffffffffffffffffffffff2001121561091157600080fd5b60e08b0190509295989b9194979a5092959850565b600080600080600080600060a0888a03121561094157600080fd5b873561094c816107ba565b9650602088013561095c816107ba565b955060408801359450606088013567ffffffffffffffff8082111561098057600080fd5b61098c8b838c016107ef565b909650945060808a01359150808211156109a557600080fd5b506109b28a828b016107ef565b989b979a50959850939692959293505050565b815173ffffffffffffffffffffffffffffffffffffffff16815261018081016020830151610a0b602084018273ffffffffffffffffffffffffffffffffffffffff169052565b506040830151610a33604084018273ffffffffffffffffffffffffffffffffffffffff169052565b50606083015160608301526080830151608083015260a0830151610a5f60a084018263ffffffff169052565b5060c083015160c083015260e083015160e083015261010080840151818401525061012080840151610a948285018215159052565b5050610140838101519083015261016092830151929091019190915290565b60005b83811015610ace578181015183820152602001610ab6565b50506000910152565b60008151808452610aef816020860160208601610ab3565b601f017fffffffffffffffffffffffffffffffffffffffffffffffffffffffffffffffe0169290920160200192915050565b6020815260006107b36020830184610ad7565b7f4e487b7100000000000000000000000000000000000000000000000000000000600052604160045260246000fd5b604051610140810167ffffffffffffffff81118282101715610b8757610b87610b34565b60405290565b6040516060810167ffffffffffffffff81118282101715610b8757610b87610b34565b604051601f82017fffffffffffffffffffffffffffffffffffffffffffffffffffffffffffffffe016810167ffffffffffffffff81118282101715610bf757610bf7610b34565b604052919050565b803580151581146107ea57600080fd5b600067ffffffffffffffff821115610c2957610c29610b34565b50601f017fffffffffffffffffffffffffffffffffffffffffffffffffffffffffffffffe01660200190565b600082601f830112610c6657600080fd5b8135610c79610c7482610c0f565b610bb0565b818152846020838601011115610c8e57600080fd5b816020850160208301376000918101602001919091529392505050565b600060208284031215610cbd57600080fd5b813567ffffffffffffffff80821115610cd557600080fd5b908301906101408286031215610cea57600080fd5b610cf2610b63565b610cfb836107df565b8152610d09602084016107df565b6020820152610d1a604084016107df565b6040820152606083013560608201526080830135608082015260a083013560a082015260c083013560c0820152610d5360e08401610bff565b60e08201526101008084013583811115610d6c57600080fd5b610d7888828701610c55565b91830191909152506101209283013592810192909252509392505050565b600060208284031215610da857600080fd5b5051919050565b600060208284031215610dc157600080fd5b5035919050565b60006020808385031215610ddb57600080fd5b825167ffffffffffffffff80821115610df357600080fd5b9084019060608287031215610e0757600080fd5b610e0f610b8d565b8251610e1a816107ba565b81528284015182811115610e2d57600080fd5b83019150601f82018713610e4057600080fd5b8151610e4e610c7482610c0f565b8181528886838601011115610e6257600080fd5b610e7182878301888701610ab3565b80868401525050604083015160408201528094505050505092915050565b848152600073ffffffffffffffffffffffffffffffffffffffff808616602084015280851660408401525060806060830152610ece6080830184610ad7565b9695505050505050565b7f4e487b7100000000000000000000000000000000000000000000000000000000600052601160045260246000fd5b8181038181111561013657610136610ed8565b808202811582820484141761013657610136610ed8565b600082610f67577f4e487b7100000000000000000000000000000000000000000000000000000000600052601260045260246000fd5b50049056fea264697066735822122035dc2f2b19fa5013e81263fdc060f99f34eaeb7dc2968d9eeb3e9b8306a1b2bd64736f6c63430008130033",
    "linkReferences": {}
  },
  "methodIdentifiers": {
    "getTradeableOrder(address,address,bytes32,bytes,bytes)": "b8296fc4",
    "supportsInterface(bytes4)": "01ffc9a7",
    "verify(address,address,bytes32,bytes32,bytes32,bytes,bytes,(address,address,address,uint256,uint256,uint32,bytes32,uint256,bytes32,bool,bytes32,bytes32))": "14a2a784"
  },
  "id": 143
}