{
  "abi": [
    {
      "inputs": [
        {
          "internalType": "contract IVault",
          "name": "vault_",
          "type": "address"
        }
      ],
      "stateMutability": "nonpayable",
      "type": "constructor"
    },
    {
      "inputs": [
        {
          "internalType": "enum IVault.SwapKind",
          "name": "kind",
          "type": "uint8"
        },
        {
          "components": [
            {
              "internalType": "bytes32",
              "name": "poolId",
              "type": "bytes32"
            },
            {
              "internalType": "uint256",
              "name": "assetInIndex",
              "type": "uint256"
            },
            {
              "internalType": "uint256",
              "name": "assetOutIndex",
              "type": "uint256"
            },
            {
              "internalType": "uint256",
              "name": "amount",
              "type": "uint256"
            },
            {
              "internalType": "bytes",
              "name": "userData",
              "type": "bytes"
            }
          ],
          "internalType": "struct IVault.BatchSwapStep[]",
          "name": "swaps",
          "type": "tuple[]"
        },
        {
          "internalType": "contract IERC20[]",
          "name": "tokens",
          "type": "address[]"
        },
        {
          "components": [
            {
              "internalType": "address",
              "name": "sender",
              "type": "address"
            },
            {
              "internalType": "bool",
              "name": "fromInternalBalance",
              "type": "bool"
            },
            {
              "internalType": "address payable",
              "name": "recipient",
              "type": "address"
            },
            {
              "internalType": "bool",
              "name": "toInternalBalance",
              "type": "bool"
            }
          ],
          "internalType": "struct IVault.FundManagement",
          "name": "funds",
          "type": "tuple"
        },
        {
          "internalType": "int256[]",
          "name": "limits",
          "type": "int256[]"
        },
        {
          "internalType": "uint256",
          "name": "deadline",
          "type": "uint256"
        },
        {
          "components": [
            {
              "internalType": "address",
              "name": "account",
              "type": "address"
            },
            {
              "internalType": "contract IERC20",
              "name": "token",
              "type": "address"
            },
            {
              "internalType": "uint256",
              "name": "amount",
              "type": "uint256"
            },
            {
              "internalType": "bytes32",
              "name": "balance",
              "type": "bytes32"
            }
          ],
          "internalType": "struct GPv2Transfer.Data",
          "name": "feeTransfer",
          "type": "tuple"
        }
      ],
      "name": "batchSwapWithFee",
      "outputs": [
        {
          "internalType": "int256[]",
          "name": "tokenDeltas",
          "type": "int256[]"
        }
      ],
      "stateMutability": "nonpayable",
      "type": "function"
    },
    {
      "inputs": [
        {
          "components": [
            {
              "internalType": "address",
              "name": "account",
              "type": "address"
            },
            {
              "internalType": "contract IERC20",
              "name": "token",
              "type": "address"
            },
            {
              "internalType": "uint256",
              "name": "amount",
              "type": "uint256"
            },
            {
              "internalType": "bytes32",
              "name": "balance",
              "type": "bytes32"
            }
          ],
          "internalType": "struct GPv2Transfer.Data[]",
          "name": "transfers",
          "type": "tuple[]"
        }
      ],
      "name": "transferFromAccounts",
      "outputs": [],
      "stateMutability": "nonpayable",
      "type": "function"
    }
  ],
  "bytecode": {
    "object": "0x60c060405234801561001057600080fd5b5060405161149538038061149583398101604081905261002f91610044565b336080526001600160a01b031660a052610074565b60006020828403121561005657600080fd5b81516001600160a01b038116811461006d57600080fd5b9392505050565b60805160a0516113e86100ad6000396000818161015c0152818161021e015261030a0152600081816093015261026901526113e86000f3fe608060405234801561001057600080fd5b50600436106100365760003560e01c80634817a2861461003b5780637d10d11f14610064575b600080fd5b61004e610049366004610da7565b610079565b60405161005b9190610eb6565b60405180910390f35b610077610072366004610ed0565b610251565b005b60603373ffffffffffffffffffffffffffffffffffffffff7f0000000000000000000000000000000000000000000000000000000000000000161461011f576040517f08c379a000000000000000000000000000000000000000000000000000000000815260206004820152601160248201527f475076323a206e6f742063726561746f7200000000000000000000000000000060448201526064015b60405180910390fd5b6040517f945bcec900000000000000000000000000000000000000000000000000000000815273ffffffffffffffffffffffffffffffffffffffff7f0000000000000000000000000000000000000000000000000000000000000000169063945bcec99061019d908c908c908c908c908c908c908c90600401611003565b6000604051808303816000875af11580156101bc573d6000803e3d6000fd5b505050506040513d6000823e601f3d9081017fffffffffffffffffffffffffffffffffffffffffffffffffffffffffffffffe016820160405261020291908101906111dd565b905061024573ffffffffffffffffffffffffffffffffffffffff7f0000000000000000000000000000000000000000000000000000000000000000168333610336565b98975050505050505050565b3373ffffffffffffffffffffffffffffffffffffffff7f000000000000000000000000000000000000000000000000000000000000000016146102f0576040517f08c379a000000000000000000000000000000000000000000000000000000000815260206004820152601160248201527f475076323a206e6f742063726561746f720000000000000000000000000000006044820152606401610116565b61033273ffffffffffffffffffffffffffffffffffffffff7f00000000000000000000000000000000000000000000000000000000000000001683833361061b565b5050565b73eeeeeeeeeeeeeeeeeeeeeeeeeeeeeeeeeeeeeeee61035b604084016020850161126e565b73ffffffffffffffffffffffffffffffffffffffff16036103d8576040517f08c379a000000000000000000000000000000000000000000000000000000000815260206004820181905260248201527f475076323a2063616e6e6f74207472616e73666572206e6174697665204554486044820152606401610116565b7f5a28e9363bb942b639270062aa6bb295f434bcdfc42c97267bf003f272060dc982606001350361044b57610446610413602084018461126e565b8260408501803590610428906020880161126e565b73ffffffffffffffffffffffffffffffffffffffff1692919061096d565b505050565b604080516001808252818301909252600091816020015b6040805160a0810182526000808252602080830182905292820181905260608201819052608082015282527fffffffffffffffffffffffffffffffffffffffffffffffffffffffffffffffff9092019101816104625790505090506000816000815181106104d2576104d261128b565b602002602001015190507fabee3b73373acd583a130924aad6dc38cfdc44ba0555ba94ce2ff63980ea063284606001351461050e576002610511565b60035b8190600381111561052457610524610f45565b9081600381111561053757610537610f45565b90525061054a604085016020860161126e565b73ffffffffffffffffffffffffffffffffffffffff166020808301919091526040808601359083015261057f9085018561126e565b73ffffffffffffffffffffffffffffffffffffffff908116606083015283811660808301526040517f0e8e3e8400000000000000000000000000000000000000000000000000000000815290861690630e8e3e84906105e29085906004016112ba565b600060405180830381600087803b1580156105fc57600080fd5b505af1158015610610573d6000803e3d6000fd5b505050505050505050565b60008267ffffffffffffffff81111561063657610636610b66565b6040519080825280602002602001820160405280156106ad57816020015b6040805160a0810182526000808252602080830182905292820181905260608201819052608082015282527fffffffffffffffffffffffffffffffffffffffffffffffffffffffffffffffff9092019101816106545790505b5090506000805b848110156108d657368686838181106106cf576106cf61128b565b60800291909101915073eeeeeeeeeeeeeeeeeeeeeeeeeeeeeeeeeeeeeeee90506106ff604083016020840161126e565b73ffffffffffffffffffffffffffffffffffffffff160361077c576040517f08c379a000000000000000000000000000000000000000000000000000000000815260206004820181905260248201527f475076323a2063616e6e6f74207472616e73666572206e6174697665204554486044820152606401610116565b7f5a28e9363bb942b639270062aa6bb295f434bcdfc42c97267bf003f272060dc98160600135036107d1576107cc6107b7602083018361126e565b8660408401803590610428906020870161126e565b6108c3565b600084846107de81611353565b9550815181106107f0576107f061128b565b602002602001015190507fabee3b73373acd583a130924aad6dc38cfdc44ba0555ba94ce2ff63980ea063282606001351461082c57600161082f565b60035b8190600381111561084257610842610f45565b9081600381111561085557610855610f45565b905250610868604083016020840161126e565b73ffffffffffffffffffffffffffffffffffffffff166020808301919091526040808401359083015261089d9083018361126e565b73ffffffffffffffffffffffffffffffffffffffff908116606083015286166080909101525b50806108ce81611353565b9150506106b4565b508015610965578082526040517f0e8e3e8400000000000000000000000000000000000000000000000000000000815273ffffffffffffffffffffffffffffffffffffffff871690630e8e3e84906109329085906004016112ba565b600060405180830381600087803b15801561094c57600080fd5b505af1158015610960573d6000803e3d6000fd5b505050505b505050505050565b6040517f23b872dd0000000000000000000000000000000000000000000000000000000080825273ffffffffffffffffffffffffffffffffffffffff8581166004840152841660248301526044820183905290600080606483828a5af16109d8573d6000803e3d6000fd5b506109e285610a4f565b610a48576040517f08c379a000000000000000000000000000000000000000000000000000000000815260206004820152601960248201527f475076323a206661696c6564207472616e7366657246726f6d000000000000006044820152606401610116565b5050505050565b6000610a8e565b7f08c379a000000000000000000000000000000000000000000000000000000000600052602060045280602452508060445260646000fd5b3d8015610acd5760208114610b0757610ac87f475076323a206d616c666f726d6564207472616e7366657220726573756c7400601f610a56565b610b14565b823b610afe57610afe7f475076323a206e6f74206120636f6e74726163740000000000000000000000006014610a56565b60019150610b14565b3d6000803e600051151591505b50919050565b60008083601f840112610b2c57600080fd5b50813567ffffffffffffffff811115610b4457600080fd5b6020830191508360208260051b8501011115610b5f57600080fd5b9250929050565b7f4e487b7100000000000000000000000000000000000000000000000000000000600052604160045260246000fd5b604051601f82017fffffffffffffffffffffffffffffffffffffffffffffffffffffffffffffffe016810167ffffffffffffffff81118282101715610bdc57610bdc610b66565b604052919050565b600067ffffffffffffffff821115610bfe57610bfe610b66565b5060051b60200190565b73ffffffffffffffffffffffffffffffffffffffff81168114610c2a57600080fd5b50565b600082601f830112610c3e57600080fd5b81356020610c53610c4e83610be4565b610b95565b82815260059290921b84018101918181019086841115610c7257600080fd5b8286015b84811015610c96578035610c8981610c08565b8352918301918301610c76565b509695505050505050565b80358015158114610cb157600080fd5b919050565b600060808284031215610cc857600080fd5b6040516080810181811067ffffffffffffffff82111715610ceb57610ceb610b66565b6040529050808235610cfc81610c08565b8152610d0a60208401610ca1565b60208201526040830135610d1d81610c08565b6040820152610d2e60608401610ca1565b60608201525092915050565b600082601f830112610d4b57600080fd5b81356020610d5b610c4e83610be4565b82815260059290921b84018101918181019086841115610d7a57600080fd5b8286015b84811015610c965780358352918301918301610d7e565b600060808284031215610b1457600080fd5b6000806000806000806000806101a0898b031215610dc457600080fd5b883560028110610dd357600080fd5b9750602089013567ffffffffffffffff80821115610df057600080fd5b610dfc8c838d01610b1a565b909950975060408b0135915080821115610e1557600080fd5b610e218c838d01610c2d565b9650610e308c60608d01610cb6565b955060e08b0135915080821115610e4657600080fd5b50610e538b828c01610d3a565b9350506101008901359150610e6c8a6101208b01610d95565b90509295985092959890939650565b600081518084526020808501945080840160005b83811015610eab57815187529582019590820190600101610e8f565b509495945050505050565b602081526000610ec96020830184610e7b565b9392505050565b60008060208385031215610ee357600080fd5b823567ffffffffffffffff80821115610efb57600080fd5b818501915085601f830112610f0f57600080fd5b813581811115610f1e57600080fd5b8660208260071b8501011115610f3357600080fd5b60209290920196919550909350505050565b7f4e487b7100000000000000000000000000000000000000000000000000000000600052602160045260246000fd5b8183528181602085013750600060208284010152600060207fffffffffffffffffffffffffffffffffffffffffffffffffffffffffffffffe0601f840116840101905092915050565b600081518084526020808501945080840160005b83811015610eab57815173ffffffffffffffffffffffffffffffffffffffff1687529582019590820190600101610fd1565b600061012080830160028b1061101b5761101b610f45565b8a84526020808501929092528890526101408084019160058a901b8501909101908a60005b8b811015611151577ffffffffffffffffffffffffffffffffffffffffffffffffffffffffffffffec087850301855281357fffffffffffffffffffffffffffffffffffffffffffffffffffffffffffffff618e36030181126110a157600080fd5b8d01803585528381013584860152604080820135908601526060808201359086015260a0608080830135368490037fffffffffffffffffffffffffffffffffffffffffffffffffffffffffffffffe10181126110fc57600080fd5b90920185810192903567ffffffffffffffff81111561111a57600080fd5b80360384131561112957600080fd5b828289015261113b8389018286610f74565b9887019897505050928401925050600101611040565b50505083810360408501526111668189610fbd565b9150506111b5606084018773ffffffffffffffffffffffffffffffffffffffff808251168352602082015115156020840152806040830151166040840152506060810151151560608301525050565b82810360e08401526111c78186610e7b565b9150508261010083015298975050505050505050565b600060208083850312156111f057600080fd5b825167ffffffffffffffff81111561120757600080fd5b8301601f8101851361121857600080fd5b8051611226610c4e82610be4565b81815260059190911b8201830190838101908783111561124557600080fd5b928401925b828410156112635783518252928401929084019061124a565b979650505050505050565b60006020828403121561128057600080fd5b8135610ec981610c08565b7f4e487b7100000000000000000000000000000000000000000000000000000000600052603260045260246000fd5b602080825282518282018190526000919060409081850190868401855b828110156113465781518051600481106112f3576112f3610f45565b85528087015173ffffffffffffffffffffffffffffffffffffffff908116888701528682015187870152606080830151821690870152608091820151169085015260a090930192908501906001016112d7565b5091979650505050505050565b60007fffffffffffffffffffffffffffffffffffffffffffffffffffffffffffffffff82036113ab577f4e487b7100000000000000000000000000000000000000000000000000000000600052601160045260246000fd5b506001019056fea264697066735822122004adc15dd1d35c2bfa3dce7fd2d81bebbfbd818bb0fe0cbf0471642fd2d0766964736f6c63430008130033",
    "linkReferences": {}
  },
  "methodIdentifiers": {
    "batchSwapWithFee(uint8,(bytes32,uint256,uint256,uint256,bytes)[],address[],(address,bool,address,bool),int256[],uint256,(address,address,uint256,bytes32))": "4817a286",
    "transferFromAccounts((address,address,uint256,bytes32)[])": "7d10d11f"
  },
  "id": 57
}