{
  "abi": [
    {
      "inputs": [
        {
          "internalType": "string",
          "name": "",
          "type": "string"
        }
      ],
      "name": "OrderNotValid",
      "type": "error"
    },
    {
      "inputs": [
        {
          "internalType": "string",
          "name": "reason",
          "type": "string"
        }
      ],
      "name": "PollNever",
      "type": "error"
    },
    {
      "inputs": [
        {
          "internalType": "uint256",
          "name": "blockNumber",
          "type": "uint256"
        },
        {
          "internalType": "string",
          "name": "reason",
          "type": "string"
        }
      ],
      "name": "PollTryAtBlock",
      "type": "error"
    },
    {
      "inputs": [
        {
          "internalType": "uint256",
          "name": "timestamp",
          "type": "uint256"
        },
        {
          "internalType": "string",
          "name": "reason",
          "type": "string"
        }
      ],
      "name": "PollTryAtEpoch",
      "type": "error"
    },
    {
      "inputs": [
        {
          "internalType": "string",
          "name": "reason",
          "type": "string"
        }
      ],
      "name": "PollTryNextBlock",
      "type": "error"
    },
    {
      "anonymous": false,
      "inputs": [
        {
          "indexed": true,
          "internalType": "address",
          "name": "owner",
          "type": "address"
        },
        {
          "components": [
            {
              "internalType": "contract IConditionalOrder",
              "name": "handler",
              "type": "address"
            },
            {
              "internalType": "bytes32",
              "name": "salt",
              "type": "bytes32"
            },
            {
              "internalType": "bytes",
              "name": "staticInput",
              "type": "bytes"
            }
          ],
          "indexed": false,
          "internalType": "struct IConditionalOrder.ConditionalOrderParams",
          "name": "params",
          "type": "tuple"
        }
      ],
      "name": "ConditionalOrderCreated",
      "type": "event"
    },
    {
      "inputs": [
        {
          "internalType": "address",
          "name": "owner",
          "type": "address"
        },
        {
          "internalType": "address",
          "name": "",
          "type": "address"
        },
        {
          "internalType": "bytes32",
          "name": "",
          "type": "bytes32"
        },
        {
          "internalType": "bytes",
          "name": "staticInput",
          "type": "bytes"
        },
        {
          "internalType": "bytes",
          "name": "",
          "type": "bytes"
        }
      ],
      "name": "getTradeableOrder",
      "outputs": [
        {
          "components": [
            {
              "internalType": "contract IERC20",
              "name": "sellToken",
              "type": "address"
            },
            {
              "internalType": "contract IERC20",
              "name": "buyToken",
              "type": "address"
            },
            {
              "internalType": "address",
              "name": "receiver",
              "type": "address"
            },
            {
              "internalType": "uint256",
              "name": "sellAmount",
              "type": "uint256"
            },
            {
              "internalType": "uint256",
              "name": "buyAmount",
              "type": "uint256"
            },
            {
              "internalType": "uint32",
              "name": "validTo",
              "type": "uint32"
            },
            {
              "internalType": "bytes32",
              "name": "appData",
              "type": "bytes32"
            },
            {
              "internalType": "uint256",
              "name": "feeAmount",
              "type": "uint256"
            },
            {
              "internalType": "bytes32",
              "name": "kind",
              "type": "bytes32"
            },
            {
              "internalType": "bool",
              "name": "partiallyFillable",
              "type": "bool"
            },
            {
              "internalType": "bytes32",
              "name": "sellTokenBalance",
              "type": "bytes32"
            },
            {
              "internalType": "bytes32",
              "name": "buyTokenBalance",
              "type": "bytes32"
            }
          ],
          "internalType": "struct GPv2Order.Data",
          "name": "order",
          "type": "tuple"
        }
      ],
      "stateMutability": "view",
      "type": "function"
    },
    {
      "inputs": [
        {
          "internalType": "bytes4",
          "name": "interfaceId",
          "type": "bytes4"
        }
      ],
      "name": "supportsInterface",
      "outputs": [
        {
          "internalType": "bool",
          "name": "",
          "type": "bool"
        }
      ],
      "stateMutability": "view",
      "type": "function"
    },
    {
      "inputs": [
        {
          "internalType": "bytes",
          "name": "data",
          "type": "bytes"
        }
      ],
      "name": "validateData",
      "outputs": [],
      "stateMutability": "view",
      "type": "function"
    },
    {
      "inputs": [
        {
          "internalType": "address",
          "name": "owner",
          "type": "address"
        },
        {
          "internalType": "address",
          "name": "sender",
          "type": "address"
        },
        {
          "internalType": "bytes32",
          "name": "_hash",
          "type": "bytes32"
        },
        {
          "internalType": "bytes32",
          "name": "domainSeparator",
          "type": "bytes32"
        },
        {
          "internalType": "bytes32",
          "name": "ctx",
          "type": "bytes32"
        },
        {
          "internalType": "bytes",
          "name": "staticInput",
          "type": "bytes"
        },
        {
          "internalType": "bytes",
          "name": "offchainInput",
          "type": "bytes"
        },
        {
          "components": [
            {
              "internalType": "contract IERC20",
              "name": "sellToken",
              "type": "address"
            },
            {
              "internalType": "contract IERC20",
              "name": "buyToken",
              "type": "address"
            },
            {
              "internalType": "address",
              "name": "receiver",
              "type": "address"
            },
            {
              "internalType": "uint256",
              "name": "sellAmount",
              "type": "uint256"
            },
            {
              "internalType": "uint256",
              "name": "buyAmount",
              "type": "uint256"
            },
            {
              "internalType": "uint32",
              "name": "validTo",
              "type": "uint32"
            },
            {
              "internalType": "bytes32",
              "name": "appData",
              "type": "bytes32"
            },
            {
              "internalType": "uint256",
              "name": "feeAmount",
              "type": "uint256"
            },
            {
              "internalType": "bytes32",
              "name": "kind",
              "type": "bytes32"
            },
            {
              "internalType": "bool",
              "name": "partiallyFillable",
              "type": "bool"
            },
            {
              "internalType": "bytes32",
              "name": "sellTokenBalance",
              "type": "bytes32"
            },
            {
              "internalType": "bytes32",
              "name": "buyTokenBalance",
              "type": "bytes32"
            }
          ],
          "internalType": "struct GPv2Order.Data",
          "name": "",
          "type": "tuple"
        }
      ],
      "name": "verify",
      "outputs": [],
      "stateMutability": "view",
      "type": "function"
    }
  ],
  "bytecode": {
    "object": "0x608060405234801561001057600080fd5b50611063806100206000396000f3fe608060405234801561001057600080fd5b506004361061004c5760003560e01c806301ffc9a71461005157806314a2a78414610079578063a6ffa36c1461008e578063b8296fc41461009f575b600080fd5b61006461005f366004610874565b6100bf565b60405190151581526020015b60405180910390f35b61008c610087366004610928565b610158565b005b61008c61009c366004610a45565b50565b6100b26100ad366004610b14565b610275565b6040516100709190610bb3565b60007fffffffff0000000000000000000000000000000000000000000000000000000082167fb8296fc400000000000000000000000000000000000000000000000000000000148061015257507fffffffff0000000000000000000000000000000000000000000000000000000082167f01ffc9a700000000000000000000000000000000000000000000000000000000145b92915050565b60006101698b8b8989898989610275565b7fffffffffffffffffffffffffffffffffffffffffffffffffffffffffffffffe0810180517fd5a25ba2e97094ad7d83dc28a6572da797d6b3e7fc6663bd93efb789fc17e48982526101a0822091526040517f19010000000000000000000000000000000000000000000000000000000000008152600281018b9052602281019190915260429020909150891461026857604080518082018252600c81527f696e76616c696420686173680000000000000000000000000000000000000000602082015290517fc8fc272500000000000000000000000000000000000000000000000000000000815261025f9190600401610ca1565b60405180910390fd5b5050505050505050505050565b6040805161018081018252600080825260208201819052918101829052606081018290526080810182905260a0810182905260c0810182905260e081018290526101008101829052610120810182905261014081018290526101608101829052906102e286860187610d0d565b905060006102f08a83610491565b9050600081604001511161036357604080518082018252600a81527f6e6f742066756e64656400000000000000000000000000000000000000000000602082015290517fc8fc272500000000000000000000000000000000000000000000000000000000815261025f9190600401610ca1565b604051806101800160405280826000015173ffffffffffffffffffffffffffffffffffffffff168152602001826020015173ffffffffffffffffffffffffffffffffffffffff168152602001600073ffffffffffffffffffffffffffffffffffffffff16815260200182604001518152602001826060015181526020016103ed846040015161070c565b63ffffffff16815260200183608001518152602001600081526020017ff3b277728b3fee749481eb3e0b3b48980dbbab78658fc419025cb16eee34677581526020016000151581526020017f5a28e9363bb942b639270062aa6bb295f434bcdfc42c97267bf003f272060dc981526020017f5a28e9363bb942b639270062aa6bb295f434bcdfc42c97267bf003f272060dc981525092505050979650505050505050565b604080516080810182526000808252602082018190529181018290526060810191909152815160208301516040517f70a0823100000000000000000000000000000000000000000000000000000000815273ffffffffffffffffffffffffffffffffffffffff8681166004830152600091908416906370a0823190602401602060405180830381865afa15801561052c573d6000803e3d6000fd5b505050506040513d601f19601f820116820180604052508101906105509190610d9e565b6040517f70a0823100000000000000000000000000000000000000000000000000000000815273ffffffffffffffffffffffffffffffffffffffff88811660048301529192506000918416906370a0823190602401602060405180830381865afa1580156105c2573d6000803e3d6000fd5b505050506040513d601f19601f820116820180604052508101906105e69190610d9e565b9050806105f485848661072e565b11156106805760405180608001604052808573ffffffffffffffffffffffffffffffffffffffff1681526020018473ffffffffffffffffffffffffffffffffffffffff16815260200183815260200161271088606001516127106106589190610de6565b61066388878961072e565b61066d9190610df9565b6106779190610e3f565b90529450610702565b60405180608001604052808473ffffffffffffffffffffffffffffffffffffffff1681526020018573ffffffffffffffffffffffffffffffffffffffff16815260200182815260200161271088606001516127106106de9190610de6565b6106e987868a61072e565b6106f39190610df9565b6106fd9190610e3f565b905294505b5050505092915050565b6000818061071a8142610e53565b6107249190610e76565b6101529190610e9e565b6000808473ffffffffffffffffffffffffffffffffffffffff1663313ce5676040518163ffffffff1660e01b8152600401602060405180830381865afa15801561077c573d6000803e3d6000fd5b505050506040513d601f19601f820116820180604052508101906107a09190610ec2565b905060008373ffffffffffffffffffffffffffffffffffffffff1663313ce5676040518163ffffffff1660e01b8152600401602060405180830381865afa1580156107ef573d6000803e3d6000fd5b505050506040513d601f19601f820116820180604052508101906108139190610ec2565b90508060ff168260ff1611156108495761082d8183610ee5565b61083890600a61101e565b6108429086610e3f565b925061086b565b6108538282610ee5565b61085e90600a61101e565b6108689086610df9565b92505b50509392505050565b60006020828403121561088657600080fd5b81357fffffffff00000000000000000000000000000000000000000000000000000000811681146108b657600080fd5b9392505050565b73ffffffffffffffffffffffffffffffffffffffff8116811461009c57600080fd5b60008083601f8401126108f157600080fd5b50813567ffffffffffffffff81111561090957600080fd5b60208301915083602082850101111561092157600080fd5b9250929050565b6000806000806000806000806000806102608b8d03121561094857600080fd5b6109528b356108bd565b8a35995060208b0135610964816108bd565b985060408b0135975060608b0135965060808b0135955060a08b013567ffffffffffffffff8082111561099657600080fd5b6109a28e838f016108df565b909750955060c08d01359150808211156109bb57600080fd5b506109c88d828e016108df565b9094509250506101808b8d037fffffffffffffffffffffffffffffffffffffffffffffffffffffffffffffff20011215610a0157600080fd5b60e08b0190509295989b9194979a5092959850565b7f4e487b7100000000000000000000000000000000000000000000000000000000600052604160045260246000fd5b600060208284031215610a5757600080fd5b813567ffffffffffffffff80821115610a6f57600080fd5b818401915084601f830112610a8357600080fd5b813581811115610a9557610a95610a16565b604051601f82017fffffffffffffffffffffffffffffffffffffffffffffffffffffffffffffffe0908116603f01168101908382118183101715610adb57610adb610a16565b81604052828152876020848701011115610af457600080fd5b826020860160208301376000928101602001929092525095945050505050565b600080600080600080600060a0888a031215610b2f57600080fd5b8735610b3a816108bd565b96506020880135610b4a816108bd565b955060408801359450606088013567ffffffffffffffff80821115610b6e57600080fd5b610b7a8b838c016108df565b909650945060808a0135915080821115610b9357600080fd5b50610ba08a828b016108df565b989b979a50959850939692959293505050565b815173ffffffffffffffffffffffffffffffffffffffff16815261018081016020830151610bf9602084018273ffffffffffffffffffffffffffffffffffffffff169052565b506040830151610c21604084018273ffffffffffffffffffffffffffffffffffffffff169052565b50606083015160608301526080830151608083015260a0830151610c4d60a084018263ffffffff169052565b5060c083015160c083015260e083015160e083015261010080840151818401525061012080840151610c828285018215159052565b5050610140838101519083015261016092830151929091019190915290565b600060208083528351808285015260005b81811015610cce57858101830151858201604001528201610cb2565b5060006040828601015260407fffffffffffffffffffffffffffffffffffffffffffffffffffffffffffffffe0601f8301168501019250505092915050565b600060a08284031215610d1f57600080fd5b60405160a0810181811067ffffffffffffffff82111715610d4257610d42610a16565b6040528235610d50816108bd565b81526020830135610d60816108bd565b6020820152604083013563ffffffff81168114610d7c57600080fd5b6040820152606083810135908201526080928301359281019290925250919050565b600060208284031215610db057600080fd5b5051919050565b7f4e487b7100000000000000000000000000000000000000000000000000000000600052601160045260246000fd5b8082018082111561015257610152610db7565b808202811582820484141761015257610152610db7565b7f4e487b7100000000000000000000000000000000000000000000000000000000600052601260045260246000fd5b600082610e4e57610e4e610e10565b500490565b600063ffffffff80841680610e6a57610e6a610e10565b92169190910492915050565b63ffffffff818116838216028082169190828114610e9657610e96610db7565b505092915050565b63ffffffff818116838216019080821115610ebb57610ebb610db7565b5092915050565b600060208284031215610ed457600080fd5b815160ff811681146108b657600080fd5b60ff828116828216039081111561015257610152610db7565b600181815b80851115610f5757817fffffffffffffffffffffffffffffffffffffffffffffffffffffffffffffffff04821115610f3d57610f3d610db7565b80851615610f4a57918102915b93841c9390800290610f03565b509250929050565b600082610f6e57506001610152565b81610f7b57506000610152565b8160018114610f915760028114610f9b57610fb7565b6001915050610152565b60ff841115610fac57610fac610db7565b50506001821b610152565b5060208310610133831016604e8410600b8410161715610fda575081810a610152565b610fe48383610efe565b807fffffffffffffffffffffffffffffffffffffffffffffffffffffffffffffffff0482111561101657611016610db7565b029392505050565b60006108b660ff841683610f5f56fea26469706673582212200c44b326291381ee4ba486b7a4e1347f461d327624ed67d5ca668becc2f1695b64736f6c63430008130033",
    "linkReferences": {}
  },
  "methodIdentifiers": {
    "getTradeableOrder(address,address,bytes32,bytes,bytes)": "b8296fc4",
    "supportsInterface(bytes4)": "01ffc9a7",
    "validateData(bytes)": "a6ffa36c",
    "verify(address,address,bytes32,bytes32,bytes32,bytes,bytes,(address,address,address,uint256,uint256,uint32,bytes32,uint256,bytes32,bool,bytes32,bytes32))": "14a2a784"
  },
  "id": 146
}